:100000000C940D010C9435010C9435010C944B119A
:100010000C9475110C949F110C9435010C943501BE
:100020000C9435010C9435010C9435010C94350178
:100030000C9435010C9435010C9435010C94350168
:100040000C94FB190C9435010C943B150C948915F8
:100050000C9435010C9435010C9435010C94350148
:100060000C9435010C9435014669726D77617265A7
:100070002056657273696F6E0048617264776172B1
:10008000652056657273696F6E20616E64205479C5
:10009000706500777269746520656570726F6D00B8
:1000A0007265616420656570726F6D0063726320B4
:1000B0006572726F72000A526563656976696E6770
:1000C000200A000A53656E64696E670A00706172E7
:1000D00073696E672066726F6D2061636B7761690B
:1000E00074200053656E64696E672041434B206F36
:1000F000722042726F61646361737400526563655C
:10010000697665642041434B0070617273696E6764
:100110002066726F6D206C6F6F702E2E2E0000C2E5
:1001200001000100110011000C0000E100000A00B4
:100130002500250021000096000019003900390033
:100140003600127A00001F0046004600440080700E
:10015000000022004D004D004A00004B0000360018
:10016000750075007200403800004A009C009C0039
:100170009900802500007200EC00EC00E900C0123C
:100180000000E900DA01DA01D70160090000D701B7
:10019000B603B603B303B0040000B3036E076E07E3
:1001A0006B07580200006E07DC0EDC0ED80E2C0127
:1001B0000000DC0EC11DC11DBE1D0000000024009A
:1001C00027002A0000000000250028002B00000066
:1001D000000023002600290004040404040404048D
:1001E00002020202020203030303030301020408E2
:1001F0001020408001020408102001020408102091
:1002000000000007000201000003040600000000D7
:10021000000000008704FA16800411241FBECFEFEF
:10022000D8E0DEBFCDBF11E0A0E0B1E0EAEFF7E338
:1002300002C005900D92A438B107D9F715E0A4E8E3
:10024000B1E001C01D92A236B107E1F712E0C8E1AA
:10025000D2E004C02297FE010E94B51BC431D10731
:10026000C9F70E94C7180C94F01B0C940000FB0106
:10027000DC0102C001900D9241505040D8F7089522
:10028000DC0101C06D9341505040E0F70895AEE0AD
:10029000B0E0EDE4F1E00C94C71B0D891E8986E007
:1002A0008C831A8309838FEF9FE79E838D839E0142
:1002B000275E3F4FCE0101966F89788DA9010E947C
:1002C0006B012F813885020F131FF80110822E96C3
:1002D000E4E00C94E31BABE0B0E0E1E7F1E00C9468
:1002E000B91B3C012B015A01FC0117821682838144
:1002F00081FD03C06FEF7FEFC6C19AE0892E1E011A
:100300000894211C311CF3012381F20123FD859106
:1003100023FF81912F01882309F4B2C1853239F47A
:1003200023FD859123FF81912F01853229F490E0EF
:10033000B3010E945E03E7CF982FFF24EE24992497
:10034000FFE1FF15D0F09B3269F09C3228F4903227
:1003500059F0933291F40EC09D3249F0903369F414
:1003600041E024C052E0F52A84E0F82A28C098E051
:10037000F92A25C0E0E1FE2A22C0F7FC29C0892F16
:1003800080538A3070F4F6FE05C0989C902C11249E
:10039000980E15C0E89CE02C1124E80EF0E2FF2A2C
:1003A0000EC09E3229F4F6FC6BC140E4F42A07C06B
:1003B0009C3619F450E8F52A02C0983649F4F20147
:1003C00023FD959123FF91912F01992309F0B8CF37
:1003D000892F8554833018F08052833038F444E0FC
:1003E00050E0A40EB51E5FE359830FC0933631F081
:1003F000933779F0933509F056C020C0F50180811C
:10040000898342E050E0A40EB51E610101E010E0D6
:1004100012C0F501C080D180F6FC03C06FEF7FEF02
:1004200002C0692D70E042E050E0A40EB51EC60186
:100430000E9453038C015FE7F52214C0F501C080D0
:10044000D180F6FC03C06FEF7FEF02C0692D70E032
:1004500042E050E0A40EB51EC6010E9448038C0184
:1004600050E8F52AF3FE07C01AC080E290E0B3011D
:100470000E945E03EA948E2D90E008171907A8F3F6
:100480000EC0F601F7FC8591F7FE81916F0190E0B7
:10049000B3010E945E03E110EA940150104001157F
:1004A000110579F7EAC0943611F0993669F5F7FE2F
:1004B00008C0F501208131814281538184E090E0C0
:1004C0000AC0F501808191819C01442737FD409548
:1004D000542F82E090E0A80EB91E9FE6F92257FF44
:1004E00009C050954095309521953F4F4F4F5F4F34
:1004F000E0E8FE2ACA01B901A1012AE030E00E9429
:100500008A03D82ED21840C0953729F41F2D1F7E9C
:100510002AE030E01DC01F2D197F9F3661F0903713
:1005200020F4983509F0ACC00FC0903739F09837F7
:1005300009F0A6C004C028E030E00AC0106114FD34
:10054000146020E130E004C014FD166020E132E0C8
:1005500017FF08C0F501608171818281938144E0B9
:1005600050E008C0F50180819181BC0180E090E0FD
:1005700042E050E0A40EB51EA1010E948A03D82ECD
:10058000D2188FE7F82EF122F6FE0BC05EEFF522AF
:10059000D91438F4F4FE07C0F2FC05C08FEEF8223F
:1005A00002C01D2D01C0192DF4FE0DC0FE01ED0D80
:1005B000F11D8081803319F499EEF92208C01F5F84
:1005C000F2FE05C003C08F2D867809F01F5F0F2D46
:1005D000F3FC14C0F0FE0FC01E1510F09D2C0BC0D4
:1005E0009D2C9E0C911A1E2D06C080E290E0B30156
:1005F0000E945E031F5F1E15C0F304C01E1510F499
:10060000E11A01C0EE2404FF0FC080E390E0B301C3
:100610000E945E0302FF1DC001FD03C088E790E059
:100620000EC088E590E00BC0802F867891F001FF26
:1006300002C08BE201C080E2F7FC8DE290E0B301E2
:100640000E945E0306C080E390E0B3010E945E0357
:100650009A94D914C0F3DA94F101ED0DF11D808163
:1006600090E0B3010E945E03DD20A9F706C080E29E
:1006700090E0B3010E945E03EA94EE20C1F743CEFE
:10068000F30166817781CB012B96E2E10C94D51BB7
:10069000FC010590615070400110D8F7809590954D
:1006A0008E0F9F1F0895FC01615070400190011052
:1006B000D8F7809590958E0F9F1F08950F931F93E5
:1006C000CF93DF938C01EB018B8181FF1BC082FFF5
:1006D0000DC02E813F818C819D812817390764F4DC
:1006E000E881F9810193F983E88306C0E885F985FB
:1006F000802F0995892B31F48E819F8101969F83EC
:100700008E8302C00FEF1FEFC801DF91CF911F91C1
:100710000F910895FA01AA27283051F1203181F173
:10072000E8946F936E7F6E5F7F4F8F4F9F4FAF4FF9
:10073000B1E03ED0B4E03CD0670F781F891F9A1F0C
:10074000A11D680F791F8A1F911DA11D6A0F711DC0
:10075000811D911DA11D20D009F468943F912AE0CC
:10076000269F11243019305D3193DEF6CF010895B4
:10077000462F4770405D4193B3E00FD0C9F7F6CFE5
:10078000462F4F70405D4A3318F0495D31FD4052AD
:10079000419302D0A9F7EACFB4E0A6959795879543
:1007A00077956795BA95C9F7009761057105089522
:1007B0009B01AC010A2E06945795479537952795CE
:1007C000BA95C9F7620F731F841F951FA01D089566
:1007D000809124028F3F19F484E180932402809158
:1007E000250290912602A0912702B09128028F5FE6
:1007F0009F4FAF4FBF4F29F0EAE2F2E028E291E0CD
:100800000DC081E090E0A0E0B0E0809325029093DD
:100810002602A0932702B0932802EECF83818F3F58
:1008200009F4238380818F3F09F4108281818F3FF7
:1008300009F4118282818F3F09F49283349682E019
:10084000EA34F80759F70895089580E090E0089594
:100850008130910509F04AC06F5F7F4F09F04FC0AA
:1008600084E891E065E375E042E00E94F10B8AE4E0
:1008700092E06EE040E021E00E94FB1483E692E00B
:100880006FE040E021E00E94FB148CE792E060E121
:1008900040E021E00E94FB1485E992E061E140E044
:1008A00021E00E94FB148EEA92E062E140E021E048
:1008B0000E94FB1487EC92E063E140E021E00E949B
:1008C000FB1480EE92E063E040E021E00E94FB1424
:1008D00089EF92E067E040E021E00E94FB1483E4AE
:1008E00091E090931303809312030895892B39F4B8
:1008F0006F5F7F4F21F484E891E00E94FE0B089522
:1009000080E090E06FEF7FEF0E942804089581E07F
:1009100090E06FEF7FEF0E94280408952F923F929E
:100920004F925F926F927F928F929F92AF92BF92FF
:10093000CF92DF92EF92FF920F931F93DF93CF93AB
:10094000CDB7DEB7A1970FB6F894DEBF0FBECDBF0F
:1009500044E2E42E42E0F42E00E010E00F5F1F4F6F
:100960008CEA94E0B8010E946714F70181937F013B
:100970000632110599F70E94E803DE011196E9E4B9
:10098000F1E088E001900D928150E1F76E0108944A
:10099000C11CD11C3BE2E32E32E0F32E0AE412E04C
:1009A00029E0A22EB12CAC0EBD1E94E1292E312CD3
:1009B000412C512C8AEF682E712C812C912CC50171
:1009C000F6016081F701408121810E94FB14D8016A
:1009D000F50189E101900D928150E1F7F801238240
:1009E0003482458256826782708681869286F701BC
:1009F0008281FAE08F9FC0011124AA2797FDA0955C
:100A0000BA2FF80183879487A587B6870894C11CFD
:100A1000D11C84E090E0E80EF91E075E1F4FCA1457
:100A2000DB0469F6A1960FB6F894DEBF0FBECDBF0A
:100A3000CF91DF911F910F91FF90EF90DF90CF90BA
:100A4000BF90AF909F908F907F906F905F904F90EE
:100A50003F902F9008954F925F926F927F928F9266
:100A60009F92AF92BF92CF92DF92EF92FF920F933D
:100A70001F93CF93DF930E94431A6B017C01EAE43A
:100A80008E2EE2E09E2EC4E1D3E07CE2A72E73E03E
:100A9000B72E6CE1662E63E0762E00E010E059E19F
:100AA000452E512C049DC001059D900D149D900D67
:100AB0001124865B9D4F0E947A14F40180819181FC
:100AC000009781F1F30191838083019759F4488164
:100AD0004F5F48838091220290912302602F23E090
:100AE0000E947609F4018081918102975CF048812F
:100AF0004F5F48838091220290912302602F21E072
:100B00000E947609F4018081918197FF52C088810B
:100B10008F5F88830E94431AF5016083718382830B
:100B200093832CC0F3018081918197FF42C0F4012F
:100B30008281813069F5F50180819181A281B38143
:100B4000A7019601281B390B4A0B5B0BDA01C9017F
:100B50008C529140A040B04060F1C114D104E10436
:100B6000F10429F481E090E0A0E0B0E002C0D701F8
:100B7000C601F50180839183A283B3838091220211
:100B800090912302602F488123E00E94760911C0D2
:100B90008091220290912302602F488120E00E94E0
:100BA0007609F5011082118212821382F3011182FB
:100BB00010820F5F1F4F29E130E0820E931E2196B5
:100BC00044E050E0A40EB51E82E090E0680E791E6D
:100BD0000830110509F066CFDF91CF911F910F9179
:100BE000FF90EF90DF90CF90BF90AF909F908F904D
:100BF0007F906F905F904F900895682F809155037C
:100C000090915603009721F04AE050E00E944C1862
:100C100008951F9310E0809155039091560300971B
:100C200021F060E071E00E94B118812F0E94FD0563
:100C30008091550390915603009721F06FE071E089
:100C40000E94B1188091550390915603009721F0AE
:100C50006FE071E00E94B1181F5F1830E1F61F913C
:100C600008950F931F9385E060E00E948C1A86E040
:100C700061E00E948C1A82E061E00E948C1A82E09E
:100C800060E00E94CB1A88E062E00E948C1A8DE03E
:100C900061E00E948C1A8CE190E00E94F819182FF4
:100CA000092F65E046E020E00E943914812F902F43
:100CB00040E05BE460E070E00E94C91110935503CE
:100CC0000093560385E395E040E05BE460E070E06C
:100CD00026E20E94C41585E395E062E171E00E947E
:100CE000B41882E193E00E948E0487E090E00E94B5
:100CF000F819182F092F62E173E044E851E026E863
:100D00000E94E6081093220200932302809155036B
:100D100090915603009721F06DE171E00E94B118A7
:100D2000809122029091230260E00E94B0090E940B
:100D300009061F910F910895CF93DF93C0E0D0E093
:100D40008091220290912302BE014FEF20E00E9489
:100D5000F9082196C632D10599F70E94E803DF9180
:100D6000CF910895EF92FF920F931F930E94431A21
:100D70007B018C0188E00E941F1B20E0892B09F475
:100D800021E080915003823009F445C0833030F473
:100D9000882371F0813009F09EC00FC0843009F4BF
:100DA0006BC0843008F43CC0853009F094C084C026
:100DB000222309F452C081E04CC0809151039091EC
:100DC0005203A0915303B0915403222381F0A80150
:100DD0009701281B390B4A0B5B0BDA01C9018958B3
:100DE0009341A040B0400CF476C082E062C0B801EC
:100DF000A701481B590B6A0B7B0B45365105610552
:100E000071050CF463C0809122029091230260E08E
:100E10000E94B0095BC0222309F05DC083E019C0C5
:100E20008091510390915203A0915303B0915403C8
:100E3000B801A701481B590B6A0B7B0BDB01CA01E8
:100E400044365105610571050CF445C0222371F04B
:100E500084E0809350030E94FD05E0925103F092DC
:100E60005203009353031093540335C081519742AA
:100E7000A040B04084F12AC0809151039091520368
:100E8000A0915303B0915403B801A701481B590B1B
:100E90006A0B7B0BDB01CA01443651056105710504
:100EA000D4F0222399F0895B9B40A040B0409CF095
:100EB00085E0809350030DC0222369F40E949C06B4
:100EC00080912202909123020E94150910925003F2
:100ED00080E00E94FD0580915003853040F482300F
:100EE00090F4882341F0813009F048C007C0853074
:100EF00009F044C01CC08DE060E002C08DE061E0FC
:100F00000E94CB1A3BC080914C0390914D03A0915D
:100F10004E03B0914F03A8019701281B390B4A0BD0
:100F20005B0B253631054105510544F115C0809113
:100F30004C0390914D03A0914E03B0914F03B80123
:100F4000A701481B590B6A0B7B0BDB01CA018F5EA3
:100F50009240A040B04094F08DE00E941F1B60E0E2
:100F6000892B09F461E08DE00E94CB1AE0924C03DA
:100F7000F0924D0300934E0310934F031F910F9176
:100F8000FF90EF90089584E891E00E9470100E9415
:100F9000B2060E942B050895FC0185E591E091833E
:100FA000808308950F931F938C01DC011396ED91BC
:100FB000FC91149784E0818B1396ED91FC9114972A
:100FC00089E6828B1396ED91FC911497638B1596AD
:100FD0000D90BC91A02DED91FC9111970280F381B1
:100FE000E02DCD010995D8011396ED91FC91149750
:100FF000948B1396ED91FC911497858B1F910F9113
:101000000895FF920F931F938C01F62EFC01A5818A
:10101000B681ED91FC9111970190F081E02DCD0109
:101020000995C8016F2D0E94D2071F910F91FF9063
:101030000895CF92DF92EF92FF920F931F93DF9369
:10104000CF93CDB7DEB764970FB6F894DEBF0FBE6F
:10105000CDBF8B012DB73EB7285030400FB6F89466
:101060003EBF0FBE2DBFEDB6FEB60894E11CF11CCD
:101070006E010894C11CD11CADB7BEB71296DC92AC
:10108000CE92119723E231E0F70133832283DC0112
:101090001396ED91FC9114976085718582859385F7
:1010A00020E836E948E950E00E94911BF70164838B
:1010B0007583868397830E94470188E4D8018C93C7
:1010C00082E411968C93119787E512968C93129770
:1010D0001396F60187E001900D928150E1F7EDB78C
:1010E000FEB738960FB6F894FEBF0FBEEDBF6496FC
:1010F0000FB6F894DEBF0FBECDBFCF91DF911F9129
:101100000F91FF90EF90DF90CF900895AF92BF9234
:10111000CF92DF92EF92FF920F931F93CF93DF93C3
:101120005C01DC011396ED91FC91149710861186F9
:1011300012861386CCEFD3E0F501C380D480D601AC
:101140001896ED90FD900D911C911B97102F0F2D6F
:10115000FE2CEE24F601E086F186028713878CEAE6
:1011600094E0BE010E94671490E0A0E0B0E08E29F8
:101170009F29A02BB12BF60180879187A287B38787
:101180002196F4E0C030DF07B9F6D5011396ED9152
:10119000FC91149780859185A285B3858F5F9F4FC1
:1011A000AF4FBF4F41F48FEF9FEFAFEFB2E48087B7
:1011B0009187A287B387DF91CF911F910F91FF9005
:1011C000EF90DF90CF90BF90AF900895FC01DA01CF
:1011D00085E591E09183808376836583548343839F
:1011E0001396FC93EE9312972283CF010E948608F8
:1011F00008951F93CF93DF93EB01142F222321F443
:1012000083E06C3F78076CF48CEA94E0BE010E94A6
:101210006714181731F08CEA94E0BE01412F0E9448
:101220006E14DF91CF911F910895EF92FF920F936B
:101230001F93CF93DF937C01DC011396CD91DC915A
:10124000149788859985AA85BB858F5F9F4FAF4F7F
:10125000B24409F044C00E94431A688779878A879C
:101260009B878091550390915603009721F069E286
:1012700071E00E94B118D7011396ED91FC9114977B
:101280004085518562857385809155039091560301
:10129000009721F02AE030E00E943D18C0E0D0E045
:1012A0000FEF13E0D7011396ED91FC911497208571
:1012B0003185428553850C2E04C056954795379548
:1012C00027950A94D2F7C701B801422F21E00E9466
:1012D000F908289601501040C032D10519F7DF9166
:1012E000CF911F910F91FF90EF9008950F931F934F
:1012F0008C01DC011396ED91FC9114978FEF9FEF19
:10130000AFEFBFEF84879587A687B78788EF808B7D
:10131000D8011396ED91FC91149784E0818B13967C
:10132000ED91FC9114978BE4828B1396ED91FC91D7
:101330001497638B1396ED91FC911497148A13966E
:10134000ED91FC911497440F440F240F258B1396B5
:101350008D919C9114970E947A0F1F910F9108957F
:101360000F931F938C01DC011396ED91FC91149760
:101370008FEF9FEFAFEFBFEF84879587A687B78783
:1013800088EF808BD8011396ED91FC91149780E142
:10139000818B1396ED91FC91149781E4828B1396C7
:1013A000ED91FC911497638B1396ED91FC9114973A
:1013B00012968C911297848B1396ED91FC91149751
:1013C000158A1396ED91FC91149783E0868B139602
:1013D000ED91FC91149786E0878B13966D917C912B
:1013E0001497685E7F4FC8010E941908F801838135
:1013F00094810E947A0F1F910F9108952F923F922E
:101400004F925F926F927F928F929F92AF92BF9214
:10141000CF92DF92EF92FF920F931F93CF93DF93C0
:101420006C01EB011B818C81D6011396ED91FC912F
:101430001497282F2695269526952C5F218B2450CE
:10144000282E3324C10187709070892B11F02B5FF7
:10145000218B41899F012E5E3F4FC90160E070E002
:1014600050E00E944001D6011396ED91FC91149733
:1014700085E6828B8981838B8A81848B8B81858BA6
:10148000A12EBB2400E010E0EE24FF24250131E072
:10149000632E712C812C912C34C0BE016E0D7F1DEA
:1014A0008CEA94E00E9467148F3F01F1D6011396F5
:1014B000ED91FC911497C80123E0959587952A95A5
:1014C000E1F70496E80FF91FC80187709070A40136
:1014D000930104C0220F331F441F551F8A95D2F772
:1014E000DA01C9012289282B228B04C02196C41558
:1014F000D5059CF20F5F1F4FEA0CFB1C201631062E
:101500001CF0C0E0D0E0F3CFDF91CF911F910F919D
:10151000FF90EF90DF90CF90BF90AF909F908F9013
:101520007F906F905F904F903F902F9008959F9283
:10153000AF92BF92CF92DF92EF92FF920F931F93E1
:10154000CF93DF935C017B01D42E222309F034C1B9
:10155000DC011396ED91FC91149784819581A6810D
:10156000B78184879587A687B78788E7808BDB015B
:101570008C91833509F48CC08435A8F4853409F442
:1015800054C0863448F4813409F40EC18334F1F137
:10159000803409F003C11DC08B3409F405C18235C4
:1015A00009F0FCC046C08E3609F4BEC08F3638F450
:1015B000873509F474C0883609F0F0C0A1C08637B9
:1015C00009F4C6C0883709F4D9C0833709F0E6C0EA
:1015D000B7C0FB0181818136A9F4F6E04F1791F481
:1015E0008B01CCEFD3E0C501BE01D80112964C911E
:1015F00021E00E94F9080F5F1F4F2196B4E0C03030
:10160000DB0789F7C5010E948608C8C0D501159679
:10161000ED91FC911697A081B18114962D913C918A
:101620001597CF01F9010995B9C0C5010E94FE09BE
:10163000ADC0B4E04B1709F0B1C080915503909153
:101640005603009721F060EA70E00E947A17F701D4
:10165000918180E02281C22EDD24C82AD92A9924D2
:101660000DC0092D10E0B8016C0D7D1D8CEA94E0D1
:101670000E946714C00FD11F8A8B9394D7011396D1
:101680008C91F501C381D481981658F3898B7EC063
:10169000C501DB0111966C910E94D20785C0242FF1
:1016A00030E0FB01838190E004962817390709F0A8
:1016B00075C08091550390915603009721F063E91E
:1016C00070E00E947A17D70111969C91119780E0E3
:1016D00012962C91C22FD0E0C82BD92B870144E061
:1016E000F42E0BC0C501BE01F801448120E00E9428
:1016F000F908F3940F5F1F4F2196FD1498F34EC025
:101700008091550390915603009721F069E770E0AE
:101710000E947A17D5011396ED91FC9114971296B9
:101720008C91828B81E026C07296C501BF010E9418
:101730001908D5011396ED91FC9114978AE01CC00D
:10174000FB014281C501618150E00E94010826C071
:101750008091550390915603009721F068E670E060
:101760000E947A17D5011396ED91FC91149783E0AE
:10177000828B86E0838B82E0818B08C0FB014281F3
:10178000C501618150E00E9401080EC0D501139689
:101790008D919C9114970E947A0F0EC0F501838160
:1017A00094810E94051008C0D5011396ED91FC911B
:1017B000149789E6828BEACFDF91CF911F910F9129
:1017C000FF90EF90DF90CF90BF90AF909F900895E3
:1017D000FC0185E591E091838083CF010E94F5199A
:1017E0000895FC018FE591E091838083EE5AFF4FCD
:1017F000619371934083329610820895FC018FE5C6
:1018000091E0918380830895FF920F931F93CF936C
:10181000DF93EC01F62E062F10E080915503909196
:101820005603009751F0B80124E0759567952A9505
:10183000E1F740E150E00E949E188091550390919D
:101840005603009739F00F701070B80140E150E076
:101850000E949E188091550390915603009721F0A5
:1018600069E371E00E94B1188F2D8C5F833080F4A2
:10187000CE5ADF4FE881F981C255D040A081B181B5
:101880002D913C91CF016CEFF90109958FE7F8227A
:10189000CE5ADF4FE881F981A081B1812D913C9131
:1018A000CF016F2DF9010995DF91CF911F910F9114
:1018B000FF900895BC0180915503909156030097C5
:1018C00011F00E947A1708956F927F928F929F92E3
:1018D000AF92BF92CF92DF92EF92FF920F931F933E
:1018E000CF93DF938C0142E5A42EB12CA80EB91E34
:1018F00035E5C32ED12CC80ED91E22E0822E20E160
:10190000922E66246A9494E0E92E89E0782E68C1CC
:10191000D501ED91FC91A081B18116962D913C915C
:101920001797CF01F9010995F82EBDEF8B1721F418
:1019300086EB90E00E945A0CCF2DD0E080915503A9
:1019400090915603009751F0BE01B4E075956795EC
:10195000BA95E1F740E150E00E949E18809155034E
:1019600090915603009739F0CF70D070BE0140E1DE
:1019700050E00E949E188091550390915603009765
:1019800021F069E371E00E94B118ECEFFE1639F422
:10199000D6018C9181FD03C082608C9321C18F2D73
:1019A0008D5F8230E8F5F092A703F60180818160B7
:1019B0008D7F808310925A031092590310929E03D8
:1019C00010929F031092A0031092A1031092A30300
:1019D0001092A4031092A5031092A6035F2D2FEF7F
:1019E0003FEF40E0C901880F991F57FD816037FD27
:1019F00002C09C0103C09C01282539254F5F483057
:101A000011F0550FEFCF3093580320935703FDEF9C
:101A1000FF1609F0E5C0E0925C0370925B03E0C042
:101A2000D6018C9180FFDCC081FF05C0B0E8FB2AA5
:101A30008D7FF601808320915703309158035F2DED
:101A400040E0C901880F991F57FD816037FD02C032
:101A50009C0103C09C01282539254F5F483011F0B7
:101A6000550FEFCF309358032093570360915903DC
:101A700080915C036817E8F42091A3033091A403DC
:101A80004091A5035091A603542F432F322F2227B4
:101A90008F2D90E0A0E0B0E0822B932BA42BB52BF0
:101AA0008093A3039093A403A093A503B093A603EC
:101AB0002CC0681731F46F5F60935903F092A20352
:101AC0008FC05091A20353FF24C080915B0368171D
:101AD00000F520919E0330919F034091A003509107
:101AE000A103542F432F322F22278F2D90E0A0E007
:101AF000B0E0822B932BA42BB52B80939E03909365
:101B00009F03A093A003B093A1036F5F6093590359
:101B100067C06F3F29F060925903F0929D0360C047
:101B200040915A03E42FF0E0CDE5D3E0EC0FFD1F28
:101B3000F082942F9F5F90935A0380919D03981792
:101B400009F04EC0232B09F047C0F801EB5AFF4FB4
:101B500080818E7F808304561F4F8091A703D80118
:101B60008C93055410408091A3039091A403A091FD
:101B7000A503B091A603F80180839183A283B38368
:101B80000A5B1F4FD8015C930D59104080919E0352
:101B900090919F03A091A003B091A103F8018483C9
:101BA0009583A683B7834150055A1F4FD8014C93A4
:101BB0000B5510409801245A3F4FC901BE0150E017
:101BC0000E94370110925A03109259030A5A1F4F6C
:101BD00081E0F801808313C08CEA90E00E945A0CE7
:101BE000D501ED91FC91A081B18114962D913C918C
:101BF0001597CF01F9010995892B09F089CEDF915D
:101C0000CF911F910F91FF90EF90DF90CF90BF90F9
:101C1000AF909F908F907F906F9008958F929F923A
:101C2000AF92BF92CF92DF92EF92FF920F931F93EA
:101C3000CF93DF937C01FC0184859585A685B785CC
:101C40008F5F9F4FAF4FBF4FC9F02DE930E0E20EDD
:101C5000F31ED7018C91E3E6FFEFEE0EFF1E90E03E
:101C60009595879583708295880F807ED7015096D1
:101C70002C9150972F79822B50968C9383EC90E087
:101C80000E945A0CE4E5F0E0EE0EFF1ED7018C91A5
:101C900061E00E94CB1AD701FE91EE917D012EEA00
:101CA0003FEFE20EF31EA081B1812D913C91CF0157
:101CB0006DEFF9010995CFEFDFEF3DEF20E042E056
:101CC00050E1CE01880F991F37FD8160D7FD02C01A
:101CD000EC0103C0EC01C427D5272F5F283011F099
:101CE000330FEFCFD7011C96AD90BD90CD90DC9017
:101CF0001F9710E002E0802E00E1902E2D2D33275B
:101D000044275527022FC701622F0E94040C20E0B0
:101D1000CE01880F991F07FD8160D7FD02C0EC013D
:101D200003C0EC01C825D9252F5F283011F0000F22
:101D3000EFCF1F5F143029F0DC2CCB2CBA2CAA2457
:101D4000DDCFC701F70160890E94040CD7015096CE
:101D50004C91342F20E062E070E1CE01880F991F92
:101D600037FD8160D7FD02C0EC0103C0EC01C6273E
:101D7000D7272F5F283011F0330FEFCF43FF2DC04F
:101D8000F701A084B184C284D38410E052E0852E90
:101D900050E1952E2D2D332744275527022FC701BB
:101DA000622F0E94040C20E0CE01880F991F07FDCE
:101DB0008160D7FD02C0EC0103C0EC01C825D92524
:101DC0002F5F283011F0000FEFCF1F5F143029F084
:101DD000DC2CCB2CBA2CAA24DDCFD70151960C9148
:101DE0000E5FC701602F0E94040C20E042E050E12A
:101DF000CE01880F991F07FD8160D7FD02C0EC015D
:101E000003C0EC01C427D5272F5F283031F4DD242F
:101E1000F2E0AF2EF0E1BF2E20C0000FE9CF870126
:101E20000D0D111DC701F80162890E94040CD80133
:101E300052963C9120E0CE01880F991F37FD8160BA
:101E4000D7FD02C0EC0103C0EC01CA25DB252F5FE2
:101E5000283011F0330FEFCFD394F7018189D816D2
:101E6000F0F220E042E050E1CE01CC0FDD1F97FF01
:101E700002C0C427D5272F5F2830B1F720E042E009
:101E800050E1CE01CC0FDD1F97FF02C0C427D5273C
:101E90002F5F2830B1F7C7016D2F0E94040CC701D6
:101EA0006C2F0E94040C22E530E0E20EF31EF701D5
:101EB000A191B1917F01ED91FC9111970284F3857D
:101EC000E02DCD010995D7018D917D0160E00E9443
:101ED000CB1AF701808188608083DF91CF911F91B9
:101EE0000F91FF90EF90DF90CF90BF90AF909F90B9
:101EF0008F9008956F927F928F929F92AF92BF9230
:101F0000DF92EF92FF920F931F93CF93DF93EC0139
:101F10008C859D85AE85BF858F5F9F4FAF4FBF4F2F
:101F200021F0888983708130C9F483EE90E00E94AB
:101F30005A0C68898091550390915603009721F0BF
:101F400040E150E00E944C18CE010E940E0EFE01AE
:101F5000EB5AFF4F8081877F808349C0DD24A6E54F
:101F6000AA2EB12CAC0EBD1EF7E56F2E712C6C0E97
:101F70007D1EE5E58E2E912C8C0E9D1ECE010E94BD
:101F80000E0E0E94431A7B018C0122C0CE010E94DA
:101F9000640CF50180818823D9F0F301208131811F
:101FA0004281538188859985AA85BB852817390781
:101FB0004A075B0769F4F50110828DEC90E00E94FE
:101FC0005A0CCE010E940D10F401808183FF0FC0D6
:101FD0000E94431A6E197F09800B910B683C7105B2
:101FE0008105910598F2D394F3E0DF1639F6DF917D
:101FF000CF911F910F91FF90EF90DF90BF90AF9026
:102000009F908F907F906F900895FC0189E1808B65
:10201000118ACF010E947A0F08950F931F93CF93D7
:10202000DF93EC018C010B5A1F4FF801808183FF75
:1020300028C0C356DF4F2881CD59D04030E085E01D
:10204000359527958A95E1F72370888990E09595D5
:10205000879583702817A9F42C813D814E815F817B
:102060008C859D85AE85BF85281739074A075B0794
:1020700041F48CEF90E00E945A0CF8018081877F38
:102080008083C356DF4F8881CD59D0408370813023
:10209000F9F0C55ADF4F8881CB55D0408823D1F461
:1020A000C95ADF4F88819981AA81BB81C755D04029
:1020B0008F5F9F4FAF4FBF4F69F08C819D81AE8185
:1020C000BF818C879D87AE87BF87CE010E94051098
:1020D00080E001C081E0DF91CF911F910F910895C1
:1020E0000F931F93CF93DF93EC010E94640CFE01CA
:1020F000EA5AFF4F8081882309F440C01082C95AF0
:10210000DF4F288139814A815B81C755D04088855E
:102110009985AA85BB85281739074A075B0729F0E7
:102120002F5F3F4F4F4F5F4F49F589E091E00E948D
:102130005A0CCE010E940D10882301F14A815B8167
:10214000DA01ED91FC91BE01645A7F4F9E01255A40
:102150003F4F10E0C95ADF4F88819981AA81BB8126
:102160008F5F9F4FAF4FBF4F09F411E00190F08197
:10217000E02DCA01D9014C91212F0995DF91CF9112
:102180001F910F910895FC018FE591E09183808369
:10219000CF010E94F51908950F931F93CF93DF93FA
:1021A000DC015B967C915B97769571701E96ED9144
:1021B000FC911F971D969C911D97772329F0808194
:1021C000892309F463C004C08081892309F05EC0BB
:1021D00053968D919C91549720E001972FEF8F3F5C
:1021E0009207D9F75596CD91DC9156971E96ED91B1
:1021F000FC911F971D961C911D9760E031E040E017
:1022000050E000E0CE01202F01972FEF8F3F920783
:10221000D9F78081812311F0632B03C0832F809530
:102220006823330F4F5F5F4F4830510559F757967A
:102230008D919C91589720E0FC01322F31973FEF10
:10224000EF3FF307D9F701972FEF8F3F9207D9F7A9
:10225000711160958091AA042091AB048F5F90E08A
:1022600030E08217930761F0E091AA04F0E0E655B0
:10227000FC4F60838091AA048F5F8093AA0406C0FC
:102280005B968C915B9781605B968C93DF91CF918D
:102290001F910F9108951F920F920FB60F92112464
:1022A0002F933F934F935F936F937F938F939F935E
:1022B000AF93BF93EF93FF938091A8039091A903ED
:1022C000009711F00E94CC10FF91EF91BF91AF9158
:1022D0009F918F917F916F915F914F913F912F913E
:1022E0000F900FBE0F901F9018951F920F920FB670
:1022F0000F9211242F933F934F935F936F937F938C
:102300008F939F93AF93BF93EF93FF938091A80315
:102310009091A903009711F00E94CC10FF91EF91CA
:10232000BF91AF919F918F917F916F915F914F91ED
:102330003F912F910F900FBE0F901F9018951F92F5
:102340000F920FB60F9211242F933F934F935F93E9
:102350006F937F938F939F93AF93BF93EF93FF936D
:102360008091A8039091A903009711F00E94CC10CE
:10237000FF91EF91BF91AF919F918F917F916F915D
:102380005F914F913F912F910F900FBE0F901F9033
:102390001895CF92DF92EF92FF920F931F93CF93F6
:1023A000DF93EC017A018B011A8E198E188E1F8A29
:1023B0001E8A1D8A1C8A1B8A20E030E06901CC0C31
:1023C000DD1CC20ED31EB601660F771F660F771F86
:1023D000AB01425E5E4FFA0185919591A591B49152
:1023E0008E159F05A007B107E9F4FB01EE5DFE4FD6
:1023F000859194919C8B8B8BFB01EC5DFE4F8591BD
:1024000094919E8B8D8BFB01EA5DFE4F859194919B
:10241000988F8F8BFB01E85DFE4F859194919A8F89
:10242000898F06C02F5F3F4F2D30310509F0C6CF91
:102430008F89988D892B09F449C04C85463108F065
:102440003DC090916800483010F484E005C04E30E3
:1024500010F082E001C081E0892B80936800483051
:1024600028F4EDE6F0E0ADE6B0E00BC04E3028F029
:10247000ECE6F0E0ACE6B0E004C0EBE6F0E0ABE6A2
:10248000B0E05081483040F481E090E002C0880F15
:10249000991F4A95E2F710C0242F30E04E3018F40F
:1024A0002850304002C02E50304081E090E002C001
:1024B000880F991F2A95E2F7852B8C93898D9A8D29
:1024C00020E001972FEF8F3F9207D9F78091A80363
:1024D0009091A9038C179D0781F08B8D8E7F8B8F38
:1024E0009FB7F8941092AA048091AA048093AB0439
:1024F000D093A903C093A8039FBFDF91CF911F91F1
:102500000F91FF90EF90DF90CF9008952091A80356
:102510003091A9032817390731F49091AB048091C9
:10252000AA04981719F42FEF3FEF0DC0E091AB0408
:10253000F0E0E655FC4F90818091AB048F5F809373
:10254000AB04292F30E0C90108952091A8033091F0
:10255000A9032817390719F020E030E00BC080915B
:10256000AA049091AB04282F30E020503F4F291B44
:1025700031093070C9010895FF920F931F93DC0158
:1025800059968D919C915A97892B49F481E090E05E
:1025900013969C938E93129720E030E0DDC0FFB637
:1025A000F8945B968C915B975196ED91FC915297C4
:1025B00050962C91509781FFD4C08081822B8083CC
:1025C00059968D919C915A97059620E001972FEF8F
:1025D0008F3F9207D9F710E040E820E030E070E04C
:1025E000842F90E086239723892B09F01F5F46955F
:1025F0002F5F3F4F2830310599F75B968C915B97A1
:1026000081FF4FC031E040E050E000E0832F90E0D8
:10261000862397235196ED91FC91529750962C91D9
:102620005097892B29F0808120952823208303C08F
:102630008081822B808359968D919C915A97202F6F
:1026400001972FEF8F3F9207D9F7330F4F5F5F4FFF
:1026500048305105D9F65196ED91FC91529750961C
:102660002C91509710FF05C080812095282320834E
:1026700003C08081822B808359968D919C915A97BB
:1026800020E001972FEF8F3F9207D9F75196ED91F8
:10269000FC915297908150968C9150978095892308
:1026A0004DC031E040E050E000E0832F90E0862311
:1026B00097235196ED91FC91529750962C915097FB
:1026C000892B21F08081822B808304C0808120951A
:1026D0002823208359968D919C915A97202F0197FA
:1026E0002FEF8F3F9207D9F7330F4F5F5F4F48307F
:1026F0005105D9F65196ED91FC91529750962C9137
:10270000509710FF04C08081822B808304C0808199
:1027100020952823208359968D919C915A9720E0EB
:1027200001972FEF8F3F9207D9F75196ED91FC91CA
:102730005297808150969C915097892B8083FFBE41
:1027400059968D919C915A9720E001972FEF8F3FDA
:102750009207D9F721E030E0C9011F910F91FF9056
:10276000089580812095282320832ACF2091A803D3
:102770003091A9032817390749F49FB7F8941092AC
:10278000AA048091AA048093AB049FBF089520916E
:10279000A8033091A9032817390731F49091AB04AD
:1027A0008091AA04981719F42FEF3FEF0AC0E09127
:1027B000AB04F0E0E655FC4F8081282F332727FD3E
:1027C0003095C90108951F93CF93DF93EC01162F25
:1027D000862F60E00E948C1A8B8D81FD04C0812FB2
:1027E00061E00E94CB1A1C87212F30E0C90184517F
:1027F0009E4FFC0184918D8728523E4FF9016491D0
:10280000E62FF0E0EE0FFF1FE253FE4F859194910B
:102810009F878E87DF91CF911F910895FF920F932D
:102820001F938C01F62E862F61E00E948C1A8F2D4B
:1028300061E00E94CB1A8F2D90E0FC01E451FE4F25
:10284000E491D8015096EC93509788529E4FFC012A
:102850006491E62FF0E0EE0FFF1FEC53FE4F8591E1
:10286000949152969C938E9351971F910F91FF9044
:102870000895FF920F931F938C01F62EFC01138293
:10288000128288EE93E0A0E0B0E084839583A68373
:10289000B78387E691E091838083148A138A168A2E
:1028A000158A108E178A128E118E838D2170220F39
:1028B0008C7F822B838FC801642F0E940E14C80165
:1028C0006F2D0E94E3131F910F91FF900895F999C6
:1028D000FECF72BD61BDF89A80B50895F999FECF1B
:1028E0001FBA72BD61BD40BD0FB6F894FA9AF99A4D
:1028F0000FBE0895EF92FF920F931F93CF93DF9334
:10290000EC010E94431A7B018C018F850E941F1BE2
:10291000982F898B8889882329F4198A992311F49F
:1029200081E0898B99898A89981721F0ED8AFE8A3E
:102930000F8B188F8D899E89AF89B88DA80197015B
:10294000281B390B4A0B5B0B8B819C81AD81BE81AF
:1029500082179307A407B50764F499898A819817A9
:1029600041F09A83992329F08B899C8901969C8B4D
:102970008B8B8A818823C9F48D899E89AF89B88D14
:10298000A8019701281B390B4A0B5B0B8F81988597
:10299000A985BA8582179307A407B50734F48B89F4
:1029A0009C89998388831C8A1B8A8A818823D1F019
:1029B0008D899E89AF89B88DE81AF90A0A0B1B0B1D
:1029C0008B859C85AD85BE858E159F05A007B107BB
:1029D0004CF48B899C89909581959F4F998388832E
:1029E0001C8A1B8A89898A8BDF91CF911F910F9155
:1029F000FF90EF9008951F93CF93DF93EC01122F78
:102A00006F87488B80E0442309F481E0898B8A8BAF
:102A10001C8A1B8A198218821A821D8A1E8A1F8AA2
:102A2000188E84E190E0A0E0B0E08B839C83AD83BE
:102A3000BE838AEF90E0A0E0B0E08F839887A987FB
:102A4000BA8788EE93E0A0E0B0E08B879C87AD87E3
:102A5000BE878F8560E00E948C1A8889882331F4B4
:102A6000113021F48F8561E00E94CB1ADF91CF9164
:102A70001F91089508951F920F920FB60F9211247F
:102A80002F933F934F938F939F93EF93FF93809157
:102A9000C00082FD1DC04091C6002091ED04309120
:102AA000EE042F5F3F4F2F7330708091EF049091B1
:102AB000F0042817390771F0E091ED04F091EE046D
:102AC000E355FB4F40833093EE042093ED0402C0A6
:102AD0008091C600FF91EF919F918F914F913F910F
:102AE0002F910F900FBE0F901F901895E091410508
:102AF000F0914205E05CFF4F8191919120813181FD
:102B0000821B930B8F739070892B11F00E943A15E2
:102B100008951F920F920FB60F9211242F933F9397
:102B20008F939F93EF93FF9320913105309132055E
:102B300080913305909134052817390731F480913D
:102B4000C1008F7D8093C10014C0E0913305F091E6
:102B50003405EF50FB4F208180913305909134056F
:102B600001968F7390709093340580933305209372
:102B7000C600FF91EF919F918F913F912F910F9000
:102B80000FBE0F901F901895AF92BF92CF92DF9219
:102B9000EF92FF920F931F93CF93DF93EC017A0193
:102BA0008B01C22EDD24403081EE580780E068079B
:102BB00080E0780711F0DD24D39471E0A72EB12CCA
:102BC000EC89FD89DD2069F0C50108A002C0880FED
:102BD000991F0A94E2F7808360E079E08DE390E04A
:102BE00005C0108260E874E88EE190E0A8019701CA
:102BF0000E94911B215030404040504056954795CF
:102C00003795279580E12030380720F0DD2011F03E
:102C1000DD24D6CFE889F9893083EA89FB892083CE
:102C2000E88DF98DC082EE89FF89408121E030E096
:102C3000C9010C8C02C0880F991F0A94E2F7482B37
:102C40004083EE89FF894081C9010D8C02C0880F45
:102C5000991F0A94E2F7482B4083EE89FF8940814F
:102C6000C9010E8C02C0880F991F0A94E2F7482B05
:102C70004083EE89FF8980810F8C02C0220F331FB1
:102C80000A94E2F7209528232083DF91CF911F91AA
:102C90000F91FF90EF90DF90CF90BF90AF9008958D
:102CA000DC011C96ED91FC911D97E05CFF4F21919A
:102CB000319180819181281B390B2F733070C901AC
:102CC0000895DC011C96ED91FC911D97E05CFF4F8F
:102CD00020813181E054F040DF01AE5BBF4F8D9128
:102CE0009C9111972817390719F42FEF3FEF07C070
:102CF0008D919C91E80FF91F8081282F30E0C90148
:102D00000895DC011C96ED91FC911D97E05CFF4F4E
:102D100020813181E054F040DF01AE5BBF4F8D91E7
:102D20009C9111972817390719F42FEF3FEF10C026
:102D30008D919C911197E80FF91F20818D919C91A5
:102D4000119701968F73907011969C938E9330E03B
:102D5000C9010895DC0191968C919197882339F0EF
:102D60005496ED91FC915597808186FFF9CF91960D
:102D70001C920895CF93DF93EC01EE85FF85E05C14
:102D8000FF4F20813181E054F0402F5F3F4F2F7380
:102D90003070DF01AE5BBF4F8D919C91119728176A
:102DA0003907D1F3E05CFF4F80819181E054F0401E
:102DB000E80FF91F6083EE85FF85E05CFF4F3183EC
:102DC0002083EE89FF89208181E090E00F8C02C092
:102DD000880F991F0A94E2F7282B208381E089A3AA
:102DE000EC89FD8980818064808381E090E0DF91BF
:102DF000CF910895109238051092370588EE93E030
:102E0000A0E0B0E08093390590933A05A0933B058C
:102E1000B0933C0587E791E09093360580933505A4
:102E20008DEA94E0909342058093410581EF94E010
:102E3000909344058093430585EC90E0909346057C
:102E40008093450584EC90E0909348058093470576
:102E500080EC90E090934A058093490581EC90E0E6
:102E600090934C0580934B0582EC90E090934E0537
:102E700080934D0586EC90E09093500580934F052C
:102E800084E08093510583E08093520587E080932E
:102E9000530585E08093540581E08093550508959E
:102EA000CF92DF92EF92FF920F931F93CF93DF9316
:102EB0007C016B018A01C0E0D0E00FC0D6016D91AA
:102EC0006D01D701ED91FC910190F081E02DC701DA
:102ED0000995C80FD91F015010400115110571F750
:102EE000CE01DF91CF911F910F91FF90EF90DF9076
:102EF000CF900895EF92FF920F931F93CF93DF939C
:102F00007C018B01C0E0D0E0F8010F5F1F4F64919E
:102F1000662359F0D701ED91FC910190F081E02DED
:102F2000C7010995C80FD91FEFCFCE01DF91CF910F
:102F30001F910F91FF90EF900895EF92FF920F93E2
:102F40001F938C01DC01ED91FC910190F081E02D4B
:102F50006DE009957C01D801ED91FC910190F08123
:102F6000E02DC8016AE009959C012E0D3F1DC901A5
:102F70001F910F91FF90EF900895CF93DF93EC0195
:102F80006115710519F420E030E00FC0DB010D90F0
:102F90000020E9F71197A61BB70BE881F9810280A1
:102FA000F381E02DAD0109959C01C901DF91CF911D
:102FB00008954F925F927F928F929F92AF92BF92AD
:102FC000CF92DF92EF92FF920F931F93DF93CF93F5
:102FD000CDB7DEB7A1970FB6F894DEBF0FBECDBF59
:102FE0002C01742ECB01223008F42AE019A231E220
:102FF000C32ED12CCC0EDD1E822E9924AA24BB24F4
:10300000672D752FA50194010E94911B79018A01FA
:10301000C801B701A50194010E94721B472D461BF0
:103020000894C108D1084A3014F4405D01C0495CDD
:10303000F6014083E114F1040105110521F07E2C15
:103040005F2DC801DDCFC201B6010E94BD17A19658
:103050000FB6F894DEBF0FBECDBFCF91DF911F91A9
:103060000F91FF90EF90DF90CF90BF90AF909F9027
:103070008F907F905F904F900895DC01211531056E
:1030800041F4ED91FC910190F081E02D642F0995C0
:1030900008950E94D9170895EF92FF920F931F93FE
:1030A0009A01E62EFF2400E010E0B801A7010E947B
:1030B0003D181F910F91FF90EF900895CF92DF92EE
:1030C000EF92FF920F931F93CF93DF93EC016A016E
:1030D0007B012115310541F4E881F9810190F081EE
:1030E000E02D642F09951FC02A303105D1F477FFF8
:1030F00017C0E881F9810190F081E02D6DE209951A
:103100008C0144275527BA014C195D096E097F09C6
:10311000CE012AE00E94D9179801280F391F04C058
:103120002AE00E94D9179C01C901DF91CF911F911C
:103130000F91FF90EF90DF90CF900895EF92FF9264
:103140000F931F937B019A010027F7FC0095102F26
:10315000B801A7010E945E181F910F91FF90EF9098
:1031600008950E94BD170895EF92FF920F931F9349
:103170007C010E94BD178C01C7010E949D17080F9A
:10318000191FC8011F910F91FF90EF900895CF93E1
:10319000DF930E94511A0E943106C6E7D5E10E94D2
:1031A000C3072097E1F30E947615F9CF0F931F9381
:1031B000CF93DF93BC018230910510F462E070E0A0
:1031C000E0916005F0916105A0E0B0E040E050E0E2
:1031D00024C08081918186179707D0F086179707C2
:1031E00071F482819381109729F013969C938E93AA
:1031F00012972CC0909361058093600527C04115FC
:10320000510519F08417950718F4EF018D01AC01F1
:10321000DF01828193819C01F9013097D1F641153C
:103220005105F9F0CA01861B970B8430910580F493
:103230008A819B810115110521F0F8019383828316
:1032400004C09093610580936005FE0132962FC003
:10325000FE01E80FF91F61937193029799838883A8
:1032600026C08DB79EB78857904020913B01309182
:103270003C0128173907C8F4AC01421B530B461711
:10328000570798F0CB0102964817590770F0820F44
:10329000931F90933C0180933B0190933E01809358
:1032A0003D01F9016193719302C0E0E0F0E0CF01CC
:1032B000DF91CF911F910F910895CF93DF939C01E0
:1032C000009709F48FC0EC0122971B821A8260914B
:1032D0006005709161056115710581F4888199819E
:1032E000820F931F20913B0130913C012817390731
:1032F00039F5D0933C01C0933B0174C0DB0140E041
:1033000050E0AC17BD0708F1BB83AA83FE012191F1
:103310003191E20FF31FAE17BF0779F48D919C91A5
:103320001197280F391F2E5F3F4F3983288312963C
:103330008D919C9113979B838A834115510571F45C
:10334000D0936105C09360054DC012968D919C91FC
:103350001397AD01009711F0DC01D3CFDA0113967A
:10336000DC93CE931297FA0121913191E20FF31F72
:10337000CE17DF0769F488819981280F391F2E5FE6
:103380003F4FFA01318320838A819B81938382831B
:10339000E0E0F0E0DB0112968D919C91139700978D
:1033A00019F0BC01FD01F6CFAB014E5F5F4FDB01B1
:1033B0008D919C91840F951F20913B0130913C0190
:1033C0002817390779F4309729F410926105109283
:1033D000600502C0138212824250504050933C015B
:1033E00040933B01DF91CF9108950E945D190895AC
:1033F0000E94D61808951F920F920FB60F921124B3
:103400002F933F938F939F93AF93BF9380915B05CF
:1034100090915C05A0915D05B0915E0530915F05CE
:103420000196A11DB11D232F2D5F2D3720F02D57A3
:103430000196A11DB11D20935F0580935B059093BC
:103440005C05A0935D05B0935E0580915705909152
:103450005805A0915905B0915A050196A11DB11DBD
:103460008093570590935805A0935905B0935A053A
:10347000BF91AF919F918F913F912F910F900FBE70
:103480000F901F9018958FB7F89420915B0530919D
:103490005C0540915D0550915E058FBFB901CA0181
:1034A0000895789484B5826084BD84B5816084BDBC
:1034B00085B5826085BD85B5816085BDEEE6F0E0AD
:1034C000808181608083E1E8F0E010828081826009
:1034D0008083808181608083E0E8F0E0808181608A
:1034E0008083E1EBF0E0808184608083E0EBF0E0BA
:1034F000808181608083EAE7F0E08081846080835E
:103500008081826080838081816080838081806807
:1035100080831092C1000895CF93DF93482F50E02D
:10352000CA0184519E4FFC01349148525E4FFA010A
:103530008491882369F190E0880F991FFC01E6547B
:10354000FE4FA591B491FC01EC53FE4FC591D4916F
:10355000662351F42FB7F8948C91932F909589237B
:103560008C93888189230BC0623061F42FB7F89463
:103570008C91932F909589238C938881832B8883BA
:103580002FBF06C09FB7F8948C91832B8C939FBF5D
:10359000DF91CF910895482F50E0CA0180509E4F8F
:1035A000FC012491CA0184519E4FFC019491485220
:1035B0005E4FFA013491332309F440C0222351F1C4
:1035C000233071F0243028F42130A1F0223011F59D
:1035D00014C02630B1F02730C1F02430D9F404C033
:1035E000809180008F7703C0809180008F7D8093D1
:1035F000800010C084B58F7702C084B58F7D84BDF4
:1036000009C08091B0008F7703C08091B0008F7D9A
:103610008093B000E32FF0E0EE0FFF1FEC53FE4F5E
:10362000A591B4912FB7F894662321F48C919095CD
:10363000892302C08C91892B8C932FBF0895682F0A
:1036400070E0CB0180509E4FFC012491CB0184514E
:103650009E4FFC01449168527E4FFB019491992347
:1036600019F420E030E03CC0222351F1233071F006
:10367000243028F42130A1F0223011F514C0263076
:10368000B1F02730C1F02430D9F404C0809180001B
:103690008F7703C0809180008F7D8093800010C061
:1036A00084B58F7702C084B58F7D84BD09C08091B9
:1036B000B0008F7703C08091B0008F7D8093B00001
:1036C000892F90E0880F991F82539E4FFC01A5918E
:1036D000B4918C9120E030E0842311F021E030E0BF
:1036E000C9010895629FD001739FF001829FE00D90
:1036F000F11D649FE00DF11D929FF00D839FF00D71
:10370000749FF00D659FF00D9927729FB00DE11D1C
:10371000F91F639FB00DE11DF91FBD01CF011124F9
:103720000895A1E21A2EAA1BBB1BFD010DC0AA1F02
:10373000BB1FEE1FFF1FA217B307E407F50720F01A
:10374000A21BB30BE40BF50B661F771F881F991F95
:103750001A9469F760957095809590959B01AC01DE
:10376000BD01CF010895EE0FFF1F0590F491E02DEC
:1037700009942F923F924F925F926F927F928F9215
:103780009F92AF92BF92CF92DF92EF92FF920F93F0
:103790001F93CF93DF93CDB7DEB7CA1BDB0B0FB6FA
:1037A000F894DEBF0FBECDBF09942A8839884888B7
:1037B0005F846E847D848C849B84AA84B984C8844D
:1037C000DF80EE80FD800C811B81AA81B981CE0F44
:1037D000D11D0FB6F894DEBF0FBECDBFED01089529
:1037E00012E0C8E1D2E004C0FE010E94B51B22969F
:0A37F000CA31D107C9F7F894FFCFE2
:1037FA004368616E6E656C20202020203A20000DFF
:10380A000A00426F6F74696E672E2E2E0048756823
:10381A00750A002530376C750053657474696E67D4
:10382A00206E65772049443A003A00620564000038
:10383A00000000240425048E040E0F101112130335
:10384A000700000000970ACC07E80B00000000FE02
:10385A000BC31000000000BC125017A5128612C735
:10386A0013B61300000000BA1650175016811661DD
:04387A0016AA160074
:00000001FF
