:10780000112484B714BE81FF0FD185E080938100DD
:1078100082E08093C00088E18093C10086E280937B
:10782000C20087E68093C40089E2F8D0259A529A74
:107830008AE0DCD082E090E0A0E0B0E08093E40158
:107840009093E501A093E601B093E7018DEC9BEAEC
:10785000A0E0B0E08093E9019093EA01A093EB01EE
:10786000B093EC011092DD01CC24DD2412E0B12EA6
:10787000B5E09B2E77247394A1E18A2EF3E0AF2E1E
:107880000ED2813471F4A092E30109D2082FFCD208
:10789000023811F0013811F484E001C083E0E0D235
:1078A000A0C0823421F4B092E30184E105C08534A4
:1078B00029F4B092E30185E0EFD293C0853589F4D5
:1078C000B092E301ECD1E82EFF24E9D1082F10E0BB
:1078D000102F00270E291F29000F111FD5D2680174
:1078E00080C0863531F4A092E30184E0D5D280E0F7
:1078F000D6CF843609F042C0B092E301D0D1CFD1C7
:10790000082FCDD180E0C81680E7D80618F4F6011C
:10791000A7BEE895C0E0D2E0C2D189930C17E1F789
:10792000F0E0CF16F0E7DF0618F0F601A7BEE89505
:10793000ABD207B600FCFDCFA601A0E0B2E02C91CF
:1079400030E011968C91119790E0982F8827822B28
:10795000932B1296FA010C0177BEE89511244E5F25
:107960005F4FF2E0A038BF0751F7F60197BEE895E8
:1079700007B600FCFDCF87BEE89533C08437E1F43D
:107980008ED18DD1E82E8BD1F2E0EF0EE092E301A3
:107990008EEFE80E79D2F601FE2C8F010F5F1F4F9C
:1079A00084915ED2FA94F801C1F70894C11CD11CED
:1079B000EA94CE0CD11C15C0853749F49092E301AE
:1079C00063D28EE14DD285E94BD28FE068CF81350D
:1079D00029F4B092E30188E021D002C0B092E30123
:1079E00053D280E13DD24CCFA89508950F931F93B9
:1079F000CF93DF93182FC0E3DCEF01E0D093850035
:107A0000C093840006BBB09BFECF1D9AEDDF1150E2
:107A1000A9F7DF91CF911F910F910895E0E6F0E073
:107A200098E190838083089580E0F8DFEE27FF27B8
:107A30000994982F8091C00085FFFCCF9093C600D9
:107A400008951F93182F8C5F833018F48CEFF1DFAB
:107A50001F77812FEEDF1F9108958091C00087FF6F
:107A6000FCCF8091C00084FFBFDF8091C6000895E5
:107A700090E042E050E19B01220F331F87FD21601F
:107A800077FD02C0B90103C0B901642775279F5F64
:107A9000983011F0880FEFCFCB0108951F93DDDFF1
:107AA000182F8C3F31F48091F20181FD02C0826079
:107AB00076C0812F8D5F2091F201823060F51093A6
:107AC00010012160297D2093F20110920301109290
:107AD0000201109207011092080110920901109200
:107AE0000A0110920C0110920D0110920E011092D9
:107AF0000F01812F6FEF7FEFBBDF90930101809328
:107B000000011D3F09F0C9C084E08093050189E0B0
:107B100080930401C2C020FFC0C021FF04C01068D0
:107B20002D7F2093F2016091000170910101812F5E
:107B30009FDFAC01909301018093000160910201ED
:107B4000809105016817E8F4212F30E040E050E013
:107B500080910C0190910D01A0910E01B0910F0147
:107B6000BA2FA92F982F8827282B392B4A2B5B2B2C
:107B700020930C0130930D0140930E0150930F019F
:107B800039C0681779F46F5F6093020110930B019D
:107B90001370133009F081C08091F20184608093EA
:107BA000F2017BC030910B0133FF28C080910401AA
:107BB000681720F58091F20182FD20C0212F30E06E
:107BC00040E050E08091070190910801A0910901E7
:107BD000B0910A01BA2FA92F982F8827282B392B6B
:107BE0004A2B5B2B20930701309308014093090136
:107BF00050930A016F5F609302014FC06F3F31F0F5
:107C00008FEF809302011093060147C0209103017A
:107C1000E22FF0E0EF5EFE4F1083922F9F5F909374
:107C20000301809106019817C1F5452BB1F58091AC
:107C3000F2018E7F80628093F20180911001809327
:107C4000DE0180910C0190910D01A0910E01B09187
:107C50000F018093EE019093EF01A093F001B09398
:107C6000F1013093F3018091070190910801A091F7
:107C70000901B0910A018093DF019093E001A09384
:107C8000E101B093E20121502093DA011092030147
:107C90001092020181E08093D9011F910895909183
:107CA000DC018091DA019817B8F1F8DE8091D901F2
:107CB0008823D9F31092D9012091EE013091EF0180
:107CC0004091F0015091F1018091E9019091EA0118
:107CD000A091EB01B091EC01281739074A075B0727
:107CE00021F72091DF013091E0014091E1015091B5
:107CF000E2018091E4019091E501A091E601B0914B
:107D0000E701281739074A075B0779F6E091110167
:107D100081E08093DC0108C0E92FF0E0EF5EFE4FC8
:107D2000E0819F5F9093DC018E2F08959F92AF9228
:107D3000BF92CF92DF92EF92FF920F931F93CF9358
:107D4000DF935A9A8091F3018295807688618093BF
:107D5000DB018DEF6EDE8DEF6FEF7FEF89DEEC01E3
:107D6000A090E401B090E501C090E601D090E70159
:107D70009924ED2CFF24002711278E2D62DE8E2DF5
:107D8000BE0176DEEC01DC2CCB2CBA2CAA24939419
:107D900084E0981671F78091DB0153DE8091DB015E
:107DA000BE0166DEEC018091DB0183FF1BC0A09069
:107DB000E901B090EA01C090EB01D090EC01992468
:107DC000ED2CFF24002711278E2D3BDE8E2DBE01CA
:107DD0004FDEEC01DC2CCB2CBA2CAA24939484E04B
:107DE000981671F71091ED011E5F812F2ADE812F09
:107DF000BE013EDEEC0100E00CC0E02FF0E0EF5EE3
:107E0000FE4F1081812F1DDE812FBE0131DEEC017E
:107E10000F5F8091ED01081780F380E0BE0128DE3E
:107E2000BC0180E025DE8C01812F99270ADE802F9E
:107E300008DE8091F20188608F7E8093F20180E4F9
:107E40009FE10197F1F75A98DF91CF911F910F9120
:107E5000FF90EF90DF90CF90BF90AF909F900895EC
:107E60009091DD01E92FF0E0EF5EFE4F80839F5F90
:107E70009093DD018091E301981729F49093ED012F
:107E800055DF1092DD0108950ADF803219F088E095
:107E9000C5DDFFCF84E1E4CF1F93182F00DF115021
:087EA000E9F7F2DF1F910895DC
:027FFE00040479
:040000030000780081
:00000001FF
