:100000000C940D010C9435010C9435010C94791568
:100010000C94A3150C94CD150C9435010C9435015A
:100020000C9435010C9435010C9435010C94350178
:100030000C9435010C9435010C9435010C94350168
:100040000C94471D0C9435010C94A9180C94F718C6
:100050000C9435010C9435010C9435010C94350148
:100060000C9435010C9435014669726D77617265A7
:100070002056657273696F6E0048617264776172B1
:10008000652056657273696F6E20616E64205479C5
:10009000706500777269746520656570726F6D00B8
:1000A0007265616420656570726F6D0063726320B4
:1000B0006572726F72000A526563656976696E6770
:1000C000200A000A53656E64696E670A00706172E7
:1000D00073696E672066726F6D2061636B7761690B
:1000E00074200053656E64696E672041434B206F36
:1000F000722042726F61646361737400526563655C
:10010000697665642041434B0070617273696E6764
:100110002066726F6D206C6F6F702E2E2E0000C2E5
:1001200001000100110011000C0000E100000A00B4
:100130002500250021000096000019003900390033
:100140003600127A00001F0046004600440080700E
:10015000000022004D004D004A00004B0000360018
:10016000750075007200403800004A009C009C0039
:100170009900802500007200EC00EC00E900C0123C
:100180000000E900DA01DA01D70160090000D701B7
:10019000B603B603B303B0040000B3036E076E07E3
:1001A0006B07580200006E07DC0EDC0ED80E2C0127
:1001B0000000DC0EC11DC11DBE1D0000000024009A
:1001C00027002A0000000000250028002B00000066
:1001D000000023002600290004040404040404048D
:1001E00002020202020203030303030301020408E2
:1001F0001020408001020408102001020408102091
:1002000000000007000201000003040600000000D7
:1002100000000000FE04681AF70411241FBECFEF8F
:10022000D8E0DEBFCDBF13E0A0E0B1E0E4E6FFE33D
:1002300002C005900D92A431B107D9F716E0A4E1F0
:10024000B3E001C01D92AE34B107E1F712E0C8E19E
:10025000D2E004C02297FE010E946A1FC431D10778
:10026000C9F70E94131C0C94A51F0C940000FB01FD
:10027000DC0102C001900D9241505040D8F7089522
:10028000DC0101C06D9341505040E0F70895AEE0AD
:10029000B0E0EDE4F1E00C947C1F0D891E8986E04E
:1002A0008C831A8309838FEF9FE79E838D839E0142
:1002B000275E3F4FCE0101966F89788DA9010E947C
:1002C0006B012F813885020F131FF80110822E96C3
:1002D000E4E00C94981FABE0B0E0E1E7F1E00C94AF
:1002E0006E1F3C012B015A01FC011782168283818B
:1002F00081FD03C06FEF7FEFC6C19AE0892E1E011A
:100300000894211C311CF3012381F20123FD859106
:1003100023FF81912F01882309F4B2C1853239F47A
:1003200023FD859123FF81912F01853229F490E0EF
:10033000B3010E945E03E7CF982FFF24EE24992497
:10034000FFE1FF15D0F09B3269F09C3228F4903227
:1003500059F0933291F40EC09D3249F0903369F414
:1003600041E024C052E0F52A84E0F82A28C098E051
:10037000F92A25C0E0E1FE2A22C0F7FC29C0892F16
:1003800080538A3070F4F6FE05C0989C902C11249E
:10039000980E15C0E89CE02C1124E80EF0E2FF2A2C
:1003A0000EC09E3229F4F6FC6BC140E4F42A07C06B
:1003B0009C3619F450E8F52A02C0983649F4F20147
:1003C00023FD959123FF91912F01992309F0B8CF37
:1003D000892F8554833018F08052833038F444E0FC
:1003E00050E0A40EB51E5FE359830FC0933631F081
:1003F000933779F0933509F056C020C0F50180811C
:10040000898342E050E0A40EB51E610101E010E0D6
:1004100012C0F501C080D180F6FC03C06FEF7FEF02
:1004200002C0692D70E042E050E0A40EB51EC60186
:100430000E9453038C015FE7F52214C0F501C080D0
:10044000D180F6FC03C06FEF7FEF02C0692D70E032
:1004500042E050E0A40EB51EC6010E9448038C0184
:1004600050E8F52AF3FE07C01AC080E290E0B3011D
:100470000E945E03EA948E2D90E008171907A8F3F6
:100480000EC0F601F7FC8591F7FE81916F0190E0B7
:10049000B3010E945E03E110EA940150104001157F
:1004A000110579F7EAC0943611F0993669F5F7FE2F
:1004B00008C0F501208131814281538184E090E0C0
:1004C0000AC0F501808191819C01442737FD409548
:1004D000542F82E090E0A80EB91E9FE6F92257FF44
:1004E00009C050954095309521953F4F4F4F5F4F34
:1004F000E0E8FE2ACA01B901A1012AE030E00E9429
:100500008A03D82ED21840C0953729F41F2D1F7E9C
:100510002AE030E01DC01F2D197F9F3661F0903713
:1005200020F4983509F0ACC00FC0903739F09837F7
:1005300009F0A6C004C028E030E00AC0106114FD34
:10054000146020E130E004C014FD166020E132E0C8
:1005500017FF08C0F501608171818281938144E0B9
:1005600050E008C0F50180819181BC0180E090E0FD
:1005700042E050E0A40EB51EA1010E948A03D82ECD
:10058000D2188FE7F82EF122F6FE0BC05EEFF522AF
:10059000D91438F4F4FE07C0F2FC05C08FEEF8223F
:1005A00002C01D2D01C0192DF4FE0DC0FE01ED0D80
:1005B000F11D8081803319F499EEF92208C01F5F84
:1005C000F2FE05C003C08F2D867809F01F5F0F2D46
:1005D000F3FC14C0F0FE0FC01E1510F09D2C0BC0D4
:1005E0009D2C9E0C911A1E2D06C080E290E0B30156
:1005F0000E945E031F5F1E15C0F304C01E1510F499
:10060000E11A01C0EE2404FF0FC080E390E0B301C3
:100610000E945E0302FF1DC001FD03C088E790E059
:100620000EC088E590E00BC0802F867891F001FF26
:1006300002C08BE201C080E2F7FC8DE290E0B301E2
:100640000E945E0306C080E390E0B3010E945E0357
:100650009A94D914C0F3DA94F101ED0DF11D808163
:1006600090E0B3010E945E03DD20A9F706C080E29E
:1006700090E0B3010E945E03EA94EE20C1F743CEFE
:10068000F30166817781CB012B96E2E10C948A1FFE
:10069000FC010590615070400110D8F7809590954D
:1006A0008E0F9F1F0895FC01615070400190011052
:1006B000D8F7809590958E0F9F1F08950F931F93E5
:1006C000CF93DF938C01EB018B8181FF1BC082FFF5
:1006D0000DC02E813F818C819D812817390764F4DC
:1006E000E881F9810193F983E88306C0E885F985FB
:1006F000802F0995892B31F48E819F8101969F83EC
:100700008E8302C00FEF1FEFC801DF91CF911F91C1
:100710000F910895FA01AA27283051F1203181F173
:10072000E8946F936E7F6E5F7F4F8F4F9F4FAF4FF9
:10073000B1E03ED0B4E03CD0670F781F891F9A1F0C
:10074000A11D680F791F8A1F911DA11D6A0F711DC0
:10075000811D911DA11D20D009F468943F912AE0CC
:10076000269F11243019305D3193DEF6CF010895B4
:10077000462F4770405D4193B3E00FD0C9F7F6CFE5
:10078000462F4F70405D4A3318F0495D31FD4052AD
:10079000419302D0A9F7EACFB4E0A6959795879543
:1007A00077956795BA95C9F7009761057105089522
:1007B0009B01AC010A2E06945795479537952795CE
:1007C000BA95C9F7620F731F841F951FA01D089566
:1007D000AF92BF92CF92DF92EF92FF920F931F934F
:1007E000CF93DF93C82FD0E0FE01E45CFC4F808103
:1007F000FE01EC5AFC4F833009F063C080817CE439
:10080000A72E73E0B72EAC0EBD1EFE01EE0FFF1F2C
:10081000EE0FFF1FE0903403F09035030091360394
:10082000109137039E01220F331F48E4C42E43E08A
:10083000D42ECC0EDD1E882309F5EC5DFC4F8081A3
:100840009181A281B381E81AF90A0A0B1B0B2C597A
:100850003C4FF9012081318140E050E0C801B701EF
:100860000E94461FF5018081821BF6018083853638
:1008700008F01082C05BDC4F188284C0EC5DFC4F36
:1008800080819181A281B381E81AF90A0A0B1B0BBE
:10089000245A3C4FF9012081318140E050E0C801E9
:1008A000B7010E94461FF5018081820FF601808307
:1008B000853610F084E68083C05BDC4F84E6888355
:1008C00061C08081FE01EE0FFF1FEE0FFF1FE09061
:1008D0003403F0903503009136031091370320E57F
:1008E000C22E23E0D22ECC0EDD1E9E012F5F3F4F85
:1008F000882321F5EC5DFC4F80819181A281B38139
:10090000E81AF90A0A0B1B0BF90193E0EE0FFF1F1F
:100910009A95E1F7E21BF30BEC5EFB4F208130E090
:1009200040E050E0C801B7010E94461FF6018081F7
:10093000821B8083853630F1108224C0EC5DFC4F31
:1009400080819181A281B381E81AF90A0A0B1B0BFD
:10095000F90183E0EE0FFF1F8A95E1F7E21BF30B2D
:10096000EC5EFB4F208130E040E050E0C801B70171
:100970000E94461FF6018081820F8083853610F029
:1009800084E68083DF91CF911F910F91FF90EF90CC
:10099000DF90CF90BF90AF9008951F93162F862FB2
:1009A0000E94E803E8E4F3E0E10FF11D80811F916C
:1009B00008958130910589F46F5F7F4FB9F484E722
:1009C00093E061E276E042E00E941F1089ED92E040
:1009D00090933704809336040895892B39F46F5F20
:1009E0007F4F21F484E793E00E942C10089580E06B
:1009F00090E06FEF7FEF0E94D904089581E090E0CE
:100A00006FEF7FEF0E94D9040895AF92BF92CF920B
:100A1000DF92FF920F931F93CF93DF9304E114E0D3
:100A2000C0E0D0E0219688E995E0BE010E949518CB
:100A3000F80181938F01C232D105A1F7809114048E
:100A40008F3F19F484E180931404809115049091F0
:100A50001604A0911704B09118048F5F9F4FAF4FF9
:100A6000BF4F59F0ACE5B3E0C4E6D3E0EBE1F4E00E
:100A700008EC10E084E1F82E0DC081E090E0A0E0E9
:100A8000B0E08093150490931604A0931704B093DC
:100A90001804E8CF758160E084819B01280F311D27
:100AA00011963C932E93538140E082815A01A80E07
:100AB000B11CB982A8822F5F3F4F19F411961C9385
:100AC0000E932FEFA2162FEFB20611F419830883AD
:100AD00080818F3F09F4F08212962296379683E048
:100AE000A436B807B9F6DF91CF911F910F91FF900F
:100AF000DF90CF90BF90AF900895682F8091410410
:100B000090914204009721F04AE050E00E94AB1B14
:100B10000895BC018091410490914204009711F026
:100B20000E94101C08951F93CF93DF93EC01162FA2
:100B3000442361F080E091E00E948905812F0E94AA
:100B40007D0589E191E00E94890515C08BE191E066
:100B50000E948905812F0E947D0589E191E00E9414
:100B60008905E881F9810190F081E02DCE01612FA6
:100B70004FEF50E00995DF91CF911F910895FF92BB
:100B80000F931F93CF93DF93F62E4F3F510509F03C
:100B900044C085E391E00E948905CF2DD0E0FE019D
:100BA000E45CFC4F9081923021F4FE01E85CFC4F44
:100BB0001082FE01E85AFC4F81E08083992319F0EE
:100BC000943009F0C2C0FE01EC5AFC4F8081FE0156
:100BD000E05CFC4F882319F484E6808301C0108216
:100BE000FE01E85CFC4F81E08083FE01E459FC4F8C
:100BF0008081882309F0A9C08DE391E00E948905D6
:100C0000FE01EC5AFC4F8081FE01E85BFC4F88231B
:100C100009F48EC084E6808398C0C62FD0E0493C9A
:100C2000510559F48FE491E00E948905FE01E85CCA
:100C3000FC4F1082C85ADC4F86C0CA019695879532
:100C4000FE01E05CFC4F8083853610F084E68083F3
:100C500085E591E00E9489058E01005C1C4FD8015A
:100C60008C910E947D0589E191E00E948905FE0139
:100C7000E45CFC4F80818250823080F58F2D0E9491
:100C8000E803FE01EC5AFC4FE081EE2349F4FE013B
:100C9000E85BFC4FD8019C918081891758F00FC008
:100CA000E13069F4FE01E85BFC4FD8019C91808142
:100CB000981728F4FE01E85CFC4F85E009C0FE01AE
:100CC000E45CFC4F80818330D1F4FE01E85CFC4F92
:100CD0008083FE01E85AFC4F81E010C0FE01E85B12
:100CE000FC4FD8019C918081981749F0FE01E85C87
:100CF000FC4F81E08083FE01E85AFC4F8083FE01B7
:100D0000E459FC4F8081882301F58AE691E00E9436
:100D10008905DE01A05CBC4F9C91992321F4C85B3E
:100D2000DC4F84E611C0FE01E85BFC4F943611F401
:100D300010820BC084E68083FE01EC5BFC4F908345
:100D40001C92C059DC4F81E08883DF91CF911F91C5
:100D50000F91FF9008957F928F929F92AF92BF92D2
:100D6000CF92DF92EF92FF920F931F93CF93DF9377
:100D700085E060E00E94401E86E061E00E94401E27
:100D800082E061E00E94401E82E060E00E947F1EDF
:100D900088E062E00E94401E8DE061E00E94401EFB
:100DA0008CE190E00E94441D182F092F65E046E079
:100DB00020E00E946718812F902F40E05BE460E004
:100DC00070E00E94F715109341040093420481E201
:100DD00096E040E05BE460E070E026E20E943219B9
:100DE00086E394E00E94050587E090E00E94441DA0
:100DF000182F092F66E374E044E753E022E80E94CD
:100E0000000D109312040093130468EE73E080E069
:100E100090E00E94D81D8BE991E00E9489057DEC4D
:100E2000E72E72E0F72EC9ECD2E06CE5862E63E087
:100E3000962E5BE1A52E54E0B52E44E6C42E43E089
:100E4000D42E00E010E034E0732EF701808161E0E1
:100E50000E94401EF701808161E00E947F1E888110
:100E600061E00E94401E888161E00E947F1EF801BF
:100E7000E85CFC4F7082F801E45CFC4F7082F80182
:100E8000E85AFC4F1082F801E459FC4F1082F80137
:100E9000E85BFC4F1082F801E059FC4F108281EAB8
:100EA00091E00E948905802F0E947D0589E191E0F3
:100EB0000E9489058AEA91E00E948905F401608117
:100EC00071818091410490914204009721F04AE0A1
:100ED00050E00E949A1B89E191E00E9489058AEB0B
:100EE00091E00E948905F601608171818091410441
:100EF00090914204009721F04AE050E00E949A1B32
:100F000089E191E00E9489058AEC91E00E948905BF
:100F1000F50160818091410490914204009721F095
:100F20004AE050E00E94AB1B89E191E00E948905F4
:100F30000F5F1F4F0894E11CF11C219682E090E0A6
:100F4000880E991EE7E0F0E0AE0EBF1EC80ED91E57
:100F50000430110509F079CF8091120490911304A7
:100F600060E00E94C10DDF91CF911F910F91FF9022
:100F7000EF90DF90CF90BF90AF909F908F907F9039
:100F800008950F931F93182F062F8BED91E00E9469
:100F900089051230D1F0133028F4112399F0113063
:100FA000D9F40AC0143029F0143048F01530A1F4F7
:100FB0000FC083EE91E00EC08DEE91E00BC082EF8A
:100FC00091E008C087EF91E005C08CEF91E002C08E
:100FD00088E092E00E94890589E192E00E948905FB
:100FE000409134035091350360913603709137037B
:100FF0008091410490914204009721F02AE030E072
:101000000E948B1B83E292E00E94890510E0F801A8
:10101000E05CFC4F80810E947D058FE292E00E949F
:101020008905085B1C4FF80180810E947D0589E1DC
:1010300091E00E9489051F910F9108952F923F9290
:101040004F925F926F927F928F929F92AF92BF92D8
:10105000CF92DF92EF92FF920F931F93DF93CF9384
:10106000CDB7DEB764970FB6F894DEBF0FBECDBF25
:101070000E948F1D60933403709335038093360371
:101080009093370398E5692E93E0792E84E1E82E5A
:1010900083E0F82E88E393E09C8B8B8BA9ECB2E085
:1010A000B88BAF870CE3802E03E0902E14E5A12EC1
:1010B00013E0B12EE0E7F3E0FE87ED8780E593E0F3
:1010C0009C878B87ABE1B4E0BA87A987EDECF2E0AF
:1010D000F887EF83B8E42B2EB3E03B2E84E293E055
:1010E0009E838D83A0E44A2EA3E05A2EACE6B3E0A3
:1010F000BC83AB831A8A198A1A821982F3E0CF2E35
:10110000D988F3016081613099F0209134033091E6
:1011100035034091360350913703F7018081918167
:10112000A281B381281739074A075B0708F4B3C1C6
:10113000AB89BC891C91123009F43CC1133038F4DE
:10114000112309F4BFC0113009F0A5C124C0143027
:1011500039F0143008F43FC0153009F09CC176C155
:10116000EF85F889808161E00E947F1EAB89BC8990
:101170008C916D2D0E94C107F4011083809134037E
:1011800090913503A0913603B0913703805E914B67
:10119000AF4FBF4F7BC1D2019C91F1018081891774
:1011A00018F4D5011C9302C0F5011082AF85B889EF
:1011B0008C91F50160810E947F1EAB89BC898C9166
:1011C0006D2D0E94C10781E0F4018083E2E0AB89CC
:1011D000BC89EC934DC1AF81B8858C9160E00E94D1
:1011E0007F1EEB89FC8980816D2D0E94C107409193
:1011F0003403509135036091360370913703AD810C
:10120000BE814D935D936D937C931397F101808123
:10121000E989FA89E45BFC4F8083D401CC92EB89A5
:10122000FC891082D5019C91D201EC91282F30E0ED
:10123000992389F42E1B3109E981FA81EC59FC4F7D
:1012400080819181FC012E9FC0012F9F900D3E9FB8
:10125000900D112412C08E2F90E0821B930BE98118
:10126000FA81E45AFC4F20813181DC01A29FC00148
:10127000A39F900DB29F900D1124A0E0B0E0840FC9
:10128000951FA61FB71FF70180839183A283B383A5
:10129000D2018C91882311F0843669F4F7018081A2
:1012A0009181A281B38188519C4FAF4FBF4F808302
:1012B0009183A283B383D3018C91813009F0EBC079
:1012C0001C92E9C0613049F4F30110828D2D0E9417
:1012D000E803D1018C91F20120C0D2019C91F1016F
:1012E0009083D5018C91882321F4EB85FC851082B5
:1012F00004C0E4E6AB85BC85EC93AB81BC818C91EA
:10130000882361F4992311F0943641F48BE392E041
:101310000E94890581E0EB81FC818083D1014C91A1
:1013200080911204909113046D2D50E00FEF1FEF88
:101330002FEF3FEF0E94900DEF81F885808161E0F3
:101340000E947F1EAB89BC898C916D2D0E94C107C4
:10135000F4011082E4E0AB89BC89EC938091340302
:1013600090913503A0913603B091370388539F4F76
:10137000AF4FBF4FF70180839183A283B383AD85C5
:10138000BE858C91882309F486C085E792E00E948F
:101390008905E989FA89EC5BFC4F408150E0440FF4
:1013A000551F86E394E06D2D0E94BF05ED85FE85F7
:1013B000108271C0AF81B8858C9160E00E947F1E61
:1013C0008091340390913503A0913603B091370397
:1013D000ED81FE8180839183A283B383AB89BC8935
:1013E0008C916D2D0E94C107F4011083AB89BC89DB
:1013F000CC92F50180814091340350913503609186
:10140000360370913703A985BA859C91EB85FC85DD
:101410002081882321F4929FC00111240EC0A4E6EC
:10142000B0E0A21BB109892F90E0FC01AE9FC00182
:10143000AF9F900DBE9F900D1124AA2797FDA095F8
:10144000BA2F840F951FA61FB71F20C0AF81B88584
:101450008C9161E00E947F1EEB89FC8980816D2D5B
:101460000E94C107D4011C9381E0EB89FC89808331
:10147000D3011C928091340390913503A0913603DF
:10148000B091370388539F4FAF4FBF4FF701808311
:101490009183A283B38389899A8901969A8B898BD8
:1014A0000894611C711CA4E0B0E0EA0EFB1EEB89FD
:1014B000FC893196FC8BEB8B8F8598890196988BF4
:1014C0008F870894811C911C0894A11CB11CAD85C8
:1014D000BE851196BE87AD87EB85FC853196FC876E
:1014E000EB8789859A8507969A878987AF81B88522
:1014F0001196B887AF830894211C311CED81FE81C1
:101500003496FE83ED830894411C511C8B819C8191
:1015100001969C838B83A981BA811296BA83A98391
:10152000E989FA89349709F0EBCD64960FB6F894FF
:10153000DEBF0FBECDBFCF91DF911F910F91FF9006
:10154000EF90DF90CF90BF90AF909F908F907F9063
:101550006F905F904F903F902F900895EF92FF9281
:101560000F931F930E948F1D7B018C0188E00E94C6
:10157000D31E20E0892B09F421E080913C048230C5
:1015800009F445C0833030F4882371F0813009F0CC
:101590009CC00FC0843009F46BC0843008F43CC098
:1015A000853009F092C084C0222309F452C081E042
:1015B0004CC080913D0490913E04A0913F04B091B5
:1015C0004004222381F0A8019701281B390B4A0B04
:1015D0005B0BDA01C90189589341A040B0400CF47B
:1015E00074C082E062C0B801A701481B590B6A0BA6
:1015F0007B0B45365105610571050CF461C0809186
:1016000012049091130460E00E94C10D59C022237E
:1016100009F05BC083E019C080913D0490913E04C5
:10162000A0913F04B0914004B801A701481B590B99
:101630006A0B7B0BDB01CA0144365105610571055C
:101640000CF443C0222371F084E080933C040E9498
:101650007D05E0923D04F0923E0400933F04109318
:10166000400433C081519742A040B04074F128C07B
:1016700080913D0490913E04A0913F04B0914004BC
:10168000B801A701481B590B6A0B7B0BDB01CA0190
:101690004436510561057105C4F0222389F0895B48
:1016A0009B40A040B0408CF085E080933C040BC090
:1016B000222359F480911204909113040E942F0D5B
:1016C00010923C0480E00E947D0580913C048530AE
:1016D00040F4823090F4882341F0813009F048C012
:1016E00007C0853009F044C01CC08DE060E002C036
:1016F0008DE061E00E947F1E3BC080913804909194
:101700003904A0913A04B0913B04A8019701281B29
:10171000390B4A0B5B0B253631054105510544F168
:1017200015C08091380490913904A0913A04B09189
:101730003B04B801A701481B590B6A0B7B0BDB016B
:10174000CA018F5E9240A040B04094F08DE00E94AC
:10175000D31E60E0892B09F461E08DE00E947F1EBA
:10176000E0923804F092390400933A0410933B0459
:101770001F910F91FF90EF90089584E793E00E94EE
:101780009E140E94AE0A0E941E080895FC0185EE78
:1017900092E0918380830895FC01A581B681ED914B
:1017A000FC9111970480F581E02DCD0109950895F4
:1017B000EF92FF920F931F938C01F62EE42EFC0103
:1017C000A581B681ED91FC9111970190F081E02DFA
:1017D000CD010995D8011396ED91FC91149783E002
:1017E000818B1396ED91FC91149789E6828B139669
:1017F000ED91FC911497F38A1396ED91FC91149757
:10180000E48A1F910F91FF90EF9008950F931F931B
:101810008C01DC011396ED91FC91149783E0818B90
:101820001396ED91FC91149789E6828B1396ED91B6
:10183000FC911497638B15960D90BC91A02DED91A2
:10184000FC9111970280F381E02DCD010995D8011B
:101850001396ED91FC91149790E0880F991F848B5B
:101860001F910F910895CF92DF92EF92FF920F9305
:101870001F93DF93CF93CDB7DEB764970FB6F8947D
:10188000DEBF0FBECDBF8B012DB73EB72850304015
:101890000FB6F8943EBF0FBE2DBFEDB6FEB608944E
:1018A000E11CF11C6E010894C11CD11CADB7BEB780
:1018B0001296DC92CE92119721EB32E0F70133833E
:1018C0002283DC011396ED91FC911497608571855C
:1018D0008285938520E836E948E950E00E94461F5A
:1018E000F70164837583868397830E94470188E4A8
:1018F000D8018C9382E411968C93119787E5129608
:101900008C9312971396F60187E001900D92815007
:10191000E1F7EDB7FEB738960FB6F894FEBF0FBEED
:10192000EDBF64960FB6F894DEBF0FBECDBFCF916A
:10193000DF911F910F91FF90EF90DF90CF9008956E
:10194000AF92BF92CF92DF92EF92FF920F931F93CD
:10195000CF93DF935C01DC011396ED91FC9114971A
:101960001086118612861386CCEFD3E0F501C38072
:10197000D480D6011896ED90FD900D911C911B9787
:10198000102F0F2DFE2CEE24F601E086F186028743
:10199000138788E995E0BE010E94951890E0A0E0C9
:1019A000B0E08E299F29A02BB12BF601808791876B
:1019B000A287B3872196F4E0C030DF07B9F6D501DE
:1019C0001396ED91FC91149780859185A285B3853E
:1019D0008F5F9F4FAF4FBF4F41F48FEF9FEFAFEF40
:1019E000B2E480879187A287B387DF91CF911F915F
:1019F0000F91FF90EF90DF90CF90BF90AF90089540
:101A0000FC01DA0185EE92E0918380837683658321
:101A1000548343831396FC93EE9312972283CF0152
:101A20000E94A00C08951F93CF93DF93EB01142F16
:101A3000222321F483E06C3F78076CF488E995E079
:101A4000BE010E949518181731F088E995E0BE0193
:101A5000412F0E949C18DF91CF911F910895EF9222
:101A6000FF920F931F93CF93DF937C01DC011396BA
:101A7000CD91DC91149788859985AA85BB858F5F68
:101A80009F4FAF4FB24409F044C00E948F1D68873A
:101A900079878A879B8780914104909142040097BF
:101AA00021F067EB72E00E94101CD7011396ED91B4
:101AB000FC9114974085518562857385809141041E
:101AC00090914204009721F02AE030E00E948B1BA5
:101AD000C0E0D0E00FEF13E0D7011396ED91FC9139
:101AE000149720853185428553850C2E04C0569568
:101AF0004795379527950A94D2F7C701B801422F29
:101B000021E00E94130D289601501040C032D105EB
:101B100019F7DF91CF911F910F91FF90EF900895EA
:101B20000F931F93DC011396ED91FC91149704879A
:101B300015872687378788EF808B1396ED91FC9168
:101B4000149784E0818B1396ED91FC91149789E6AC
:101B5000828B1396ED91FC911497638B1396ED9104
:101B6000FC911497548B1396ED91FC911497458B2F
:101B700013968D919C9114970E94A8131F910F9119
:101B800008950F931F938C01DC011396ED91FC9146
:101B900014978FEF9FEFAFEFBFEF84879587A687EE
:101BA000B78788EF808BD8011396ED91FC9114973D
:101BB00080E1818B1396ED91FC91149781E4828BE7
:101BC0001396ED91FC911497638B1396ED91FC9114
:101BD000149712968C911297848B1396ED91FC9129
:101BE0001497158A1396ED91FC91149783E0868BD8
:101BF0001396ED91FC91149786E0878B13966D9167
:101C00007C911497685E7F4FC8010E94330CF801E5
:101C1000838194810E94A8131F910F9108952F92A0
:101C20003F924F925F926F927F928F929F92AF926C
:101C3000BF92CF92DF92EF92FF920F931F93CF93B9
:101C4000DF936C01EB011B818C81D6011396ED9122
:101C5000FC911497282F2695269526952C5F218B8D
:101C60002450282E3324C10187709070892B11F0E5
:101C70002B5F218B41899F012E5E3F4FC90160E0A0
:101C800070E050E00E944001D6011396ED91FC9166
:101C9000149785E6828B8981838B8A81848B8B81E3
:101CA000858BA12EBB2400E010E0EE24FF2425014B
:101CB00051E0652E712C812C912C34C0BE016E0D2B
:101CC0007F1D88E995E00E9495188F3F01F1D601AC
:101CD0001396ED91FC911497C80143E09595879573
:101CE0004A95E1F70496E80FF91FC80187709070D4
:101CF000A401930104C0220F331F441F551F8A956E
:101D0000D2F7DA01C9012289282B228B04C021963F
:101D1000C415D5059CF20F5F1F4FEA0CFB1C201663
:101D200031061CF0C0E0D0E0F3CFDF91CF911F91DE
:101D30000F91FF90EF90DF90CF90BF90AF909F906A
:101D40008F907F906F905F904F903F902F9008956D
:101D50008F929F92AF92BF92CF92DF92EF92FF92BB
:101D60000F931F93DF93CF9300D0CDB7DEB75C0105
:101D70007B01142F222309F04AC1DC011396ED9157
:101D8000FC91149784819581A681B781848795877A
:101D9000A687B78788E7808BDB018C91833509F4B0
:101DA000A1C08435A8F4853409F454C0863448F4BD
:101DB000813409F424C18334F1F1803409F019C16C
:101DC0001DC08B3409F44AC0823509F012C152C0DB
:101DD0008E3609F4D4C08F3638F4873509F489C0BB
:101DE000883609F006C1B7C0863709F4DCC08837E9
:101DF00009F4EFC0833709F0FCC0CDC0FB0181813D
:101E00008136A9F4463099F40CEF13E0C501B8010E
:101E1000D70112964C9121E00E94130D0894E11C09
:101E2000F11C0F5F1F4FB4E000301B0779F7C501AD
:101E30000E94A00CDEC0D5011596ED91FC9116977D
:101E4000A081B18116962D913C911797CF01F90190
:101E50000995CFC0C5010E940F0EC3C0FB0143818D
:101E60008281882309F0C5C04170C50161810E944B
:101E7000CC0BBFC0443009F0BCC0809141049091AC
:101E80004204009721F060EA70E00E94E81AD7014E
:101E900011969C91119780E012962C91C22EDD2410
:101EA000C82AD92A00E013C0E02FF0E0FA83E983C2
:101EB000BF016C0D7D1D88E995E00E949518298170
:101EC0003A81820E931ED40152968C930F5FF701D4
:101ED0008381D50113968D909C901497081720F359
:101EE000F40175C0C501DB0111966C910E94060CCE
:101EF00086C0242F30E0FB01838190E004962817F0
:101F0000390709F076C0809141049091420400970E
:101F100021F063E970E00E94E81AD70111969C91C4
:101F2000119780E012962C91C22EDD24C82AD92A5E
:101F300004E00EC0C501B601F701448120E00E9413
:101F4000130D0F5F0894E11CF11C0894C11CD11CF7
:101F5000011780F34EC08091410490914204009794
:101F600021F069E770E00E94E81AD5011396ED911F
:101F7000FC91149712968C91828B81E026C0729608
:101F8000C501BF010E94330CD5011396ED91FC9160
:101F900014978AE01CC0FB014281C501618150E0B9
:101FA0000E94D80B26C08091410490914204009772
:101FB00021F068E670E00E94E81AD5011396ED91D1
:101FC000FC91149783E0828B86E0838B82E0818B87
:101FD00008C0FB014281C501618150E00E94D80B1D
:101FE0000EC0D50113968D919C9114970E94A81351
:101FF0000EC0F501838194810E94331408C0D5017D
:102000001396ED91FC91149789E6828BEACF0F909D
:102010000F90CF91DF911F910F91FF90EF90DF9084
:10202000CF90BF90AF909F908F900895FC0185EE68
:1020300092E091838083CF010E94411D0895FC01AD
:102040008FEE92E091838083EE5AFF4F61937193FC
:102050004083329610820895FC018FEE92E09183C6
:1020600080830895FF920F931F93CF93DF93EC012A
:10207000F62E062F10E080914104909142040097C3
:1020800051F0B80124E0759567952A95E1F740E194
:1020900050E00E94FD1B8091410490914204009702
:1020A00039F00F701070B80140E150E00E94FD1B44
:1020B0008091410490914204009721F067EC72E016
:1020C0000E94101C8F2D8C5F833080F4CE5ADF4F1E
:1020D000E881F981C255D040A081B1812D913C9118
:1020E000CF016CEFF90109958FE7F822CE5ADF4F47
:1020F000E881F981A081B1812D913C91CF016F2DB3
:10210000F9010995DF91CF911F910F91FF900895EB
:10211000BC018091410490914204009711F00E940B
:10212000E81A08956F927F928F929F92AF92BF921A
:10213000CF92DF92EF92FF920F931F93CF93DF9393
:102140008C0142E5A42EB12CA80EB91E35E5C32E94
:10215000D12CC80ED91E22E0822E20E1922E6624B8
:102160006A9494E0E92E89E0782E68C1D501ED915A
:10217000FC91A081B18116962D913C911797CF01CA
:10218000F9010995F82EBDEF8B1721F486EB90E04D
:102190000E948810CF2DD0E080914104909142049C
:1021A000009751F0BE01B4E075956795BA95E1F7D7
:1021B00040E150E00E94FD1B809141049091420457
:1021C000009739F0CF70D070BE0140E150E00E941E
:1021D000FD1B8091410490914204009721F067EC2F
:1021E00072E00E94101CECEFFE1639F4D6018C91BF
:1021F00081FD03C082608C9321C18F2D8D5F823061
:10220000E8F5F0929304F601808181608D7F8083F0
:10221000109246041092450410928A0410928B0486
:1022200010928C0410928D0410928F0410929004DE
:1022300010929104109292045F2D2FEF3FEF40E037
:10224000C901880F991F57FD816037FD02C09C01AD
:1022500003C09C01282539254F5F483011F0550FE8
:10226000EFCF3093440420934304FDEFFF1609F0B1
:10227000E5C0E092480470924704E0C0D6018C911A
:1022800080FFDCC081FF05C0B0E8FB2A8D7FF6012E
:10229000808320914304309144045F2D40E0C901C4
:1022A000880F991F57FD816037FD02C09C0103C054
:1022B0009C01282539254F5F483011F0550FEFCF8D
:1022C0003093440420934304609145048091480472
:1022D0006817E8F420918F043091900440919104A4
:1022E00050919204542F432F322F22278F2D90E0AC
:1022F000A0E0B0E0822B932BA42BB52B80938F040E
:1023000090939004A0939104B09392042CC068170A
:1023100031F46F5F60934504F0928E048FC050914A
:102320008E0453FF24C080914704681700F5209164
:102330008A0430918B0440918C0450918D04542F69
:10234000432F322F22278F2D90E0A0E0B0E0822B88
:10235000932BA42BB52B80938A0490938B04A0938A
:102360008C04B0938D046F5F6093450467C06F3F2A
:1023700029F060924504F092890460C040914604BF
:10238000E42FF0E0C9E4D4E0EC0FFD1FF082942FBD
:102390009F5F9093460480918904981709F04EC07E
:1023A000232B09F047C0F801EB5AFF4F80818E7F45
:1023B000808304561F4F80919304D8018C93055459
:1023C000104080918F0490919004A0919104B0915D
:1023D0009204F80180839183A283B3830A5B1F4F29
:1023E000D8015C930D59104080918A0490918B0420
:1023F000A0918C04B0918D04F80184839583A68309
:10240000B7834150055A1F4FD8014C930B551040CC
:102410009801245A3F4FC901BE0150E00E94370184
:1024200010924604109245040A5A1F4F81E0F801A9
:10243000808313C08CEA90E00E948810D501ED9152
:10244000FC91A081B18114962D913C911597CF01FB
:10245000F9010995892B09F089CEDF91CF911F9160
:102460000F91FF90EF90DF90CF90BF90AF909F9033
:102470008F907F906F9008958F929F92AF92BF92AE
:10248000CF92DF92EF92FF920F931F93CF93DF9340
:102490007C01FC0184859585A685B7858F5F9F4F5C
:1024A000AF4FBF4FC9F02DE930E0E20EF31ED70168
:1024B0008C91E3E6FFEFEE0EFF1E90E09595879579
:1024C00083708295880F807ED70150962C9150970B
:1024D0002F79822B50968C9383EC90E00E94881089
:1024E000E4E5F0E0EE0EFF1ED7018C9161E00E9462
:1024F0007F1ED701FE91EE917D012EEA3FEFE20EA5
:10250000F31EA081B1812D913C91CF016DEFF901B6
:102510000995CFEFDFEF3DEF20E042E050E1CE0143
:10252000880F991F37FD8160D7FD02C0EC0103C001
:10253000EC01C427D5272F5F283011F0330FEFCFE0
:10254000D7011C96AD90BD90CD90DC901F9710E008
:1025500002E0802E00E1902E2D2D332744275527B1
:10256000022FC701622F0E94321020E0CE01880F97
:10257000991F07FD8160D7FD02C0EC0103C0EC018B
:10258000C825D9252F5F283011F0000FEFCF1F5F2E
:10259000143029F0DC2CCB2CBA2CAA24DDCFC701B7
:1025A000F70160890E943210D70150964C91342F68
:1025B00020E062E070E1CE01880F991F37FD816055
:1025C000D7FD02C0EC0103C0EC01C627D7272F5F5F
:1025D000283011F0330FEFCF43FF2DC0F701A08457
:1025E000B184C284D38410E052E0852E50E1952E50
:1025F0002D2D332744275527022FC701622F0E9414
:10260000321020E0CE01880F991F07FD8160D7FDB1
:1026100002C0EC0103C0EC01C825D9252F5F28308A
:1026200011F0000FEFCF1F5F143029F0DC2CCB2C02
:10263000BA2CAA24DDCFD70151960C910E5FC701A9
:10264000602F0E94321020E042E050E1CE01880F5E
:10265000991F07FD8160D7FD02C0EC0103C0EC01AA
:10266000C427D5272F5F283031F4DD24F2E0AF2EC8
:10267000F0E1BF2E20C0000FE9CF87010D0D111D25
:10268000C701F80162890E943210D80152963C912C
:1026900020E0CE01880F991F37FD8160D7FD02C071
:1026A000EC0103C0EC01CA25DB252F5F283011F0B7
:1026B000330FEFCFD394F7018189D816F0F220E0E1
:1026C00042E050E1CE01CC0FDD1F97FF02C0C427CE
:1026D000D5272F5F2830B1F720E042E050E1CE014E
:1026E000CC0FDD1F97FF02C0C427D5272F5F2830EE
:1026F000B1F7C7016D2F0E943210C7016C2F0E94E5
:10270000321022E530E0E20EF31EF701A191B19103
:102710007F01ED91FC9111970284F385E02DCD01AD
:102720000995D7018D917D0160E00E947F1EF70120
:10273000808188608083DF91CF911F910F91FF90FE
:10274000EF90DF90CF90BF90AF909F908F900895C3
:102750006F927F928F929F92AF92BF92DF92EF9291
:10276000FF920F931F93CF93DF93EC018C859D8590
:10277000AE85BF858F5F9F4FAF4FBF4F21F08889D8
:1027800083708130C9F483EE90E00E9488106889DC
:102790008091410490914204009721F040E150E083
:1027A0000E94AB1BCE010E943C12FE01EB5AFF4F70
:1027B0008081877F808349C0DD24A6E5AA2EB12CC5
:1027C000AC0EBD1EF7E56F2E712C6C0E7D1EE5E57F
:1027D0008E2E912C8C0E9D1ECE010E943C120E94CA
:1027E0008F1D7B018C0122C0CE010E949210F50149
:1027F00080818823D9F0F301208131814281538186
:1028000088859985AA85BB85281739074A075B07FC
:1028100069F4F50110828DEC90E00E948810CE01E1
:102820000E943B14F401808183FF0FC00E948F1D22
:102830006E197F09800B910B683C7105810591052C
:1028400098F2D394F3E0DF1639F6DF91CF911F9120
:102850000F91FF90EF90DF90BF90AF909F908F907F
:102860007F906F900895FC0189E1808B118ACF01E0
:102870000E94A81308950F931F93CF93DF93EC0149
:102880008C010B5A1F4FF801808183FF28C0C3566B
:10289000DF4F2881CD59D04030E085E03595279530
:1028A0008A95E1F72370888990E0959587958370E4
:1028B0002817A9F42C813D814E815F818C859D85EF
:1028C000AE85BF85281739074A075B0741F48CEFAF
:1028D00090E00E948810F8018081877F8083C35632
:1028E000DF4F8881CD59D04083708130F9F0C55ACF
:1028F000DF4F8881CB55D0408823D1F4C95ADF4FB0
:1029000088819981AA81BB81C755D0408F5F9F4F35
:10291000AF4FBF4F69F08C819D81AE81BF818C87A5
:102920009D87AE87BF87CE010E94331480E001C02F
:1029300081E0DF91CF911F910F9108950F931F9325
:10294000CF93DF93EC010E949210FE01EA5AFF4FF1
:102950008081882309F440C01082C95ADF4F288142
:1029600039814A815B81C755D04088859985AA8580
:10297000BB85281739074A075B0729F02F5F3F4FB0
:102980004F4F5F4F49F589E091E00E948810CE01DA
:102990000E943B14882301F14A815B81DA01ED91A9
:1029A000FC91BE01645A7F4F9E01255A3F4F10E0B3
:1029B000C95ADF4F88819981AA81BB818F5F9F4F60
:1029C000AF4FBF4F09F411E00190F081E02DCA0133
:1029D000D9014C91212F0995DF91CF911F910F9132
:1029E0000895FC018FEE92E091838083CF010E94D5
:1029F000411D08950F931F93CF93DF93DC015B96E6
:102A00007C915B97769571701E96ED91FC911F9766
:102A10001D969C911D97772329F08081892309F4C5
:102A200063C004C08081892309F05EC053968D91F4
:102A30009C91549720E001972FEF8F3F9207D9F791
:102A40005596CD91DC9156971E96ED91FC911F976E
:102A50001D961C911D9760E031E040E050E000E0E1
:102A6000CE01202F01972FEF8F3F9207D9F780815A
:102A7000812311F0632B03C0832F80956823330FCC
:102A80004F5F5F4F4830510559F757968D919C9194
:102A9000589720E0FC01322F31973FEFEF3FF307CB
:102AA000D9F701972FEF8F3F9207D9F771116095F2
:102AB00080919605209197058F5F90E030E0821716
:102AC000930761F0E0919605F0E0EA56FB4F6083D2
:102AD000809196058F5F8093960506C05B968C91DA
:102AE0005B9781605B968C93DF91CF911F910F91E3
:102AF00008951F920F920FB60F9211242F933F93B8
:102B00004F935F936F937F938F939F93AF93BF93F5
:102B1000EF93FF938091940490919504009711F0A6
:102B20000E94FA14FF91EF91BF91AF919F918F9105
:102B30007F916F915F914F913F912F910F900FBEB9
:102B40000F901F9018951F920F920FB60F9211249D
:102B50002F933F934F935F936F937F938F939F93A5
:102B6000AF93BF93EF93FF9380919404909195045A
:102B7000009711F00E94FA14FF91EF91BF91AF916D
:102B80009F918F917F916F915F914F913F912F9185
:102B90000F900FBE0F901F9018951F920F920FB6B7
:102BA0000F9211242F933F934F935F936F937F93D3
:102BB0008F939F93AF93BF93EF93FF938091940470
:102BC00090919504009711F00E94FA14FF91EF91F3
:102BD000BF91AF919F918F917F916F915F914F9135
:102BE0003F912F910F900FBE0F901F901895CF928D
:102BF000DF92EF92FF920F931F93CF93DF93EC013D
:102C00007A018B011A8E198E188E1F8A1E8A1D8AD0
:102C10001C8A1B8A20E030E06901CC0CDD1CC20E4E
:102C2000D31EB601660F771F660F771FAB01425E9A
:102C30005E4FFA0185919591A591B4918E159F05EE
:102C4000A007B107E9F4FB01EE5DFE4F8591949179
:102C50009C8B8B8BFB01EC5DFE4F859194919E8B41
:102C60008D8BFB01EA5DFE4F85919491988F8F8B40
:102C7000FB01E85DFE4F859194919A8F898F06C084
:102C80002F5F3F4F2D30310509F0C6CF8F89988DCA
:102C9000892B09F449C04C85463108F03DC090911C
:102CA0006800483010F484E005C04E3010F082E037
:102CB00001C081E0892B80936800483028F4EDE65C
:102CC000F0E0ADE6B0E00BC04E3028F0ECE6F0E00E
:102CD000ACE6B0E004C0EBE6F0E0ABE6B0E050817B
:102CE000483040F481E090E002C0880F991F4A9577
:102CF000E2F710C0242F30E04E3018F42850304056
:102D000002C02E50304081E090E002C0880F991F31
:102D10002A95E2F7852B8C93898D9A8D20E0019777
:102D20002FEF8F3F9207D9F78091940490919504EB
:102D30008C179D0781F08B8D8E7F8B8F9FB7F894BA
:102D4000109296058091960580939705D0939504EF
:102D5000C09394049FBFDF91CF911F910F91FF907B
:102D6000EF90DF90CF9008952091940430919504D6
:102D70002817390731F49091970580919605981797
:102D800019F42FEF3FEF0DC0E0919705F0E0EA5600
:102D9000FB4F9081809197058F5F80939705292F36
:102DA00030E0C901089520919404309195042817CA
:102DB000390719F020E030E00BC080919605909122
:102DC0009705282F30E020503F4F291B31093070E4
:102DD000C9010895FF920F931F93DC0159968D91BD
:102DE0009C915A97892B49F481E090E013969C932B
:102DF0008E93129720E030E0DDC0FFB6F8945B962A
:102E00008C915B975196ED91FC91529750962C9135
:102E1000509781FFD4C08081822B808359968D91F9
:102E20009C915A97059620E001972FEF8F3F9207CC
:102E3000D9F710E040E820E030E070E0842F90E027
:102E400086239723892B09F01F5F46952F5F3F4FFD
:102E50002830310599F75B968C915B9781FF4FC0C5
:102E600031E040E050E000E0832F90E0862397239C
:102E70005196ED91FC91529750962C915097892B39
:102E800029F0808120952823208303C08081822B14
:102E9000808359968D919C915A97202F01972FEFFF
:102EA0008F3F9207D9F7330F4F5F5F4F483051057F
:102EB000D9F65196ED91FC91529750962C915097DE
:102EC00010FF05C0808120952823208303C08081C6
:102ED000822B808359968D919C915A9720E001977F
:102EE0002FEF8F3F9207D9F75196ED91FC915297B2
:102EF000908150968C915097809589234DC031E0F8
:102F000040E050E000E0832F90E086239723519625
:102F1000ED91FC91529750962C915097892B21F06E
:102F20008081822B808304C0808120952823208388
:102F300059968D919C915A97202F01972FEF8F3F93
:102F40009207D9F7330F4F5F5F4F48305105D9F6DD
:102F50005196ED91FC91529750962C91509710FFFD
:102F600004C08081822B808304C080812095282327
:102F7000208359968D919C915A9720E001972FEFCD
:102F80008F3F9207D9F75196ED91FC91529780812E
:102F900050969C915097892B8083FFBE59968D91B6
:102FA0009C915A9720E001972FEF8F3F9207D9F716
:102FB00021E030E0C9011F910F91FF9008958081B9
:102FC0002095282320832ACF2091940430919504C2
:102FD0002817390749F49FB7F89410929605809105
:102FE0009605809397059FBF089520919404309192
:102FF00095042817390731F490919705809196052B
:10300000981719F42FEF3FEF0AC0E0919705F0E011
:10301000EA56FB4F8081282F332727FD3095C901C1
:1030200008951F93CF93DF93EC01162F862F60E056
:103030000E94401E8B8D81FD04C0812F61E00E94A3
:103040007F1E1C87212F30E0C90184519E4FFC0157
:1030500084918D8728523E4FF9016491E62FF0E06C
:10306000EE0FFF1FE253FE4F859194919F878E874D
:10307000DF91CF911F910895FF920F931F938C01C1
:10308000F62E862F61E00E94401E8F2D61E00E9487
:103090007F1E8F2D90E0FC01E451FE4FE491D8019A
:1030A0005096EC93509788529E4FFC016491E62F06
:1030B000F0E0EE0FFF1FEC53FE4F85919491529676
:1030C0009C938E9351971F910F91FF900895FF92BB
:1030D0000F931F938C01F62EFC011382128288EE4F
:1030E00093E0A0E0B0E084839583A683B78387EF65
:1030F00092E091838083148A138A168A158A108E2F
:10310000178A128E118E838D2170220F8C7F822B55
:10311000838FC801642F0E943C18C8016F2D0E9444
:1031200011181F910F91FF900895F999FECF72BD6C
:1031300061BDF89A80B50895F999FECF1FBA72BDA6
:1031400061BD40BD0FB6F894FA9AF99A0FBE089582
:1031500008951F920F920FB60F9211242F933F9351
:103160004F938F939F93EF93FF938091C00082FDC5
:103170001DC04091C6002091D9053091DA052F5F1E
:103180003F4F2F7330708091DB059091DC0528173D
:10319000390771F0E091D905F091DA05E756FA4F59
:1031A00040833093DA052093D90502C08091C60090
:1031B000FF91EF919F918F914F913F912F910F90A0
:1031C0000FBE0F901F901895E0912D06F0912E06DE
:1031D000E05CFF4F8191919120813181821B930BA3
:1031E0008F739070892B11F00E94A81808951F9278
:1031F0000F920FB60F9211242F933F938F939F93AB
:10320000EF93FF9320911D0630911E0680911F06BB
:10321000909120062817390731F48091C1008F7DE5
:103220008093C10014C0E0911F06F0912006E35284
:10323000FA4F208180911F069091200601968F738E
:1032400090709093200680931F062093C600FF91F4
:10325000EF919F918F913F912F910F900FBE0F9003
:103260001F901895AF92BF92CF92DF92EF92FF928C
:103270000F931F93CF93DF93EC017A018B01C22E42
:10328000DD24403081EE580780E0680780E0780751
:1032900011F0DD24D39471E0A72EB12CEC89FD89C7
:1032A000DD2069F0C50108A002C0880F991F0A94AB
:1032B000E2F7808360E079E08DE390E005C0108262
:1032C00060E874E88EE190E0A80197010E94461F33
:1032D00021503040404050405695479537952795AE
:1032E00080E12030380720F0DD2011F0DD24D6CF3A
:1032F000E889F9893083EA89FB892083E88DF98D93
:10330000C082EE89FF89408121E030E0C9010C8C48
:1033100002C0880F991F0A94E2F7482B4083EE8978
:10332000FF894081C9010D8C02C0880F991F0A9442
:10333000E2F7482B4083EE89FF894081C9010E8C5A
:1033400002C0880F991F0A94E2F7482B4083EE8948
:10335000FF8980810F8C02C0220F331F0A94E2F78D
:10336000209528232083DF91CF911F910F91FF900B
:10337000EF90DF90CF90BF90AF900895DC011C9646
:10338000ED91FC911D97E05CFF4F2191319180817F
:103390009181281B390B2F733070C9010895DC010E
:1033A0001C96ED91FC911D97E05CFF4F20813181CF
:1033B000E054F040DF01AE5BBF4F8D919C911197BF
:1033C0002817390719F42FEF3FEF07C08D919C9113
:1033D000E80FF91F8081282F30E0C9010895DC0132
:1033E0001C96ED91FC911D97E05CFF4F208131818F
:1033F000E054F040DF01AE5BBF4F8D919C9111977F
:103400002817390719F42FEF3FEF10C08D919C91C9
:103410001197E80FF91F20818D919C9111970196CA
:103420008F73907011969C938E9330E0C90108952C
:10343000DC0191968C919197882339F05496ED9107
:10344000FC915597808186FFF9CF91961C92089543
:10345000CF93DF93EC01EE85FF85E05CFF4F208189
:103460003181E054F0402F5F3F4F2F733070DF0108
:10347000AE5BBF4F8D919C91119728173907D1F3FF
:10348000E05CFF4F80819181E054F040E80FF91F2C
:103490006083EE85FF85E05CFF4F31832083EE89FA
:1034A000FF89208181E090E00F8C02C0880F991F76
:1034B0000A94E2F7282B208381E089A3EC89FD8917
:1034C00080818064808381E090E0DF91CF910895D6
:1034D000109224061092230688EE93E0A0E0B0E05C
:1034E0008093250690932606A0932706B09328067E
:1034F00087E093E0909322068093210689E995E086
:1035000090932E0680932D068DED95E090933006D6
:1035100080932F0685EC90E09093320680933106DD
:1035200084EC90E0909334068093330680EC90E036
:10353000909336068093350681EC90E090933806A0
:103540008093370682EC90E090933A068093390698
:1035500086EC90E090933C0680933B0684E0809359
:103560003D0683E080933E0687E080933F0685E03A
:103570008093400681E0809341060895CF92DF92C8
:10358000EF92FF920F931F93CF93DF937C016B0118
:103590008A01C0E0D0E00FC0D6016D916D01D70166
:1035A000ED91FC910190F081E02DC7010995C80FC4
:1035B000D91F015010400115110571F7CE01DF919F
:1035C000CF911F910F91FF90EF90DF90CF900895D2
:1035D000EF92FF920F931F93CF93DF937C018B01A8
:1035E000C0E0D0E0F8010F5F1F4F6491662359F0EF
:1035F000D701ED91FC910190F081E02DC701099573
:10360000C80FD91FEFCFCE01DF91CF911F910F913E
:10361000FF90EF900895CF93DF93EC016115710552
:1036200019F420E030E00FC0DB010D900020E9F735
:103630001197A61BB70BE881F9810280F381E02D79
:10364000AD0109959C01C901DF91CF9108954F9279
:103650005F927F928F929F92AF92BF92CF92DF92B2
:10366000EF92FF920F931F93DF93CF93CDB7DEB707
:10367000A1970FB6F894DEBF0FBECDBF2C01742EFC
:10368000CB01223008F42AE019A231E2C32ED12C5A
:10369000CC0EDD1E822E9924AA24BB24672D752F03
:1036A000A50194010E94461F79018A01C801B70152
:1036B000A50194010E94271F472D461B0894C108AD
:1036C000D1084A3014F4405D01C0495CF6014083E2
:1036D000E114F1040105110521F07E2C5F2DC801D4
:1036E000DDCFC201B6010E940B1BA1960FB6F89464
:1036F000DEBF0FBECDBFCF91DF911F910F91FF9025
:10370000EF90DF90CF90BF90AF909F908F907F9081
:103710005F904F900895DC012115310541F4ED9142
:10372000FC910190F081E02D642F099508950E948D
:10373000271B0895EF92FF920F931F939A017B012D
:1037400000E010E0B801A7010E948B1B1F910F91B0
:10375000FF90EF900895EF92FF920F931F939A01BD
:10376000E62EFF2400E010E0B801A7010E948B1BA9
:103770001F910F91FF90EF900895CF92DF92EF92FB
:10378000FF920F931F93CF93DF93EC016A017B01AC
:103790002115310541F4E881F9810190F081E02D96
:1037A000642F09951FC02A303105D1F477FF17C067
:1037B000E881F9810190F081E02D6DE209958C019D
:1037C00044275527BA014C195D096E097F09CE01BE
:1037D0002AE00E94271B9801280F391F04C02AE005
:1037E0000E94271B9C01C901DF91CF911F910F916E
:1037F000FF90EF90DF90CF900895EF92FF920F939C
:103800001F937B019A010027F7FC0095102FB80148
:10381000A7010E94BD1B1F910F91FF90EF9008958B
:103820000E940B1B0895CF93DF930E949D1D0E9461
:10383000AB06C4EED8E10E94BD0B2097E1F30E94D5
:10384000E418F9CF0F931F93CF93DF93BC0182301D
:10385000910510F462E070E0E0914C06F0914D06A5
:10386000A0E0B0E040E050E024C080819181861764
:103870009707D0F08617970771F48281938110978C
:1038800029F013969C938E9312972CC090934D061B
:1038900080934C0627C04115510519F084179507F0
:1038A00018F4EF018D01AC01DF01828193819C014D
:1038B000F9013097D1F641155105F9F0CA01861B7F
:1038C000970B8430910580F48A819B810115110545
:1038D00021F0F8019383828304C090934D06809376
:1038E0004C06FE0132962FC0FE01E80FF91F6193CE
:1038F000719302979983888326C08DB79EB78857A6
:1039000090402091D1023091D20228173907C8F493
:10391000AC01421B530B4617570798F0CB01029698
:103920004817590770F0820F931F9093D20280932B
:10393000D1029093D4028093D302F90161937193E1
:1039400002C0E0E0F0E0CF01DF91CF911F910F9135
:103950000895CF93DF939C01009709F48FC0EC0189
:1039600022971B821A8260914C0670914D06611558
:10397000710581F488819981820F931F2091D10272
:103980003091D2022817390739F5D093D202C0936B
:10399000D10274C0DB0140E050E0AC17BD0708F174
:1039A000BB83AA83FE0121913191E20FF31FAE1771
:1039B000BF0779F48D919C911197280F391F2E5FC5
:1039C0003F4F3983288312968D919C9113979B8347
:1039D0008A834115510571F4D0934D06C0934C066E
:1039E0004DC012968D919C911397AD01009711F0E7
:1039F000DC01D3CFDA011396DC93CE931297FA0150
:103A000021913191E20FF31FCE17DF0769F488810E
:103A10009981280F391F2E5F3F4FFA013183208390
:103A20008A819B8193838283E0E0F0E0DB01129640
:103A30008D919C911397009719F0BC01FD01F6CF71
:103A4000AB014E5F5F4FDB018D919C91840F951F01
:103A50002091D1023091D2022817390779F430979A
:103A600029F410924D0610924C0602C01382128265
:103A7000425050405093D2024093D102DF91CF91F7
:103A800008950E94A91C08950E94221C08951F9267
:103A90000F920FB60F9211242F933F938F939F9302
:103AA000AF93BF938091470690914806A091490635
:103AB000B0914A0630914B060196A11DB11D232FEE
:103AC0002D5F2D3720F02D570196A11DB11D20939C
:103AD0004B068093470690934806A0934906B093FF
:103AE0004A068091430690914406A0914506B09104
:103AF00046060196A11DB11D80934306909344068E
:103B0000A0934506B0934606BF91AF919F918F91C8
:103B10003F912F910F900FBE0F901F9018958FB768
:103B2000F8942091470630914806409149065091FB
:103B30004A068FBFB901CA010895789484B582609E
:103B400084BD84B5816084BD85B5826085BD85B541
:103B5000816085BDEEE6F0E0808181608083E1E8F0
:103B6000F0E0108280818260808380818160808328
:103B7000E0E8F0E0808181608083E1EBF0E080812B
:103B800084608083E0EBF0E0808181608083EAE7FD
:103B9000F0E0808184608083808182608083808186
:103BA000816080838081806880831092C100089545
:103BB000EF92FF920F931F93CF93DF937B018C01C2
:103BC0003FB7F8948091430690914406A091450632
:103BD000B091460626B5A89B05C02F3F19F0019667
:103BE000A11DB11D3FBFBA2FA92F982F8827820F83
:103BF000911DA11DB11D52E0880F991FAA1FBB1F67
:103C00005A95D1F7EC0130C00E94261F3FB7F894B7
:103C10008091430690914406A0914506B0914606D6
:103C200026B5A89B05C02F3F19F00196A11DB11D17
:103C30003FBFBA2FA92F982F8827820F911DA11D52
:103C4000B11D32E0880F991FAA1FBB1F3A95D1F70B
:103C50008C1B9D0B885E9340B8F20894E108F10834
:103C600001091109C851DC4FE114F10401051105E6
:103C700059F6DF91CF911F910F91FF90EF9008952A
:103C8000CF93DF93482F50E0CA0184519E4FFC012F
:103C9000349148525E4FFA018491882369F190E093
:103CA000880F991FFC01E654FE4FA591B491FC01C9
:103CB000EC53FE4FC591D491662351F42FB7F8947D
:103CC0008C91932F909589238C93888189230BC0A5
:103CD000623061F42FB7F8948C91932F90958923DB
:103CE0008C938881832B88832FBF06C09FB7F8945D
:103CF0008C91832B8C939FBFDF91CF910895482F98
:103D000050E0CA0180509E4FFC012491CA018451A9
:103D10009E4FFC01949148525E4FFA013491332337
:103D200009F440C0222351F1233071F0243028F4EB
:103D30002130A1F0223011F514C02630B1F0273027
:103D4000C1F02430D9F404C0809180008F7703C083
:103D5000809180008F7D8093800010C084B58F7724
:103D600002C084B58F7D84BD09C08091B0008F777B
:103D700003C08091B0008F7D8093B000E32FF0E00E
:103D8000EE0FFF1FEC53FE4FA591B4912FB7F8949F
:103D9000662321F48C919095892302C08C91892B04
:103DA0008C932FBF0895682F70E0CB0180509E4FF9
:103DB000FC012491CB0184519E4FFC014491685237
:103DC0007E4FFB019491992319F420E030E03CC030
:103DD000222351F1233071F0243028F42130A1F056
:103DE000223011F514C02630B1F02730C1F0243054
:103DF000D9F404C0809180008F7703C08091800047
:103E00008F7D8093800010C084B58F7702C084B509
:103E10008F7D84BD09C08091B0008F7703C08091F1
:103E2000B0008F7D8093B000892F90E0880F991F9C
:103E300082539E4FFC01A591B4918C9120E030E01B
:103E4000842311F021E030E0C90108950895629FB4
:103E5000D001739FF001829FE00DF11D649FE00D82
:103E6000F11D929FF00D839FF00D749FF00D659FE3
:103E7000F00D9927729FB00DE11DF91F639FB00DE2
:103E8000E11DF91FBD01CF0111240895A1E21A2EF1
:103E9000AA1BBB1BFD010DC0AA1FBB1FEE1FFF1FEE
:103EA000A217B307E407F50720F0A21BB30BE40B3E
:103EB000F50B661F771F881F991F1A9469F7609585
:103EC0007095809590959B01AC01BD01CF0108953F
:103ED000EE0FFF1F0590F491E02D09942F923F9271
:103EE0004F925F926F927F928F929F92AF92BF920A
:103EF000CF92DF92EF92FF920F931F93CF93DF93B6
:103F0000CDB7DEB7CA1BDB0B0FB6F894DEBF0FBE12
:103F1000CDBF09942A88398848885F846E847D845F
:103F20008C849B84AA84B984C884DF80EE80FD8061
:103F30000C811B81AA81B981CE0FD11D0FB6F894D7
:103F4000DEBF0FBECDBFED01089512E0C8E1D2E0A3
:103F500004C0FE010E946A1F2296CA31D107C9F728
:043F6000F894FFCF03
:103F64004C6F6E67206B65792070726573732C20BB
:103F74004368616E6E656C20000A0053686F72744A
:103F8400206B65792070726573732C204368616EB1
:103F94006E656C2000546F67676C650A00506F7320
:103FA4006974696F6E20756E6B6E6F776E0A00535D
:103FB400746F700A0052657175657374656420507E
:103FC4006F736974696F6E3A2000506F7369746916
:103FD4006F6E20756E6B6E6F776E2E204D6F7669E7
:103FE4006E6720746F207265666572656E63652006
:103FF400706F736974696F6E2E0A00487568750A6C
:10400400004368616E6E656C200054696D65546F81
:1040140070426F74746F6D3A200054696D65426F1D
:1040240074746F6D546F703A200054696D655475E3
:10403400726E41726F756E643A20005374617465D8
:104044003A200052454C41595F4F4646005741497A
:1040540054004D4F56450053544F50005455524E42
:104064005F41524F554E44005357495443485F44AF
:104074004952454354494F4E00202D2054696D65E3
:104084003A2000202D205461726765743A20002084
:104094002D2041637475616C3A2000526566657227
:1040A400656E636520706F736974696F6E207265E5
:1040B40061636865642E2041637475616C20706F60
:1040C400736974696F6E206973206B6E6F776E20ED
:1040D4006E6F770A005265666572656E636520705F
:1040E4006F736974696F6E20726561636865642EAD
:1040F400204D6F76696E6720746F207461726765F6
:104104007420706F736974696F6E206E6F772E0AF6
:10411400002530376C750053657474696E67206EC2
:1041240065772049443A003A000F1113070E101224
:10413400034E06640000000000BF05CD049305058E
:104144000500000000A80EC60B1610000000002C8D
:1041540010F11400000000EA16BE1AD316B416F5C6
:1041640017E41700000000281ABE1ABE19EF19CF71
:0441740019181A00FC
:00000001FF
