:100000000C940D010C9435010C9435010C9449139A
:100010000C9473130C949D130C9435010C943501BE
:100020000C9435010C9435010C9435010C94350178
:100030000C9435010C9435010C9435010C94350168
:100040000C94061B0C9435010C9479160C94C7166D
:100050000C9435010C9435010C9435010C94350148
:100060000C9435010C9435014669726D77617265A7
:100070002056657273696F6E0048617264776172B1
:10008000652056657273696F6E20616E64205479C5
:10009000706500777269746520656570726F6D00B8
:1000A0007265616420656570726F6D0063726320B4
:1000B0006572726F72000A526563656976696E6770
:1000C000200A000A53656E64696E670A00706172E7
:1000D00073696E672066726F6D2061636B7761690B
:1000E00074200053656E64696E672041434B206F36
:1000F000722042726F61646361737400526563655C
:10010000697665642041434B0070617273696E6764
:100110002066726F6D206C6F6F702E2E2E0000C2E5
:1001200001000100110011000C0000E100000A00B4
:100130002500250021000096000019003900390033
:100140003600127A00001F0046004600440080700E
:10015000000022004D004D004A00004B0000360018
:10016000750075007200403800004A009C009C0039
:100170009900802500007200EC00EC00E900C0123C
:100180000000E900DA01DA01D70160090000D701B7
:10019000B603B603B303B0040000B3036E076E07E3
:1001A0006B07580200006E07DC0EDC0ED80E2C0127
:1001B0000000DC0EC11DC11DBE1D0000000024009A
:1001C00027002A0000000000250028002B00000066
:1001D000000023002600290004040404040404048D
:1001E00002020202020203030303030301020408E2
:1001F0001020408001020408102001020408102091
:1002000000000007000201000003040600000000D7
:1002100000000000F4043818ED0411241FBECFEFD5
:10022000D8E0DEBFCDBF11E0A0E0B1E0E0E1FAE34D
:1002300002C005900D92A237B107D9F714E0A2E7EA
:10024000B1E001C01D92A336B107E1F712E0C8E1A9
:10025000D2E004C02297FE010E94C01CC431D10725
:10026000C9F70E94D2190C94FB1C0C940000FB01EE
:10027000DC0102C001900D9241505040D8F7089522
:10028000DC0101C06D9341505040E0F70895AEE0AD
:10029000B0E0EDE4F1E00C94D21C0D891E8986E0FB
:1002A0008C831A8309838FEF9FE79E838D839E0142
:1002B000275E3F4FCE0101966F89788DA9010E947C
:1002C0006B012F813885020F131FF80110822E96C3
:1002D000E4E00C94EE1CABE0B0E0E1E7F1E00C945C
:1002E000C41C3C012B015A01FC0117821682838138
:1002F00081FD03C06FEF7FEFC6C19AE0892E1E011A
:100300000894211C311CF3012381F20123FD859106
:1003100023FF81912F01882309F4B2C1853239F47A
:1003200023FD859123FF81912F01853229F490E0EF
:10033000B3010E945E03E7CF982FFF24EE24992497
:10034000FFE1FF15D0F09B3269F09C3228F4903227
:1003500059F0933291F40EC09D3249F0903369F414
:1003600041E024C052E0F52A84E0F82A28C098E051
:10037000F92A25C0E0E1FE2A22C0F7FC29C0892F16
:1003800080538A3070F4F6FE05C0989C902C11249E
:10039000980E15C0E89CE02C1124E80EF0E2FF2A2C
:1003A0000EC09E3229F4F6FC6BC140E4F42A07C06B
:1003B0009C3619F450E8F52A02C0983649F4F20147
:1003C00023FD959123FF91912F01992309F0B8CF37
:1003D000892F8554833018F08052833038F444E0FC
:1003E00050E0A40EB51E5FE359830FC0933631F081
:1003F000933779F0933509F056C020C0F50180811C
:10040000898342E050E0A40EB51E610101E010E0D6
:1004100012C0F501C080D180F6FC03C06FEF7FEF02
:1004200002C0692D70E042E050E0A40EB51EC60186
:100430000E9453038C015FE7F52214C0F501C080D0
:10044000D180F6FC03C06FEF7FEF02C0692D70E032
:1004500042E050E0A40EB51EC6010E9448038C0184
:1004600050E8F52AF3FE07C01AC080E290E0B3011D
:100470000E945E03EA948E2D90E008171907A8F3F6
:100480000EC0F601F7FC8591F7FE81916F0190E0B7
:10049000B3010E945E03E110EA940150104001157F
:1004A000110579F7EAC0943611F0993669F5F7FE2F
:1004B00008C0F501208131814281538184E090E0C0
:1004C0000AC0F501808191819C01442737FD409548
:1004D000542F82E090E0A80EB91E9FE6F92257FF44
:1004E00009C050954095309521953F4F4F4F5F4F34
:1004F000E0E8FE2ACA01B901A1012AE030E00E9429
:100500008A03D82ED21840C0953729F41F2D1F7E9C
:100510002AE030E01DC01F2D197F9F3661F0903713
:1005200020F4983509F0ACC00FC0903739F09837F7
:1005300009F0A6C004C028E030E00AC0106114FD34
:10054000146020E130E004C014FD166020E132E0C8
:1005500017FF08C0F501608171818281938144E0B9
:1005600050E008C0F50180819181BC0180E090E0FD
:1005700042E050E0A40EB51EA1010E948A03D82ECD
:10058000D2188FE7F82EF122F6FE0BC05EEFF522AF
:10059000D91438F4F4FE07C0F2FC05C08FEEF8223F
:1005A00002C01D2D01C0192DF4FE0DC0FE01ED0D80
:1005B000F11D8081803319F499EEF92208C01F5F84
:1005C000F2FE05C003C08F2D867809F01F5F0F2D46
:1005D000F3FC14C0F0FE0FC01E1510F09D2C0BC0D4
:1005E0009D2C9E0C911A1E2D06C080E290E0B30156
:1005F0000E945E031F5F1E15C0F304C01E1510F499
:10060000E11A01C0EE2404FF0FC080E390E0B301C3
:100610000E945E0302FF1DC001FD03C088E790E059
:100620000EC088E590E00BC0802F867891F001FF26
:1006300002C08BE201C080E2F7FC8DE290E0B301E2
:100640000E945E0306C080E390E0B3010E945E0357
:100650009A94D914C0F3DA94F101ED0DF11D808163
:1006600090E0B3010E945E03DD20A9F706C080E29E
:1006700090E0B3010E945E03EA94EE20C1F743CEFE
:10068000F30166817781CB012B96E2E10C94E01CAB
:10069000FC010590615070400110D8F7809590954D
:1006A0008E0F9F1F0895FC01615070400190011052
:1006B000D8F7809590958E0F9F1F08950F931F93E5
:1006C000CF93DF938C01EB018B8181FF1BC082FFF5
:1006D0000DC02E813F818C819D812817390764F4DC
:1006E000E881F9810193F983E88306C0E885F985FB
:1006F000802F0995892B31F48E819F8101969F83EC
:100700008E8302C00FEF1FEFC801DF91CF911F91C1
:100710000F910895FA01AA27283051F1203181F173
:10072000E8946F936E7F6E5F7F4F8F4F9F4FAF4FF9
:10073000B1E03ED0B4E03CD0670F781F891F9A1F0C
:10074000A11D680F791F8A1F911DA11D6A0F711DC0
:10075000811D911DA11D20D009F468943F912AE0CC
:10076000269F11243019305D3193DEF6CF010895B4
:10077000462F4770405D4193B3E00FD0C9F7F6CFE5
:10078000462F4F70405D4A3318F0495D31FD4052AD
:10079000419302D0A9F7EACFB4E0A6959795879543
:1007A00077956795BA95C9F7009761057105089522
:1007B0009B01AC010A2E06945795479537952795CE
:1007C000BA95C9F7620F731F841F951FA01D089566
:1007D0001F9380918001E0918201833009F043C032
:1007E00060917B0170917C0180917D0190917E01EF
:1007F00020917701309178014091790150917A01EF
:1008000010913001EE23C1F4621B730B840B950B26
:100810002091860130918701442737FD4095542F60
:100820000E949C1C812F821B80933001853608F426
:100830003FC0109230013CC0621B730B840B950BC0
:100840002091840130918501442737FD4095542F34
:100850000E949C1C210F209330012536E0F184E694
:100860008093300138C060917B0170917C01809150
:100870007D0190917E012091770130917801409126
:10088000790150917A0110913101EE23A1F4621B9C
:10089000730B840B950B2091330230E040E050E065
:1008A0000E949C1C812F821B809331018536B0F001
:1008B0001092310113C0621B730B840B950B2091B6
:1008C000330230E040E050E00E949C1C210F209356
:1008D0003101253618F084E6809331011F91089587
:1008E0004F3F5105E1F490918001923011F4109244
:1008F0007F0181E080938301992319F0943009F0FE
:1009000049C080918201882321F484E6809381018B
:1009100002C01092810181E080937F010895493CDB
:10092000510519F410927F012CC0CA019695879544
:1009300080938101853618F084E68093810180914F
:1009400080018250823008F50E94E8038091820184
:10095000882339F49091810180913001891758F4EE
:1009600008C0813041F49091810180913001981745
:1009700010F485E004C080918001833059F48093A5
:100980007F0181E080938301089581E080937F015E
:100990008093830108958091810190E008958130D2
:1009A000910589F46F5F7F4FB9F488E891E066E3C1
:1009B00074E042E00E94EF0D8AE391E090933A02E6
:1009C000809339020895892B39F46F5F7F4F21F4AA
:1009D00088E891E00E94FC0D089580E090E06FEFC0
:1009E0007FEF0E94CF04089581E090E06FEF7FEFEA
:1009F0000E94CF0408950F931F93CF93DF93C0E01D
:100A0000D0E008E212E021968DEA93E0BE010E9458
:100A10006516F80181938F01C131D105A1F780914D
:100A200028028F3F19F484E18093280280912902E3
:100A300090912A02A0912B02B0912C028F5F9F4FC0
:100A4000AF4FBF4F61F080912F028F3F19F48AE0C2
:100A500080932F02809131028F3F89F40DC081E095
:100A600090E0A0E0B0E08093290290932A02A09346
:100A70002B02B0932C02E7CF8AE080933102909151
:100A8000380280E020913702820F911D90938501FA
:100A9000809384019091360280E020913502820F8C
:100AA000911D9093870180938601DF91CF911F91D3
:100AB0000F9108950F931F930E944E1B9B01AC0151
:100AC00060937B0170937C0180937D0190937E0104
:100AD00060918301613071F0809173019091740194
:100AE000A0917501B0917601281739074A075B0775
:100AF00008F437C110917F01123009F4D6C01330C9
:100B000038F4112309F4A0C0113009F02AC11BC028
:100B1000143031F0143060F1153009F022C102C1F7
:100B20008CE061E00E94D61B1093800180917B01D4
:100B300090917C01A0917D01B0917E01805E914BEE
:100B4000AF4FBF4F06C1909181018091300189174D
:100B500018F41093820102C0109282018CE060911F
:100B600082010E94D61B81E08093800182E0E1C077
:100B70008BE060E00E94D61B40917B0150917C018C
:100B800060917D0170917E014093770150937801CF
:100B90006093790170937A0183E0809380011092D1
:100BA0007F01809182013091810120913001882361
:100BB00049F4822F90E0831B9109209186013091A6
:100BC000870108C0832F90E0821B91092091840146
:100BD00030918501FC01E29FC001E39F900DF29FDF
:100BE000900D1124AA2797FDA095BA2F840F951F69
:100BF000A61FB71F8093730190937401A093750192
:100C0000B093760180918101882311F08436A1F49C
:100C10008091730190917401A0917501B09176015A
:100C200088519C4FAF4FBF4F8093730190937401D5
:100C3000A0937501B093760180918301813009F012
:100C400090C0109283018DC0613049F410928301ED
:100C50000E94E80380913001809381010EC0809151
:100C600081018093300180918201882319F41092D0
:100C7000310103C084E680933101409130018091BD
:100C800026029091270262E050E00FEF1FEF2FEF56
:100C90003FEF0E944E0B8BE061E00E94D61B10924A
:100CA000800184E080937F0148C08BE060E00E9477
:100CB000D61B40917B0150917C0160917D01709128
:100CC0007E0140937701509378016093790170938E
:100CD0007A011093800183E080937F0180918201EB
:100CE00090913101882331F480913302899FC001B2
:100CF00011240FC024E630E0291B31098091330212
:100D000090E0FC012E9FC0012F9F900D3E9F900D03
:100D10001124AA2797FDA095BA2F840F951FA61F0F
:100D2000B71F17C08BE061E00E94D61B10938001B3
:100D300081E080937F011092830180917B019091EB
:100D40007C01A0917D01B0917E0188539F4FAF4FF0
:100D5000BF4F8093730190937401A0937501B0937A
:100D600076011F910F910895682F809156029091FE
:100D70005702009721F04AE050E00E946A19089556
:100D80001F9310E08091560290915702009721F036
:100D900060E071E00E94CF19812F0E94B40680911B
:100DA000560290915702009721F06FE071E00E9487
:100DB000CF198091560290915702009721F06FE071
:100DC00071E00E94CF191F5F1230E1F61F91089564
:100DD0000F931F9385E060E00E94971B86E061E01F
:100DE0000E94971B82E061E00E94971B82E060E016
:100DF0000E94D61B88E062E00E94971B84E061E0BD
:100E00000E94971B8CE190E00E94031B182F092F72
:100E100065E046E020E00E943716812F902F40E0E9
:100E20005BE460E070E00E94C713109356020093E9
:100E3000570286E394E040E05BE460E070E026E285
:100E40000E94021789E392E00E94FB0489E062E0BD
:100E50000E94971B8AE062E00E94971B8BE061E092
:100E60000E94971B8BE061E00E94D61B8CE061E042
:100E70000E94971B8CE061E00E94D61B87E090E007
:100E80000E94031B182F092F69E372E048E851E024
:100E900025E10E94BE0A109326020093270280914A
:100EA000560290915702009721F062E171E00E9492
:100EB000CF19809126029091270260E00E94AE0B2C
:100EC0000E94C0061F910F91089589E00E942A1C7C
:100ED00020917201892B11F42E7F01C02160209393
:100EE00072018AE00E942A1C20917201892B11F064
:100EF000226001C02D7F2093720108952F923F92AE
:100F00004F925F926F927F928F929F92AF92BF9219
:100F1000CF92DF92EF92FF920F931F93CF93DF93C5
:100F20000E944E1B4B015C010E94650775E4472E31
:100F300072E0572E6FE2262E62E0362E5BE3652EBE
:100F400052E0752E43E4C42E42E0D42EC0E0D0E03F
:100F50006C2FFE01EE0FFF1FE25DFD4F808181FFD0
:100F6000B4C08091720190E09E012770307002C081
:100F7000959587952A95E2F7F2012081318142818A
:100F8000538180FF26C0211531054105510509F423
:100F90009CC0D501C401821B930BA40BB50BC29757
:100FA000A105B105A0F0F30180819181A281B381F7
:100FB0000097A105B10559F4F60140814F5F4083C8
:100FC000809126029091270220E00E947F0BF2017F
:100FD00078C0211531054105510509F460C0F301C0
:100FE00080819181A281B3810097A105B10521F192
:100FF000A5019401281B390B4A0B5B0BDA01C901CF
:101000008C529140A040B04008F45FC0811491041C
:10101000A104B10419F0D501C40104C081E090E03D
:10102000A0E0B0E0F30180839183A283B383809139
:101030002602909127022DC00E944E1B7B018C013D
:10104000F20180819181A281B381E81AF90A0A0B29
:101050001B0BF101608170E080E090E024E630E05D
:1010600040E050E00E947D1CE616F70608071907CD
:1010700060F1F60180818F5F80830E944E1BF30137
:1010800060837183828393838091260290912702EB
:101090006C2FF601408121E00E947F0B16C0811465
:1010A0009104A104B10419F0D501C40104C081E088
:1010B00090E0A0E0B0E0F20180839183A283B3834B
:1010C000F3011082118212821382219624E030E013
:1010D000420E531E42E050E0240E351E620E731E77
:1010E0000894C11CD11CC230D10509F031CFDF9169
:1010F000CF911F910F91FF90EF90DF90CF90BF9015
:10110000AF909F908F907F906F905F904F903F90A7
:101110002F900895EF92FF920F931F930E944E1B02
:101120007B018C0188E00E942A1C20E0892B09F4B5
:1011300021E080915102823009F445C0833030F4BF
:10114000882371F0813009F09CC00FC0843009F40D
:101150006BC0843008F43CC0853009F092C084C074
:10116000222309F452C081E04CC080915202909138
:101170005302A0915402B0915502222381F0A8019C
:101180009701281B390B4A0B5B0BDA01C9018958FF
:101190009341A040B0400CF474C082E062C0B8013A
:1011A000A701481B590B6A0B7B0B4536510561059E
:1011B00071050CF461C0809126029091270260E0D5
:1011C0000E94AE0B59C0222309F05BC083E019C016
:1011D0008091520290915302A0915402B091550215
:1011E000B801A701481B590B6A0B7B0BDB01CA0135
:1011F00044365105610571050CF443C0222371F09A
:1012000084E0809351020E94B406E0925202F09270
:101210005302009354021093550233C081519742F8
:10122000A040B04074F128C08091520290915302C6
:10123000A0915402B0915502B801A701481B590B67
:101240006A0B7B0BDB01CA01443651056105710550
:10125000C4F0222389F0895B9B40A040B0408CF011
:1012600085E0809351020BC0222359F4809126021D
:10127000909127020E94ED0A1092510280E00E9494
:10128000B40680915102853040F4823090F4882376
:1012900041F0813009F048C007C0853009F044C0F2
:1012A0001CC084E060E002C084E061E00E94D61BC4
:1012B0003BC080914D0290914E02A0914F02B0919F
:1012C0005002A8019701281B390B4A0B5B0B2536EE
:1012D00031054105510544F115C080914D029091B1
:1012E0004E02A0914F02B0915002B801A701481BD5
:1012F000590B6A0B7B0BDB01CA018F5E9240A04049
:10130000B04094F084E00E942A1C60E0892B09F42C
:1013100061E084E00E94D61BE0924D02F0924E0202
:1013200000934F02109350021F910F91FF90EF9086
:10133000089588E891E00E946E120E948A080E9437
:101340007E070E945A050895FC0184E491E0918390
:10135000808308950F931F938C01DC011396ED9108
:10136000FC91149784E0818B1396ED91FC91149776
:1013700089E6828B1396ED91FC911497638B1596F9
:101380000D90BC91A02DED91FC9111970280F381FD
:10139000E02DCD010995D8011396ED91FC9114979C
:1013A000948B1396ED91FC911497858B1F910F915F
:1013B0000895FF920F931F938C01F62EFC01A581D7
:1013C000B681ED91FC9111970190F081E02DCD0156
:1013D0000995C8016F2D0E94AA091F910F91FF90D6
:1013E0000895CF92DF92EF92FF920F931F93DF93B6
:1013F000CF93CDB7DEB764970FB6F894DEBF0FBEBC
:10140000CDBF8B012DB73EB7285030400FB6F894B2
:101410003EBF0FBE2DBFEDB6FEB60894E11CF11C19
:101420006E010894C11CD11CADB7BEB71296DC92F8
:10143000CE92119728E131E0F70133832283DC015A
:101440001396ED91FC911497608571858285938543
:1014500020E836E948E950E00E949C1CF7016483CB
:101460007583868397830E94470188E4D8018C9313
:1014700082E411968C93119787E512968C931297BC
:101480001396F60187E001900D928150E1F7EDB7D8
:10149000FEB738960FB6F894FEBF0FBEEDBF649648
:1014A0000FB6F894DEBF0FBECDBFCF91DF911F9175
:1014B0000F91FF90EF90DF90CF900895AF92BF9281
:1014C000CF92DF92EF92FF920F931F93CF93DF9310
:1014D0005C01DC011396ED91FC9114971086118646
:1014E00012861386CCEFD3E0F501C380D480D601F9
:1014F0001896ED90FD900D911C911B97102F0F2DBC
:10150000FE2CEE24F601E086F186028713878DEA31
:1015100093E0BE010E94651690E0A0E0B0E08E2945
:101520009F29A02BB12BF60180879187A287B387D3
:101530002196F4E0C030DF07B9F6D5011396ED919E
:10154000FC91149780859185A285B3858F5F9F4F0D
:10155000AF4FBF4F41F48FEF9FEFAFEFB2E4808703
:101560009187A287B387DF91CF911F910F91FF9051
:10157000EF90DF90CF90BF90AF900895FC01DA011B
:1015800084E491E0918380837683658354834383ED
:101590001396FC93EE9312972283CF010E945E0A6A
:1015A00008951F93CF93DF93EB01142F222321F48F
:1015B00083E06C3F78076CF48DEA93E0BE010E94F3
:1015C0006516181731F08DEA93E0BE01412F0E9495
:1015D0006C16DF91CF911F910895EF92FF920F93B8
:1015E0001F93CF93DF937C01DC011396CD91DC91A7
:1015F000149788859985AA85BB858F5F9F4FAF4FCC
:10160000B24409F044C00E944E1B688779878A87DC
:101610009B878091560290915702009721F06EE1CE
:1016200071E00E94CF19D7011396ED91FC911497A8
:10163000408551856285738580915602909157024D
:10164000009721F02AE030E00E945B19C0E0D0E072
:101650000FEF13E0D7011396ED91FC9114972085BD
:101660003185428553850C2E04C056954795379594
:1016700027950A94D2F7C701B801422F21E00E94B2
:10168000D10A289601501040C032D10519F7DF91D8
:10169000CF911F910F91FF90EF9008950F931F939B
:1016A000DC011396ED91FC9114970487158726872A
:1016B000378788EF808B1396ED91FC91149784E027
:1016C000818B1396ED91FC91149789E6828B13968A
:1016D000ED91FC911497638B1396ED91FC91149707
:1016E000548B1396ED91FC911497458B13968D9125
:1016F0009C9114970E9478111F910F910895CF9398
:10170000DF93EC01EB81FC818FEF9FEFAFEFBFEF39
:1017100084879587A687B78788EF808BEB81FC81CC
:1017200084E0818BEB81FC818BE4828BEB81FC81FB
:10173000638BEB81FC81148AEB81FC81222311F401
:1017400082E001C083E0440F440F840F858B8B81BE
:101750009C810E947811DF91CF9108950F931F9380
:101760008C01DC011396ED91FC9114978FEF9FEFA4
:10177000AFEFBFEF84879587A687B78788EF808B09
:10178000D8011396ED91FC91149780E1818B13960B
:10179000ED91FC91149781E4828B1396ED91FC916D
:1017A0001497638B1396ED91FC91149712968C917C
:1017B0001297848B1396ED91FC911497158A1396CA
:1017C000ED91FC91149783E0868B1396ED91FC913B
:1017D000149786E0878B13966D917C911497685EC1
:1017E0007F4FC8010E94F109F801838194810E9412
:1017F00078111F910F9108952F923F924F925F920F
:101800006F927F928F929F92AF92BF92CF92DF9210
:10181000EF92FF920F931F93CF93DF936C01EB0135
:101820001B818C81D6011396ED91FC911497282F82
:101830002695269526952C5F218B2450282E33241F
:10184000C10187709070892B11F02B5F218B41892A
:101850009F012E5E3F4FC90160E070E050E00E94A2
:101860004001D6011396ED91FC91149785E6828B89
:101870008981838B8A81848B8B81858BA12EBB246C
:1018800000E010E0EE24FF24250131E0632E712CEE
:10189000812C912C34C0BE016E0D7F1D8DEA93E02A
:1018A0000E9465168F3F01F1D6011396ED91FC91D0
:1018B0001497C80123E0959587952A95E1F704963A
:1018C000E80FF91FC80187709070A401930104C04C
:1018D000220F331F441F551F8A95D2F7DA01C90121
:1018E0002289282B228B04C02196C415D5059CF291
:1018F0000F5F1F4FEA0CFB1C201631061CF0C0E0E6
:10190000D0E0F3CFDF91CF911F910F91FF90EF9037
:10191000DF90CF90BF90AF909F908F907F906F900F
:101920005F904F903F902F9008959F92AF92BF92FB
:10193000CF92DF92EF92FF920F931F93CF93DF939B
:101940005C017B01D42E222309F034C1DC01139603
:10195000ED91FC91149784819581A681B78184874C
:101960009587A687B78788E7808BDB018C918335C5
:1019700009F48CC08435A8F4853409F454C0863445
:1019800048F4813409F40EC18334F1F1803409F054
:1019900003C11DC08B3409F405C1823509F0FCC0B8
:1019A00046C08E3609F4BEC08F3638F4873509F448
:1019B00074C0883609F0F0C0A1C0863709F4C6C0EB
:1019C000883709F4D9C0833709F0E6C0B7C0FB01F6
:1019D00081818136A9F4F6E04F1791F48B01CCEFA9
:1019E000D3E0C501BE01D80112964C9121E00E94BE
:1019F000D10A0F5F1F4F2196B4E0C030DB0789F793
:101A0000C5010E945E0AC8C0D5011596ED91FC91F2
:101A10001697A081B18114962D913C911597CF0115
:101A2000F9010995B9C0C5010E94FC0BADC0B4E035
:101A30004B1709F0B1C08091560290915702009760
:101A400021F060EA70E00E94B818F701918180E00F
:101A50002281C22EDD24C82AD92A99240DC0092D3D
:101A600010E0B8016C0D7D1D8DEA93E00E946516B3
:101A7000C00FD11F8A8B9394D70113968C91F501D7
:101A8000C381D481981658F3898B7EC0C501DB01D0
:101A900011966C910E94AA0985C0242F30E0FB01A9
:101AA000838190E004962817390709F075C080916A
:101AB000560290915702009721F063E970E00E946E
:101AC000B818D70111969C91119780E012962C912D
:101AD000C22FD0E0C82BD92B870144E0F42E0BC0D5
:101AE000C501BE01F801448120E00E94D10AF394AF
:101AF0000F5F1F4F2196FD1498F34EC08091560240
:101B000090915702009721F069E770E00E94B818A1
:101B1000D5011396ED91FC91149712968C91828BBE
:101B200081E026C07296C501BF010E94F109D5016E
:101B30001396ED91FC9114978AE01CC0FB01428141
:101B4000C501618150E00E94D90926C080915602EA
:101B500090915702009721F068E670E00E94B81853
:101B6000D5011396ED91FC91149783E0828B86E06A
:101B7000838B82E0818B08C0FB014281C5016181BA
:101B800050E00E94D9090EC0D50113968D919C9109
:101B900014970E9478110EC0F501838194810E94F0
:101BA000031208C0D5011396ED91FC91149789E6B4
:101BB000828BEACFDF91CF911F910F91FF90EF9031
:101BC000DF90CF90BF90AF909F900895FC0184E488
:101BD00091E091838083CF010E94001B0895FC0156
:101BE0008EE491E091838083EE5AFF4F619371936D
:101BF0004083329610820895FC018EE491E0918337
:101C000080830895FF920F931F93CF93DF93EC018E
:101C1000F62E062F10E08091560290915702009701
:101C200051F0B80124E0759567952A95E1F740E1F8
:101C300050E00E94BC198091560290915702009783
:101C400039F00F701070B80140E150E00E94BC19EB
:101C50008091560290915702009721F06EE271E058
:101C60000E94CF198F2D8C5F833080F4CE5ADF4FC6
:101C7000E881F981C255D040A081B1812D913C917C
:101C8000CF016CEFF90109958FE7F822CE5ADF4FAB
:101C9000E881F981A081B1812D913C91CF016F2D17
:101CA000F9010995DF91CF911F910F91FF90089550
:101CB000BC018091560290915702009711F00E944A
:101CC000B81808956F927F928F929F92AF92BF92B1
:101CD000CF92DF92EF92FF920F931F93CF93DF93F8
:101CE0008C0142E5A42EB12CA80EB91E35E5C32EF9
:101CF000D12CC80ED91E22E0822E20E1922E66241D
:101D00006A9494E0E92E89E0782E68C1D501ED91BE
:101D1000FC91A081B18116962D913C911797CF012E
:101D2000F9010995F82EBDEF8B1721F486EB90E0B1
:101D30000E94580ECF2DD0E080915602909157020C
:101D4000009751F0BE01B4E075956795BA95E1F73B
:101D500040E150E00E94BC198091560290915702D8
:101D6000009739F0CF70D070BE0140E150E00E9482
:101D7000BC198091560290915702009721F06EE2B3
:101D800071E00E94CF19ECEFFE1639F4D6018C9168
:101D900081FD03C082608C9321C18F2D8D5F8230C5
:101DA000E8F5F092A802F601808181608D7F808342
:101DB00010925B0210925A0210929F021092A0029F
:101DC0001092A1021092A2021092A4021092A502F7
:101DD0001092A6021092A7025F2D2FEF3FEF40E076
:101DE000C901880F991F57FD816037FD02C09C0112
:101DF00003C09C01282539254F5F483011F0550F4D
:101E0000EFCF3093590220935802FDEFFF1609F0EF
:101E1000E5C0E0925D0270925C02E0C0D6018C9158
:101E200080FFDCC081FF05C0B0E8FB2A8D7FF60192
:101E3000808320915802309159025F2D40E0C90102
:101E4000880F991F57FD816037FD02C09C0103C0B8
:101E50009C01282539254F5F483011F0550FEFCFF1
:101E6000309359022093580260915A0280915D028A
:101E70006817E8F42091A4023091A5024091A602CF
:101E80005091A702542F432F322F22278F2D90E0FD
:101E9000A0E0B0E0822B932BA42BB52B8093A4025F
:101EA0009093A502A093A602B093A7022CC0681736
:101EB00031F46F5F60935A02F092A3028FC0509189
:101EC000A30253FF24C080915C02681700F52091A3
:101ED0009F023091A0024091A1025091A202542F82
:101EE000432F322F22278F2D90E0A0E0B0E0822BED
:101EF000932BA42BB52B80939F029093A002A093C9
:101F0000A102B093A2026F5F60935A0267C06F3F55
:101F100029F060925A02F0929E0260C040915B02EA
:101F2000E42FF0E0CEE5D2E0EC0FFD1FF082942F1D
:101F30009F5F90935B0280919E02981709F04EC0BC
:101F4000232B09F047C0F801EB5AFF4F80818E7FA9
:101F5000808304561F4F8091A802D8018C930554AA
:101F600010408091A4029091A502A091A602B09188
:101F7000A702F80180839183A283B3830A5B1F4F7A
:101F8000D8015C930D59104080919F029091A0025E
:101F9000A091A102B091A202F80184839583A68347
:101FA000B7834150055A1F4FD8014C930B55104031
:101FB0009801245A3F4FC901BE0150E00E943701E9
:101FC00010925B0210925A020A5A1F4F81E0F801E8
:101FD000808313C08CEA90E00E94580ED501ED91E9
:101FE000FC91A081B18114962D913C911597CF0160
:101FF000F9010995892B09F089CEDF91CF911F91C5
:102000000F91FF90EF90DF90CF90BF90AF909F9097
:102010008F907F906F9008958F929F92AF92BF9212
:10202000CF92DF92EF92FF920F931F93CF93DF93A4
:102030007C01FC0184859585A685B7858F5F9F4FC0
:10204000AF4FBF4FC9F02DE930E0E20EF31ED701CC
:102050008C91E3E6FFEFEE0EFF1E90E095958795DD
:1020600083708295880F807ED70150962C9150976F
:102070002F79822B50968C9383EC90E00E94580E1F
:10208000E4E5F0E0EE0EFF1ED7018C9161E00E94C6
:10209000D61BD701FE91EE917D012EEA3FEFE20EB5
:1020A000F31EA081B1812D913C91CF016DEFF9011B
:1020B0000995CFEFDFEF3DEF20E042E050E1CE01A8
:1020C000880F991F37FD8160D7FD02C0EC0103C066
:1020D000EC01C427D5272F5F283011F0330FEFCF45
:1020E000D7011C96AD90BD90CD90DC901F9710E06D
:1020F00002E0802E00E1902E2D2D33274427552716
:10210000022FC701622F0E94020E20E0CE01880F2D
:10211000991F07FD8160D7FD02C0EC0103C0EC01EF
:10212000C825D9252F5F283011F0000FEFCF1F5F92
:10213000143029F0DC2CCB2CBA2CAA24DDCFC7011B
:10214000F70160890E94020ED70150964C91342FFE
:1021500020E062E070E1CE01880F991F37FD8160B9
:10216000D7FD02C0EC0103C0EC01C627D7272F5FC3
:10217000283011F0330FEFCF43FF2DC0F701A084BB
:10218000B184C284D38410E052E0852E50E1952EB4
:102190002D2D332744275527022FC701622F0E9478
:1021A000020E20E0CE01880F991F07FD8160D7FD48
:1021B00002C0EC0103C0EC01C825D9252F5F2830EF
:1021C00011F0000FEFCF1F5F143029F0DC2CCB2C67
:1021D000BA2CAA24DDCFD70151960C910E5FC7010E
:1021E000602F0E94020E20E042E050E1CE01880FF5
:1021F000991F07FD8160D7FD02C0EC0103C0EC010F
:10220000C427D5272F5F283031F4DD24F2E0AF2E2C
:10221000F0E1BF2E20C0000FE9CF87010D0D111D89
:10222000C701F80162890E94020ED80152963C91C2
:1022300020E0CE01880F991F37FD8160D7FD02C0D5
:10224000EC0103C0EC01CA25DB252F5F283011F01B
:10225000330FEFCFD394F7018189D816F0F220E045
:1022600042E050E1CE01CC0FDD1F97FF02C0C42732
:10227000D5272F5F2830B1F720E042E050E1CE01B2
:10228000CC0FDD1F97FF02C0C427D5272F5F283052
:10229000B1F7C7016D2F0E94020EC7016C2F0E947B
:1022A000020E22E530E0E20EF31EF701A191B1919A
:1022B0007F01ED91FC9111970284F385E02DCD0112
:1022C0000995D7018D917D0160E00E94D61BF70131
:1022D000808188608083DF91CF911F910F91FF9063
:1022E000EF90DF90CF90BF90AF909F908F90089528
:1022F0006F927F928F929F92AF92BF92DF92EF92F6
:10230000FF920F931F93CF93DF93EC018C859D85F4
:10231000AE85BF858F5F9F4FAF4FBF4F21F088893C
:1023200083708130C9F483EE90E00E94580E688972
:102330008091560290915702009721F040E150E0C1
:102340000E946A19CE010E940C10FE01EB5AFF4F49
:102350008081877F808349C0DD24A6E5AA2EB12C29
:10236000AC0EBD1EF7E56F2E712C6C0E7D1EE5E5E3
:102370008E2E912C8C0E9D1ECE010E940C100E9460
:102380004E1B7B018C0122C0CE010E94620EF50122
:1023900080818823D9F0F3012081318142815381EA
:1023A00088859985AA85BB85281739074A075B0761
:1023B00069F4F50110828DEC90E00E94580ECE0178
:1023C0000E940B12F401808183FF0FC00E944E1BFC
:1023D0006E197F09800B910B683C71058105910591
:1023E00098F2D394F3E0DF1639F6DF91CF911F9185
:1023F0000F91FF90EF90DF90BF90AF909F908F90E4
:102400007F906F900895FC0189E1808B118ACF0144
:102410000E94781108950F931F93CF93DF93EC01DF
:102420008C010B5A1F4FF801808183FF28C0C356CF
:10243000DF4F2881CD59D04030E085E03595279594
:102440008A95E1F72370888990E095958795837048
:102450002817A9F42C813D814E815F818C859D8553
:10246000AE85BF85281739074A075B0741F48CEF13
:1024700090E00E94580EF8018081877F8083C356C8
:10248000DF4F8881CD59D04083708130F9F0C55A33
:10249000DF4F8881CB55D0408823D1F4C95ADF4F14
:1024A00088819981AA81BB81C755D0408F5F9F4F9A
:1024B000AF4FBF4F69F08C819D81AE81BF818C870A
:1024C0009D87AE87BF87CE010E94031280E001C0C6
:1024D00081E0DF91CF911F910F9108950F931F938A
:1024E000CF93DF93EC010E94620EFE01EA5AFF4F88
:1024F0008081882309F440C01082C95ADF4F2881A7
:1025000039814A815B81C755D04088859985AA85E4
:10251000BB85281739074A075B0729F02F5F3F4F14
:102520004F4F5F4F49F589E091E00E94580ECE0170
:102530000E940B12882301F14A815B81DA01ED913F
:10254000FC91BE01645A7F4F9E01255A3F4F10E017
:10255000C95ADF4F88819981AA81BB818F5F9F4FC4
:10256000AF4FBF4F09F411E00190F081E02DCA0197
:10257000D9014C91212F0995DF91CF911F910F9196
:102580000895FC018EE491E091838083CF010E9445
:10259000001B08950F931F93CF93DF93DC015B968D
:1025A0007C915B97769571701E96ED91FC911F97CB
:1025B0001D969C911D97772329F08081892309F42A
:1025C00063C004C08081892309F05EC053968D9159
:1025D0009C91549720E001972FEF8F3F9207D9F7F6
:1025E0005596CD91DC9156971E96ED91FC911F97D3
:1025F0001D961C911D9760E031E040E050E000E046
:10260000CE01202F01972FEF8F3F9207D9F78081BE
:10261000812311F0632B03C0832F80956823330F30
:102620004F5F5F4F4830510559F757968D919C91F8
:10263000589720E0FC01322F31973FEFEF3FF3072F
:10264000D9F701972FEF8F3F9207D9F77111609556
:102650008091AB032091AC038F5F90E030E0821754
:10266000930761F0E091AB03F0E0E555FD4F608327
:102670008091AB038F5F8093AB0306C05B968C9118
:102680005B9781605B968C93DF91CF911F910F9147
:1026900008951F920F920FB60F9211242F933F931C
:1026A0004F935F936F937F938F939F93AF93BF935A
:1026B000EF93FF938091A9029091AA02009711F0E5
:1026C0000E94CA12FF91EF91BF91AF919F918F919C
:1026D0007F916F915F914F913F912F910F900FBE1E
:1026E0000F901F9018951F920F920FB60F92112402
:1026F0002F933F934F935F936F937F938F939F930A
:10270000AF93BF93EF93FF938091A9029091AA0298
:10271000009711F00E94CA12FF91EF91BF91AF9103
:102720009F918F917F916F915F914F913F912F91E9
:102730000F900FBE0F901F9018951F920F920FB61B
:102740000F9211242F933F934F935F936F937F9337
:102750008F939F93AF93BF93EF93FF938091A902C1
:102760009091AA02009711F00E94CA12FF91EF9176
:10277000BF91AF919F918F917F916F915F914F9199
:102780003F912F910F900FBE0F901F901895CF92F1
:10279000DF92EF92FF920F931F93CF93DF93EC01A1
:1027A0007A018B011A8E198E188E1F8A1E8A1D8A35
:1027B0001C8A1B8A20E030E06901CC0CDD1CC20EB3
:1027C000D31EB601660F771F660F771FAB01425EFF
:1027D0005E4FFA0185919591A591B4918E159F0553
:1027E000A007B107E9F4FB01EE5DFE4F85919491DE
:1027F0009C8B8B8BFB01EC5DFE4F859194919E8BA6
:102800008D8BFB01EA5DFE4F85919491988F8F8BA4
:10281000FB01E85DFE4F859194919A8F898F06C0E8
:102820002F5F3F4F2D30310509F0C6CF8F89988D2E
:10283000892B09F449C04C85463108F03DC0909180
:102840006800483010F484E005C04E3010F082E09B
:1028500001C081E0892B80936800483028F4EDE6C0
:10286000F0E0ADE6B0E00BC04E3028F0ECE6F0E072
:10287000ACE6B0E004C0EBE6F0E0ABE6B0E05081DF
:10288000483040F481E090E002C0880F991F4A95DB
:10289000E2F710C0242F30E04E3018F428503040BA
:1028A00002C02E50304081E090E002C0880F991F96
:1028B0002A95E2F7852B8C93898D9A8D20E00197DC
:1028C0002FEF8F3F9207D9F78091A9029091AA022A
:1028D0008C179D0781F08B8D8E7F8B8F9FB7F8941F
:1028E0001092AB038091AB038093AC03D093AA0208
:1028F000C093A9029FBFDF91CF911F910F91FF90CD
:10290000EF90DF90CF9008952091A9023091AA0214
:102910002817390731F49091AC038091AB039817D5
:1029200019F42FEF3FEF0DC0E091AC03F0E0E55557
:10293000FD4F90818091AC038F5F8093AC03292F72
:1029400030E0C90108952091A9023091AA02281708
:10295000390719F020E030E00BC08091AB03909173
:10296000AC03282F30E020503F4F291B3109307035
:10297000C9010895FF920F931F93DC0159968D9121
:102980009C915A97892B49F481E090E013969C938F
:102990008E93129720E030E0DDC0FFB6F8945B968E
:1029A0008C915B975196ED91FC91529750962C919A
:1029B000509781FFD4C08081822B808359968D915E
:1029C0009C915A97059620E001972FEF8F3F920731
:1029D000D9F710E040E820E030E070E0842F90E08C
:1029E00086239723892B09F01F5F46952F5F3F4F62
:1029F0002830310599F75B968C915B9781FF4FC02A
:102A000031E040E050E000E0832F90E08623972300
:102A10005196ED91FC91529750962C915097892B9D
:102A200029F0808120952823208303C08081822B78
:102A3000808359968D919C915A97202F01972FEF63
:102A40008F3F9207D9F7330F4F5F5F4F48305105E3
:102A5000D9F65196ED91FC91529750962C91509742
:102A600010FF05C0808120952823208303C080812A
:102A7000822B808359968D919C915A9720E00197E3
:102A80002FEF8F3F9207D9F75196ED91FC91529716
:102A9000908150968C915097809589234DC031E05C
:102AA00040E050E000E0832F90E08623972351968A
:102AB000ED91FC91529750962C915097892B21F0D3
:102AC0008081822B808304C08081209528232083ED
:102AD00059968D919C915A97202F01972FEF8F3FF8
:102AE0009207D9F7330F4F5F5F4F48305105D9F642
:102AF0005196ED91FC91529750962C91509710FF62
:102B000004C08081822B808304C08081209528238B
:102B1000208359968D919C915A9720E001972FEF31
:102B20008F3F9207D9F75196ED91FC915297808192
:102B300050969C915097892B8083FFBE59968D911A
:102B40009C915A9720E001972FEF8F3F9207D9F77A
:102B500021E030E0C9011F910F91FF90089580811D
:102B60002095282320832ACF2091A9023091AA0200
:102B70002817390749F49FB7F8941092AB03809156
:102B8000AB038093AC039FBF08952091A9023091BD
:102B9000AA022817390731F49091AC038091AB0356
:102BA000981719F42FEF3FEF0AC0E091AC03F0E063
:102BB000E555FD4F8081282F332727FD3095C9012A
:102BC00008951F93CF93DF93EC01162F862F60E0BB
:102BD0000E94971B8B8D81FD04C0812F61E00E94B4
:102BE000D61B1C87212F30E0C90184519E4FFC0168
:102BF00084918D8728523E4FF9016491E62FF0E0D1
:102C0000EE0FFF1FE253FE4F859194919F878E87B1
:102C1000DF91CF911F910895FF920F931F938C0125
:102C2000F62E862F61E00E94971B8F2D61E00E9497
:102C3000D61B8F2D90E0FC01E451FE4FE491D801AA
:102C40005096EC93509788529E4FFC016491E62F6A
:102C5000F0E0EE0FFF1FEC53FE4F859194915296DA
:102C60009C938E9351971F910F91FF900895FF921F
:102C70000F931F938C01F62EFC011382128288EEB3
:102C800093E0A0E0B0E084839583A683B78386E5D4
:102C900091E091838083148A138A168A158A108E94
:102CA000178A128E118E838D2170220F8C7F822BBA
:102CB000838FC801642F0E940C16C8016F2D0E94DB
:102CC000E1151F910F91FF900895F999FECF72BD04
:102CD00061BDF89A80B50895F999FECF1FBA72BD0B
:102CE00061BD40BD0FB6F894FA9AF99A0FBE0895E7
:102CF00008951F920F920FB60F9211242F933F93B6
:102D00004F938F939F93EF93FF938091C00082FD29
:102D10001DC04091C6002091EE033091EF032F5F5C
:102D20003F4F2F7330708091F0039091F10328177B
:102D3000390771F0E091EE03F091EF03E255FC4F9B
:102D400040833093EF032093EE0302C08091C600CE
:102D5000FF91EF919F918F914F913F912F910F9004
:102D60000FBE0F901F901895E0914204F09143041C
:102D7000E05CFF4F8191919120813181821B930B07
:102D80008F739070892B11F00E94781608951F920E
:102D90000F920FB60F9211242F933F938F939F930F
:102DA000EF93FF93209132043091330480913404E7
:102DB000909135042817390731F48091C1008F7D37
:102DC0008093C10014C0E0913404F0913504EE50BA
:102DD000FC4F2081809134049091350401968F73CB
:102DE000907090933504809334042093C600FF9133
:102DF000EF919F918F913F912F910F900FBE0F9068
:102E00001F901895AF92BF92CF92DF92EF92FF92F0
:102E10000F931F93CF93DF93EC017A018B01C22EA6
:102E2000DD24403081EE580780E0680780E07807B5
:102E300011F0DD24D39471E0A72EB12CEC89FD892B
:102E4000DD2069F0C50108A002C0880F991F0A940F
:102E5000E2F7808360E079E08DE390E005C01082C6
:102E600060E874E88EE190E0A80197010E949C1C44
:102E70002150304040405040569547953795279512
:102E800080E12030380720F0DD2011F0DD24D6CF9E
:102E9000E889F9893083EA89FB892083E88DF98DF7
:102EA000C082EE89FF89408121E030E0C9010C8CAD
:102EB00002C0880F991F0A94E2F7482B4083EE89DD
:102EC000FF894081C9010D8C02C0880F991F0A94A7
:102ED000E2F7482B4083EE89FF894081C9010E8CBF
:102EE00002C0880F991F0A94E2F7482B4083EE89AD
:102EF000FF8980810F8C02C0220F331F0A94E2F7F2
:102F0000209528232083DF91CF911F910F91FF906F
:102F1000EF90DF90CF90BF90AF900895DC011C96AA
:102F2000ED91FC911D97E05CFF4F219131918081E3
:102F30009181281B390B2F733070C9010895DC0172
:102F40001C96ED91FC911D97E05CFF4F2081318133
:102F5000E054F040DF01AE5BBF4F8D919C91119723
:102F60002817390719F42FEF3FEF07C08D919C9177
:102F7000E80FF91F8081282F30E0C9010895DC0196
:102F80001C96ED91FC911D97E05CFF4F20813181F3
:102F9000E054F040DF01AE5BBF4F8D919C911197E3
:102FA0002817390719F42FEF3FEF10C08D919C912E
:102FB0001197E80FF91F20818D919C91119701962F
:102FC0008F73907011969C938E9330E0C901089591
:102FD000DC0191968C919197882339F05496ED916C
:102FE000FC915597808186FFF9CF91961C920895A8
:102FF000CF93DF93EC01EE85FF85E05CFF4F2081EE
:103000003181E054F0402F5F3F4F2F733070DF016C
:10301000AE5BBF4F8D919C91119728173907D1F363
:10302000E05CFF4F80819181E054F040E80FF91F90
:103030006083EE85FF85E05CFF4F31832083EE895E
:10304000FF89208181E090E00F8C02C0880F991FDA
:103050000A94E2F7282B208381E089A3EC89FD897B
:1030600080818064808381E090E0DF91CF9108953A
:10307000109239041092380488EE93E0A0E0B0E09A
:1030800080933A0490933B04A0933C04B0933D0496
:1030900086E691E090933704809336048EEA93E0BD
:1030A000909343048093420482EF93E0909345040D
:1030B0008093440485EC90E0909347048093460409
:1030C00084EC90E0909349048093480480EC90E075
:1030D00090934B0480934A0481EC90E090934D04CC
:1030E00080934C0482EC90E090934F0480934E04C4
:1030F00086EC90E0909351048093500484E0809398
:10310000520483E08093530487E08093540485E065
:103110008093550481E0809356040895CF92DF9206
:10312000EF92FF920F931F93CF93DF937C016B017C
:103130008A01C0E0D0E00FC0D6016D916D01D701CA
:10314000ED91FC910190F081E02DC7010995C80F28
:10315000D91F015010400115110571F7CE01DF9103
:10316000CF911F910F91FF90EF90DF90CF90089536
:10317000EF92FF920F931F93CF93DF937C018B010C
:10318000C0E0D0E0F8010F5F1F4F6491662359F053
:10319000D701ED91FC910190F081E02DC7010995D7
:1031A000C80FD91FEFCFCE01DF91CF911F910F91A3
:1031B000FF90EF900895CF93DF93EC0161157105B7
:1031C00019F420E030E00FC0DB010D900020E9F79A
:1031D0001197A61BB70BE881F9810280F381E02DDE
:1031E000AD0109959C01C901DF91CF9108954F92DE
:1031F0005F927F928F929F92AF92BF92CF92DF9217
:10320000EF92FF920F931F93DF93CF93CDB7DEB76B
:10321000A1970FB6F894DEBF0FBECDBF2C01742E60
:10322000CB01223008F42AE019A231E2C32ED12CBE
:10323000CC0EDD1E822E9924AA24BB24672D752F67
:10324000A50194010E949C1C79018A01C801B70163
:10325000A50194010E947D1C472D461B0894C108BE
:10326000D1084A3014F4405D01C0495CF601408346
:10327000E114F1040105110521F07E2C5F2DC80138
:10328000DDCFC201B6010E94DB18A1960FB6F894FB
:10329000DEBF0FBECDBFCF91DF911F910F91FF9089
:1032A000EF90DF90CF90BF90AF909F908F907F90E6
:1032B0005F904F900895DC012115310541F4ED91A7
:1032C000FC910190F081E02D642F099508950E94F2
:1032D000F7180895EF92FF920F931F939A01E62E2D
:1032E000FF2400E010E0B801A7010E945B191F91C4
:1032F0000F91FF90EF900895CF92DF92EF92FF929F
:103300000F931F93CF93DF93EC016A017B0121158B
:10331000310541F4E881F9810190F081E02D642FBD
:1033200009951FC02A303105D1F477FF17C0E88115
:10333000F9810190F081E02D6DE209958C0144271F
:103340005527BA014C195D096E097F09CE012AE0A3
:103350000E94F7189801280F391F04C02AE00E9424
:10336000F7189C01C901DF91CF911F910F91FF9038
:10337000EF90DF90CF900895EF92FF920F931F93FD
:103380007B019A010027F7FC0095102FB801A701D7
:103390000E947C191F910F91FF90EF9008950E9459
:1033A000DB180895CF93DF930E945C1B0E94E80610
:1033B000C4EBD6E10E9499092097E1F30E94B4166C
:1033C000F9CF0F931F93CF93DF93BC018230910508
:1033D00010F462E070E0E0916104F0916204A0E01A
:1033E000B0E040E050E024C08081918186179707CB
:1033F000D0F08617970771F482819381109729F096
:1034000013969C938E9312972CC090936204809392
:10341000610427C04115510519F08417950718F468
:10342000EF018D01AC01DF01828193819C01F901E3
:103430003097D1F641155105F9F0CA01861B970B5B
:103440008430910580F48A819B810115110521F05A
:10345000F8019383828304C0909362048093610493
:10346000FE0132962FC0FE01E80FF91F61937193A0
:1034700002979983888326C08DB79EB7885790405E
:10348000209132013091330128173907C8F4AC017B
:10349000421B530B4617570798F0CB01029648176B
:1034A000590770F0820F931F90933301809332017C
:1034B0009093350180933401F9016193719302C0B7
:1034C000E0E0F0E0CF01DF91CF911F910F910895DF
:1034D000CF93DF939C01009709F48FC0EC012297F2
:1034E0001B821A82609161047091620461157105FA
:1034F00081F488819981820F931F2091320130914C
:1035000033012817390739F5D0933301C0933201BD
:1035100074C0DB0140E050E0AC17BD0708F1BB838D
:10352000AA83FE0121913191E20FF31FAE17BF076D
:1035300079F48D919C911197280F391F2E5F3F4F81
:103540003983288312968D919C9113979B838A834C
:103550004115510571F4D0936204C09361044DC0CC
:1035600012968D919C911397AD01009711F0DC019B
:10357000D3CFDA011396DC93CE931297FA012191FF
:103580003191E20FF31FCE17DF0769F4888199812B
:10359000280F391F2E5F3F4FFA01318320838A8124
:1035A0009B8193838283E0E0F0E0DB0112968D91B2
:1035B0009C911397009719F0BC01FD01F6CFAB0168
:1035C0004E5F5F4FDB018D919C91840F951F209181
:1035D0003201309133012817390779F4309729F4F3
:1035E000109262041092610402C01382128242504F
:1035F00050405093330140933201DF91CF910895B1
:103600000E94681A08950E94E11908951F920F926E
:103610000FB60F9211242F933F938F939F93AF93E5
:10362000BF9380915C0490915D04A0915E04B09181
:103630005F04309160040196A11DB11D232F2D5F01
:103640002D3720F02D570196A11DB11D2093600448
:1036500080935C0490935D04A0935E04B0935F0438
:103660008091580490915904A0915A04B0915B0440
:103670000196A11DB11D8093580490935904A09305
:103680005A04B0935B04BF91AF919F918F913F918A
:103690002F910F900FBE0F901F9018958FB7F89431
:1036A00020915C0430915D0440915E0450915F0470
:1036B0008FBFB901CA010895789484B5826084BD32
:1036C00084B5816084BD85B5826085BD85B5816026
:1036D00085BDEEE6F0E0808181608083E1E8F0E086
:1036E0001082808182608083808181608083E0E8B5
:1036F000F0E0808181608083E1EBF0E08081846094
:103700008083E0EBF0E0808181608083EAE7F0E095
:1037100080818460808380818260808380818160F9
:1037200080838081806880831092C1000895CF9348
:10373000DF93482F50E0CA0184519E4FFC01349121
:1037400048525E4FFA018491882369F190E0880F16
:10375000991FFC01E654FE4FA591B491FC01EC5376
:10376000FE4FC591D491662351F42FB7F8948C91F4
:10377000932F909589238C93888189230BC0623085
:1037800061F42FB7F8948C91932F909589238C93A3
:103790008881832B88832FBF06C09FB7F8948C91B4
:1037A000832B8C939FBFDF91CF910895482F50E0DA
:1037B000CA0180509E4FFC012491CA0184519E4F42
:1037C000FC01949148525E4FFA013491332309F47D
:1037D00040C0222351F1233071F0243028F42130ED
:1037E000A1F0223011F514C02630B1F02730C1F01D
:1037F0002430D9F404C0809180008F7703C0809179
:1038000080008F7D8093800010C084B58F7702C0C8
:1038100084B58F7D84BD09C08091B0008F7703C0CF
:103820008091B0008F7D8093B000E32FF0E0EE0F29
:10383000FF1FEC53FE4FA591B4912FB7F894662368
:1038400021F48C919095892302C08C91892B8C93C3
:103850002FBF0895682F70E0CB0180509E4FFC0170
:103860002491CB0184519E4FFC01449168527E4FBC
:10387000FB019491992319F420E030E03CC022230D
:1038800051F1233071F0243028F42130A1F022309E
:1038900011F514C02630B1F02730C1F02430D9F42E
:1038A00004C0809180008F7703C0809180008F7D5D
:1038B0008093800010C084B58F7702C084B58F7D5F
:1038C00084BD09C08091B0008F7703C08091B000A3
:1038D0008F7D8093B000892F90E0880F991F8253CD
:1038E0009E4FFC01A591B4918C9120E030E084239F
:1038F00011F021E030E0C9010895629FD001739F6B
:10390000F001829FE00DF11D649FE00DF11D929F7B
:10391000F00D839FF00D749FF00D659FF00D9927BA
:10392000729FB00DE11DF91F639FB00DE11DF91FDE
:10393000BD01CF0111240895A1E21A2EAA1BBB1BC1
:10394000FD010DC0AA1FBB1FEE1FFF1FA217B3076B
:10395000E407F50720F0A21BB30BE40BF50B661F81
:10396000771F881F991F1A9469F760957095809545
:1039700090959B01AC01BD01CF010895EE0FFF1F93
:103980000590F491E02D09942F923F924F925F920F
:103990006F927F928F929F92AF92BF92CF92DF925F
:1039A000EF92FF920F931F93CF93DF93CDB7DEB7C4
:1039B000CA1BDB0B0FB6F894DEBF0FBECDBF099458
:1039C0002A88398848885F846E847D848C849B84AF
:1039D000AA84B984C884DF80EE80FD800C811B81BD
:1039E000AA81B981CE0FD11D0FB6F894DEBF0FBEEC
:1039F000CDBFED01089512E0C8E1D2E004C0FE01A0
:103A00000E94C01C2296CA31D107C9F7F894FFCF93
:103A10004368616E6E656C20202020203A20000DE6
:103A20000A00487568750A002530376C75005365C3
:103A30007474696E67206E65772049443A003A00D5
:103A4000323263046400000000007004CB04FB0405
:103A500000000000950CA409E60D00000000FC0D1C
:103A6000C11200000000BA148E18A3148414C515E6
:103A7000B41500000000F8178E188E17BF179F1797
:023A8000E81745
:00000001FF
