:100000000C948D010C94B5010C94B5010C9424084A
:100010000C944E080C9478080C94B5010C94B5011E
:100020000C94B5010C94B5010C94B5010C94B50178
:100030000C94B5010C94B5010C94B5010C94B50168
:100040000C94E8190C94B5010C9453150C94A1155B
:100050000C94B5010C94B5010C94B5010C94B50148
:100060000C94B5010C94B501446576696365206113
:100070006C7265616479206B6E6F776E00435243DA
:10008000206973206E6F742076616C6964202D2066
:1000900069676E6F72696E67206465766963652152
:1000A000000D0A20312D5769726520446576696319
:1000B0006520666F756E643A0000C201000100059C
:1000C000000500030000E1000001000F000F000D1B
:1000D0000000960000020019001A001700127A00B2
:1000E000000700200021001D00807000000B00238D
:1000F0000023002000004B000014003700370034BC
:1001000000403800001E004B004B004800802500D6
:10011000003200720072007000C01200006E00E930
:1001200000E900E60060090000E500D801D801D52B
:1001300001B0040000D301B403B403B103580200BA
:1001400000B4036707670762072C0100006707DD3B
:100150000EDD0EDA0E005EBCE2613FDD83C29C7EE6
:1001600020A3FD1F419DC3217FFCA2401E5F01E330
:10017000BD3E6082DC237D9FC1421CFEA0E1BF5DCD
:100180000380DE3C62BEE0025CDF81633D7C22C016
:100190009E1D43A1FF4618FAA427799BC584DA382F
:1001A00066E5BB5907DB856739BAE406581947A5E8
:1001B000FB7826C49A653BD987045AB8E6A7F91B91
:1001C00045C6987A24F8A6441A99C7257B3A6486CE
:1001D000D85B05E7B98CD2306EEDB3510F4E10F2FB
:1001E000AC2F7193CD114FADF3702ECC92D38D6F98
:1001F00031B2EC0E50AFF1134DCE90722C6D33D165
:100200008F0C52B0EE326C8ED0530DEFB1F0AE4C7D
:100210001291CF2D73CA947628ABF517490856B4BE
:10022000EA6937D58B5709EBB536688AD495CB295F
:1002300077F4AA4816E9B7550B88D6346A2B759718
:10024000C94A14F6A8742AC896154BA9F7B6E80A45
:1002500054D7896B354669726D7761726520566532
:100260007273696F6E0048617264776172652056BF
:10027000657273696F6E20616E64205479706500D9
:10028000777269746520656570726F6D0072656163
:100290006420656570726F6D0063726320657272B1
:1002A0006F72000A526563656976696E67200A009D
:1002B0000A53656E64696E670A000000000024003E
:1002C00027002A0000000000250028002B00000065
:1002D000000023002600290004040404040404048C
:1002E00002020202020203030303030301020408E1
:1002F0001020408001020408102001020408102090
:1003000000000007000201000003040600000000D6
:10031000000000000E020917070211241FBECFEFD4
:10032000D8E0DEBFCDBF11E0A0E0B1E0E4E2FAE347
:1003300002C005900D92AE3BB107D9F716E0AEEBC7
:10034000B1E001C01D92AA3AB107E1F713E0C8E19C
:10035000D3E004C02297FE010E94011DC431D107E1
:10036000C9F70E94B4180C94051D0C940000FB0101
:10037000DC0104C08D910190801921F4415050405E
:10038000C8F7881B990B0895FB01DC0102C001909E
:100390000D9241505040D8F70895DC0101C06D9393
:1003A00041505040E0F7089508956B3018F06DE427
:1003B00075E908C0E62FF0E0EE0FFF1FE25AFD4F8F
:1003C00060817181CB01089581309105B1F46F5F37
:1003D0007F4FE1F48EEA92E061E10E942A0D8CEBFE
:1003E00092E06DE776E042E00E94CA1088E891E072
:1003F00090934F0580934E050895892B39F46F5FD4
:100400007F4F21F48CEB92E00E94D810089580E099
:1004100090E06FEF7FEF0E94E401089581E090E0AB
:100420006FEF7FEF0E94E40108950F931F93CF9326
:10043000DF930EEB11E0C0E1D0E009C081EA95E066
:10044000BE010E94600DF80181938F012196F2E0B8
:100450000E351F0799F7EFEBF1E065E04AE050E059
:1004600026E930E080818F3F09F4608382819381A7
:100470008F5F9F4F11F453834283848195818F5FF7
:100480009F4F11F435832483709682E0EF35F8078F
:1004900049F7DF91CF911F910F910895BC01809191
:1004A000A2059091A305009711F00E94B11808953C
:1004B000FF920F931F93CF93DF93CFEBD1E0FF24F5
:1004C00000E010E080E091E00E944E028091A205E1
:1004D0009091A305009729F06F2D4AE050E00E940B
:1004E0004C188FE091E00E944E0282E191E00E9460
:1004F0004E026A817B818091A2059091A3050097AD
:1005000021F04AE050E00E943B188FE091E00E9409
:100510004E0281E291E00E944E026C817D818091C9
:10052000A2059091A305009721F04AE050E00E94B7
:100530003B188FE091E00E944E0280E391E00E9420
:100540004E0268818091A2059091A305009721F049
:100550004AE050E00E944C188FE091E00E944E0269
:100560008FE391E00E944E02F801E25AFD4F608154
:1005700071818091A2059091A305009721F04AE036
:1005800050E00E949E188FE091E00E944E028EE49F
:1005900091E00E944E02F801EE58FD4F608171819A
:1005A0008091A2059091A305009721F04AE050E0C8
:1005B0000E949E188FE091E00E944E028DE591E02E
:1005C0000E944E028091A2059091A305009731F000
:1005D00060E170E04AE050E00E943B188FE091E05B
:1005E0000E944E028FE091E00E944E02F3940E5F53
:1005F0001F4F60968AE0F81609F064CFDF91CF9123
:100600001F910F91FF900895CF93DF93C82FD0E0F3
:1006100094E0CC0FDD1F9A95E1F7FE01E254FE4F06
:1006200087818F3F89F08EEA92E00E94490CCB537C
:10063000DE4F8EEA92E0BE010E94280C8EEA92E024
:1006400064E441E00E94E80BDF91CF910895CF92DE
:10065000DF92EF92FF920F931F93DF93CF93CDB76B
:10066000DEB72C970FB6F894DEBF0FBECDBFE82ED5
:10067000FF24870154E0000F111F5A95E1F7F8019C
:10068000E254FE4F87818F3F19F4E3E373E92DC0F5
:100690008EEA92E00E94490C0B531E4F8EEA92E0C4
:1006A000B8010E94280C8EEA92E06EEB40E00E94B6
:1006B000E80B8E010F5F1F4F4AE0C42ED12CCC0EE9
:1006C000DD1E8EEA92E00E94970BF80181938F0164
:1006D000EC15FD05B1F7CE01019668E00E94520BC2
:1006E0009985891729F0ECEE71E988E863EC40C040
:1006F0009A8180E02981422F50E0482B592B34E029
:10070000EE0CFF1C3A95E1F78EEB91E0E80EF91E36
:10071000F7018781803189F423E0440F551F2A9522
:10072000E1F788858031A9F42F818CE090E0821B6D
:100730009109407F480F591F0CC08D81807611F4BC
:10074000487F07C0803211F44C7F03C0803409F425
:100750004E7FBA01882777FD8095982F0E94A81BAD
:1007600020E030E040E85DE30E94341CE62F692F72
:100770002E2F372F482F562FB901CA012C960FB6AE
:10078000F894DEBF0FBECDBFCF91DF911F910F91C7
:10079000FF90EF90DF90CF900895EF92FF920F932C
:1007A0001F930E943C1A9B01AC01809159059091C6
:1007B0005A05A0915B05B0915C0579018A01E81AA0
:1007C000F90A0A0B1B0BD801C701885E9340A040B1
:1007D000B04084F12093590530935A0540935B054E
:1007E00050935C0500917F010F3F19F410927F0137
:1007F0001DC0802F0E94270310E0000F111F025A16
:100800001D4F20E030E048EC52E40E94341C0E946E
:10081000751BF8017183608380917F0190E00196E0
:100820006AE070E00E94B61C80937F0180917F0196
:100830000E9404031F910F91FF90EF900895EF9293
:10084000FF921F93CF93DF93FEEBEF2EF1E0FF2E8D
:10085000C0E1D0E014C0F701108181EA95E0BE014B
:100860000E94600D181739F081EA95E0BE01F7018A
:1008700040810E94670D0894E11CF11C2196FEE561
:10088000EF16F2E0FF0639F7DF91CF911F91FF904D
:10089000EF900895AF92BF92CF92DF92FF920F93A5
:1008A0001F93DF93CF93CDB7DEB728970FB6F89499
:1008B000DEBF0FBECDBF8EEA92E00E94450BFF2443
:1008C0006E010894C11CD11C09E0A02EB12CAC0E05
:1008D000BD1E01C0F39489E08F1568F0EF2DF0E0A4
:1008E00014E0EE0FFF1F1A95E1F7E254FE4F8781E7
:1008F0008F3F81F704C0EAE0FE1609F46EC08EEA6D
:1009000092E0B6010E94940C882309F466C080919D
:10091000A2059091A305009721F061EA70E00E9482
:10092000891786018CE691E00E944E02F8016081F1
:100930008091A2059091A305009721F040E150E03D
:100940000E944C180F5F1F4F0A151B0559F7C6016F
:1009500067E00E94520B9885891749F08091A205A3
:100960009091A3050097B9F16DE770E022C000E017
:1009700010E0B801B4E0660F771FBA95E1F76B534A
:100980007E4FC60148E050E00E94B701009749F051
:10099000802F8F5F0F5F1F4F0A30110551F78A308C
:1009A00058F48091A2059091A3050097A1F068E604
:1009B00070E00E9489170FC0EF2DF0E0A4E0EE0F69
:1009C000FF1FAA95E1F7EB53FE4FD60188E00D908B
:1009D00001928150E1F7FF2481CF0E941F042896E5
:1009E0000FB6F894DEBF0FBECDBFCF91DF911F9140
:1009F0000F91FF90DF90CF90BF90AF900895AF928E
:100A0000BF92CF92DF92EF92FF920F931F9385E0F8
:100A100060E00E948F1A86E061E00E948F1A82E0F7
:100A200061E00E948F1A82E060E00E94CE1A88E0A6
:100A300062E00E948F1A84E061E00E948F1A8CE1CC
:100A400090E00E94E519182F092F65E046E020E0AC
:100A50000E94170B812F902F40E05BE460E070E074
:100A60000E94A2081093A2050093A3058DE796E0CB
:100A700040E05BE460E070E026E20E94DC15A6E85E
:100A8000B2E080E090E02DE435E9FC01E25AFD4F50
:100A900031832083FC01EE58FD4F318320831D926A
:100AA0001D921D921D9202968431910571F78EE47C
:100AB00095E00E9415020E944A0481E190E00E94A4
:100AC000E519B82EA92E6EE475E04CEB52E021E852
:100AD0000EE611E03FEFC32E3FEFD32E3FEFE32EA4
:100AE00032E4F32E0E94600EB0924C05A0924D05A8
:100AF00089E791E00E944E0280914C0590914D054E
:100B000060E00E94150E0E9458021F910F91FF9005
:100B1000EF90DF90CF90BF90AF9008958EEB91E073
:100B20006FEF70E040EA50E00E94CD01EFEBF1E0A2
:100B300065E04AE050E026E930E080818F3F09F42B
:100B40006083828193818F5F9F4F11F4538342832F
:100B5000848195818F5F9F4F11F435832483709634
:100B600082E0EF35F80749F70E944A040895EF92B2
:100B7000FF920F931F930E943C1A7B018C0188E027
:100B80000E94221B20E0892B09F421E0809154056A
:100B9000823009F446C0833030F4882371F081300C
:100BA00009F094C00FC0843009F46AC0843008F49E
:100BB0003DC0853009F08AC083C0222309F451C0AA
:100BC00081E04DC08091550590915605A091570543
:100BD000B0915805222381F0A8019701281B390BF9
:100BE0004A0B5B0BDA01C90189589341A040B04020
:100BF0000CF46CC082E061C0B801A701481B590B1E
:100C00006A0B7B0B453651056105710514F00E9496
:100C10004A0480914C0590914D0560E00E94150EAC
:100C200053C0222309F052C083E019C080915505BA
:100C300090915605A0915705B0915805B801A701AC
:100C4000481B590B6A0B7B0BDB01CA01443651056B
:100C5000610571050CF43AC0222361F084E08093B1
:100C60005405E0925505F0925605009357051093F0
:100C700058052CC081519742A040B0403CF124C09F
:100C80008091550590915605A0915705B091580552
:100C9000B801A701481B590B6A0B7B0BDB01CA018A
:100CA00044365105610571058CF0222369F0895B9A
:100CB0009B40A040B04054F085E08093540506C0AE
:100CC000222321F40E948E05109254058091540530
:100CD000853040F4823090F4882341F0813009F06F
:100CE00048C007C0853009F044C01CC084E060E003
:100CF00002C084E061E00E94CE1A3BC080915005A2
:100D000090915105A0915205B0915305A80197010A
:100D1000281B390B4A0B5B0B253631054105510564
:100D200044F115C08091500590915105A091520554
:100D3000B0915305B801A701481B590B6A0B7B0BF7
:100D4000DB01CA018F5E9240A040B04094F084E085
:100D50000E94221B60E0892B09F461E084E00E947C
:100D6000CE1AE0925005F09251050093520510936F
:100D700053051F910F91FF90EF9008952F923F928E
:100D80004F925F926F927F928F929F92AF92BF929B
:100D9000CF92DF92EF92FF920F931F93CF93DF9347
:100DA0008CEB92E00E94B3118091BE02882321F166
:100DB0002091BF023091C0024091C1025091C20205
:100DC00080910A0390910B03A0910C03B0910D0345
:100DD000281739074A075B0729F02F5F3F4F4F4F0E
:100DE0005F4F51F48CEB92E00E94DE1080914C0535
:100DF00090914D050E94350F0E94CD030E94B705CA
:100E00000E943C1A5B016C0176E8672E72E0772E37
:100E10006FEB862E61E0962ECEE5D2E052E7452EAE
:100E200052E0552E33244AE0242EF401628173816E
:100E300061157105C9F0F30180819181A281B381AF
:100E400086017501E81AF90A0A0B1B0B80E090E095
:100E500028EE33E040E050E00E94971CE616F706CB
:100E6000080719070CF447C0F40164817581611506
:100E70007105C1F0F30180819181A281B381860166
:100E80007501E81AF90A0A0B1B0B80E090E028EEC6
:100E900033E040E050E00E94971CE616F706080792
:100EA0001907B4F4F4014081442329F128813981E0
:100EB000F20180819181281B390B37FF03C03095E7
:100EC00021953F4F429DC00111242817390798F002
:100ED0004881598180914C0590914D05632D0E9468
:100EE000D60D88819981F20191838083F301A082DC
:100EF000B182C282D382339484E090E0680E791E7E
:100F0000E0E1F0E08E0E9F1E229682E090E0480E17
:100F1000591E9AE0391609F088CFDF91CF911F91C1
:100F20000F91FF90EF90DF90CF90BF90AF909F9088
:100F30008F907F906F905F904F903F902F9008958B
:100F40000F931F93CF93DF93DC015B967C915B97AC
:100F5000769571701E96ED91FC911F971D969C9150
:100F60001D97772329F08081892309F468C004C084
:100F70008081892309F063C053968D919C91549789
:100F800020E001972FEF8F3F9207D9F75596CD912B
:100F9000DC9156971E96ED91FC911F971D961C9122
:100FA0001D9760E031E040E050E000E0CE01202FEE
:100FB00001972FEF8F3F9207D9F78081812311F09E
:100FC000632B03C0832F80956823330F4F5F5F4FE0
:100FD0004830510559F757968D919C91589720E0CC
:100FE000FC01322F31973FEFEF3FF307D9F701971D
:100FF0002FEF8F3F9207D9F77111609580919F0570
:101000002091A00590E001968F73907030E08217D8
:10101000930779F0E0919F05F0E0E15AFA4F608381
:1010200080919F0590E001968F73907080939F054B
:1010300006C05B968C915B9781605B968C93DF9189
:10104000CF911F910F9108951F920F920FB60F929B
:1010500011242F933F934F935F936F937F938F93BD
:101060009F93AF93BF93EF93FF9380915D05909112
:101070005E05009711F00E94A007FF91EF91BF91CC
:10108000AF919F918F917F916F915F914F913F9120
:101090002F910F900FBE0F901F9018951F920F92D7
:1010A0000FB60F9211242F933F934F935F936F933B
:1010B0007F938F939F93AF93BF93EF93FF93809111
:1010C0005D0590915E05009711F00E94A007FF91C9
:1010D000EF91BF91AF919F918F917F916F915F91B0
:1010E0004F913F912F910F900FBE0F901F90189529
:1010F0001F920F920FB60F9211242F933F934F938D
:101100005F936F937F938F939F93AF93BF93EF936F
:10111000FF9380915D0590915E05009711F00E940C
:10112000A007FF91EF91BF91AF919F918F917F9118
:101130006F915F914F913F912F910F900FBE0F9044
:101140001F901895CF92DF92EF92FF920F931F930B
:10115000CF93DF93EC017A018B011A8E198E188ED2
:101160001F8A1E8A1D8A1C8A1B8A20E030E06901C2
:10117000CC0CDD1CC20ED31EB601660F771F660FA6
:10118000771FAB0147545F4FFA0185919591A59167
:10119000B4918E159F05A007B107E9F4FB01E35454
:1011A000FF4F859194919C8B8B8BFB01E154FF4FFA
:1011B000859194919E8B8D8BFB01EF53FF4F859111
:1011C0009491988F8F8BFB01ED53FF4F85919491F4
:1011D0009A8F898F06C02F5F3F4F2D30310509F060
:1011E000C6CF8F89988D892B09F449C04C8546312B
:1011F00008F03DC090916800483010F484E005C0CC
:101200004E3010F082E001C081E0892B80936800AD
:10121000483028F4EDE6F0E0ADE6B0E00BC04E302B
:1012200028F0ECE6F0E0ACE6B0E004C0EBE6F0E07D
:10123000ABE6B0E05081483040F481E090E002C07D
:10124000880F991F4A95E2F710C0242F30E04E30E6
:1012500018F42850304002C02E50304081E090E019
:1012600002C0880F991F2A95E2F7852B8C93898DF0
:101270009A8D20E001972FEF8F3F9207D9F7809149
:101280005D0590915E058C179D0781F08B8D8E7F9B
:101290008B8F9FB7F89410929F0580919F05809344
:1012A000A005D0935E05C0935D059FBFDF91CF91F0
:1012B0001F910F91FF90EF90DF90CF9008952091B4
:1012C0005D0530915E052817390731F49091A0052E
:1012D00080919F05981719F42FEF3FEF0FC0E09111
:1012E000A005F0E0E15AFA4F20818091A00590E03E
:1012F00001968F7390708093A00530E0C901089526
:1013000020915D0530915E052817390719F020E01E
:1013100030E00EC080919F052091A00590E0805C98
:101320009F4F821B910960E470E00E94B61C9C01F3
:10133000C9010895FF920F931F93DC0159968D9177
:101340009C915A97892B49F481E090E013969C93E5
:101350008E93129720E030E0DDC0FFB6F8945B96E4
:101360008C915B975196ED91FC91529750962C91F0
:10137000509781FFD4C08081822B808359968D91B4
:101380009C915A97049620E001972FEF8F3F920788
:10139000D9F710E040E820E030E070E0842F90E0E2
:1013A00086239723892B09F01F5F46952F5F3F4FB8
:1013B0002830310599F75B968C915B9781FF4FC080
:1013C00031E040E050E000E0832F90E08623972357
:1013D0005196ED91FC91529750962C915097892BF4
:1013E00029F0808120952823208303C08081822BCF
:1013F000808359968D919C915A97202F01972FEFBA
:101400008F3F9207D9F7330F4F5F5F4F4830510539
:10141000D9F65196ED91FC91529750962C91509798
:1014200010FF05C0808120952823208303C0808180
:10143000822B808359968D919C915A9720E0019739
:101440002FEF8F3F9207D9F75196ED91FC9152976C
:10145000908150968C915097809589234DC031E0B2
:1014600040E050E000E0832F90E0862397235196E0
:10147000ED91FC91529750962C915097892B21F029
:101480008081822B808304C0808120952823208343
:1014900059968D919C915A97202F01972FEF8F3F4E
:1014A0009207D9F7330F4F5F5F4F48305105D9F698
:1014B0005196ED91FC91529750962C91509710FFB8
:1014C00004C08081822B808304C0808120952823E2
:1014D000208359968D919C915A9720E001972FEF88
:1014E0008F3F9207D9F75196ED91FC9152978081E9
:1014F00050969C915097892B8083FFBE59968D9171
:101500009C915A9720E001972FEF8F3F9207D9F7D0
:1015100021E030E0C9011F910F91FF900895808173
:101520002095282320832ACF20915D0530915E05E8
:101530002817390749F49FB7F89410929F058091B6
:101540009F058093A0059FBF089520915D05309170
:101550005E052817390731F49091A00580919F0509
:10156000981719F42FEF3FEF0AC0E091A005F0E0C3
:10157000E15AFA4F8081282F332727FD3095C90182
:1015800008951F93CF93DF93EC01162F862F60E011
:101590000E948F1A8B8D81FD04C0812F61E00E9413
:1015A000CE1A1C87212F30E0C90184519D4FFC01C8
:1015B00084918D8728523D4FF9016491E62FF0E028
:1015C000EE0FFF1FE253FD4F859194919F878E8709
:1015D000DF91CF911F910895FF920F931F938C017C
:1015E000F62E862F61E00E948F1A8F2D61E00E94F7
:1015F000CE1A8F2D90E0FC01E451FD4FE491D8010B
:101600005096EC93509788529D4FFC016491E62FC1
:10161000F0E0EE0FFF1FEC53FD4F85919491529631
:101620009C938E9351971F910F91FF900895FF9275
:101630000F931F938C01F62EFC011382128288EE09
:1016400093E0A0E0B0E084839583A683B78382E92A
:1016500091E091838083148A138A168A158A108EEA
:10166000178A128E118E838D2170220F8C7F822B10
:10167000838FC801642F0E94EC0AC8016F2D0E945D
:10168000C10A1F910F91FF900895FC0113861586E2
:10169000148687E090E012863197009711F0019749
:1016A000FACF0895DC0180E00BC0E82FF0E08D91C7
:1016B00090E0E827F927EB5AFE4FE49161508E2F16
:1016C000662399F70895DF92EF92FF920F931F938D
:1016D000FC01E08001811281F894F80181818E295A
:1016E00081838281DE2CD0948D21828383E090E0FF
:1016F0000E944A1AF80181818D2181838AE090E05D
:101700000E944A1AF8010081789485E390E00E94D3
:101710004A1A80E010E0FF240E211F21012B09F05E
:1017200081E01F910F91FF90EF90DF900895EF926D
:10173000FF920F931F93CF93DF937C0101E010E0A2
:10174000C0E0D0E0C7010E94630B8111102B000F95
:101750002196C830D105B1F7812FDF91CF911F912C
:101760000F91FF90EF9008951F93CF93DF93FC01AB
:101770001081C181D281912F909560FF12C0F894A1
:101780008A8189238A838981812B89838AE090E0F9
:101790000E944A1A8A81812B8A83789487E390E099
:1017A00011C0F8948A8189238A838981812B898356
:1017B00081E490E00E944A1A8A81812B8A8378947E
:1017C00085E090E00E944A1ADF91CF911F91089521
:1017D000CF92DF92EF92FF920F931F93CF93DF93FD
:1017E0008C01E42EFF24F394C0E0D0E0C62EDD246B
:1017F00060E08F2D90E08C219D21892B09F061E024
:10180000C8010E94B40BFF0C2196C830D10581F7A6
:10181000EE20A9F4F894D8011196ED91FC9112975D
:1018200091818C918095982391831196ED91FC91F3
:10183000129792818C918095982392837894DF916E
:10184000CF911F910F91FF90EF90DF90CF9008956F
:10185000EF92FF920F931F93CF93DF938C017B0145
:1018600065E540E00E94E80BC0E0D0E0F701EC0F36
:10187000FD1FC801608140E00E94E80B2196C8303E
:10188000D105A1F7DF91CF911F910F91FF90EF90BC
:101890000895DF92EF92FF920F931F93CF93DF9300
:1018A000FC010081C181D281F8948981D02ED0942D
:1018B0008D21898378941DE7E02EFF24115059F182
:1018C00082E090E00E944A1A888190E08E219F2158
:1018D000892BA1F3F8948A818D218A838981802BB9
:1018E0008983789480EE91E00E944A1AF894898165
:1018F0008D21898386E490E00E944A1A888110E055
:1019000090E0E822F922EF2809F411E078948AE9BE
:1019100091E00E944A1A812FDF91CF911F910F9180
:10192000FF90EF90DF900895AF92BF92DF92EF9219
:10193000FF920F931F93CF93DF93EC015B018D8593
:10194000882309F061C0CE010E94490C882329F444
:101950001B861D861C8690E06BC0CE0160EF40E0C8
:101960000E94E80B01E0DD24EE24FF24F394CE0175
:101970000E94630B182FCE010E94630B113019F4E3
:101980008130E1F439C0181709F58B85081770F418
:1019900060E0FE01EE0DF11D838190E02F2D30E01F
:1019A00082239323181619064CF003C060E0081731
:1019B00029F0093008F04CC00C874AC0FE01EE0D3A
:1019C000F11D83818F29838361E009C0612FFE01AE
:1019D000EE0DF11D9F2D9095838189238383CE0188
:1019E0000E94B40B0F5FFF0C19F4E394FF24F394EF
:1019F00087E08E1508F0BBCF013430F0DB86DD20A8
:101A000011F581E08D871FC01B861D861C8690E026
:101A1000DE0120E030E0F501E20FF31F13968C9118
:101A2000139780832F5F3F4F11962830310599F728
:101A3000892FDF91CF911F910F91FF90EF90DF9051
:101A4000BF90AF9008958B818823F1F291E0E0CFB1
:101A5000D02EBDCFFF920F931F938C01F62E862FB1
:101A600060E00E948F1A8F2D90E0FC01E451FD4F41
:101A7000E491D801EC9388529D4FFC016491E62FCC
:101A8000F0E0EE0FFF1FE253FD4F85919491129607
:101A90009C938E9311971B961C921B971D961C92DC
:101AA0001D971C961C92F80187E090E012863197F2
:101AB000009711F00197FACF1F910F91FF900895B1
:101AC000F999FECF72BD61BDF89A80B50895F99974
:101AD000FECF1FBA72BD61BD40BD0FB6F894FA9A31
:101AE000F99A0FBE0895FC0182EA91E09183808308
:101AF00008950F931F93CF93DF938C01DC011D9604
:101B0000ED91FC911E97E95AFF4F84E080831D966A
:101B1000ED91FC911E97E85AFF4F89E680831D9650
:101B2000ED91FC911E978185E75AFF4F80831F96A8
:101B30000D90BC91A02DED91FC911197E8012D85A0
:101B40003E850280F381E02DCD01D90119966C917B
:101B50000995ED85FE85E65AFF4F9083ED85FE855C
:101B6000E55AFF4F8083DF91CF911F910F91089528
:101B70000F931F93CF93DF938C01EC01AF85B8894E
:101B80002D853E85ED91FC911197E9014A850190E3
:101B9000F081E02DCD01698550E00995C8010E94D2
:101BA000790DDF91CF911F910F9108959C01DC0178
:101BB0001D96ED91FC911E97EE5AFF4F8FEF9FEF10
:101BC000AFEFBFEF81939193A193B19388EF80839F
:101BD000D9011D96ED91FC911E97E95AFF4F84E0C3
:101BE00080831D96ED91FC911E97E85AFF4F89E680
:101BF00080831D96ED91FC911E97E75AFF4F6083FD
:101C00001D96ED91FC911E97E65AFF4F50831D964D
:101C1000ED91FC911E97E55AFF4F40831D968D91E3
:101C20009C911E970E94A9130895CF93DF93EC0116
:101C3000ED85FE85EE5AFF4F8FEF9FEFAFEFBFEFC1
:101C400081939193A193B19388EF8083ED85FE8575
:101C5000E95AFF4F80E18083ED85FE85E85AFF4F0A
:101C600081E48083ED85FE85E75AFF4F6083ED8533
:101C7000FE85E65AFF4F8A818083ED85FE85E55A11
:101C8000FF4F1082ED85FE85E45AFF4F83E080838D
:101C9000ED85FE85E35AFF4F86E08083ED85FE8566
:101CA000E25AFF4FDE0113968AE00D9001928150B7
:101CB000E1F78D859E850E94A913DF91CF9108954C
:101CC000CF92DF92EF92FF920F931F93CF93DF9308
:101CD000FC0182EA91E091838083708B678756874D
:101CE00045872283EF012396D8018AE00D9009925F
:101CF0008150E1F70584F685E02DE25BFF4FC0825D
:101D0000D182E282F382DF91CF911F910F91FF90F8
:101D1000EF90DF90CF9008952F923F924F925F9275
:101D20006F927F928F929F92AF92BF92CF92DF92EB
:101D3000EF92FF920F931F93CF93DF936C01DC011F
:101D40001D96ED91FC911E9713858485282F26956D
:101D5000269526952C5FDF01A95ABF4F2C9324505E
:101D6000282E3324C10187709070892B11F02B5FCE
:101D70002C93E95AFF4F4191CF0160E070E050E0B1
:101D80000E94CD01D6011D96ED91FC911E97E85A57
:101D9000FF4F85E68083E855F0408185E75AFF4F85
:101DA0008083E955F0408285E65AFF4F8083EA55EB
:101DB000F0408385E55AFF4F8083A12EBB2400E0CD
:101DC00010E0EE24FF24250131E0632E712C812CDC
:101DD000912C35C0BE016E0D7F1D81EA95E00E94F9
:101DE000600D8F3F09F1D6011D96ED91FC911E9774
:101DF000C80123E0959587952A95E1F7E80FF91F2B
:101E0000E45AFF4FC80187709070A401930104C089
:101E1000220F331F441F551F8A95D2F7DA01C901DB
:101E20002081282B208304C02196C415D50594F267
:101E30000F5F1F4FEA0CFB1C201631061CF0C0E0A0
:101E4000D0E0F3CFDF91CF911F910F91FF90EF90F2
:101E5000DF90CF90BF90AF909F908F907F906F90CA
:101E60005F904F903F902F900895AF92BF92CF9286
:101E7000DF92EF92FF920F931F93DF93CF9300D0E7
:101E8000CDB7DEB77C01DC011D964D915C911E97AC
:101E9000475B5F4FFA018081495450408370813025
:101EA00009F462C1FA0183819481A581B6818F5FB3
:101EB0009F4FAF4FBF4F09F457C19A012E5A3F4F62
:101EC000465B5F4FFA0180819181A281B3814A54C0
:101ED0005040F90180839183A283B383DA0117967E
:101EE0008C91882311F4CA0132C14A5A5F4F88E7A6
:101EF000FA018083D7011D96ED91FC911E97808594
:101F0000833509F47FC0843590F48534A9F1863493
:101F100038F4813409F41EC1833409F013C11DC0A3
:101F20008B3409F417C1823509F00CC129C08E36F3
:101F300009F4C4C08F3638F4873509F467C0883691
:101F400009F000C19EC0863709F4CFC0883709F474
:101F5000EFC0833709F0F6C0C4C0D7011F96ED91DA
:101F6000FC915097A081B18114962D913C911597C9
:101F7000CF01F9010995E6C0C7010E948C0EDCC0B3
:101F80008781843009F0DEC08091A2059091A3057D
:101F9000009721F06DE872E00E948917D7011D9625
:101FA000ED91FC911E97918580E02285C22EDD2463
:101FB000C82AD92A10E016C0E12FF0E0FA83E9839D
:101FC000BF016C0D7D1D81EA95E00E94600D2981A5
:101FD0003A81A20EB31EA8E5B0E0AA0EBB1EF50121
:101FE00080831F5FD7011D96AD90BC901E97F501B1
:101FF0008385181708F327E530E0A20EB31ED5013C
:102000008C939AC0C7010E94790DA4C0278130E04B
:10201000838590E004962817390709F093C08091D2
:10202000A2059091A305009721F060E872E00E945C
:102030008917D7011D96ED91FC911E97918580E03F
:102040002285C22EDD24C82AD92A04E0ECEFFFEF56
:10205000CE0EDF1E0DC0802F90E0B601680F791FF5
:10206000E80FF91F81EA95E040850E94670D0F5F38
:10207000D7011D96ED91FC911E978781081758F3A3
:1020800061C08091A2059091A305009721F066E6BA
:1020900072E00E948917D7011D96ED91FC911E9761
:1020A000E85AFF4F12968C91129780831D96ED91FE
:1020B000FC911E97E75AFF4F81E031C0DF01A85A1B
:1020C000BF4FF70133968AE001900D928150E1F7FE
:1020D000D7011D96ED91FC911E97E95AFF4F8AE0BA
:1020E00041C0C7010E94B80D2DC08091A2059091FA
:1020F000A305009721F065E572E00E948917D701DA
:102100001D96ED91FC911E97E85AFF4F83E0808366
:102110001D96ED91FC911E97E75AFF4F86E0808354
:102120001D96ED91FC911E97E95AFF4F82E01AC06F
:10213000C7010E94B80D0EC0F701858596850E94E3
:10214000A91312C0D7011D968D919C911E970E94D4
:102150003D150AC0D7011D96ED91FC911E97E85AD6
:10216000FF4F89E68083E8CF0F900F90CF91DF91EA
:102170001F910F91FF90EF90DF90CF90BF90AF90A5
:102180000895FC0182EA91E091838083CF010E944F
:10219000E2190895FC018AEA91E091838083E85670
:1021A000FF4F619371934083EA59F0401282089582
:1021B000FC018AEA91E0918380830895AF92BF92F7
:1021C000CF92DF92EF92FF920F931F93CF93DF9303
:1021D000EC011A82C75BDF4F888190E09595879567
:1021E000682F63708A91C854D040FE01E157FD4FBB
:1021F0008D3F09F050C0808183FFAAC0C65BDF4FCE
:10220000E880F9800A811B81CA54D040AE0145564E
:102210005F4F9A01E0E0F0E0D901AD90BD90CD9024
:10222000DC90EA14FB040C051D0541F4EC0FFD1FC6
:10223000E55DFD4F8081882341F48AC031962C5F93
:102240003F4FE436F10541F783C090E095958795BF
:102250008370681709F07CC0FE01E55DFD4F20E04A
:1022600030E0DA01AD90BD90CD90DC901397EA1488
:10227000FB040C051D0539F41D921D921D921C9244
:102280001397108201C03F5F2F5F4C5F5F4F319605
:10229000243639F752C01B821C821D821E82C65B07
:1022A000DF4F188219821A821B82CA54D040808163
:1022B00083FF4EC0AE0145565F4F9A01E0E0F0E06B
:1022C000D901ED90FD900D911C91E114F1040105EF
:1022D000110531F4EC0FFD1FE55DFD4F808107C056
:1022E00031962C5F3F4FE436F10551F780E090E0E6
:1022F00083FD2EC0959587958370681749F5FE017B
:10230000E55DFD4F20E030E0DA01ED90FD900D91AC
:102310001C911397E114F1040105110539F41D9284
:102320001D921D921C921397108201C03F5F2F5F78
:102330004C5F5F4F3196243639F7FE01E157FD4F70
:10234000332319F08081886002C08081877F808379
:10235000DF91CF911F910F91FF90EF90DF90CF9081
:10236000BF90AF9008952F923F924F925F926F92DD
:102370007F928F929F92AF92BF92CF92DF92EF9215
:10238000FF920F931F93CF93DF93EC0148E0A42EAD
:10239000B12CA80EB91E38E9C32ED12CC80ED91EF7
:1023A0002FE8E22E22E0F22EE80EF91E9AEA292EFC
:1023B00095E0392E88E4482E512C4C0E5D1E09E420
:1023C000602E712C6C0E7D1E1AE4812E912C8C0EC9
:1023D0009D1E09E03DC1D601ED91FC91A081B18126
:1023E00016962D913C911797CF01F9010995182F59
:1023F0008D3F51F48091A2059091A305009721F0A3
:1024000063EA72E00E9489178091A2059091A3056A
:10241000009729F0612F40E150E00E944C181C3FCA
:1024200039F4F701808181FD03C08260808310C18F
:10243000812F8D5F823008F03EC01093F405D701E4
:102440008C9181608D7D8C931092A7051092A605CA
:102450001092EB051092EC051092ED051092EE052E
:102460001092F0051092F1051092F2051092F3050A
:10247000512F2FEF3FEF40E0C901880F991F57FD03
:10248000816037FD02C09C0104C022E030E12827B2
:1024900039274F5F483011F0550FEECF3093A50527
:1024A0002093A4051D3F09F0D3C0B4E0B093A90563
:1024B0000093A805CDC0F701808180FFC9C081FFCE
:1024C00003C010688D7F80832091A4053091A505FD
:1024D000512F40E0C901880F991F57FD816037FDDA
:1024E00002C09C0104C022E030E1282739274F5F59
:1024F000483011F0550FEECF3093A5052093A40579
:102500006091A6058091A9056817E8F42091F0056F
:102510003091F1054091F2055091F305542F432F6E
:10252000322F2227812F90E0A0E0B0E0822B932B66
:10253000A42BB52B8093F0059093F105A093F205A1
:10254000B093F3052CC0681731F46F5F6093A60554
:102550001093EF057DC05091EF0553FF24C080918B
:10256000A805681700F52091EB053091EC05409126
:10257000ED055091EE05542F432F322F2227812F46
:1025800090E0A0E0B0E0822B932BA42BB52B80939E
:10259000EB059093EC05A093ED05B093EE056F5F0E
:1025A0006093A60555C06F3F31F0FFEFF093A6058D
:1025B0001093EA054DC04091A705E42FF0E0E655E1
:1025C000FA4F1083942F9F5F9093A7058091EA059F
:1025D0009817F1F5232B91F5D7018C918E7F8062AE
:1025E0008C938091F405F20180838091F0059091A5
:1025F000F105A091F205B091F3058B839C83AD8327
:10260000BE83D3015C938091EB059091EC05A09182
:10261000ED05B091EE05F40180839183A283B3832D
:1026200041504F83C501B10150E00E94C401109296
:10263000A7051092A605F1E0FA830AC08091A205D1
:102640009091A305009721F069E972E00E94891733
:10265000D601ED91FC91A081B18114962D913C9110
:102660001597CF01F9010995892B09F0B4CEDF91B7
:10267000CF911F910F91FF90EF90DF90CF90BF907F
:10268000AF909F908F907F906F905F904F903F9012
:102690002F900895EF92FF920F93DF93CF9300D086
:1026A000CDB7DEB77C01062F8091A2059091A305DE
:1026B000009721F040E150E00E944C18F701E656E7
:1026C000FF4F808161E00E94CE1A802F8C5F8330A3
:1026D000A0F488E990E0E80EF91ED701ED91FC9195
:1026E00088E69FEFE80EF91EA081B1812D913C9103
:1026F000CF016CEFF90109950F77D701A856BF4FAD
:10270000BA83A983ED91FC91A081B1812D913C9177
:10271000CF01602FF9010995E981FA81A081B1818A
:10272000ED91FC9111970284F385E02DCD0109957F
:102730008AE990E0E80EF91ED7018C9160E00E94D2
:10274000CE1A0F900F90CF91DF910F91FF90EF90E5
:1027500008958F929F92AF92BF92CF92DF92EF92A5
:10276000FF920F931F93CF93DF936C0122E530E02C
:10277000C20ED31EF60180819181A281B3812EEA1F
:102780003FEFC20ED31E8F5F9F4FAF4FBF4FC1F0C1
:10279000F601EA5AFF4F89E490E0C80ED91ED6012F
:1027A0008C9127EB3FEFC20ED31E90E09595879555
:1027B00083708295880F807E20812F79822B808381
:1027C0008091A2059091A305009721F060EB72E043
:1027D0000E9489171AE9E12EF12CEC0CFD1CD7019F
:1027E0008C9161E00E94CE1A860108561F4FD801D5
:1027F000ED91FC91A081B1812D913C91CF016DEFC4
:10280000F9010995F801A081B181ED91FC91119731
:102810000284F385E02DCD010995D7018C9160E00C
:102820000E94CE1ACFEFDFEF3DEF20E042E050E113
:10283000CE01880F991F37FD8160D7FD02C0EC01E2
:1028400003C0EC01C427D5272F5F283011F0330FC8
:10285000EFCFE2E5F0E0CE0EDF1ED601ED90FD9069
:102860000D911C91EEEAFFEFCE0EDF1EAA24A2E02E
:102870008A2EA0E19A2E212F332744275527B22EE6
:10288000C601622F0E944A1320E0CE01880F991FD3
:10289000B7FC8160D7FD02C0EC0103C0EC01C82584
:1028A000D9252F5F283011F0BB0CEFCFA394F4E0B3
:1028B000AF1629F0102F0F2DFE2CEE24DCCF860151
:1028C0000A5A1F4FC601D8016C910E944A13F801A1
:1028D0000081302F20E042E050E1CE01880F991FA7
:1028E00037FD8160D7FD02C0EC0103C0EC01C427B5
:1028F000D5272F5F283011F0330FEFCF03FF36C0FD
:102900002EE430E0C20ED31ED601ED90FD900D9165
:102910001C91E2EBFFEFCE0EDF1EAA2452E0852EC3
:1029200050E1952E212F332744275527B22EC6017B
:10293000622F0E944A1320E0CE01880F991FB7FC36
:102940008160D7FD02C0EC0103C0EC01C825D92588
:102950002F5F283011F0BB0CEFCFA394F4E0AF163B
:1029600029F0102F0F2DFE2CEE24DCCF27E530E0D0
:10297000C20ED31ED6011C91E9EAFFEFCE0EDF1E78
:102980001E5FC601612F0E944A1320E042E050E121
:10299000CE01880F991F17FD8160D7FD02C0EC01A1
:1029A00003C0EC01C427D5272F5F283059F4FF243A
:1029B000A7E5AA2EB12CAC0CBD1CF2E08F2EF0E1E5
:1029C0009F2E21C0110FE4CF86010F0D111D085A53
:1029D0001F4FC601D8016C910E944A13F801008173
:1029E00020E0CE01880F991F07FD8160D7FD02C04E
:1029F000EC0103C0EC01C825D9252F5F283011F068
:102A0000000FEFCFF394D5018C91F816E8F220E097
:102A100042E050E1CE01CC0FDD1F97FF02C0C4277A
:102A2000D5272F5F2830B1F720E042E050E1CE01FA
:102A3000CC0FDD1F97FF02C0C427D5272F5F28309A
:102A4000B1F7C6016D2F0E944A13C6016C2F0E9478
:102A50004A13F601E157FD4F808188608F7E8083A5
:102A6000DF91CF911F910F91FF90EF90DF90CF906A
:102A7000BF90AF909F908F900895FC01EA5AFF4F4E
:102A800089E181931082E755F040CF010E94A9139C
:102A90000895FC018AEA91E091838083CF010E942E
:102AA000E219089508951F920F920FB60F92112404
:102AB0002F933F934F938F939F93EF93FF93809127
:102AC000C00082FD1DC04091C600209135063091A6
:102AD00036062F5F3F4F2F733070809137069091ED
:102AE00038062817390771F0E0913506F09136065F
:102AF000EB50FA4F4083309336062093350602C0E0
:102B00008091C600FF91EF919F918F914F913F91DE
:102B10002F910F900FBE0F901F901895E09189068E
:102B2000F0918A06E05CFF4F819191912081318183
:102B3000821B930B8F739070892B11F00E9452159A
:102B400008951F920F920FB60F9211242F933F9367
:102B50008F939F93EF93FF932091790630917A069C
:102B600080917B0690917C062817390731F480917B
:102B7000C1008F7D8093C10014C0E0917B06F0916D
:102B80007C06E75CF94F208180917B0690917C0662
:102B900001968F73907090937C0680937B062093B0
:102BA000C600FF91EF919F918F913F912F910F90D0
:102BB0000FBE0F901F901895AF92BF92CF92DF92E9
:102BC000EF92FF920F931F93CF93DF93EC017A0163
:102BD0008B01C22EDD24D39471E0A72EB12CEC8999
:102BE000FD89DD2069F0C50108A002C0880F991F8A
:102BF0000A94E2F7808360E874E88EE190E005C013
:102C0000108260E472E48FE090E0A80197010E94D6
:102C1000C91C21503040404050405695479537954B
:102C2000279580E12030380720F0DD2011F0DD24E9
:102C3000D6CFE889F9893083EA89FB892083E88D3A
:102C4000F98DC082EE89FF89408121E030E0C90121
:102C50000C8C02C0880F991F0A94E2F7482B40831E
:102C6000EE89FF894081C9010D8C02C0880F991F30
:102C70000A94E2F7482B4083EE89FF894081C9011D
:102C80000E8C02C0880F991F0A94E2F7482B4083EC
:102C9000EE89FF8980810F8C02C0220F331F0A94B6
:102CA000E2F7209528232083DF91CF911F910F9188
:102CB000FF90EF90DF90CF90BF90AF900895DC0130
:102CC0001C96ED91FC911D97E05CFF4F2191319195
:102CD00080819181281B390B2F733070C9010895B1
:102CE000DC011C96ED91FC911D97E05CFF4F20816B
:102CF0003181E054F040DF01AE5BBF4F8D919C917C
:102D000011972817390719F42FEF3FEF07C08D915E
:102D10009C91E80FF91F8081282F30E0C9010895A8
:102D2000DC011C96ED91FC911D97E05CFF4F20812A
:102D30003181E054F040DF01AE5BBF4F8D919C913B
:102D400011972817390719F42FEF3FEF10C08D9115
:102D50009C911197E80FF91F20818D919C911197FB
:102D600001968F73907011969C938E9330E0C901F9
:102D70000895DC0191968C919197882339F05496AF
:102D8000ED91FC915597808186FFF9CF91961C9229
:102D90000895CF93DF93EC01EE85FF85E05CFF4F54
:102DA00020813181E054F0402F5F3F4F2F7330700E
:102DB000DF01AE5BBF4F8D919C91119728173907AA
:102DC000D1F3E05CFF4F80819181E054F040E80F47
:102DD000F91F6083EE85FF85E05CFF4F3183208320
:102DE000EE89FF89208181E090E00F8C02C0880F7E
:102DF000991F0A94E2F7282B208381E089A3EC89AC
:102E0000FD8980818064808381E090E0DF91CF91B3
:102E100008951092800610927F0688EE93E0A0E05D
:102E2000B0E08093810690938206A0938306B093CE
:102E3000840682EB91E090937E0680937D0685EF79
:102E400095E090938A068093890689E396E09093B3
:102E50008C0680938B0685EC90E090938E06809391
:102E60008D0684EC90E09093900680938F0680EC22
:102E700090E0909392068093910681EC90E090937D
:102E800094068093930682EC90E09093960680934C
:102E9000950686EC90E0909398068093970684E0E0
:102EA0008093990683E080939A0687E080939B063F
:102EB00085E080939C0681E080939D060895CF92E3
:102EC000DF92EF92FF920F931F93CF93DF937C01DA
:102ED0006B018A01C0E0D0E00FC0D6016D916D0199
:102EE000D701ED91FC910190F081E02DC70109958A
:102EF000C80FD91F015010400115110571F7CE01FF
:102F0000DF91CF911F910F91FF90EF90DF90CF90C5
:102F10000895EF92FF920F931F93CF93DF937C015D
:102F20008B01C0E0D0E0F8010F5F1F4F6491662372
:102F300059F0D701ED91FC910190F081E02DC7018E
:102F40000995C80FD91FEFCFCE01DF91CF911F9107
:102F50000F91FF90EF900895CF93DF93EC016115EF
:102F6000710519F420E030E00FC0DB010D90002066
:102F7000E9F71197A61BB70BE881F9810280F3816D
:102F8000E02DAD0109959C01C901DF91CF91089514
:102F90004F925F927F928F929F92AF92BF92CF9209
:102FA000DF92EF92FF920F931F93DF93CF93CDB7F2
:102FB000DEB7A1970FB6F894DEBF0FBECDBF2C01D0
:102FC000742ECB01223008F42AE019A231E2C32E7C
:102FD000D12CCC0EDD1E822E9924AA24BB24672D71
:102FE000752FA50194010E94C91C79018A01C801AD
:102FF000B701A50194010E94971C472D461B089418
:10300000C108D1084A3014F4405D01C0495CF601A2
:103010004083E114F1040105110521F07E2C5F2DA0
:10302000C801DDCFC201B6010E94AC17A1960FB650
:10303000F894DEBF0FBECDBFCF91DF911F910F91EE
:10304000FF90EF90DF90CF90BF90AF909F908F90C8
:103050007F905F904F900895DC012115310541F478
:10306000ED91FC910190F081E02D642F0995089578
:103070000E94C8170895EF92FF920F931F939A0131
:103080007B0100E010E0B801A7010E942C181F91FD
:103090000F91FF90EF900895EF92FF920F931F937F
:1030A0009A01E62EFF2400E010E0B801A7010E947B
:1030B0002C181F910F91FF90EF900895CF92DF92FF
:1030C000EF92FF920F931F93CF93DF93EC016A016E
:1030D0007B012115310541F4E881F9810190F081EE
:1030E000E02D642F09951FC02A303105D1F477FFF8
:1030F00017C0E881F9810190F081E02D6DE209951A
:103100008C0144275527BA014C195D096E097F09C6
:10311000CE012AE00E94C8179801280F391F04C069
:103120002AE00E94C8179C01C901DF91CF911F912D
:103130000F91FF90EF90DF90CF900895EF92FF9264
:103140000F931F937B019A010027F7FC0095102F26
:10315000B801A7010E945E181F910F91FF90EF9098
:1031600008950E94AC170895CF93DF930E94541ADC
:103170000E94FF04CEE8D5E10E94BE062097E1F34D
:103180000E948E15F9CF0F931F93CF93DF93BC014D
:103190008230910510F462E070E0E091A806F091B1
:1031A000A906A0E0B0E040E050E024C08081918119
:1031B00086179707D0F08617970771F4828193815D
:1031C000109729F013969C938E9312972CC090938E
:1031D000A9068093A80627C04115510519F0841748
:1031E000950718F4EF018D01AC01DF018281938115
:1031F0009C01F9013097D1F641155105F9F0CA014A
:10320000861B970B8430910580F48A819B81011580
:10321000110521F0F8019383828304C09093A906DD
:103220008093A806FE0132962FC0FE01E80FF91F19
:103230006193719302979983888326C08DB79EB757
:1032400088579040209180013091810128173907DB
:10325000C8F4AC01421B530B4617570798F0CB013B
:1032600002964817590770F0820F931F90938101BF
:10327000809380019093830180938201F90161938F
:10328000719302C0E0E0F0E0CF01DF91CF911F9198
:103290000F910895CF93DF939C01009709F48FC09D
:1032A000EC0122971B821A826091A8067091A906F0
:1032B0006115710581F488819981820F931F209196
:1032C0008001309181012817390739F5D0938101A8
:1032D000C093800174C0DB0140E050E0AC17BD0733
:1032E00008F1BB83AA83FE0121913191E20FF31F04
:1032F000AE17BF0779F48D919C911197280F391F54
:103300002E5F3F4F3983288312968D919C9113979E
:103310009B838A834115510571F4D093A906C0930C
:10332000A8064DC012968D919C911397AD01009700
:1033300011F0DC01D3CFDA011396DC93CE93129710
:10334000FA0121913191E20FF31FCE17DF0769F4E3
:1033500088819981280F391F2E5F3F4FFA013183F1
:1033600020838A819B8193838283E0E0F0E0DB010C
:1033700012968D919C911397009719F0BC01FD0155
:10338000F6CFAB014E5F5F4FDB018D919C91840FB7
:10339000951F20918001309181012817390779F418
:1033A000309729F41092A9061092A80602C0138241
:1033B0001282425050405093810140938001DF912E
:1033C000CF9108950E944A1908950E94C318089544
:1033D0001F920F920FB60F9211242F933F934F938A
:1033E0005F936F937F938F939F93AF93BF9320913E
:1033F000A3063091A4064091A5065091A6067091AF
:10340000A706DA01C9010296A11DB11D672F6A5FE7
:103410006D3730F06D57DA01C9010396A11DB11D5A
:103420006093A7068093A3069093A406A093A50695
:10343000B093A60680919F069091A006A091A10648
:10344000B091A2060196A11DB11D80939F06909395
:10345000A006A093A106B093A206BF91AF919F9141
:103460008F917F916F915F914F913F912F910F902D
:103470000FBE0F901F9018958FB7F8942091A30658
:103480003091A4064091A5065091A6068FBFB901C0
:10349000CA010895019739F0019729F0880F991F03
:1034A00001970197F1F70895789484B5826084BDFF
:1034B00084B5816084BD85B5826085BD85B5816038
:1034C00085BDEEE6F0E0808181608083E1E8F0E098
:1034D0001082808182608083808181608083E0E8C7
:1034E000F0E0808181608083E1EBF0E080818460A6
:1034F0008083E0EBF0E0808181608083EAE7F0E0A8
:10350000808184608083808182608083808181600B
:1035100080838081806880831092C1000895CF935A
:10352000DF93482F50E0CA0184519D4FFC01349134
:1035300048525D4FFA018491882369F190E0880F29
:10354000991FFC01E654FD4FA591B491FC01EC5389
:10355000FD4FC591D491662351F42FB7F8948C9107
:10356000932F909589238C93888189230BC0623097
:1035700061F42FB7F8948C91932F909589238C93B5
:103580008881832B88832FBF06C09FB7F8948C91C6
:10359000832B8C939FBFDF91CF910895482F50E0EC
:1035A000CA0180509D4FFC012491CA0184519D4F56
:1035B000FC01949148525D4FFA013491332309F490
:1035C00040C0222351F1233071F0243028F42130FF
:1035D000A1F0223011F514C02630B1F02730C1F02F
:1035E0002430D9F404C0809180008F7703C080918B
:1035F00080008F7D8093800010C084B58F7702C0DB
:1036000084B58F7D84BD09C08091B0008F7703C0E1
:103610008091B0008F7D8093B000E32FF0E0EE0F3B
:10362000FF1FEC53FD4FA591B4912FB7F89466237B
:1036300021F48C919095892302C08C91892B8C93D5
:103640002FBF0895682F70E0CB0180509D4FFC0183
:103650002491CB0184519D4FFC01449168527D4FD0
:10366000FB019491992319F420E030E03CC022231F
:1036700051F1233071F0243028F42130A1F02230B0
:1036800011F514C02630B1F02730C1F02430D9F440
:1036900004C0809180008F7703C0809180008F7D6F
:1036A0008093800010C084B58F7702C084B58F7D71
:1036B00084BD09C08091B0008F7703C08091B000B5
:1036C0008F7D8093B000892F90E0880F991F8253DF
:1036D0009D4FFC01A591B4918C9120E030E08423B2
:1036E00011F021E030E0C901089504D06894B111CF
:1036F000B5C0089598D088F09F5790F0B92F9927BA
:10370000B751A0F0D1F0660F771F881F991F1AF0EC
:10371000BA95C9F712C0B13081F09FD0B1E00895D9
:103720009CC0672F782F8827B85F39F0B93FCCF35A
:10373000869577956795B395D9F73EF490958095E2
:10374000709561957F4F8F4F9F4F0895E89409C002
:1037500097FB3EF490958095709561957F4F8F4FC4
:103760009F4F9923A9F0F92F96E9BB279395F695DA
:10377000879577956795B795F111F8CFFAF4BB0F58
:1037800011F460FF1BC06F5F7F4F8F4F9F4F16C0BC
:10379000882311F096E911C0772321F09EE8872F46
:1037A000762F05C0662371F096E8862F70E060E002
:1037B0002AF09A95660F771F881FDAF7880F96957B
:1037C000879597F9089597F99F6780E870E060E022
:1037D00008959FEF80EC089500240A9416161706AA
:1037E00018060906089500240A94121613061406F2
:1037F00005060895092E0394000C11F4882352F055
:10380000BB0F40F4BF2B11F460FF04C06F5F7F4F0C
:103810008F4F9F4F089557FD9058440F551F59F0F3
:103820005F3F71F04795880F97FB991F61F09F3FAD
:1038300079F087950895121613061406551FF2CFD6
:103840004695F1DF08C0161617061806991FF1CF26
:1038500086957105610508940895E894BB2766274D
:103860007727CB0197F908950BD0C4CFB5DF28F0A7
:10387000BADF18F0952309F0A6CFABCF1124EECF15
:10388000CADFA0F3959FD1F3950F50E0551F629FBB
:10389000F001729FBB27F00DB11D639FAA27F00DA9
:1038A000B11DAA1F649F6627B00DA11D661F829FD0
:1038B0002227B00DA11D621F739FB00DA11D621FB5
:1038C000839FA00D611D221F749F3327A00D611DD2
:1038D000231F849F600D211D822F762F6A2F1124B4
:1038E0009F5750408AF0E1F088234AF0EE0FFF1F07
:1038F000BB1F661F771F881F91505040A9F79E3F3E
:10390000510570F060CFAACF5F3FECF3983EDCF337
:10391000869577956795B795F795E7959F5FC1F77A
:10392000FE2B880F911D9695879597F90895629FB4
:10393000D001739FF001829FE00DF11D649FE00DA7
:10394000F11D929FF00D839FF00D749FF00D659F08
:10395000F00D9927729FB00DE11DF91F639FB00D07
:10396000E11DF91FBD01CF011124089597FB092E18
:1039700007260AD077FD04D02ED006D000201AF4F6
:10398000709561957F4F0895F6F7909581959F4FBB
:103990000895A1E21A2EAA1BBB1BFD010DC0AA1F90
:1039A000BB1FEE1FFF1FA217B307E407F50720F0A8
:1039B000A21BB30BE40BF50B661F771F881F991F23
:1039C0001A9469F760957095809590959B01AC016C
:1039D000BD01CF010895AA1BBB1B51E107C0AA1F5F
:1039E000BB1FA617B70710F0A61BB70B881F991FA0
:1039F0005A95A9F780959095BC01CD010895EE0FD9
:103A0000FF1F0590F491E02D099413E0C8E1D3E085
:103A100004C0FE010E94011D2296CA31D107C9F7D8
:043A2000F894FFCF48
:103A24004368616E6E656C20202020203A20000DD2
:103A34000A004D696E20496E74657276616C3A2095
:103A4400004D617820496E74657276616C3A20008D
:103A540044656C74612054656D7020203A200043E5
:103A6400757272656E742054656D703A20004C61F5
:103A740073742054656D702020203A200053697AB5
:103A84006520202020202020203A200020004842C9
:103A9400573430373334373100487568750A00FFBE
:103AA400AA06640000000000D401D501150200003C
:103AB40000009A095F1780095F09A50A940A0000AB
:103AC4000000730DC11000000000D810491500005B
:0E3AD4000000C9165F175F1690167016B9161F
:00000001FF
