:100000000C948D010C94B5010C94B5010C94A20ACA
:100010000C94CC0A0C94F60A0C94B5010C94B5011E
:100020000C94B5010C94B5010C94B5010C94B50178
:100030000C94B5010C94B5010C94B5010C94B50168
:100040000C946C1D0C94B5010C94D7180C942519C4
:100050000C94B5010C94B5010C94B5010C94B50148
:100060000C94B5010C94B501446576696365206113
:100070006C7265616479206B6E6F776E00435243DA
:10008000206973206E6F742076616C6964202D2066
:1000900069676E6F72696E67206465766963652152
:1000A000000D0A20312D5769726520446576696319
:1000B0006520666F756E643A0000C201000100059C
:1000C000000500030000E1000001000F000F000D1B
:1000D0000000960000020019001A001700127A00B2
:1000E000000700200021001D00807000000B00238D
:1000F0000023002000004B000014003700370034BC
:1001000000403800001E004B004B004800802500D6
:10011000003200720072007000C01200006E00E930
:1001200000E900E60060090000E500D801D801D52B
:1001300001B0040000D301B403B403B103580200BA
:1001400000B4036707670762072C0100006707DD3B
:100150000EDD0EDA0E005EBCE2613FDD83C29C7EE6
:1001600020A3FD1F419DC3217FFCA2401E5F01E330
:10017000BD3E6082DC237D9FC1421CFEA0E1BF5DCD
:100180000380DE3C62BEE0025CDF81633D7C22C016
:100190009E1D43A1FF4618FAA427799BC584DA382F
:1001A00066E5BB5907DB856739BAE406581947A5E8
:1001B000FB7826C49A653BD987045AB8E6A7F91B91
:1001C00045C6987A24F8A6441A99C7257B3A6486CE
:1001D000D85B05E7B98CD2306EEDB3510F4E10F2FB
:1001E000AC2F7193CD114FADF3702ECC92D38D6F98
:1001F00031B2EC0E50AFF1134DCE90722C6D33D165
:100200008F0C52B0EE326C8ED0530DEFB1F0AE4C7D
:100210001291CF2D73CA947628ABF517490856B4BE
:10022000EA6937D58B5709EBB536688AD495CB295F
:1002300077F4AA4816E9B7550B88D6346A2B759718
:10024000C94A14F6A8742AC896154BA9F7B6E80A45
:1002500054D7896B354669726D7761726520566532
:100260007273696F6E0048617264776172652056BF
:10027000657273696F6E20616E64205479706500D9
:10028000777269746520656570726F6D0072656163
:100290006420656570726F6D0063726320657272B1
:1002A0006F72000A526563656976696E67200A009D
:1002B0000A53656E64696E670A000000000024003E
:1002C00027002A0000000000250028002B00000065
:1002D000000023002600290004040404040404048C
:1002E00002020202020203030303030301020408E1
:1002F0001020408001020408102001020408102090
:1003000000000007000201000003040600000000D6
:1003100000000000AF048D1AA80411241FBECFEF07
:10032000D8E0DEBFCDBF11E0A0E0B1E0EAE9F1E442
:1003300002C005900D92AA3BB107D9F716E0AAEBCF
:10034000B1E001C01D92A63AB107E1F713E0C8E1A0
:10035000D3E004C02297FE010E948520C431D1075A
:10036000C9F70E94381C0C94C0200C940000FB01BB
:10037000DC0104C08D910190801921F4415050405E
:10038000C8F7881B990B0895FB01DC0102C001909E
:100390000D9241505040D8F70895DC0101C06D9393
:1003A00041505040E0F70895AEE0B0E0EAEDF1E0F2
:1003B0000C9497200D891E8986E08C831A8309830B
:1003C0008FEF9FE79E838D839E01275E3F4FCE0177
:1003D00001966F89788DA9010E94F8012F813885D7
:1003E000020F131FF80110822E96E4E00C94B32044
:1003F000ABE0B0E0EEEFF1E00C9489203C012B0182
:100400005A01FC0117821682838181FD03C06FEFC0
:100410007FEFC6C19AE0892E1E010894211C311C71
:10042000F3012381F20123FD859123FF81912F01A7
:10043000882309F4B2C1853239F423FD859123FF65
:1004400081912F01853229F490E0B3010E94EB03E2
:10045000E7CF982FFF24EE249924FFE1FF15D0F079
:100460009B3269F09C3228F4903259F0933291F427
:100470000EC09D3249F0903369F441E024C052E04F
:10048000F52A84E0F82A28C098E0F92A25C0E0E19E
:10049000FE2A22C0F7FC29C0892F80538A3070F4CD
:1004A000F6FE05C0989C902C1124980E15C0E89C6F
:1004B000E02C1124E80EF0E2FF2A0EC09E3229F44F
:1004C000F6FC6BC140E4F42A07C09C3619F450E8EE
:1004D000F52A02C0983649F4F20123FD959123FFD5
:1004E00091912F01992309F0B8CF892F855483303A
:1004F00018F08052833038F444E050E0A40EB51E6A
:100500005FE359830FC0933631F0933779F0933519
:1005100009F056C020C0F5018081898342E050E097
:10052000A40EB51E610101E010E012C0F501C0800B
:10053000D180F6FC03C06FEF7FEF02C0692D70E041
:1005400042E050E0A40EB51EC6010E94E0038C01FB
:100550005FE7F52214C0F501C080D180F6FC03C02E
:100560006FEF7FEF02C0692D70E042E050E0A40E13
:10057000B51EC6010E94D5038C0150E8F52AF3FE92
:1005800007C01AC080E290E0B3010E94EB03EA9436
:100590008E2D90E008171907A8F30EC0F601F7FC9E
:1005A0008591F7FE81916F0190E0B3010E94EB030A
:1005B000E110EA94015010400115110579F7EAC0E5
:1005C000943611F0993669F5F7FE08C0F5012081DF
:1005D00031814281538184E090E00AC0F50180813D
:1005E00091819C01442737FD4095542F82E090E093
:1005F000A80EB91E9FE6F92257FF09C050954095F5
:10060000309521953F4F4F4F5F4FE0E8FE2ACA01DA
:10061000B901A1012AE030E00E941704D82ED218B7
:1006200040C0953729F41F2D1F7E2AE030E01DC001
:100630001F2D197F9F3661F0903720F4983509F00F
:10064000ACC00FC0903739F0983709F0A6C004C08D
:1006500028E030E00AC0106114FD146020E130E0B1
:1006600004C014FD166020E132E017FF08C0F50158
:10067000608171818281938144E050E008C0F5017E
:1006800080819181BC0180E090E042E050E0A40EC6
:10069000B51EA1010E941704D82ED2188FE7F82E9C
:1006A000F122F6FE0BC05EEFF522D91438F4F4FE09
:1006B00007C0F2FC05C08FEEF82202C01D2D01C05C
:1006C000192DF4FE0DC0FE01ED0DF11D808180336A
:1006D00019F499EEF92208C01F5FF2FE05C003C0AD
:1006E0008F2D867809F01F5F0F2DF3FC14C0F0FEEC
:1006F0000FC01E1510F09D2C0BC09D2C9E0C911A46
:100700001E2D06C080E290E0B3010E94EB031F5F44
:100710001E15C0F304C01E1510F4E11A01C0EE242A
:1007200004FF0FC080E390E0B3010E94EB0302FFDF
:100730001DC001FD03C088E790E00EC088E590E091
:100740000BC0802F867891F001FF02C08BE201C0C0
:1007500080E2F7FC8DE290E0B3010E94EB0306C05B
:1007600080E390E0B3010E94EB039A94D914C0F3A4
:10077000DA94F101ED0DF11D808190E0B3010E944A
:10078000EB03DD20A9F706C080E290E0B3010E94F0
:10079000EB03EA94EE20C1F743CEF3016681778143
:1007A000CB012B96E2E10C94A520FC010590615051
:1007B00070400110D8F7809590958E0F9F1F089577
:1007C000FC016150704001900110D8F78095909520
:1007D0008E0F9F1F08950F931F93CF93DF938C016C
:1007E000EB018B8181FF1BC082FF0DC02E813F81F9
:1007F0008C819D812817390764F4E881F981019380
:10080000F983E88306C0E885F985802F0995892B4F
:1008100031F48E819F8101969F838E8302C00FEFFA
:100820001FEFC801DF91CF911F910F910895FA0139
:10083000AA27283051F1203181F1E8946F936E7F1F
:100840006E5F7F4F8F4F9F4FAF4FB1E03ED0B4E010
:100850003CD0670F781F891F9A1FA11D680F791F51
:100860008A1F911DA11D6A0F711D811D911DA11D62
:1008700020D009F468943F912AE0269F1124301972
:10088000305D3193DEF6CF010895462F4770405D0D
:100890004193B3E00FD0C9F7F6CF462F4F70405DBC
:1008A0004A3318F0495D31FD4052419302D0A9F717
:1008B000EACFB4E0A6959795879577956795BA9511
:1008C000C9F700976105710508959B01AC010A2ED7
:1008D00006945795479537952795BA95C9F7620FAE
:1008E000731F841F951FA01D089508956B3018F085
:1008F0006DE475E908C0E62FF0E0EE0FFF1FE65A41
:10090000FD4F60817181CB01089581309105B1F473
:100910006F5F7F4FE1F48AEA92E061E10E94A80FE5
:1009200088EB92E069E776E042E00E944E1483E8AB
:1009300091E090934B0580934A050895892B39F4F3
:100940006F5F7F4F21F488EB92E00E945C14089562
:1009500080E090E06FEF7FEF0E948504089581E0D2
:1009600090E06FEF7FEF0E94850408950F931F932F
:10097000CF93DF930AEB11E0C0E1D0E009C08DE92D
:1009800095E0BE010E94DE0FF80181938F01219650
:10099000F2E00A351F0799F7EBEBF1E065E04AE07A
:1009A00050E026E930E080818F3F09F46083828146
:1009B00093818F5F9F4F11F453834283848195818C
:1009C0008F5F9F4F11F435832483709682E0EB355F
:1009D000F80749F7DF91CF911F910F910895BC015E
:1009E00080919E0590919F05009711F00E94351C03
:1009F0000895FF920F931F93CF93DF93CBEBD1E03A
:100A0000FF2400E010E080E091E00E94EF0480917C
:100A10009E0590919F05009729F06F2D4AE050E0C8
:100A20000E94D01B8FE091E00E94EF0482E191E0F0
:100A30000E94EF046A817B8180919E0590919F05C1
:100A4000009721F04AE050E00E94BF1B8FE091E048
:100A50000E94EF0481E291E00E94EF046C817D81AD
:100A600080919E0590919F05009721F04AE050E00B
:100A70000E94BF1B8FE091E00E94EF0480E391E0B1
:100A80000E94EF04688180919E0590919F050097D8
:100A900021F04AE050E00E94D01B8FE091E00E94DC
:100AA000EF048FE391E00E94EF04F801E65AFD4F56
:100AB0006081718180919E0590919F05009721F042
:100AC0004AE050E00E94221C8FE091E00E94EF0477
:100AD0008EE491E00E94EF04F801E259FD4F60813D
:100AE000718180919E0590919F05009721F04AE0C9
:100AF00050E00E94221C8FE091E00E94EF048DE5FF
:100B000091E00E94EF0480919E0590919F050097CF
:100B100031F060E170E04AE050E00E94BF1B8FE0DE
:100B200091E00E94EF048FE091E00E94EF04F394C3
:100B30000E5F1F4F60968AE0F81609F064CFDF91D0
:100B4000CF911F910F91FF900895CF93DF93C82FFE
:100B5000D0E094E0CC0FDD1F9A95E1F7FE01E6545A
:100B6000FE4F87818F3F89F08AEA92E00E94C70E8C
:100B7000CF53DE4F8AEA92E0BE010E94A60E8AEAB7
:100B800092E064E441E00E94660EDF91CF91089507
:100B9000CF92DF92EF92FF920F931F93DF93CF9349
:100BA000CDB7DEB72C970FB6F894DEBF0FBECDBF22
:100BB000E82EFF24870154E0000F111F5A95E1F73A
:100BC000F801E654FE4F87818F3F19F4E3E373E9A0
:100BD0002DC08AEA92E00E94C70E0F531E4F8AEA88
:100BE00092E0B8010E94A60E8AEA92E06EEB40E025
:100BF0000E94660E8E010F5F1F4F4AE0C42ED12C5B
:100C0000CC0EDD1E8AEA92E00E94150EF801819357
:100C10008F01EC15FD05B1F7CE01019668E00E9449
:100C2000D00D9985891729F0ECEE71E988E863EC1D
:100C300040C09A8180E02981422F50E0482B592BF7
:100C400034E0EE0CFF1C3A95E1F78AEB91E0E80EF8
:100C5000F91EF7018781803189F423E0440F551F85
:100C60002A95E1F788858031A9F42F818CE090E006
:100C7000821B9109407F480F591F0CC08D818076DF
:100C800011F4487F07C0803211F44C7F03C08034D8
:100C900009F44E7FBA01882777FD8095982F0E942E
:100CA0002C1F20E030E040E85DE30E94B81FE62FF3
:100CB000692F2E2F372F482F562FB901CA012C9696
:100CC0000FB6F894DEBF0FBECDBFCF91DF911F915D
:100CD0000F91FF90EF90DF90CF900895EF92FF92E9
:100CE0000F931F930E94C01D9B01AC01809155057D
:100CF00090915605A0915705B091580579018A0148
:100D0000E81AF90A0A0B1B0BD801C701885E934049
:100D1000A040B04084F12093550530935605409390
:100D200057055093580500917A010F3F19F410921E
:100D30007A011DC0802F0E94C80510E0000F111F0E
:100D4000065A1D4F20E030E048EC52E40E94B81FE4
:100D50000E94F91EF8017183608380917A0190E00E
:100D600001966AE070E00E943A2080937A018091B7
:100D70007A010E94A5051F910F91FF90EF900895B1
:100D80000F931F93CF93DF930AEB11E0C0E1D0E004
:100D90000CC08091480590914905BE01F801419130
:100DA0008F0120E00E9437112196F2E00A351F07DB
:100DB00081F7DF91CF911F910F910895AF92BF926C
:100DC000CF92DF92FF920F931F93DF93CF93CDB714
:100DD000DEB728970FB6F894DEBF0FBECDBF8AEA04
:100DE00092E00E94C30DFF246E010894C11CD11C27
:100DF00009E0A02EB12CAC0EBD1E01C0F39489E019
:100E00008F1568F0EF2DF0E014E0EE0FFF1F1A953C
:100E1000E1F7E654FE4F87818F3F81F704C0EAE097
:100E2000FE1609F46EC08AEA92E0B6010E94120F23
:100E3000882309F466C080919E0590919F050097D4
:100E400021F061EA70E00E940D1B86018CE691E0C2
:100E50000E94EF04F801608180919E0590919F05AA
:100E6000009721F040E150E00E94D01B0F5F1F4F20
:100E70000A151B0559F7C60167E00E94D00D988539
:100E8000891749F080919E0590919F050097B9F1CF
:100E90006DE770E022C000E010E0B801B4E0660F3A
:100EA000771FBA95E1F76F537E4FC60148E050E0D7
:100EB0000E94B701009749F0802F8F5F0F5F1F4F8F
:100EC0000A30110551F78A3058F480919E059091AF
:100ED0009F050097A1F068E670E00E940D1B0FC00F
:100EE000EF2DF0E0A4E0EE0FFF1FAA95E1F7EF531E
:100EF000FE4FD60188E00D9001928150E1F7FF246A
:100F000081CF0E94C00628960FB6F894DEBF0FBEB0
:100F1000CDBFCF91DF911F910F91FF90DF90CF90C8
:100F2000BF90AF9008950F931F9385E060E00E94FB
:100F3000131E86E061E00E94131E82E061E00E94C1
:100F4000131E82E060E00E94521E88E062E00E9470
:100F5000131E84E061E00E94131E8CE190E00E9469
:100F6000691D182F092F65E046E020E00E94950DCD
:100F7000812F902F40E05BE460E070E00E94200B46
:100F800010939E0500939F0589E796E040E05BE49F
:100F900060E070E026E20E946019A2E8B2E080E022
:100FA00090E02DE435E9FC01E65AFD4F31832083C2
:100FB000FC01E259FD4F318320831D921D921D9249
:100FC0001D9202968431910571F78AE495E00E94A2
:100FD000B6040E94DE0687E090E00E94691D182F8B
:100FE000092F6AE475E048EB52E021E80E942911DC
:100FF00010934805009349058EE691E00E94EF04A6
:10100000809148059091490560E00E9492110E94EC
:10101000F9041F910F9108958AEB91E06FEF70E052
:1010200040EA50E00E94CD01EBEBF1E065E04AE0E0
:1010300050E026E930E080818F3F09F460838281AF
:1010400093818F5F9F4F11F45383428384819581F5
:101050008F5F9F4F11F435832483709682E0EB35C8
:10106000F80749F70E94DE060895EF92FF920F936A
:101070001F930E94C01D7B018C0188E00E94A61E68
:1010800020E0892B09F421E080915005823009F499
:1010900046C0833030F4882371F0813009F094C069
:1010A0000FC0843009F46AC0843008F43DC0853034
:1010B00009F08AC083C0222309F451C081E04DC0E9
:1010C0008091510590915205A0915305B09154051E
:1010D000222381F0A8019701281B390B4A0B5B0BD7
:1010E000DA01C90189589341A040B0400CF46CC0AA
:1010F00082E061C0B801A701481B590B6A0B7B0B4A
:10110000453651056105710514F00E94DE06809197
:1011100048059091490560E00E94921153C0222336
:1011200009F052C083E019C0809151059091520599
:10113000A0915305B0915405B801A701481B590B64
:101140006A0B7B0BDB01CA01443651056105710551
:101150000CF43AC0222361F084E080935005E092C1
:101160005105F092520500935305109354052CC07D
:1011700081519742A040B0403CF124C0809151057C
:1011800090915205A0915305B0915405B801A70163
:10119000481B590B6A0B7B0BDB01CA014436510516
:1011A000610571058CF0222369F0895B9B40A040AA
:1011B000B04054F085E08093500506C0222321F40E
:1011C0000E940C081092500580915005853040F423
:1011D000823090F4882341F0813009F048C007C084
:1011E000853009F044C01CC084E060E002C084E0A7
:1011F00061E00E94521E3BC080914C0590914D05CC
:10120000A0914E05B0914F05A8019701281B390BFD
:101210004A0B5B0B253631054105510544F115C0DC
:1012200080914C0590914D05A0914E05B0914F05D0
:10123000B801A701481B590B6A0B7B0BDB01CA01E4
:101240008F5E9240A040B04094F084E00E94A61EC1
:1012500060E0892B09F461E084E00E94521EE09274
:101260004C05F0924D0500934E0510934F051F91CC
:101270000F91FF90EF9008952F923F924F925F92BF
:101280006F927F928F929F92AF92BF92CF92DF9296
:10129000EF92FF920F931F93CF93DF9388EB92E02F
:1012A0000E9437158091BA02882321F12091BB0258
:1012B0003091BC024091BD025091BE028091060364
:1012C00090910703A0910803B091090328173907EB
:1012D0004A075B0729F02F5F3F4F4F4F5F4F51F495
:1012E00088EB92E00E946214809148059091490534
:1012F0000E9499120E946E060E9435080E94C01D2D
:101300005B016C0132E8632E32E0732E2BEB822EF0
:1013100021E0922ECAE5D2E09EE6492E92E0592EB7
:1013200033248AE0282EF4016281738161157105EE
:10133000C9F0F30180819181A281B3818601750199
:10134000E81AF90A0A0B1B0B80E090E028EE33E064
:1013500040E050E00E941B20E616F7060807190738
:101360000CF447C0F4016481758161157105C1F009
:10137000F30180819181A281B38186017501E81A10
:10138000F90A0A0B1B0B80E090E028EE33E040E006
:1013900050E00E941B20E616F70608071907B4F470
:1013A000F4014081442329F128813981F2018081AF
:1013B0009181281B390B37FF03C0309521953F4F92
:1013C000429DC00111242817390798F0488159819E
:1013D0008091480590914905632D0E9453118881A1
:1013E0009981F20191838083F301A082B182C2824C
:1013F000D382339484E090E0680E791EE0E1F0E05F
:101400008E0E9F1E229682E090E0480E591E9AE0B2
:10141000391609F088CFDF91CF911F910F91FF907E
:10142000EF90DF90CF90BF90AF909F908F907F9084
:101430006F905F904F903F902F9008950F931F9360
:10144000CF93DF93DC015B967C915B97769571700F
:101450001E96ED91FC911F971D969C911D977723E9
:1014600029F08081892309F468C004C08081892320
:1014700009F063C053968D919C91549720E0019799
:101480002FEF8F3F9207D9F75596CD91DC91569764
:101490001E96ED91FC911F971D961C911D9760E083
:1014A00031E040E050E000E0CE01202F01972FEF27
:1014B0008F3F9207D9F78081812311F0632B03C0FE
:1014C000832F80956823330F4F5F5F4F483051055E
:1014D00059F757968D919C91589720E0FC01322F37
:1014E00031973FEFEF3FF307D9F701972FEF8F3F8A
:1014F0009207D9F77111609580919B0520919C0509
:1015000090E001968F73907030E08217930779F026
:10151000E0919B05F0E0E55AFA4F608380919B05CE
:1015200090E001968F73907080939B0506C05B9648
:101530008C915B9781605B968C93DF91CF911F912B
:101540000F9108951F920F920FB60F9211242F93AF
:101550003F934F935F936F937F938F939F93AF933B
:10156000BF93EF93FF938091590590915A0500978F
:1015700011F00E941E0AFF91EF91BF91AF919F91D0
:101580008F917F916F915F914F913F912F910F902C
:101590000FBE0F901F9018951F920F920FB60F92CB
:1015A00011242F933F934F935F936F937F938F9368
:1015B0009F93AF93BF93EF93FF93809159059091C1
:1015C0005A05009711F00E941E0AFF91EF91BF91FA
:1015D000AF919F918F917F916F915F914F913F91CB
:1015E0002F910F900FBE0F901F9018951F920F9282
:1015F0000FB60F9211242F933F934F935F936F93E6
:101600007F938F939F93AF93BF93EF93FF938091BB
:10161000590590915A05009711F00E941E0AFF91FA
:10162000EF91BF91AF919F918F917F916F915F915A
:101630004F913F912F910F900FBE0F901F901895D3
:10164000CF92DF92EF92FF920F931F93CF93DF938E
:10165000EC017A018B011A8E198E188E1F8A1E8A50
:101660001D8A1C8A1B8A20E030E06901CC0CDD1C3D
:10167000C20ED31EB601660F771F660F771FAB0130
:1016800047545F4FFA0185919591A591B4918E15BC
:101690009F05A007B107E9F4FB01E354FF4F8591D3
:1016A00094919C8B8B8BFB01E154FF4F859194911E
:1016B0009E8B8D8BFB01EF53FF4F85919491988FFB
:1016C0008F8BFB01ED53FF4F859194919A8F898FFA
:1016D00006C02F5F3F4F2D30310509F0C6CF8F89EF
:1016E000988D892B09F449C04C85463108F03DC0DE
:1016F00090916800483010F484E005C04E3010F03E
:1017000082E001C081E0892B80936800483028F492
:10171000EDE6F0E0ADE6B0E00BC04E3028F0ECE6D0
:10172000F0E0ACE6B0E004C0EBE6F0E0ABE6B0E041
:101730005081483040F481E090E002C0880F991F4A
:101740004A95E2F710C0242F30E04E3018F42850AC
:10175000304002C02E50304081E090E002C0880F3F
:10176000991F2A95E2F7852B8C93898D9A8D20E01D
:1017700001972FEF8F3F9207D9F7809159059091EC
:101780005A058C179D0781F08B8D8E7F8B8F9FB7AD
:10179000F89410929B0580919B0580939C05D093B3
:1017A0005A05C09359059FBFDF91CF911F910F91AB
:1017B000FF90EF90DF90CF900895209159053091E0
:1017C0005A052817390731F490919C0580919B05A3
:1017D000981719F42FEF3FEF0FC0E0919C05F0E050
:1017E000E55AFA4F208180919C0590E001968F7315
:1017F000907080939C0530E0C901089520915905AF
:1018000030915A052817390719F020E030E00EC052
:1018100080919B0520919C0590E0805C9F4F821BEE
:10182000910960E470E00E943A209C01C90108958A
:10183000FF920F931F93DC0159968D919C915A97BB
:10184000892B49F481E090E013969C938E93129734
:1018500020E030E0DDC0FFB6F8945B968C915B979A
:101860005196ED91FC91529750962C91509781FF93
:10187000D4C08081822B808359968D919C915A97F8
:10188000049620E001972FEF8F3F9207D9F710E0E1
:1018900040E820E030E070E0842F90E0862397233A
:1018A000892B09F01F5F46952F5F3F4F2830310588
:1018B00099F75B968C915B9781FF4FC031E040E0D8
:1018C00050E000E0832F90E0862397235196ED911E
:1018D000FC91529750962C915097892B29F080813A
:1018E00020952823208303C08081822B80835996F2
:1018F0008D919C915A97202F01972FEF8F3F920740
:10190000D9F7330F4F5F5F4F48305105D9F65196E5
:10191000ED91FC91529750962C91509710FF05C075
:10192000808120952823208303C08081822B80839F
:1019300059968D919C915A9720E001972FEF8F3FF8
:101940009207D9F75196ED91FC915297908150965C
:101950008C915097809589234DC031E040E050E054
:1019600000E0832F90E0862397235196ED91FC9120
:10197000529750962C915097892B21F08081822B81
:10198000808304C0808120952823208359968D91DF
:101990009C915A97202F01972FEF8F3F9207D9F7ED
:1019A000330F4F5F5F4F48305105D9F65196ED9197
:1019B000FC91529750962C91509710FF04C0808153
:1019C000822B808304C08081209528232083599610
:1019D0008D919C915A9720E001972FEF8F3F9207AE
:1019E000D9F75196ED91FC915297808150969C9138
:1019F0005097892B8083FFBE59968D919C915A9761
:101A000020E001972FEF8F3F9207D9F721E030E0D8
:101A1000C9011F910F91FF9008958081209528237F
:101A200020832ACF2091590530915A05281739076C
:101A300049F49FB7F89410929B0580919B05809381
:101A40009C059FBF08952091590530915A0528178C
:101A5000390731F490919C0580919B05981719F4F2
:101A60002FEF3FEF0AC0E0919C05F0E0E55AFA4FF6
:101A70008081282F332727FD3095C90108951F93B2
:101A8000CF93DF93EC01162F862F60E00E94131E88
:101A90008B8D81FD04C0812F61E00E94521E1C8746
:101AA000212F30E0C90184519D4FFC0184918D8725
:101AB00028523D4FF9016491E62FF0E0EE0FFF1F31
:101AC000E253FD4F859194919F878E87DF91CF914F
:101AD0001F910895FF920F931F938C01F62E862F6E
:101AE00061E00E94131E8F2D61E00E94521E8F2D17
:101AF00090E0FC01E451FD4FE491D8015096EC9345
:101B0000509788529D4FFC016491E62FF0E0EE0F54
:101B1000FF1FEC53FD4F8591949152969C938E93A9
:101B200051971F910F91FF900895FF920F931F936C
:101B30008C01F62EFC011382128288EE93E0A0E065
:101B4000B0E084839583A683B7838DE891E0918389
:101B50008083148A138A168A158A108E178A128E29
:101B6000118E838D2170220F8C7F822B838FC80171
:101B7000642F0E946A0DC8016F2D0E943F0D1F91B6
:101B80000F91FF900895FC0113861586148687E057
:101B900090E012863197009711F00197FACF0895DF
:101BA000DC0180E00BC0E82FF0E08D9190E0E827A9
:101BB000F927EB5AFE4FE49161508E2F662399F777
:101BC0000895DF92EF92FF920F931F93FC01E08044
:101BD00001811281F894F80181818E2981838281AB
:101BE000DE2CD0948D21828383E090E00E94CE1D74
:101BF000F80181818D2181838AE090E00E94CE1DD1
:101C0000F8010081789485E390E00E94CE1D80E089
:101C100010E0FF240E211F21012B09F081E01F910C
:101C20000F91FF90EF90DF900895EF92FF920F9346
:101C30001F93CF93DF937C0101E010E0C0E0D0E080
:101C4000C7010E94E10D8111102B000F2196C830B1
:101C5000D105B1F7812FDF91CF911F910F91FF90A7
:101C6000EF9008951F93CF93DF93FC011081C18102
:101C7000D281912F909560FF12C0F8948A818923B8
:101C80008A838981812B89838AE090E00E94CE1D1E
:101C90008A81812B8A83789487E390E011C0F8943D
:101CA0008A8189238A838981812B898381E490E0D9
:101CB0000E94CE1D8A81812B8A83789485E090E0F2
:101CC0000E94CE1DDF91CF911F910895CF92DF9298
:101CD000EF92FF920F931F93CF93DF938C01E42E2B
:101CE000FF24F394C0E0D0E0C62EDD2460E08F2D09
:101CF00090E08C219D21892B09F061E0C8010E94B0
:101D0000320EFF0C2196C830D10581F7EE20A9F4E0
:101D1000F894D8011196ED91FC91129791818C91D4
:101D20008095982391831196ED91FC911297928161
:101D30008C918095982392837894DF91CF911F9115
:101D40000F91FF90EF90DF90CF900895EF92FF9268
:101D50000F931F93CF93DF938C017B0165E540E0E8
:101D60000E94660EC0E0D0E0F701EC0FFD1FC80135
:101D7000608140E00E94660E2196C830D105A1F72F
:101D8000DF91CF911F910F91FF90EF900895DF9217
:101D9000EF92FF920F931F93CF93DF93FC0100818B
:101DA000C181D281F8948981D02ED0948D218983EC
:101DB00078941DE7E02EFF24115059F182E090E065
:101DC0000E94CE1D888190E08E219F21892BA1F356
:101DD000F8948A818D218A838981802B89837894E4
:101DE00080EE91E00E94CE1DF89489818D21898337
:101DF00086E490E00E94CE1D888110E090E0E82209
:101E0000F922EF2809F411E078948AE991E00E9420
:101E1000CE1D812FDF91CF911F910F91FF90EF90F9
:101E2000DF900895AF92BF92DF92EF92FF920F93EF
:101E30001F93CF93DF93EC015B018D85882309F01D
:101E400061C0CE010E94C70E882329F41B861D861F
:101E50001C8690E06BC0CE0160EF40E00E94660EF1
:101E600001E0DD24EE24FF24F394CE010E94E10D75
:101E7000182FCE010E94E10D113019F48130E1F4E8
:101E800039C0181709F58B85081770F460E0FE015A
:101E9000EE0DF11D838190E02F2D30E082239323FE
:101EA000181619064CF003C060E0081729F0093035
:101EB00008F04CC00C874AC0FE01EE0DF11D838175
:101EC0008F29838361E009C0612FFE01EE0DF11DB2
:101ED0009F2D9095838189238383CE010E94320EAA
:101EE0000F5FFF0C19F4E394FF24F39487E08E1541
:101EF00008F0BBCF013430F0DB86DD2011F581E046
:101F00008D871FC01B861D861C8690E0DE0120E0A9
:101F100030E0F501E20FF31F13968C911397808345
:101F20002F5F3F4F11962830310599F7892FDF91A8
:101F3000CF911F910F91FF90EF90DF90BF90AF90E6
:101F400008958B818823F1F291E0E0CFD02EBDCFB0
:101F5000FF920F931F938C01F62E862F60E00E9454
:101F6000131E8F2D90E0FC01E451FD4FE491D80148
:101F7000EC9388529D4FFC016491E62FF0E0EE0F48
:101F8000FF1FE253FD4F8591949112969C938E937F
:101F900011971B961C921B971D961C921D971C96C1
:101FA0001C92F80187E090E012863197009711F0BB
:101FB0000197FACF1F910F91FF900895F999FECFE5
:101FC00072BD61BDF89A80B50895F999FECF1FBA28
:101FD00072BD61BD40BD0FB6F894FA9AF99A0FBE72
:101FE0000895FC018DE991E09183808308950F931A
:101FF0001F93CF93DF938C01DC011396ED91FC913D
:102000001497E95AFF4F84E080831396ED91FC9179
:102010001497E85AFF4F89E680831396ED91FC915F
:1020200014978185E75AFF4F808315960D90BC91D8
:10203000A02DED91FC911197E8012B813C8102804C
:10204000F381E02DCD01D90119966C910995EB81B1
:10205000FC81E65AFF4F9083EB81FC81E55AFF4FEC
:102060008083DF91CF911F910F9108950F931F935C
:10207000CF93DF938C01EC01AD81BE812B813C813C
:10208000ED91FC911197E9014A850190F081E02DD5
:10209000CD01698550E00995C8010E94F70FDF91D5
:1020A000CF911F910F910895CF92DF92EF92FF92FF
:1020B0000F931F93DF93CF93CDB7DEB764970FB61F
:1020C000F894DEBF0FBECDBF8B012DB73EB72850B1
:1020D00030400FB6F8943EBF0FBE2DBFEDB6FEB632
:1020E0000894E11CF11C6E010894C11CD11CADB711
:1020F000BEB71296DC92CE92119724E731E0F70139
:1021000033832283DC011396ED91FC911497E25BFB
:10211000FF4F608171818281938120E836E948E92F
:1021200050E00E944D20F701648375838683978376
:102130000E94D40188E4D8018C9382E411968C9398
:10214000119787E512968C9312971396F60187E004
:1021500001900D928150E1F7EDB7FEB738960FB6BA
:10216000F894FEBF0FBEEDBF64960FB6F894DEBFC5
:102170000FBECDBFCF91DF911F910F91FF90EF90D8
:10218000DF90CF900895AF92BF92CF92DF92EF92FF
:10219000FF920F931F93CF93DF935C01DC011396A3
:1021A000ED91FC911497E25BFF4F10821182128235
:1021B0001382CCEFD3E0F501C380D4808EE490E0AD
:1021C000C80ED91ED601ED90FD900D911C91102FD7
:1021D0000F2DFE2CEE24F601E082F18202831383A0
:1021E0008DE995E0BE010E94DE0F90E0A0E0B0E036
:1021F0008E299F29A02BB12BF60180839183A28386
:10220000B3832196F4E0C030DF07A9F6D501139619
:10221000ED91FC911497E25BFF4F80819181A28147
:10222000B3818F5F9F4FAF4FBF4F41F48FEF9FEF51
:10223000AFEFB2E480839183A283B383DF91CF9128
:102240001F910F91FF90EF90DF90CF90BF90AF90D4
:102250000895FC018DE991E0918380837683658305
:10226000548343832283CF010E94C31008951F9398
:10227000CF93DF93EB01142F222321F483E06C3FF3
:1022800078076CF48DE995E0BE010E94DE0F181707
:1022900031F08DE995E0BE01412F0E94E50FDF91FD
:1022A000CF911F9108959C01DC011396ED91FC9153
:1022B0001497EE5AFF4F8FEF9FEFAFEFBFEF819371
:1022C0009193A193B19388EF8083D9011396ED91F7
:1022D000FC911497E95AFF4F84E080831396ED91A7
:1022E000FC911497E85AFF4F89E680831396ED918D
:1022F000FC911497E75AFF4F60831396ED91FC9180
:102300001497E65AFF4F50831396ED91FC91149762
:10231000E55AFF4F408313968D919C9114970E942C
:102320002D1708950F931F938C01DC011396ED91E7
:10233000FC911497EE5AFF4F8FEF9FEFAFEFBFEF77
:1023400081939193A193B19388EF8083D8011396E1
:10235000ED91FC911497E95AFF4F80E18083139629
:10236000ED91FC911497E85AFF4F81E48083139616
:10237000ED91FC911497E75AFF4F60831396ED910E
:10238000FC911497E65AFF4F12968C911297808316
:102390001396ED91FC911497E55AFF4F1082139616
:1023A000ED91FC911497E45AFF4F83E080831396DC
:1023B000ED91FC911497E35AFF4F86E080831396CA
:1023C0006D917C911497625A7F4FC8010E945410FE
:1023D000F801838194810E942D171F910F91089518
:1023E0002F923F924F925F926F927F928F929F9225
:1023F000AF92BF92CF92DF92EF92FF920F931F9313
:10240000CF93DF936C01DC011396ED91FC9114974F
:1024100013858485282F2695269526952C5FDF0128
:10242000A95ABF4F2C932450282E3324C101877002
:102430009070892B11F02B5F2C93E95AFF4F41913B
:10244000CF0160E070E050E00E94CD01D60113960C
:10245000ED91FC911497E85AFF4F85E68083E8558B
:10246000F0408185E75AFF4F8083E955F04082852F
:10247000E65AFF4F8083EA55F0408385E55AFF4FC7
:102480008083A12EBB2400E010E0EE24FF24250170
:1024900031E0632E712C812C912C35C0BE016E0D64
:1024A0007F1D8DE995E00E94DE0F8F3F09F1D60177
:1024B0001396ED91FC911497C80123E095958795AB
:1024C0002A95E1F7E80FF91FE45AFF4FC80187701A
:1024D0009070A401930104C0220F331F441F551FA5
:1024E0008A95D2F7DA01C9012081282B208304C004
:1024F0002196C415D50594F20F5F1F4FEA0CFB1C03
:10250000201631061CF0C0E0D0E0F3CFDF91CF9170
:102510001F910F91FF90EF90DF90CF90BF90AF9001
:102520009F908F907F906F905F904F903F902F90F3
:102530000895AF92BF92CF92DF92EF92FF920F93E6
:102540001F93DF93CF9300D0CDB7DEB77C01DC01C2
:1025500013964D915C911497475B5F4FFA01808110
:10256000495450408370813009F482C1FA0183815B
:102570009481A581B6818F5F9F4FAF4FBF4F09F404
:1025800077C19A012E5A3F4F465B5F4FFA01808117
:102590009181A281B3814A545040F9018083918393
:1025A000A283B383DA0117968C91882311F4CA01B0
:1025B00052C14A5A5F4F88E7FA018083D7011396C8
:1025C000ED91FC9114978085833509F4A3C084357F
:1025D000B0F4853409F458C0863450F4813409F4D9
:1025E0003DC1833409F441C0803409F02FC11DC0BE
:1025F0008B3409F433C1823509F028C149C08E36C5
:1026000009F4E4C08F3638F4873509F487C088367A
:1026100009F01CC1BEC0863709F4EBC0883709F445
:102620000BC1833709F012C1E0C081858136C9F43E
:1026300087818630B1F402E010E0D7011396ED9166
:10264000FC911497E00FF11FC70106501C4FB80111
:10265000408521E00E943711095F134006301105C3
:1026600061F7C7010E94C310F1C0D7011596ED9123
:10267000FC911697A081B18114962D913C911597EC
:10268000CF01F9010995E2C0C7010E94F011D8C03D
:102690008781843009F0DAC080919E0590919F0572
:1026A000009721F06DE872E00E940D1BD701139690
:1026B000ED91FC911497918580E02285C22EDD2456
:1026C000C82AD92A00E016C0E02FF0E0FA83E98397
:1026D000BF016C0D7D1D8DE995E00E94DE0F298103
:1026E0003A81A20EB31EA8E5B0E0AA0EBB1EF5010A
:1026F00080830F5FD7011396AD90BC901497F501BE
:102700008385081708F327E530E0A20EB31ED50134
:102710008C9396C0C7010E94F70FA0C0278130E0BC
:10272000838590E004962817390709F08FC08091BF
:102730009E0590919F05009721F060E872E00E944D
:102740000D1BD7011396ED91FC911497918580E0B4
:102750002285C22EDD24C82AD92A04E0ECEFFFEF3F
:10276000CE0EDF1E0DC0802F90E0B601680F791FDE
:10277000E80FF91FC701408520E00E9437110F5F65
:10278000D7011396ED91FC9114978781081758F3A0
:102790005DC080919E0590919F05009721F066E6AF
:1027A00072E00E940D1BD7011396ED91FC911497D6
:1027B000E85AFF4F12968C91129780831396ED91F1
:1027C000FC911497E75AFF4F81E02DC0E85AFF4F64
:1027D000C701BF010E945410D7011396ED91FC91DF
:1027E0001497E95AFF4F8AE041C0C7010E94361092
:1027F0002DC080919E0590919F05009721F065E581
:1028000072E00E940D1BD7011396ED91FC91149775
:10281000E85AFF4F83E080831396ED91FC91149763
:10282000E75AFF4F86E080831396ED91FC91149751
:10283000E95AFF4F82E01AC0C7010E9436100EC04D
:10284000F701838194810E942D1712C0D70113963E
:102850008D919C9114970E94C1180AC0D7011396BC
:10286000ED91FC911497E85AFF4F89E68083E8CFF9
:102870000F900F90CF91DF911F910F91FF90EF90EC
:10288000DF90CF90BF90AF900895FC018DE991E06B
:1028900091838083CF010E94661D0895FC0185EA23
:1028A00091E091838083E856FF4F61937193408359
:1028B000EA59F04012820895FC0185EA91E0918383
:1028C00080830895AF92BF92CF92DF92EF92FF92F2
:1028D0000F931F93CF93DF93EC011A82C75BDF4FF7
:1028E000888190E095958795682F63708A91C85488
:1028F000D040FE01E157FD4F8D3F09F050C080816F
:1029000083FFAAC0C65BDF4FE880F9800A811B8184
:10291000CA54D040AE0145565F4F9A01E0E0F0E066
:10292000D901AD90BD90CD90DC90EA14FB040C056C
:102930001D0541F4EC0FFD1FE55DFD4F80818823EF
:1029400041F48AC031962C5F3F4FE436F10541F7E0
:1029500083C090E0959587958370681709F07CC0D7
:10296000FE01E55DFD4F20E030E0DA01AD90BD9065
:10297000CD90DC901397EA14FB040C051D0539F487
:102980001D921D921D921C921397108201C03F5FF1
:102990002F5F4C5F5F4F3196243639F752C01B8250
:1029A0001C821D821E82C65BDF4F188219821A822A
:1029B0001B82CA54D040808183FF4EC0AE01455671
:1029C0005F4F9A01E0E0F0E0D901ED90FD900D91AC
:1029D0001C91E114F1040105110531F4EC0FFD1F08
:1029E000E55DFD4F808107C031962C5F3F4FE43697
:1029F000F10551F780E090E083FD2EC09595879515
:102A00008370681749F5FE01E55DFD4F20E030E079
:102A1000DA01ED90FD900D911C911397E114F104F2
:102A20000105110539F41D921D921D921C921397F8
:102A3000108201C03F5F2F5F4C5F5F4F319624369D
:102A400039F7FE01E157FD4F332319F0808188608B
:102A500002C08081877F8083DF91CF911F910F918A
:102A6000FF90EF90DF90CF90BF90AF9008952F929E
:102A70003F924F925F926F927F928F929F92AF920E
:102A8000BF92CF92DF92EF92FF920F931F93CF935B
:102A9000DF93EC0148E0A42EB12CA80EB91E38E952
:102AA000C32ED12CC80ED91E2FE8E22E22E0F22E22
:102AB000E80EF91E96EA292E95E0392E88E4482E74
:102AC000512C4C0E5D1E09E4602E712C6C0E7D1E87
:102AD0001AE4812E912C8C0E9D1E09E03DC1D60179
:102AE000ED91FC91A081B18116962D913C911797A3
:102AF000CF01F9010995182F8D3F51F480919E0562
:102B000090919F05009721F063EA72E00E940D1BEF
:102B100080919E0590919F05009729F0612F40E1DB
:102B200050E00E94D01B1C3F39F4F701808181FDE9
:102B300003C08260808310C1812F8D5F823008F0D6
:102B40003EC01093F005D7018C9181608D7D8C93F0
:102B50001092A3051092A2051092E7051092E805C5
:102B60001092E9051092EA051092EC051092ED051D
:102B70001092EE051092EF05512F2FEF3FEF40E03E
:102B8000C901880F991F57FD816037FD02C09C0164
:102B900004C022E030E1282739274F5F483011F088
:102BA000550FEECF3093A1052093A0051D3F09F0EE
:102BB000D3C0B4E0B093A5050093A405CDC0F70140
:102BC000808180FFC9C081FF03C010688D7F808332
:102BD0002091A0053091A105512F40E0C901880F37
:102BE000991F57FD816037FD02C09C0104C022E09F
:102BF00030E1282739274F5F483011F0550FEECFCD
:102C00003093A1052093A0056091A2058091A505B0
:102C10006817E8F42091EC053091ED054091EE0540
:102C20005091EF05542F432F322F2227812F90E010
:102C3000A0E0B0E0822B932BA42BB52B8093EC0566
:102C40009093ED05A093EE05B093EF052CC06817A7
:102C500031F46F5F6093A2051093EB057DC0509136
:102C6000EB0553FF24C08091A405681700F520915F
:102C7000E7053091E8054091E9055091EA05542FA8
:102C8000432F322F2227812F90E0A0E0B0E0822B4B
:102C9000932BA42BB52B8093E7059093E805A09385
:102CA000E905B093EA056F5F6093A20555C06F3FD9
:102CB00031F0FFEFF093A2051093E6054DC040916F
:102CC000A305E42FF0E0EA55FA4F1083942F9F5F9D
:102CD0009093A3058091E6059817F1F5232B91F5C4
:102CE000D7018C918E7F80628C938091F005F201E8
:102CF00080838091EC059091ED05A091EE05B09157
:102D0000EF058B839C83AD83BE83D3015C9380915D
:102D1000E7059091E805A091E905B091EA05F40175
:102D200080839183A283B38341504F83C501B10156
:102D300050E00E94C4011092A3051092A205F1E098
:102D4000FA830AC080919E0590919F05009721F01B
:102D500069E972E00E940D1BD601ED91FC91A08102
:102D6000B18114962D913C911597CF01F9010995E8
:102D7000892B09F0B4CEDF91CF911F910F91FF9075
:102D8000EF90DF90CF90BF90AF909F908F907F900B
:102D90006F905F904F903F902F900895EF92FF9229
:102DA0000F93DF93CF9300D0CDB7DEB77C01062F12
:102DB00080919E0590919F05009721F040E150E0A1
:102DC0000E94D01BF701E656FF4F808161E00E9410
:102DD000521E802F8C5F8330A0F488E990E0E80ECB
:102DE000F91ED701ED91FC9188E69FEFE80EF91EE0
:102DF000A081B1812D913C91CF016CEFF901099532
:102E00000F77D701A856BF4FBA83A983ED91FC91E4
:102E1000A081B1812D913C91CF01602FF9010995DD
:102E2000E981FA81A081B181ED91FC911197028431
:102E3000F385E02DCD0109958AE990E0E80EF91EB1
:102E4000D7018C9160E00E94521E0F900F90CF919D
:102E5000DF910F91FF90EF9008958F929F92AF9224
:102E6000BF92CF92DF92EF92FF920F931F93CF9377
:102E7000DF936C0122E530E0C20ED31EF6018081A3
:102E80009181A281B3812EEA3FEFC20ED31E8F5FE4
:102E90009F4FAF4FBF4FC1F0F601EA5AFF4F89E491
:102EA00090E0C80ED91ED6018C9127EB3FEFC20EE1
:102EB000D31E90E09595879583708295880F807ECC
:102EC00020812F79822B808380919E0590919F0590
:102ED000009721F060EB72E00E940D1B1AE9E12ED1
:102EE000F12CEC0CFD1CD7018C9161E00E94521E6C
:102EF000860108561F4FD801ED91FC91A081B18148
:102F00002D913C91CF016DEFF9010995F801A08158
:102F1000B181ED91FC9111970284F385E02DCD01F3
:102F20000995D7018C9160E00E94521ECFEFDFEF30
:102F30003DEF20E042E050E1CE01880F991F37FDC0
:102F40008160D7FD02C0EC0103C0EC01C427D52786
:102F50002F5F283011F0330FEFCFE2E5F0E0CE0E17
:102F6000DF1ED601ED90FD900D911C91EEEAFFEF72
:102F7000CE0EDF1EAA24A2E08A2EA0E19A2E212FD7
:102F8000332744275527B22EC601622F0E94CE1642
:102F900020E0CE01880F991FB7FC8160D7FD02C0E9
:102FA000EC0103C0EC01C825D9252F5F283011F0B2
:102FB000BB0CEFCFA394F4E0AF1629F0102F0F2D28
:102FC000FE2CEE24DCCF86010A5A1F4FC601D80121
:102FD0006C910E94CE16F8010081302F20E042E073
:102FE00050E1CE01880F991F37FD8160D7FD02C0E7
:102FF000EC0103C0EC01C427D5272F5F283011F066
:10300000330FEFCF03FF36C02EE430E0C20ED31EE5
:10301000D601ED90FD900D911C91E2EBFFEFCE0EED
:10302000DF1EAA2452E0852E50E1952E212F332752
:1030300044275527B22EC601622F0E94CE1620E0EB
:10304000CE01880F991FB7FC8160D7FD02C0EC014B
:1030500003C0EC01C825D9252F5F283011F0BB0C27
:10306000EFCFA394F4E0AF1629F0102F0F2DFE2C14
:10307000EE24DCCF27E530E0C20ED31ED6011C9132
:10308000E9EAFFEFCE0EDF1E1E5FC601612F0E9430
:10309000CE1620E042E050E1CE01880F991F17FDC7
:1030A0008160D7FD02C0EC0103C0EC01C427D52725
:1030B0002F5F283059F4FF24A7E5AA2EB12CAC0CC1
:1030C000BD1CF2E08F2EF0E19F2E21C0110FE4CF46
:1030D00086010F0D111D085A1F4FC601D8016C91B2
:1030E0000E94CE16F801008120E0CE01880F991FC2
:1030F00007FD8160D7FD02C0EC0103C0EC01C825CB
:10310000D9252F5F283011F0000FEFCFF394D501B0
:103110008C91F816E8F220E042E050E1CE01CC0FAD
:10312000DD1F97FF02C0C427D5272F5F2830B1F7D6
:1031300020E042E050E1CE01CC0FDD1F97FF02C03E
:10314000C427D5272F5F2830B1F7C6016D2F0E9405
:10315000CE16C6016C2F0E94CE16F601E157FD4F28
:10316000808188608F7E8083DF91CF911F910F9146
:10317000FF90EF90DF90CF90BF90AF909F908F9097
:103180000895FC01EA5AFF4F89E181931082E755C7
:10319000F040CF010E942D170895FC0185EA91E0CF
:1031A00091838083CF010E94661D089508951F9228
:1031B0000F920FB60F9211242F933F934F938F933B
:1031C0009F93EF93FF938091C00082FD1DC04091BB
:1031D000C60020913106309132062F5F3F4F2F738A
:1031E000307080913306909134062817390771F0BA
:1031F000E0913106F0913206EF50FA4F4083309360
:1032000032062093310602C08091C600FF91EF91F3
:103210009F918F914F913F912F910F900FBE0F90E3
:103220001F901895E0918506F0918606E05CFF4FAF
:103230008191919120813181821B930B8F739070CA
:10324000892B11F00E94D61808951F920F920FB685
:103250000F9211242F933F938F939F93EF93FF939C
:1032600020917506309176068091770690917806C8
:103270002817390731F48091C1008F7D8093C100F8
:1032800014C0E0917706F0917806EB5CF94F20814D
:10329000809177069091780601968F739070909345
:1032A0007806809377062093C600FF91EF919F9157
:1032B0008F913F912F910F900FBE0F901F901895F7
:1032C000AF92BF92CF92DF92EF92FF920F931F9334
:1032D000CF93DF93EC017A018B01C22EDD24D394CE
:1032E00071E0A72EB12CEC89FD89DD2069F0C501C4
:1032F00008A002C0880F991F0A94E2F7808360E853
:1033000074E88EE190E005C0108260E472E48FE022
:1033100090E0A80197010E944D202150304040408C
:103320005040569547953795279580E120303807CE
:1033300020F0DD2011F0DD24D6CFE889F989308333
:10334000EA89FB892083E88DF98DC082EE89FF89A7
:10335000408121E030E0C9010C8C02C0880F991F28
:103360000A94E2F7482B4083EE89FF894081C90126
:103370000D8C02C0880F991F0A94E2F7482B4083F6
:10338000EE89FF894081C9010E8C02C0880F991F08
:103390000A94E2F7482B4083EE89FF8980810F8CE5
:1033A00002C0220F331F0A94E2F7209528232083BE
:1033B000DF91CF911F910F91FF90EF90DF90CF9011
:1033C000BF90AF900895DC011C96ED91FC911D9784
:1033D000E05CFF4F2191319180819181281B390B55
:1033E0002F733070C9010895DC011C96ED91FC919A
:1033F0001D97E05CFF4F20813181E054F040DF01F8
:10340000AE5BBF4F8D919C9111972817390719F426
:103410002FEF3FEF07C08D919C91E80FF91F80813E
:10342000282F30E0C9010895DC011C96ED91FC9134
:103430001D97E05CFF4F20813181E054F040DF01B7
:10344000AE5BBF4F8D919C9111972817390719F4E6
:103450002FEF3FEF10C08D919C911197E80FF91F4E
:1034600020818D919C91119701968F739070119688
:103470009C938E9330E0C9010895DC0191968C9164
:103480009197882339F05496ED91FC91559780815E
:1034900086FFF9CF91961C920895CF93DF93EC01AC
:1034A000EE85FF85E05CFF4F20813181E054F040E4
:1034B0002F5F3F4F2F733070DF01AE5BBF4F8D9199
:1034C0009C91119728173907D1F3E05CFF4F808159
:1034D0009181E054F040E80FF91F6083EE85FF858D
:1034E000E05CFF4F31832083EE89FF89208181E0FA
:1034F00090E00F8C02C0880F991F0A94E2F7282BE6
:10350000208381E089A3EC89FD89808180648083A8
:1035100081E090E0DF91CF91089510927C061092A7
:103520007B0688EE93E0A0E0B0E080937D06909368
:103530007E06A0937F06B09380068DEA91E090937B
:103540007A068093790681EF95E0909386068093C2
:10355000850685E396E0909388068093870685EC40
:1035600090E090938A068093890684EC90E0909393
:103570008C0680938B0680EC90E090938E0680936F
:103580008D0681EC90E09093900680938F0682ECFC
:1035900090E0909392068093910686EC90E0909351
:1035A00094068093930684E08093950683E080934D
:1035B000960687E08093970685E08093980681E0E1
:1035C000809399060895CF92DF92EF92FF920F9326
:1035D0001F93CF93DF937C016B018A01C0E0D0E0A1
:1035E0000FC0D6016D916D01D701ED91FC91019055
:1035F000F081E02DC7010995C80FD91F0150104077
:103600000115110571F7CE01DF91CF911F910F9137
:10361000FF90EF90DF90CF900895EF92FF920F937D
:103620001F93CF93DF937C018B01C0E0D0E0F801C2
:103630000F5F1F4F6491662359F0D701ED91FC9104
:103640000190F081E02DC7010995C80FD91FEFCF78
:10365000CE01DF91CF911F910F91FF90EF900895D0
:10366000CF93DF93EC016115710519F420E030E090
:103670000FC0DB010D900020E9F71197A61BB70BD7
:10368000E881F9810280F381E02DAD0109959C016B
:10369000C901DF91CF9108954F925F927F928F92EF
:1036A0009F92AF92BF92CF92DF92EF92FF920F93D1
:1036B0001F93DF93CF93CDB7DEB7A1970FB6F894E2
:1036C000DEBF0FBECDBF2C01742ECB01223008F41B
:1036D0002AE019A231E2C32ED12CCC0EDD1E822E9F
:1036E0009924AA24BB24672D752FA50194010E945B
:1036F0004D2079018A01C801B701A50194010E94FA
:103700001B20472D461B0894C108D1084A3014F4E9
:10371000405D01C0495CF6014083E114F1040105FC
:10372000110521F07E2C5F2DC801DDCFC201B6014D
:103730000E94301BA1960FB6F894DEBF0FBECDBF1E
:10374000CF91DF911F910F91FF90EF90DF90CF907D
:10375000BF90AF909F908F907F905F904F90089513
:10376000DC012115310541F4ED91FC910190F081CE
:10377000E02D642F099508950E944C1B0895EF9247
:10378000FF920F931F939A017B0100E010E0B801B4
:10379000A7010E94B01B1F910F91FF90EF90089519
:1037A000EF92FF920F931F939A01E62EFF2400E001
:1037B00010E0B801A7010E94B01B1F910F91FF906C
:1037C000EF900895CF92DF92EF92FF920F931F93A5
:1037D000CF93DF93EC016A017B012115310541F4A0
:1037E000E881F9810190F081E02D642F09951FC0D7
:1037F0002A303105D1F477FF17C0E881F9810190B3
:10380000F081E02D6DE209958C0144275527BA011E
:103810004C195D096E097F09CE012AE00E944C1BFC
:103820009801280F391F04C02AE00E944C1B9C01FC
:10383000C901DF91CF911F910F91FF90EF90DF9021
:10384000CF900895EF92FF920F931F937B019A01FF
:103850000027F7FC0095102FB801A7010E94E21B7A
:103860001F910F91FF90EF9008950E94301B0895D3
:10387000CF93DF930E94D81D0E949307C2E1D9E144
:103880000E943C092097E1F30E941219F9CF0F938F
:103890001F93CF93DF93BC018230910510F462E057
:1038A00070E0E091A406F091A506A0E0B0E040E051
:1038B00050E024C08081918186179707D0F0861749
:1038C000970771F482819381109729F013969C9346
:1038D0008E9312972CC09093A5068093A40627C0C0
:1038E0004115510519F08417950718F4EF018D0162
:1038F000AC01DF01828193819C01F9013097D1F6FF
:1039000041155105F9F0CA01861B970B84309105CA
:1039100080F48A819B810115110521F0F8019383C0
:10392000828304C09093A5068093A406FE0132967C
:103930002FC0FE01E80FF91F6193719302979983DD
:10394000888326C08DB79EB78857904020917B0111
:1039500030917C0128173907C8F4AC01421B530B86
:103960004617570798F0CB0102964817590770F091
:10397000820F931F90937C0180937B0190937E0133
:1039800080937D01F9016193719302C0E0E0F0E062
:10399000CF01DF91CF911F910F910895CF93DF93C6
:1039A0009C01009709F48FC0EC0122971B821A82B8
:1039B0006091A4067091A5066115710581F4888156
:1039C0009981820F931F20917B0130917C012817F0
:1039D000390739F5D0937C01C0937B0174C0DB01BA
:1039E00040E050E0AC17BD0708F1BB83AA83FE019D
:1039F00021913191E20FF31FAE17BF0779F48D913A
:103A00009C911197280F391F2E5F3F4F39832883D0
:103A100012968D919C9113979B838A834115510532
:103A200071F4D093A506C093A4064DC012968D9153
:103A30009C911397AD01009711F0DC01D3CFDA010F
:103A40001396DC93CE931297FA0121913191E20FF4
:103A5000F31FCE17DF0769F488819981280F391F7A
:103A60002E5F3F4FFA01318320838A819B819383AC
:103A70008283E0E0F0E0DB0112968D919C91139738
:103A8000009719F0BC01FD01F6CFAB014E5F5F4F0F
:103A9000DB018D919C91840F951F20917B013091CA
:103AA0007C012817390779F4309729F41092A5067C
:103AB0001092A40602C013821282425050405093CA
:103AC0007C0140937B01DF91CF9108950E94CE1C31
:103AD00008950E94471C08951F920F920FB60F92EF
:103AE00011242F933F934F935F936F937F938F9303
:103AF0009F93AF93BF9320919F063091A006409172
:103B0000A1065091A2067091A306DA01C90102969E
:103B1000A11DB11D672F6A5F6D3730F06D57DA0157
:103B2000C9010396A11DB11D6093A30680939F0652
:103B30009093A006A093A106B093A20680919B0645
:103B400090919C06A0919D06B0919E060196A11DA4
:103B5000B11D80939B0690939C06A0939D06B09305
:103B60009E06BF91AF919F918F917F916F915F91D1
:103B70004F913F912F910F900FBE0F901F9018956E
:103B80008FB7F89420919F063091A0064091A1062E
:103B90005091A2068FBFB901CA010895019739F06B
:103BA000019729F0880F991F01970197F1F7089560
:103BB000789484B5826084BD84B5816084BD85B508
:103BC000826085BD85B5816085BDEEE6F0E08081CF
:103BD00081608083E1E8F0E01082808182608083F0
:103BE000808181608083E0E8F0E080818160808373
:103BF000E1EBF0E0808184608083E0EBF0E08081A5
:103C000081608083EAE7F0E0808184608083808146
:103C100082608083808181608083808180688083EE
:103C20001092C1000895CF93DF93482F50E0CA014E
:103C300084519D4FFC01349148525D4FFA018491AB
:103C4000882369F190E0880F991FFC01E654FD4F2D
:103C5000A591B491FC01EC53FD4FC591D49166231D
:103C600051F42FB7F8948C91932F909589238C93CE
:103C7000888189230BC0623061F42FB7F8948C914E
:103C8000932F909589238C938881832B88832FBFD2
:103C900006C09FB7F8948C91832B8C939FBFDF91C4
:103CA000CF910895482F50E0CA0180509D4FFC01EC
:103CB0002491CA0184519D4FFC01949148525D4F5B
:103CC000FA013491332309F440C0222351F1233007
:103CD00071F0243028F42130A1F0223011F514C005
:103CE0002630B1F02730C1F02430D9F404C08091DF
:103CF00080008F7703C0809180008F7D809380004B
:103D000010C084B58F7702C084B58F7D84BD09C093
:103D10008091B0008F7703C08091B0008F7D809339
:103D2000B000E32FF0E0EE0FFF1FEC53FD4FA59125
:103D3000B4912FB7F894662321F48C919095892340
:103D400002C08C91892B8C932FBF0895682F70E04F
:103D5000CB0180509D4FFC012491CB0184519D4F9C
:103D6000FC01449168527D4FFB019491992319F411
:103D700020E030E03CC0222351F1233071F02430A8
:103D800028F42130A1F0223011F514C02630B1F012
:103D90002730C1F02430D9F404C0809180008F779F
:103DA00003C0809180008F7D8093800010C084B517
:103DB0008F7702C084B58F7D84BD09C08091B0002B
:103DC0008F7703C08091B0008F7D8093B000892FE2
:103DD00090E0880F991F82539D4FFC01A591B491EB
:103DE0008C9120E030E0842311F021E030E0C90123
:103DF000089504D06894B111B5C0089598D088F0A2
:103E00009F5790F0B92F9927B751A0F0D1F0660FC6
:103E1000771F881F991F1AF0BA95C9F712C0B130E1
:103E200081F09FD0B1E008959CC0672F782F88273C
:103E3000B85F39F0B93FCCF3869577956795B39520
:103E4000D9F73EF490958095709561957F4F8F4F8F
:103E50009F4F0895E89409C097FB3EF49095809594
:103E6000709561957F4F8F4F9F4F9923A9F0F92F40
:103E700096E9BB279395F695879577956795B795BE
:103E8000F111F8CFFAF4BB0F11F460FF1BC06F5FA4
:103E90007F4F8F4F9F4F16C0882311F096E911C0B6
:103EA000772321F09EE8872F762F05C0662371F0D7
:103EB00096E8862F70E060E02AF09A95660F771FEB
:103EC000881FDAF7880F9695879597F9089597F9DF
:103ED0009F6780E870E060E008959FEF80EC0895B0
:103EE00000240A94161617061806090608950024D9
:103EF0000A9412161306140605060895092E039453
:103F0000000C11F4882352F0BB0F40F4BF2B11F4C6
:103F100060FF04C06F5F7F4F8F4F9F4F089557FD25
:103F20009058440F551F59F05F3F71F04795880F27
:103F300097FB991F61F09F3F79F0879508951216BE
:103F400013061406551FF2CF4695F1DF08C016166A
:103F500017061806991FF1CF86957105610508941B
:103F60000895E894BB2766277727CB0197F9089532
:103F70000BD0C4CFB5DF28F0BADF18F0952309F0D5
:103F8000A6CFABCF1124EECFCADFA0F3959FD1F31C
:103F9000950F50E0551F629FF001729FBB27F00DF7
:103FA000B11D639FAA27F00DB11DAA1F649F66274C
:103FB000B00DA11D661F829F2227B00DA11D621F9B
:103FC000739FB00DA11D621F839FA00D611D221F55
:103FD000749F3327A00D611D231F849F600D211D39
:103FE000822F762F6A2F11249F5750408AF0E1F0DC
:103FF00088234AF0EE0FFF1FBB1F661F771F881F25
:1040000091505040A9F79E3F510570F060CFAACF64
:104010005F3FECF3983EDCF3869577956795B7950F
:10402000F795E7959F5FC1F7FE2B880F911D969539
:10403000879597F90895629FD001739FF001829F41
:10404000E00DF11D649FE00DF11D929FF00D839F27
:10405000F00D749FF00D659FF00D9927729FB00DC4
:10406000E11DF91F639FB00DE11DF91FBD01CF01D7
:104070001124089597FB092E07260AD077FD04D056
:104080002ED006D000201AF4709561957F4F0895C8
:10409000F6F7909581959F4F0895A1E21A2EAA1BDD
:1040A000BB1BFD010DC0AA1FBB1FEE1FFF1FA217E8
:1040B000B307E407F50720F0A21BB30BE40BF50BE5
:1040C000661F771F881F991F1A9469F7609570956E
:1040D000809590959B01AC01BD01CF010895AA1B6D
:1040E000BB1B51E107C0AA1FBB1FA617B70710F0E3
:1040F000A61BB70B881F991F5A95A9F78095909515
:10410000BC01CD010895EE0FFF1F0590F491E02D45
:1041100009942F923F924F925F926F927F928F926B
:104120009F92AF92BF92CF92DF92EF92FF920F9346
:104130001F93CF93DF93CDB7DEB7CA1BDB0B0FB650
:10414000F894DEBF0FBECDBF09942A88398848880D
:104150005F846E847D848C849B84AA84B984C884A3
:10416000DF80EE80FD800C811B81AA81B981CE0F9A
:10417000D11D0FB6F894DEBF0FBECDBFED0108957F
:1041800013E0C8E1D3E004C0FE010E94852022961E
:0A419000CA31D107C9F7F894FFCF38
:10419A004368616E6E656C20202020203A20000D55
:1041AA000A004D696E20496E74657276616C3A2018
:1041BA00004D617820496E74657276616C3A200010
:1041CA0044656C74612054656D7020203A20004368
:1041DA00757272656E742054656D703A20004C6178
:1041EA0073742054656D702020203A200053697A38
:1041FA006520202020202020203A20002000487519
:10420A0068750A002530376C7500FFA60664000041
:10421A0000000075047604B60400000000180CE3E0
:10422A001AFE0BDD0B230D120D00000000F10F45E5
:10423A0014000000005C14CD18000000004D1AE3C1
:0A424A001AE319141AF4193D1A00C2
:00000001FF
