:100000000C94B6010C94DE010C94DE010C94F70AFA
:100010000C94210B0C944B0B0C94DE010C94DE0120
:100020000C94DE010C94DE010C94DE010C94DE01D4
:100030000C94DE010C94DE010C94DE010C94DE01C4
:100040000C94721D0C94DE010C94DD180C942B1989
:100050000C94DE010C94DE010C94DE010C94DE01A4
:100060000C94DE010C94DE014465766963652061C1
:100070006C7265616479206B6E6F776E00435243DA
:10008000206973206E6F742076616C6964202D2066
:1000900069676E6F72696E67206465766963652152
:1000A000000D0A20312D5769726520446576696319
:1000B0006520666F756E643A0000C201000100059C
:1000C000000500030000E1000001000F000F000D1B
:1000D0000000960000020019001A001700127A00B2
:1000E000000700200021001D00807000000B00238D
:1000F0000023002000004B000014003700370034BC
:1001000000403800001E004B004B004800802500D6
:10011000003200720072007000C01200006E00E930
:1001200000E900E60060090000E500D801D801D52B
:1001300001B0040000D301B403B403B103580200BA
:1001400000B4036707670762072C0100006707DD3B
:100150000EDD0EDA0E005EBCE2613FDD83C29C7EE6
:1001600020A3FD1F419DC3217FFCA2401E5F01E330
:10017000BD3E6082DC237D9FC1421CFEA0E1BF5DCD
:100180000380DE3C62BEE0025CDF81633D7C22C016
:100190009E1D43A1FF4618FAA427799BC584DA382F
:1001A00066E5BB5907DB856739BAE406581947A5E8
:1001B000FB7826C49A653BD987045AB8E6A7F91B91
:1001C00045C6987A24F8A6441A99C7257B3A6486CE
:1001D000D85B05E7B98CD2306EEDB3510F4E10F2FB
:1001E000AC2F7193CD114FADF3702ECC92D38D6F98
:1001F00031B2EC0E50AFF1134DCE90722C6D33D165
:100200008F0C52B0EE326C8ED0530DEFB1F0AE4C7D
:100210001291CF2D73CA947628ABF517490856B4BE
:10022000EA6937D58B5709EBB536688AD495CB295F
:1002300077F4AA4816E9B7550B88D6346A2B759718
:10024000C94A14F6A8742AC896154BA9F7B6E80A45
:1002500054D7896B354669726D7761726520566532
:100260007273696F6E0048617264776172652056BF
:10027000657273696F6E20616E64205479706500D9
:10028000777269746520656570726F6D0072656163
:100290006420656570726F6D0063726320657272B1
:1002A0006F72000A526563656976696E67200A009D
:1002B0000A53656E64696E670A0070617273696ED5
:1002C000672066726F6D2061636B776169742000CF
:1002D00053656E64696E672041434B206F72204204
:1002E000726F6164636173740052656365697665FA
:1002F000642041434B0070617273696E67206672BF
:100300006F6D206C6F6F702E2E2E00000000002489
:100310000027002A0000000000250028002B000014
:10032000000000230026002900040404040404043F
:100330000402020202020203030303030301020494
:100340000810204080010204081020010204081057
:100350002000000007000201000003040600000066
:10036000000000000000D804931AD10411241FBE1D
:10037000CFEFD8E0DEBFCDBF11E0A0E0B1E0E6EA0C
:10038000F1E402C005900D92AE3BB107D9F714E03D
:10039000AEEBB1E001C01D92A83BB107E1F713E05D
:1003A000CAE6D3E004C02297FE010E948B20C63625
:1003B000D107C9F70E943E1C0C94C6200C94000083
:1003C000FB01DC0104C08D910190801921F44150A2
:1003D0005040C8F7881B990B0895FB01DC0102C04F
:1003E00001900D9241505040D8F70895DC0101C0B2
:1003F0006D9341505040E0F70895AEE0B0E0E3E087
:10040000F2E00C949D200D891E8986E08C831A836E
:1004100009838FEF9FE79E838D839E01275E3F4F69
:10042000CE0101966F89788DA9010E9421022F814A
:100430003885020F131FF80110822E96E4E00C9409
:10044000B920ABE0B0E0E7E2F2E00C948F203C0191
:100450002B015A01FC0117821682838181FD03C0A2
:100460006FEF7FEFC6C19AE0892E1E010894211C10
:10047000311CF3012381F20123FD859123FF81913A
:100480002F01882309F4B2C1853239F423FD859107
:1004900023FF81912F01853229F490E0B3010E945E
:1004A0001404E7CF982FFF24EE249924FFE1FF15D1
:1004B000D0F09B3269F09C3228F4903259F093329C
:1004C00091F40EC09D3249F0903369F441E024C0AC
:1004D00052E0F52A84E0F82A28C098E0F92A25C0DD
:1004E000E0E1FE2A22C0F7FC29C0892F80538A3020
:1004F00070F4F6FE05C0989C902C1124980E15C03F
:10050000E89CE02C1124E80EF0E2FF2A0EC09E3297
:1005100029F4F6FC6BC140E4F42A07C09C3619F4B8
:1005200050E8F52A02C0983649F4F20123FD95916E
:1005300023FF91912F01992309F0B8CF892F85547A
:10054000833018F08052833038F444E050E0A40E39
:10055000B51E5FE359830FC0933631F0933779F0BE
:10056000933509F056C020C0F5018081898342E0AF
:1005700050E0A40EB51E610101E010E012C0F501CB
:10058000C080D180F6FC03C06FEF7FEF02C0692D01
:1005900070E042E050E0A40EB51EC6010E940904BE
:1005A0008C015FE7F52214C0F501C080D180F6FC14
:1005B00003C06FEF7FEF02C0692D70E042E050E0B2
:1005C000A40EB51EC6010E94FE038C0150E8F52A58
:1005D000F3FE07C01AC080E290E0B3010E94140449
:1005E000EA948E2D90E008171907A8F30EC0F601C3
:1005F000F7FC8591F7FE81916F0190E0B3010E94B5
:100600001404E110EA94015010400115110579F726
:10061000EAC0943611F0993669F5F7FE08C0F50185
:10062000208131814281538184E090E00AC0F5014C
:10063000808191819C01442737FD4095542F82E0B1
:1006400090E0A80EB91E9FE6F92257FF09C0509509
:100650004095309521953F4F4F4F5F4FE0E8FE2A80
:10066000CA01B901A1012AE030E00E944004D82E5D
:10067000D21840C0953729F41F2D1F7E2AE030E0A4
:100680001DC01F2D197F9F3661F0903720F49835DB
:1006900009F0ACC00FC0903739F0983709F0A6C008
:1006A00004C028E030E00AC0106114FD146020E1AD
:1006B00030E004C014FD166020E132E017FF08C0EE
:1006C000F501608171818281938144E050E008C02E
:1006D000F50180819181BC0180E090E042E050E032
:1006E000A40EB51EA1010E944004D82ED2188FE797
:1006F000F82EF122F6FE0BC05EEFF522D91438F485
:10070000F4FE07C0F2FC05C08FEEF82202C01D2DDA
:1007100001C0192DF4FE0DC0FE01ED0DF11D80810B
:10072000803319F499EEF92208C01F5FF2FE05C06C
:1007300003C08F2D867809F01F5F0F2DF3FC14C0C6
:10074000F0FE0FC01E1510F09D2C0BC09D2C9E0CB2
:10075000911A1E2D06C080E290E0B3010E9414049D
:100760001F5F1E15C0F304C01E1510F4E11A01C06E
:10077000EE2404FF0FC080E390E0B3010E94140454
:1007800002FF1DC001FD03C088E790E00EC088E5B0
:1007900090E00BC0802F867891F001FF02C08BE2C1
:1007A00001C080E2F7FC8DE290E0B3010E941404E6
:1007B00006C080E390E0B3010E9414049A94D91417
:1007C000C0F3DA94F101ED0DF11D808190E0B301E9
:1007D0000E941404DD20A9F706C080E290E0B30176
:1007E0000E941404EA94EE20C1F743CEF30166811F
:1007F0007781CB012B96E2E10C94AB20FC010590B4
:10080000615070400110D8F7809590958E0F9F1F12
:100810000895FC016150704001900110D8F7809557
:1008200090958E0F9F1F08950F931F93CF93DF9383
:100830008C01EB018B8181FF1BC082FF0DC02E81DB
:100840003F818C819D812817390764F4E881F98103
:100850000193F983E88306C0E885F985802F09951F
:10086000892B31F48E819F8101969F838E8302C0F4
:100870000FEF1FEFC801DF91CF911F910F910895E6
:10088000FA01AA27283051F1203181F1E8946F93C1
:100890006E7F6E5F7F4F8F4F9F4FAF4FB1E03ED067
:1008A000B4E03CD0670F781F891F9A1FA11D680F05
:1008B000791F8A1F911DA11D6A0F711D811D911D38
:1008C000A11D20D009F468943F912AE0269F1124AD
:1008D0003019305D3193DEF6CF010895462F477011
:1008E000405D4193B3E00FD0C9F7F6CF462F4F706C
:1008F000405D4A3318F0495D31FD4052419302D0CA
:10090000A9F7EACFB4E0A69597958795779567956F
:10091000BA95C9F700976105710508959B01AC016F
:100920000A2E06945795479537952795BA95C9F796
:10093000620F731F841F951FA01D089508956B30CB
:1009400018F06DE475E908C0E62FF0E0EE0FFF1F28
:10095000E25AFD4F60817181CB010895813091058C
:10096000B1F46F5F7F4FE1F48EEA92E061E10E94A3
:10097000FD0F8CEB92E06BE874E042E00E94011402
:1009800085E891E090935D0380935C030895892B43
:1009900039F46F5F7F4F21F48CEB92E00E940E14CC
:1009A000089580E090E06FEF7FEF0E94AE0408951D
:1009B00081E090E06FEF7FEF0E94AE0408950F9307
:1009C0001F93CF93DF930EEB11E0C0E1D0E009C09D
:1009D0008FEA93E0BE010E943310F80181938F01EA
:1009E0002196F2E00E351F0799F7EFEBF1E065E095
:1009F0004AE050E026E930E080818F3F09F46083CF
:100A0000828193818F5F9F4F11F45383428384814E
:100A100095818F5F9F4F11F435832483709682E018
:100A2000EF35F80749F7DF91CF911F910F910895A6
:100A3000EF92FF920F931F93CF93DF9320E030E06C
:100A400040E050E0C2E0D0E0EE24F22E032F142F5D
:100A50008FEA93E0BE010E943310282F30E040E07F
:100A600050E02E293F29402B512B2196C630D1052D
:100A700059F7B901CA01DF91CF911F910F91FF90F2
:100A8000EF900895BC018091B0039091B10300975D
:100A900011F00E943B1C0895FF920F931F93CF9378
:100AA000DF93CFEBD1E0FF2400E010E080E091E0A5
:100AB0000E9442058091B0039091B103009729F004
:100AC0006F2D4AE050E00E94D61B8FE091E00E941B
:100AD000420582E191E00E9442056A817B8180911A
:100AE000B0039091B103009721F04AE050E00E94DA
:100AF000C51B8FE091E00E94420581E291E00E94D7
:100B000042056C817D818091B0039091B103009783
:100B100021F04AE050E00E94C51B8FE091E00E9466
:100B2000420580E391E00E94420568818091B00314
:100B30009091B103009721F04AE050E00E94D61B4B
:100B40008FE091E00E9442058FE391E00E94420510
:100B5000F801E25AFD4F608171818091B00390915C
:100B6000B103009721F04AE050E00E94281C8FE07A
:100B700091E00E9442058EE491E00E944205F80156
:100B8000EE58FD4F608171818091B0039091B10367
:100B9000009721F04AE050E00E94281C8FE091E08D
:100BA0000E9442058DE591E00E9442058091B003CC
:100BB0009091B103009731F060E170E04AE050E0BD
:100BC0000E94C51B8FE091E00E9442058FE091E0FA
:100BD0000E944205F3940E5F1F4F60968AE0F8165C
:100BE00009F064CFDF91CF911F910F91FF9008958D
:100BF000CF93DF93C82FD0E024E0CC0FDD1F2A95E0
:100C0000E1F7FE01E254FE4F87818F3F89F08EEAC3
:100C100092E00E941C0FCB53DE4F8EEA92E0BE01A1
:100C20000E94FB0E8EEA92E064E441E00E94BB0E5B
:100C3000DF91CF910895CF92DF92EF92FF920F93C1
:100C40001F93DF93CF93CDB7DEB72C970FB6F894F1
:100C5000DEBF0FBECDBFE82EFF248701E4E0000F0A
:100C6000111FEA95E1F7F801E254FE4F87818F3FAB
:100C700019F4E3E373E92DC08EEA92E00E941C0FA1
:100C80000B531E4F8EEA92E0B8010E94FB0E8EEAD3
:100C900092E06EEB40E00E94BB0E8E010F5F1F4F93
:100CA0007AE0C72ED12CCC0EDD1E8EEA92E00E9497
:100CB0006A0EF80181938F01EC15FD05B1F7CE01A5
:100CC000019668E00E94250E9985891729F0ECEEBF
:100CD00071E988E863EC40C09A8180E02981422F65
:100CE00050E0482B592B64E0EE0CFF1C6A95E1F7AD
:100CF0008EEB91E0E80EF91EF7018781803189F4CF
:100D000033E0440F551F3A95E1F788858031A9F407
:100D10002F818CE090E0821B9109407F480F591F82
:100D20000CC08D81807611F4487F07C0803211F4A9
:100D30004C7F03C0803409F44E7FBA01882777FDC9
:100D40008095982F0E94321F20E030E040E85DE35C
:100D50000E94BE1FE62F692F2E2F372F482F562FA8
:100D6000B901CA012C960FB6F894DEBF0FBECDBFF5
:100D7000CF91DF911F910F91FF90EF90DF90CF9077
:100D80000895EF92FF920F931F930E94C61D9B013F
:100D9000AC018091670390916803A0916903B091C1
:100DA0006A0379018A01E81AF90A0A0B1B0BD801B8
:100DB000C701885E9340A040B04084F12093670350
:100DC000309368034093690350936A0300917C0158
:100DD0000F3F19F410927C011DC0802F0E941B064A
:100DE00010E0000F111F025A1D4F20E030E048ECC8
:100DF00052E40E94BE1F0E94FF1EF80171836083AF
:100E000080917C0190E001966AE070E00E944020B1
:100E100080937C0180917C010E94F8051F910F91C5
:100E2000FF90EF9008950F931F93CF93DF930EEBF6
:100E300011E0C0E1D0E00CC080915A0390915B03B7
:100E4000BE01F80141918F0120E00E9473112196AB
:100E5000F2E00E351F0781F7DF91CF911F910F91BF
:100E60000895AF92BF92CF92DF92FF920F931F939C
:100E7000DF93CF93CDB7DEB728970FB6F894DEBFD8
:100E80000FBECDBF8EEA92E00E94180EFF246E01C5
:100E90000894C11CD11C09E0A02EB12CAC0EBD1EC3
:100EA00001C0F39489E08F1568F0EF2DF0E014E0B5
:100EB000EE0FFF1F1A95E1F7E254FE4F87818F3F37
:100EC00081F704C0EAE0FE1609F46EC08EEA92E0F3
:100ED000B6010E94670F882309F466C08091B003B1
:100EE0009091B103009721F061EA70E00E94131B1A
:100EF00086018CE691E00E944205F80160818091B4
:100F0000B0039091B103009721F040E150E00E94BE
:100F1000D61B0F5F1F4F0A151B0559F7C60167E067
:100F20000E94250E9885891749F08091B003909111
:100F3000B1030097B9F16DE770E022C000E010E066
:100F4000B801B4E0660F771FBA95E1F76B537E4F97
:100F5000C60148E050E00E94E001009749F0802F70
:100F60008F5F0F5F1F4F0A30110551F78A3058F419
:100F70008091B0039091B1030097A1F068E670E012
:100F80000E94131B0FC0EF2DF0E0A4E0EE0FFF1F37
:100F9000AA95E1F7EB53FE4FD60188E00D90019240
:100FA0008150E1F7FF2481CF0E94130728960FB6E6
:100FB000F894DEBF0FBECDBFCF91DF911F910F918F
:100FC000FF90DF90CF90BF90AF9008950F931F9345
:100FD00085E060E00E94191E86E061E00E94191E13
:100FE00082E061E00E94191E82E060E00E94581ECB
:100FF00088E062E00E94191E84E061E00E94191EF0
:101000008CE190E00E946F1D182F092F65E046E0EB
:1010100020E00E94EA0D812F902F40E05BE460E029
:1010200070E00E94750B1093B0030093B1038BE83E
:1010300094E040E05BE460E070E026E20E94661924
:10104000A6E8B2E080E090E02DE435E9FC01E25A48
:10105000FD4F31832083FC01EE58FD4F3183208307
:101060001D921D921D921D9202968431910571F779
:101070008CE593E00E94DF040E94310787E090E056
:101080000E946F1D182F092F6CE573E04CEB52E0A6
:1010900021E80E94601110935A0300935B038EE6CF
:1010A00091E00E9442050E944C0580915A03909164
:1010B0005B0360E00E94C0111F910F910895CF93D0
:1010C000DF938EEB91E06FEF70E040EA50E00E941A
:1010D000F601C2E0D0E08FEA93E0BE014FEF0E943C
:1010E0003A102196C630D105B1F7EFEBF1E065E09B
:1010F0004AE050E026E930E080818F3F09F46083C8
:10110000828193818F5F9F4F11F453834283848147
:1011100095818F5F9F4F11F435832483709682E011
:10112000EF35F80749F70E943107DF91CF91089515
:10113000EF92FF920F931F930E94C61D7B018C01BB
:1011400088E00E94AC1E20E0892B09F421E0809108
:101150006203823009F446C0833030F4882371F092
:10116000813009F094C00FC0843009F46AC0843023
:1011700008F43DC0853009F08AC083C0222309F4F9
:1011800051C081E04DC08091630390916403A091B0
:101190006503B0916603222381F0A8019701281B03
:1011A000390B4A0B5B0BDA01C90189589341A04006
:1011B000B0400CF46CC082E061C0B801A701481BCC
:1011C000590B6A0B7B0B453651056105710514F00F
:1011D0000E94310780915A0390915B0360E00E9466
:1011E000C01153C0222309F052C083E019C080917E
:1011F000630390916403A0916503B0916603B80105
:10120000A701481B590B6A0B7B0BDB01CA01443653
:101210005105610571050CF43AC0222361F084E0A8
:1012200080936203E0926303F0926403009365038A
:10123000109366032CC081519742A040B0403CF10E
:1012400024C08091630390916403A0916503B091E1
:101250006603B801A701481B590B6A0B7B0BDB0126
:10126000CA0144365105610571058CF0222369F0ED
:10127000895B9B40A040B04054F085E080936203BE
:1012800006C0222321F40E945F081092620380911D
:101290006203853040F4823090F4882341F081303D
:1012A00009F048C007C0853009F044C01CC084E084
:1012B00060E002C084E061E00E94581E3BC0809163
:1012C0005E0390915F03A0916003B0916103A80158
:1012D0009701281B390B4A0B5B0B2536310541055D
:1012E000510544F115C080915E0390915F03A09178
:1012F0006003B0916103B801A701481B590B6A0B49
:101300007B0BDB01CA018F5E9240A040B04094F09D
:1013100084E00E94AC1E60E0892B09F461E084E067
:101320000E94581EE0925E03F0925F0300936003F8
:10133000109361031F910F91FF90EF9008952F92EA
:101340003F924F925F926F927F928F929F92AF9255
:10135000BF92CF92DF92EF92FF920F931F93DF9392
:10136000CF9300D00F92CDB7DEB78CEB92E00E9406
:1013700080180E94C1060E9498080E94C61D4B0159
:101380005C0126E8422E22E0522E9FEB692E91E06E
:10139000792E8EE592E09B838A8382E7282E82E075
:1013A000382E1982F3016281738161157105C9F0CC
:1013B000F20180819181A281B38185017401E81AD3
:1013C000F90A0A0B1B0B80E090E028EE33E040E0C6
:1013D00050E00E942120E616F706080719070CF4D2
:1013E00054C0F3016481758161157105C1F0F2018A
:1013F00080819181A281B38185017401E81AF90A83
:101400000A0B1B0B80E090E028EE33E040E050E058
:101410000E942120E616F70608071907CCF4F3010D
:101420004081442391F1EA81FB8120813181F101E6
:1014300080819181281B390B37FF03C0309521959E
:101440003F4FFAE04F9FC001112428173907E8F0F9
:10145000E0905A03F0905B03EA81FB81C080D18069
:101460000E9418058B019C01C7016981A6010E9499
:101470008F11EA81FB8180819181F10191838083C9
:10148000F20180829182A282B382F981FF5FF983A7
:1014900084E090E0480E591EE0E1F0E06E0E7F1E01
:1014A0008A819B8102969B838A83E2E0F0E02E0E84
:1014B0003F1EF981FA3009F075CF0F900F900F9011
:1014C000CF91DF911F910F91FF90EF90DF90CF9020
:1014D000BF90AF909F908F907F906F905F904F9054
:1014E0003F902F9008950F931F93CF93DF93DC01CC
:1014F0005B967C915B97769571701E96ED91FC9151
:101500001F971D969C911D97772329F08081892331
:1015100009F468C004C08081892309F063C0539630
:101520008D919C91549720E001972FEF8F3F920768
:10153000D9F75596CD91DC9156971E96ED91FC9179
:101540001F971D961C911D9760E031E040E050E030
:1015500000E0CE01202F01972FEF8F3F9207D9F7A0
:101560008081812311F0632B03C0832F8095682332
:10157000330F4F5F5F4F4830510559F757968D91A4
:101580009C91589720E0FC01322F31973FEFEF3FBD
:10159000F307D9F701972FEF8F3F9207D9F7711112
:1015A00060958091AD032091AE0390E001968F731A
:1015B000907030E08217930779F0E091AD03F0E08E
:1015C000E359FC4F60838091AD0390E001968F73E7
:1015D00090708093AD0306C05B968C915B978160A1
:1015E0005B968C93DF91CF911F910F9108951F927D
:1015F0000F920FB60F9211242F933F934F935F9347
:101600006F937F938F939F93AF93BF93EF93FF93CA
:1016100080916B0390916C03009711F00E94730A04
:10162000FF91EF91BF91AF919F918F917F916F91BA
:101630005F914F913F912F910F900FBE0F901F9090
:1016400018951F920F920FB60F9211242F933F936C
:101650004F935F936F937F938F939F93AF93BF93BA
:10166000EF93FF9380916B0390916C03009711F0BF
:101670000E94730AFF91EF91BF91AF919F918F915B
:101680007F916F915F914F913F912F910F900FBE7E
:101690000F901F9018951F920F920FB60F92112462
:1016A0002F933F934F935F936F937F938F939F936A
:1016B000AF93BF93EF93FF9380916B0390916C0373
:1016C000009711F00E94730AFF91EF91BF91AF91C3
:1016D0009F918F917F916F915F914F913F912F914A
:1016E0000F900FBE0F901F901895CF92DF92EF9240
:1016F000FF920F931F93CF93DF93EC017A018B013D
:101700001A8E198E188E1F8A1E8A1D8A1C8A1B8AA1
:1017100020E030E06901CC0CDD1CC20ED31EB60106
:10172000660F771F660F771FAB0147545F4FFA01B3
:1017300085919591A591B4918E159F05A007B1074C
:10174000E9F4FB01E354FF4F859194919C8B8B8BC3
:10175000FB01E154FF4F859194919E8B8D8BFB0192
:10176000EF53FF4F85919491988F8F8BFB01ED5331
:10177000FF4F859194919A8F898F06C02F5F3F4FBD
:101780002D30310509F0C6CF8F89988D892B09F44A
:1017900049C04C85463108F03DC090916800483002
:1017A00010F484E005C04E3010F082E001C081E00A
:1017B000892B80936800483028F4EDE6F0E0ADE630
:1017C000B0E00BC04E3028F0ECE6F0E0ACE6B0E064
:1017D00004C0EBE6F0E0ABE6B0E05081483040F406
:1017E00081E090E002C0880F991F4A95E2F710C08F
:1017F000242F30E04E3018F42850304002C02E50D4
:10180000304081E090E002C0880F991F2A95E2F7EE
:10181000852B8C93898D9A8D20E001972FEF8F3F38
:101820009207D9F780916B0390916C038C179D07F9
:1018300081F08B8D8E7F8B8F9FB7F8941092AD03C4
:101840008091AD038093AE03D0936C03C0936B0380
:101850009FBFDF91CF911F910F91FF90EF90DF908D
:10186000CF90089520916B0330916C0328173907AE
:1018700031F49091AE038091AD03981719F42FEFD6
:101880003FEF0FC0E091AE03F0E0E359FC4F208141
:101890008091AE0390E001968F7390708093AE03B9
:1018A00030E0C901089520916B0330916C03281733
:1018B000390719F020E030E00EC08091AD0320918F
:1018C000AE0390E0805C9F4F821B910960E470E062
:1018D0000E9440209C01C9010895FF920F931F931D
:1018E000DC0159968D919C915A97892B49F481E09E
:1018F00090E013969C938E93129720E030E0DDC029
:10190000FFB6F8945B968C915B975196ED91FC91A4
:10191000529750962C91509781FFD4C08081822B92
:10192000808359968D919C915A97049620E0019757
:101930002FEF8F3F9207D9F710E040E820E030E02A
:1019400070E0842F90E086239723892B09F01F5F96
:1019500046952F5F3F4F2830310599F75B968C9164
:101960005B9781FF4FC031E040E050E000E0832F03
:1019700090E0862397235196ED91FC9152975096D3
:101980002C915097892B29F0808120952823208342
:1019900003C08081822B808359968D919C915A97A8
:1019A000202F01972FEF8F3F9207D9F7330F4F5F0B
:1019B0005F4F48305105D9F65196ED91FC91529701
:1019C00050962C91509710FF05C0808120952823B8
:1019D000208303C08081822B808359968D919C91B6
:1019E0005A9720E001972FEF8F3F9207D9F7519632
:1019F000ED91FC915297908150968C9150978095E3
:101A000089234DC031E040E050E000E0832F90E0BA
:101A1000862397235196ED91FC91529750962C91E5
:101A20005097892B21F08081822B808304C0808194
:101A300020952823208359968D919C915A97202F89
:101A400001972FEF8F3F9207D9F7330F4F5F5F4F0B
:101A500048305105D9F65196ED91FC915297509628
:101A60002C91509710FF04C08081822B808304C08A
:101A7000808120952823208359968D919C915A9797
:101A800020E001972FEF8F3F9207D9F75196ED9104
:101A9000FC915297808150969C915097892B80831E
:101AA000FFBE59968D919C915A9720E001972FEF98
:101AB0008F3F9207D9F721E030E0C9011F910F91C4
:101AC000FF90089580812095282320832ACF20919C
:101AD0006B0330916C032817390749F49FB7F894CA
:101AE0001092AD038091AD038093AE039FBF089524
:101AF00020916B0330916C032817390731F49091D2
:101B0000AE038091AD03981719F42FEF3FEF0AC091
:101B1000E091AE03F0E0E359FC4F8081282F33279A
:101B200027FD3095C90108951F93CF93DF93EC01F2
:101B3000162F862F60E00E94191E8B8D81FD04C038
:101B4000812F61E00E94581E1C87212F30E0C901BF
:101B5000835C9C4FFC0184918D87275D3C4FF9018C
:101B60006491E62FF0E0EE0FFF1FE15EFC4F8591E0
:101B700094919F878E87DF91CF911F910895FF9257
:101B80000F931F938C01F62E862F61E00E94191E81
:101B90008F2D61E00E94581E8F2D90E0FC01E35CC8
:101BA000FC4FE491D8015096EC935097875D9C4F81
:101BB000FC016491E62FF0E0EE0FFF1FEB5EFC4F9F
:101BC0008591949152969C938E9351971F910F916A
:101BD000FF900895FF920F931F938C01F62EFC0146
:101BE0001382128288EE93E0A0E0B0E084839583B4
:101BF000A683B7838FE891E091838083148A138A48
:101C0000168A158A108E178A128E118E838D217076
:101C1000220F8C7F822B838FC801642F0E94BF0DFF
:101C2000C8016F2D0E94940D1F910F91FF90089590
:101C3000FC0113861586148687E090E012863197A2
:101C4000009711F00197FACF0895DC0180E00BC0F6
:101C5000E82FF0E08D9190E0E827F927EB5AFE4F4E
:101C6000E49161508E2F662399F70895DF92EF92E9
:101C7000FF920F931F93FC01E08001811281F89481
:101C8000F80181818E2981838281DE2CD0948D217F
:101C9000828383E090E00E94D41DF80181818D2130
:101CA00081838AE090E00E94D41DF801008178943D
:101CB00085E390E00E94D41D80E010E0FF240E2117
:101CC0001F21012B09F081E01F910F91FF90EF90F0
:101CD000DF900895EF92FF920F931F93CF93DF93BE
:101CE0007C0101E010E0C0E0D0E0C7010E94360EA8
:101CF0008111102B000F2196C830D105B1F7812F2B
:101D0000DF91CF911F910F91FF90EF9008951F9356
:101D1000CF93DF93FC011081C181D281912F9095E7
:101D200060FF12C0F8948A8189238A838981812B7C
:101D300089838AE090E00E94D41D8A81812B8A8366
:101D4000789487E390E011C0F8948A8189238A838C
:101D50008981812B898381E490E00E94D41D8A814E
:101D6000812B8A83789485E090E00E94D41DDF91D6
:101D7000CF911F910895CF92DF92EF92FF920F9330
:101D80001F93CF93DF938C01E42EFF24F394C0E0E4
:101D9000D0E0C62EDD2460E08F2D90E08C219D21C7
:101DA000892B09F061E0C8010E94870EFF0C219683
:101DB000C830D10581F7EE20A9F4F894D801119626
:101DC000ED91FC91129791818C918095982391834C
:101DD0001196ED91FC91129792818C9180959823A8
:101DE00092837894DF91CF911F910F91FF90EF90A4
:101DF000DF90CF900895EF92FF920F931F93CF93B0
:101E0000DF938C017B0165E540E00E94BB0EC0E0E2
:101E1000D0E0F701EC0FFD1FC801608140E00E9497
:101E2000BB0E2196C830D105A1F7DF91CF911F914C
:101E30000F91FF90EF900895DF92EF92FF920F9332
:101E40001F93CF93DF93FC010081C181D281F8946D
:101E50008981D02ED0948D21898378941DE7E02E3E
:101E6000FF24115059F182E090E00E94D41D888136
:101E700090E08E219F21892BA1F3F8948A818D21F6
:101E80008A838981802B8983789480EE91E00E94F7
:101E9000D41DF89489818D21898386E490E00E9485
:101EA000D41D888110E090E0E822F922EF2809F49F
:101EB00011E078948AE991E00E94D41D812FDF918E
:101EC000CF911F910F91FF90EF90DF900895AF9207
:101ED000BF92DF92EF92FF920F931F93CF93DF9306
:101EE000EC015B018D85882309F061C0CE010E9461
:101EF0001C0F882329F41B861D861C8690E06BC06E
:101F0000CE0160EF40E00E94BB0E01E0DD24EE2434
:101F1000FF24F394CE010E94360E182FCE010E94AA
:101F2000360E113019F48130E1F439C0181709F573
:101F30008B85081770F460E0FE01EE0DF11D8381C2
:101F400090E02F2D30E082239323181619064CF0D1
:101F500003C060E0081729F0093008F04CC00C8776
:101F60004AC0FE01EE0DF11D83818F29838361E05C
:101F700009C0612FFE01EE0DF11D9F2D909583810B
:101F800089238383CE010E94870E0F5FFF0C19F413
:101F9000E394FF24F39487E08E1508F0BBCF01345F
:101FA00030F0DB86DD2011F581E08D871FC01B86B8
:101FB0001D861C8690E0DE0120E030E0F501E20F96
:101FC000F31F13968C91139780832F5F3F4F1196C9
:101FD0002830310599F7892FDF91CF911F910F910B
:101FE000FF90EF90DF90BF90AF9008958B81882392
:101FF000F1F291E0E0CFD02EBDCFFF920F931F936F
:102000008C01F62E862F60E00E94191E8F2D90E025
:10201000FC01E35CFC4FE491D801EC93875D9C4F9D
:10202000FC016491E62FF0E0EE0FFF1FE15EFC4F34
:102030008591949112969C938E9311971B961C9266
:102040001B971D961C921D971C961C92F80187E009
:1020500090E012863197009711F00197FACF1F9107
:102060000F91FF900895F999FECF72BD61BDF89A66
:1020700080B50895F999FECF1FBA72BD61BD40BD0C
:102080000FB6F894FA9AF99A0FBE0895FC018FE9F9
:1020900091E09183808308950F931F938C01DC015D
:1020A0001396ED91FC91149784E0818B1396ED913A
:1020B000FC91149789E6828B1396ED91FC9114970D
:1020C000638B15960D90BC91A02DED91FC9111970D
:1020D0000280F381E02DCD010995D8011396ED9191
:1020E000FC911497948B1396ED91FC911497858B2A
:1020F0001F910F910895FF920F931F938C01F62E5D
:10210000FC01A581B681ED91FC9111970190F081C0
:10211000E02DCD010995C8016F2D0E944C101F9133
:102120000F91FF900895CF92DF92EF92FF920F935D
:102130001F93DF93CF93CDB7DEB764970FB6F894B4
:10214000DEBF0FBECDBF8B012DB73EB7285030404C
:102150000FB6F8943EBF0FBE2DBFEDB6FEB6089485
:10216000E11CF11C6E010894C11CD11CADB7BEB7B7
:102170001296DC92CE92119724E731E0F701338377
:102180002283DC011396ED91FC9114976085718593
:102190008285938520E836E948E950E00E94532083
:1021A000F70164837583868397830E94FD0188E429
:1021B000D8018C9382E411968C93119787E512963F
:1021C0008C9312971396F60187E001900D9281503F
:1021D000E1F7EDB7FEB738960FB6F894FEBF0FBE25
:1021E000EDBF64960FB6F894DEBF0FBECDBFCF91A2
:1021F000DF911F910F91FF90EF90DF90CF900895A6
:10220000AF92BF92CF92DF92EF92FF920F931F9304
:10221000CF93DF935C01DC011396ED91FC91149751
:102220001086118612861386CCEFD3E0F501C380A9
:10223000D480D6011896ED90FD900D911C911B97BE
:10224000102F0F2DFE2CEE24F601E086F18602877A
:1022500013878FEA93E0BE010E94331090E0A0E064
:10226000B0E08E299F29A02BB12BF60180879187A2
:10227000A287B3872196F4E0C030DF07B9F6D50115
:102280001396ED91FC91149780859185A285B38575
:102290008F5F9F4FAF4FBF4F41F48FEF9FEFAFEF77
:1022A000B2E480879187A287B387DF91CF911F9196
:1022B0000F91FF90EF90DF90CF90BF90AF90089577
:1022C000FC01DA018FE991E0918380837683658355
:1022D000548343831396FC93EE9312972283CF018A
:1022E0000E94001108951F93CF93DF93EB01142FE9
:1022F000222321F483E06C3F78076CF48FEA93E0AB
:10230000BE010E943310181731F08FEA93E0BE012E
:10231000412F0E943A10DF91CF911F9108950F93A2
:102320001F93DC011396ED91FC9114970487158798
:102330002687378788EF808B1396ED91FC91149751
:1023400084E0818B1396ED91FC91149789E6828B42
:102350001396ED91FC911497638B1396ED91FC917C
:102360001497548B1396ED91FC911497458B13960B
:102370008D919C9114970E948A171F910F91089537
:102380000F931F938C01DC011396ED91FC91149730
:102390008FEF9FEFAFEFBFEF84879587A687B78753
:1023A00088EF808BD8011396ED91FC91149780E112
:1023B000818B1396ED91FC91149781E4828B139697
:1023C000ED91FC911497638B1396ED91FC9114970A
:1023D00012968C911297848B1396ED91FC91149721
:1023E000158A1396ED91FC91149783E0868B1396D2
:1023F000ED91FC91149786E0878B13966D917C91FB
:102400001497685E7F4FC8010E949310F801838182
:1024100094810E948A171F910F9108952F923F92E5
:102420004F925F926F927F928F929F92AF92BF92E4
:10243000CF92DF92EF92FF920F931F93CF93DF9390
:102440006C01EB011B818C81D6011396ED91FC91FF
:102450001497282F2695269526952C5F218B24509E
:10246000282E3324C10187709070892B11F02B5FC7
:10247000218B41899F012E5E3F4FC90160E070E0D2
:1024800050E00E94F601D6011396ED91FC9114974D
:1024900085E6828B8981838B8A81848B8B81858B76
:1024A000A12EBB2400E010E0EE24FF24250131E042
:1024B000632E712C812C912C34C0BE016E0D7F1DBA
:1024C0008FEA93E00E9433108F3F01F1D6011396FB
:1024D000ED91FC911497C80123E0959587952A9575
:1024E000E1F70496E80FF91FC80187709070A40106
:1024F000930104C0220F331F441F551F8A95D2F742
:10250000DA01C9012289282B228B04C02196C41527
:10251000D5059CF20F5F1F4FEA0CFB1C20163106FD
:102520001CF0C0E0D0E0F3CFDF91CF911F910F916D
:10253000FF90EF90DF90CF90BF90AF909F908F90E3
:102540007F906F905F904F903F902F9008959F9253
:10255000AF92BF92CF92DF92EF92FF920F931F93B1
:10256000CF93DF935C017B01D42E222309F034C189
:10257000DC011396ED91FC91149784819581A681DD
:10258000B78184879587A687B78788E7808BDB012B
:102590008C91833509F48CC08435A8F4853409F412
:1025A00054C0863448F4813409F40EC18334F1F107
:1025B000803409F003C11DC08B3409F405C1823594
:1025C00009F0FCC046C08E3609F4BEC08F3638F420
:1025D000873509F474C0883609F0F0C0A1C0863789
:1025E00009F4C6C0883709F4D9C0833709F0E6C0BA
:1025F000B7C0FB0181818136A9F4F6E04F1791F451
:102600008B01CCEFD3E0C501BE01D80112964C91ED
:1026100021E00E9473110F5F1F4F2196B4E0C0307C
:10262000DB0789F7C5010E940011C8C0D5011596C6
:10263000ED91FC911697A081B18114962D913C915A
:102640001597CF01F9010995B9C0C5010E940E1275
:10265000ADC0B4E04B1709F0B1C08091B0039091C8
:10266000B103009721F06DE872E00E94131BF7019F
:10267000918180E02281C22EDD24C82AD92A9924A2
:102680000DC0092D10E0B8016C0D7D1D8FEA93E09F
:102690000E943310C00FD11F8A8B9394D7011396D9
:1026A0008C91F501C381D481981658F3898B7EC033
:1026B000C501DB0111966C910E944C1085C0242F3E
:1026C00030E0FB01838190E004962817390709F078
:1026D00075C08091B0039091B103009721F060E83C
:1026E00072E00E94131BD70111969C91119780E014
:1026F00012962C91C22FD0E0C82BD92B870144E031
:10270000F42E0BC0C501BE01F801448120E00E94F7
:102710007311F3940F5F1F4F2196FD1498F34EC071
:102720008091B0039091B103009721F066E672E0CA
:102730000E94131BD5011396ED91FC9114971296EC
:102740008C91828B81E026C07296C501BF010E94E8
:102750009310D5011396ED91FC9114978AE01CC05B
:10276000FB014281C501618150E00E947B1026C0BF
:102770008091B0039091B103009721F065E572E07C
:102780000E94131BD5011396ED91FC91149783E0E1
:10279000828B86E0838B82E0818B08C0FB014281C3
:1027A000C501618150E00E947B100EC0D5011396D7
:1027B0008D919C9114970E948A170EC0F501838118
:1027C00094810E94151808C0D5011396ED91FC91D3
:1027D000149789E6828BEACFDF91CF911F910F91F9
:1027E000FF90EF90DF90CF90BF90AF909F900895B3
:1027F000FC018FE991E091838083CF010E946C1DE1
:102800000895FC0189EA91E091838083EE5AFF4F9D
:10281000619371934083329610820895FC0189EA96
:1028200091E0918380830895FF920F931F93CF933C
:10283000DF93EC01F62E062F10E08091B00390910B
:10284000B103009751F0B80124E0759567952A957A
:10285000E1F740E150E00E94281C8091B003909184
:10286000B103009739F00F701070B80140E150E0EB
:102870000E94281C8091B0039091B103009721F031
:102880006AE771E00E943B1C8F2D8C5F833080F4DF
:10289000CE5ADF4FE881F981C255D040A081B18185
:1028A0002D913C91CF016CEFF90109958FE7F8224A
:1028B000CE5ADF4FE881F981A081B1812D913C9101
:1028C000CF016F2DF9010995DF91CF911F910F91E4
:1028D000FF900895BC018091B0039091B1030097DF
:1028E00011F00E94131B08956F927F928F929F9216
:1028F000AF92BF92CF92DF92EF92FF920F931F930E
:10290000CF93DF938C0142E5A42EB12CA80EB91E03
:1029100035E5C32ED12CC80ED91E22E0822E20E12F
:10292000922E66246A9494E0E92E89E0782E68C19C
:10293000D501ED91FC91A081B18116962D913C912C
:102940001797CF01F9010995F82EBDEF8B1721F4E8
:1029500083EA92E00E946A14CF2DD0E08091B00308
:102960009091B103009751F0BE01B4E07595679561
:10297000BA95E1F740E150E00E94281C8091B00335
:102980009091B103009739F0CF70D070BE0140E153
:1029900050E00E94281C8091B0039091B1030097F1
:1029A00021F06AE771E00E943B1CECEFFE1639F45F
:1029B000D6018C9181FD03C082608C9321C18F2D43
:1029C0008D5F8230E8F5F0920204F601808181602B
:1029D0008D7F80831092B5031092B4031092F90397
:1029E0001092FA031092FB031092FC031092FE0364
:1029F0001092FF0310920004109201045F2D2FEF3C
:102A00003FEF40E0C901880F991F57FD816037FDF6
:102A100002C09C0103C09C01282539254F5F483026
:102A200011F0550FEFCF3093B3032093B203FDEFB6
:102A3000FF1609F0E5C0E092B7037092B603E0C05C
:102A4000D6018C9180FFDCC081FF05C0B0E8FB2A75
:102A50008D7FF60180832091B2033091B3035F2D07
:102A600040E0C901880F991F57FD816037FD02C002
:102A70009C0103C09C01282539254F5F483011F087
:102A8000550FEFCF3093B3032093B2036091B4039B
:102A90008091B7036817E8F42091FE033091FF039B
:102AA0004091000450910104542F432F322F2227CC
:102AB0008F2D90E0A0E0B0E0822B932BA42BB52BC0
:102AC0008093FE039093FF03A0930004B09301044E
:102AD0002CC0681731F46F5F6093B403F092FD036C
:102AE0008FC05091FD0353FF24C08091B603681737
:102AF00000F52091F9033091FA034091FB035091C6
:102B0000FC03542F432F322F22278F2D90E0A0E07B
:102B1000B0E0822B932BA42BB52B8093F9039093D9
:102B2000FA03A093FB03B093FC036F5F6093B403BD
:102B300067C06F3F29F06092B403F092F80360C061
:102B40004091B503E42FF0E0C8EBD3E0EC0FFD1F9C
:102B5000F082942F9F5F9093B5038091F8039817AC
:102B600009F04EC0232B09F047C0F801EB5AFF4F84
:102B700080818E7F808304561F4F80910204D8018C
:102B80008C93055410408091FE039091FF03A09117
:102B90000004B0910104F80180839183A283B38380
:102BA0000A5B1F4FD8015C930D5910408091F903C7
:102BB0009091FA03A091FB03B091FC03F801848388
:102BC0009583A683B7834150055A1F4FD8014C9374
:102BD0000B5510409801245A3F4FC901BE0150E0E7
:102BE0000E94ED011092B5031092B4030A5A1F4FD0
:102BF00081E0F801808313C089E992E00E946A14A1
:102C0000D501ED91FC91A081B18114962D913C915B
:102C10001597CF01F9010995892B09F089CEDF912C
:102C2000CF911F910F91FF90EF90DF90CF90BF90C9
:102C3000AF909F908F907F906F9008958F929F920A
:102C4000AF92BF92CF92DF92EF92FF920F931F93BA
:102C5000CF93DF937C01FC0184859585A685B7859C
:102C60008F5F9F4FAF4FBF4FC9F02DE930E0E20EAD
:102C7000F31ED7018C91E3E6FFEFEE0EFF1E90E00E
:102C80009595879583708295880F807ED7015096A1
:102C90002C9150972F79822B50968C9380EB92E059
:102CA0000E946A14E4E5F0E0EE0EFF1ED7018C915D
:102CB00061E00E94581ED701FE91EE917D012EEA3F
:102CC0003FEFE20EF31EA081B1812D913C91CF0127
:102CD0006DEFF9010995CFEFDFEF3DEF20E042E026
:102CE00050E1CE01880F991F37FD8160D7FD02C0EA
:102CF000EC0103C0EC01C427D5272F5F283011F069
:102D0000330FEFCFD7011C96AD90BD90CD90DC90E6
:102D10001F9710E002E0802E00E1902E2D2D33272A
:102D200044275527022FC701622F0E94141420E068
:102D3000CE01880F991F07FD8160D7FD02C0EC010D
:102D400003C0EC01C825D9252F5F283011F0000FF2
:102D5000EFCF1F5F143029F0DC2CCB2CBA2CAA2427
:102D6000DDCFC701F70160890E941414D701509686
:102D70004C91342F20E062E070E1CE01880F991F62
:102D800037FD8160D7FD02C0EC0103C0EC01C6270E
:102D9000D7272F5F283011F0330FEFCF43FF2DC01F
:102DA000F701A084B184C284D38410E052E0852E60
:102DB00050E1952E2D2D332744275527022FC7018B
:102DC000622F0E94141420E0CE01880F991F07FD86
:102DD0008160D7FD02C0EC0103C0EC01C825D925F4
:102DE0002F5F283011F0000FEFCF1F5F143029F054
:102DF000DC2CCB2CBA2CAA24DDCFD70151960C9118
:102E00000E5FC701602F0E94141420E042E050E1E1
:102E1000CE01880F991F07FD8160D7FD02C0EC012C
:102E200003C0EC01C427D5272F5F283031F4DD24FF
:102E3000F2E0AF2EF0E1BF2E20C0000FE9CF8701F6
:102E40000D0D111DC701F80162890E941414D801EB
:102E500052963C9120E0CE01880F991F37FD81608A
:102E6000D7FD02C0EC0103C0EC01CA25DB252F5FB2
:102E7000283011F0330FEFCFD394F7018189D816A2
:102E8000F0F220E042E050E1CE01CC0FDD1F97FFD1
:102E900002C0C427D5272F5F2830B1F720E042E0D9
:102EA00050E1CE01CC0FDD1F97FF02C0C427D5270C
:102EB0002F5F2830B1F7C7016D2F0E941414C7018E
:102EC0006C2F0E94141422E530E0E20EF31EF7018D
:102ED000A191B1917F01ED91FC9111970284F3854D
:102EE000E02DCD010995D7018D917D0160E00E9413
:102EF000581EF701808188608083DF91CF911F91F8
:102F00000F91FF90EF90DF90CF90BF90AF909F9088
:102F10008F9008956F927F928F929F92AF92BF92FF
:102F2000DF92EF92FF920F931F93CF93DF93EC0109
:102F30008C859D85AE85BF858F5F9F4FAF4FBF4FFF
:102F400021F0888983708130C9F480ED92E00E947D
:102F50006A1468898091B0039091B103009721F0C1
:102F600040E150E00E94D61BCE010E941E16FE01D9
:102F7000EB5AFF4F8081877F808349C0DD24A6E51F
:102F8000AA2EB12CAC0EBD1EF7E56F2E712C6C0E67
:102F90007D1EE5E58E2E912C8C0E9D1ECE010E948D
:102FA0001E160E94C61D7B018C0122C0CE010E940C
:102FB0007414F50180818823D9F0F30120813181D7
:102FC0004281538188859985AA85BB852817390751
:102FD0004A075B0769F4F50110828AEB92E00E94D0
:102FE0006A14CE010E941D18F401808183FF0FC076
:102FF0000E94C61D6E197F09800B910B683C7105FC
:103000008105910598F2D394F3E0DF1639F6DF914C
:10301000CF911F910F91FF90EF90DF90BF90AF90F5
:103020009F908F907F906F900895FC0189E1808B35
:10303000118ACF010E948A1708950F931F93CF938F
:10304000DF93EC018C010B5A1F4FF801808183FF45
:1030500028C0C356DF4F2881CD59D04030E085E0ED
:10306000359527958A95E1F72370888990E09595A5
:10307000879583702817A9F42C813D814E815F814B
:103080008C859D85AE85BF85281739074A075B0764
:1030900041F489EE92E00E946A14F8018081877FF2
:1030A0008083C356DF4F8881CD59D04083708130F3
:1030B000F9F0C55ADF4F8881CB55D0408823D1F431
:1030C000C95ADF4F88819981AA81BB81C755D040F9
:1030D0008F5F9F4FAF4FBF4F69F08C819D81AE8155
:1030E000BF818C879D87AE87BF87CE010E94151850
:1030F00080E001C081E0DF91CF911F910F91089591
:103100000F931F93CF93DF93EC010E947414FE0181
:10311000EA5AFF4F8081882309F440C01082C95ABF
:10312000DF4F288139814A815B81C755D04088852E
:103130009985AA85BB85281739074A075B0729F0B7
:103140002F5F3F4F4F4F5F4F49F586EF92E00E9450
:103150006A14CE010E941D18882301F14A815B8107
:10316000DA01ED91FC91BE01645A7F4F9E01255A10
:103170003F4F10E0C95ADF4F88819981AA81BB81F6
:103180008F5F9F4FAF4FBF4F09F411E00190F08167
:10319000E02DCA01D9014C91212F0995DF91CF91E2
:1031A0001F910F910895FC0189EA91E0918380833A
:1031B000CF010E946C1D089508951F920F920FB6C3
:1031C0000F9211242F933F934F938F939F93EF93DD
:1031D000FF938091C00082FD1DC04091C6002091E8
:1031E0004304309144042F5F3F4F2F733070809120
:1031F0004504909146042817390771F0E091430483
:10320000F0914404ED5FFB4F4083309344042093DE
:10321000430402C08091C600FF91EF919F918F916E
:103220004F913F912F910F900FBE0F901F901895C7
:10323000E0919704F0919804E05CFF4F81919191A7
:1032400020813181821B930B8F739070892B11F039
:103250000E94DC1808951F920F920FB60F9211244E
:103260002F933F938F939F93EF93FF932091870426
:10327000309188048091890490918A042817390735
:1032800031F48091C1008F7D8093C10014C0E09122
:103290008904F0918A04E95BFB4F208180918904C5
:1032A00090918A0401968F73907090938A04809312
:1032B00089042093C600FF91EF919F918F913F91D8
:1032C0002F910F900FBE0F901F901895AF92BF9245
:1032D000CF92DF92EF92FF920F931F93CF93DF93E2
:1032E000EC017A018B01C22EDD24D39471E0A72E6C
:1032F000B12CEC89FD89DD2069F0C50108A002C070
:10330000880F991F0A94E2F7808360E874E88EE1E1
:1033100090E005C0108260E472E48FE090E0A801C4
:1033200097010E9453202150304040405040569514
:1033300047953795279580E12030380720F0DD202C
:1033400011F0DD24D6CFE889F9893083EA89FB8939
:103350002083E88DF98DC082EE89FF89408121E0CC
:1033600030E0C9010C8C02C0880F991F0A94E2F763
:10337000482B4083EE89FF894081C9010D8C02C032
:10338000880F991F0A94E2F7482B4083EE89FF8942
:103390004081C9010E8C02C0880F991F0A94E2F780
:1033A000482B4083EE89FF8980810F8C02C0220F59
:1033B000331F0A94E2F7209528232083DF91CF91D1
:1033C0001F910F91FF90EF90DF90CF90BF90AF9043
:1033D0000895DC011C96ED91FC911D97E05CFF4F78
:1033E0002191319180819181281B390B2F7330708D
:1033F000C9010895DC011C96ED91FC911D97E05CDC
:10340000FF4F20813181E054F040DF01AE5BBF4FC0
:103410008D919C9111972817390719F42FEF3FEFE1
:1034200007C08D919C91E80FF91F8081282F30E013
:10343000C9010895DC011C96ED91FC911D97E05C9B
:10344000FF4F20813181E054F040DF01AE5BBF4F80
:103450008D919C9111972817390719F42FEF3FEFA1
:1034600010C08D919C911197E80FF91F20818D91CB
:103470009C91119701968F73907011969C938E93E7
:1034800030E0C9010895DC0191968C9191978823D1
:1034900039F05496ED91FC915597808186FFF9CFD4
:1034A00091961C920895CF93DF93EC01EE85FF85F2
:1034B000E05CFF4F20813181E054F0402F5F3F4FAF
:1034C0002F733070DF01AE5BBF4F8D919C911197D0
:1034D00028173907D1F3E05CFF4F80819181E054D8
:1034E000F040E80FF91F6083EE85FF85E05CFF4F39
:1034F00031832083EE89FF89208181E090E00F8C69
:1035000002C0880F991F0A94E2F7282B208381E0DC
:1035100089A3EC89FD8980818064808381E090E0CB
:10352000DF91CF91089510928E0410928D0488EE51
:1035300093E0A0E0B0E080938F0490939004A09378
:103540009104B093920481EB91E090938C0480936A
:103550008B0483E094E0909398048093970487E42D
:1035600094E090939A048093990485EC90E0909372
:103570009C0480939B0484EC90E090939E04809341
:103580009D0480EC90E09093A00480939F0481ECD4
:1035900090E09093A2048093A10482EC90E0909339
:1035A000A4048093A30486EC90E09093A6048093F7
:1035B000A50484E08093A70483E08093A80487E0B7
:1035C0008093A90485E08093AA0481E08093AB04F2
:1035D0000895CF92DF92EF92FF920F931F93CF93B4
:1035E000DF937C016B018A01C0E0D0E00FC0D601FF
:1035F0006D916D01D701ED91FC910190F081E02D6D
:10360000C7010995C80FD91F0150104001151105B8
:1036100071F7CE01DF91CF911F910F91FF90EF9045
:10362000DF90CF900895EF92FF920F931F93CF9367
:10363000DF937C018B01C0E0D0E0F8010F5F1F4FEA
:103640006491662359F0D701ED91FC910190F081CE
:10365000E02DC7010995C80FD91FEFCFCE01DF912B
:10366000CF911F910F91FF90EF900895CF93DF932B
:10367000EC016115710519F420E030E00FC0DB01A9
:103680000D900020E9F71197A61BB70BE881F9818F
:103690000280F381E02DAD0109959C01C901DF9104
:1036A000CF9108954F925F927F928F929F92AF92A7
:1036B000BF92CF92DF92EF92FF920F931F93DF930F
:1036C000CF93CDB7DEB7A1970FB6F894DEBF0FBE8C
:1036D000CDBF2C01742ECB01223008F42AE019A2B0
:1036E00031E2C32ED12CCC0EDD1E822E9924AA24C9
:1036F000BB24672D752FA50194010E9453207901E9
:103700008A01C801B701A50194010E942120472D1B
:10371000461B0894C108D1084A3014F4405D01C02A
:10372000495CF6014083E114F1040105110521F023
:103730007E2C5F2DC801DDCFC201B6010E94361B71
:10374000A1960FB6F894DEBF0FBECDBFCF91DF912B
:103750001F910F91FF90EF90DF90CF90BF90AF90AF
:103760009F908F907F905F904F900895DC0121157E
:10377000310541F4ED91FC910190F081E02D642F31
:10378000099508950E94521B0895EF92FF920F939E
:103790001F939A017B0100E010E0B801A7010E948D
:1037A000B61B1F910F91FF90EF900895EF92FF923B
:1037B0000F931F939A01E62EFF2400E010E0B8015A
:1037C000A7010E94B61B1F910F91FF90EF900895E3
:1037D000CF92DF92EF92FF920F931F93CF93DF93DD
:1037E000EC016A017B012115310541F4E881F98181
:1037F0000190F081E02D642F09951FC02A3031051A
:10380000D1F477FF17C0E881F9810190F081E02DB4
:103810006DE209958C0144275527BA014C195D09C1
:103820006E097F09CE012AE00E94521B9801280FE1
:10383000391F04C02AE00E94521B9C01C901DF917C
:10384000CF911F910F91FF90EF90DF90CF9008954F
:10385000EF92FF920F931F937B019A010027F7FCD1
:103860000095102FB801A7010E94E81B1F910F912E
:10387000FF90EF9008950E94361B0895CF93DF9339
:103880000E94DE1D0E94E607C8E1D9E10E949F095F
:103890002097E1F30E941819F9CF0F931F93CF934C
:1038A000DF93BC018230910510F462E070E0E0919A
:1038B000B604F091B704A0E0B0E040E050E024C0CE
:1038C0008081918186179707D0F08617970771F44A
:1038D00082819381109729F013969C938E9312976F
:1038E0002CC09093B7048093B60427C041155105AE
:1038F00019F08417950718F4EF018D01AC01DF0171
:10390000828193819C01F9013097D1F641155105CF
:10391000F9F0CA01861B970B8430910580F48A81E7
:103920009B810115110521F0F8019383828304C066
:103930009093B7048093B604FE0132962FC0FE0127
:10394000E80FF91F6193719302979983888326C0CA
:103950008DB79EB78857904020917D0130917E01B0
:1039600028173907C8F4AC01421B530B46175707F9
:1039700098F0CB0102964817590770F0820F931FF9
:1039800090937E0180937D019093800180937F01CD
:10399000F9016193719302C0E0E0F0E0CF01DF91A3
:1039A000CF911F910F910895CF93DF939C010097C2
:1039B00009F48FC0EC0122971B821A826091B60431
:1039C0007091B7046115710581F488819981820F26
:1039D000931F20917D0130917E012817390739F519
:1039E000D0937E01C0937D0174C0DB0140E050E0C4
:1039F000AC17BD0708F1BB83AA83FE012191319169
:103A0000E20FF31FAE17BF0779F48D919C911197C8
:103A1000280F391F2E5F3F4F3983288312968D91CF
:103A20009C9113979B838A834115510571F4D09320
:103A3000B704C093B6044DC012968D919C91139714
:103A4000AD01009711F0DC01D3CFDA011396DC93BE
:103A5000CE931297FA0121913191E20FF31FCE1705
:103A6000DF0769F488819981280F391F2E5F3F4F46
:103A7000FA01318320838A819B8193838283E0E0F2
:103A8000F0E0DB0112968D919C911397009719F04D
:103A9000BC01FD01F6CFAB014E5F5F4FDB018D91A5
:103AA0009C91840F951F20917D0130917E012817F4
:103AB000390779F4309729F41092B7041092B604BC
:103AC00002C0138212824250504050937E014093B4
:103AD0007D01DF91CF9108950E94D41C08950E942A
:103AE0004D1C08951F920F920FB60F9211242F9321
:103AF0003F934F935F936F937F938F939F93AF9376
:103B0000BF932091B1043091B2044091B30450911D
:103B1000B4047091B504DA01C9010296A11DB11D6A
:103B2000672F6A5F6D3730F06D57DA01C901039670
:103B3000A11DB11D6093B5048093B1049093B204AC
:103B4000A093B304B093B4048091AD049091AE04FB
:103B5000A091AF04B091B0040196A11DB11D809356
:103B6000AD049093AE04A093AF04B093B004BF91A2
:103B7000AF919F918F917F916F915F914F913F9105
:103B80002F910F900FBE0F901F9018958FB7F8943C
:103B90002091B1043091B2044091B3045091B40427
:103BA0008FBFB901CA010895019739F0019729F033
:103BB000880F991F01970197F1F70895789484B5BC
:103BC000826084BD84B5816084BD85B5826085BD19
:103BD00085B5816085BDEEE6F0E0808181608083FF
:103BE000E1E8F0E0108280818260808380818160E2
:103BF0008083E0E8F0E0808181608083E1EBF0E0A9
:103C0000808184608083E0EBF0E08081816080834C
:103C1000EAE7F0E080818460808380818260808335
:103C20008081816080838081806880831092C10060
:103C30000895CF93DF93482F50E0CA01835C9C4FD7
:103C4000FC013491475D5C4FFA018491882369F14E
:103C500090E0880F991FFC01E55FFC4FA591B4919E
:103C6000FC01EB5EFC4FC591D491662351F42FB754
:103C7000F8948C91932F909589238C938881892334
:103C80000BC0623061F42FB7F8948C91932F90950C
:103C900089238C938881832B88832FBF06C09FB78D
:103CA000F8948C91832B8C939FBFDF91CF910895D3
:103CB000482F50E0CA018F5A9C4FFC012491CA0141
:103CC000835C9C4FFC019491475D5C4FFA013491F9
:103CD000332309F440C0222351F1233071F0243002
:103CE00028F42130A1F0223011F514C02630B1F0B3
:103CF0002730C1F02430D9F404C0809180008F7740
:103D000003C0809180008F7D8093800010C084B5B7
:103D10008F7702C084B58F7D84BD09C08091B000CB
:103D20008F7703C08091B0008F7D8093B000E32F28
:103D3000F0E0EE0FFF1FEB5EFC4FA591B4912FB7A3
:103D4000F894662321F48C919095892302C08C917C
:103D5000892B8C932FBF0895682F70E0CB018F5A69
:103D60009C4FFC012491CB01835C9C4FFC0144914E
:103D7000675D7C4FFB019491992319F420E030E0BA
:103D80003CC0222351F1233071F0243028F421303B
:103D9000A1F0223011F514C02630B1F02730C1F067
:103DA0002430D9F404C0809180008F7703C08091C3
:103DB00080008F7D8093800010C084B58F7702C013
:103DC00084B58F7D84BD09C08091B0008F7703C01A
:103DD0008091B0008F7D8093B000892F90E0880F94
:103DE000991F815E9C4FFC01A591B4918C9120E0BC
:103DF00030E0842311F021E030E0C901089504D0BF
:103E00006894B111B5C0089598D088F09F5790F08C
:103E1000B92F9927B751A0F0D1F0660F771F881FEF
:103E2000991F1AF0BA95C9F712C0B13081F09FD02E
:103E3000B1E008959CC0672F782F8827B85F39F0CC
:103E4000B93FCCF3869577956795B395D9F73EF44E
:103E500090958095709561957F4F8F4F9F4F0895F6
:103E6000E89409C097FB3EF4909580957095619514
:103E70007F4F8F4F9F4F9923A9F0F92F96E9BB27CA
:103E80009395F695879577956795B795F111F8CF46
:103E9000FAF4BB0F11F460FF1BC06F5F7F4F8F4FB1
:103EA0009F4F16C0882311F096E911C0772321F0A7
:103EB0009EE8872F762F05C0662371F096E8862F3F
:103EC00070E060E02AF09A95660F771F881FDAF796
:103ED000880F9695879597F9089597F99F6780E8D9
:103EE00070E060E008959FEF80EC089500240A944C
:103EF0001616170618060906089500240A941216C5
:103F00001306140605060895092E0394000C11F4F7
:103F1000882352F0BB0F40F4BF2B11F460FF04C0A4
:103F20006F5F7F4F8F4F9F4F089557FD9058440FFD
:103F3000551F59F05F3F71F04795880F97FB991F08
:103F400061F09F3F79F087950895121613061406C5
:103F5000551FF2CF4695F1DF08C016161706180652
:103F6000991FF1CF86957105610508940895E8942D
:103F7000BB2766277727CB0197F908950BD0C4CFCD
:103F8000B5DF28F0BADF18F0952309F0A6CFABCF44
:103F90001124EECFCADFA0F3959FD1F3950F50E027
:103FA000551F629FF001729FBB27F00DB11D639FEB
:103FB000AA27F00DB11DAA1F649F6627B00DA11D91
:103FC000661F829F2227B00DA11D621F739FB00D37
:103FD000A11D621F839FA00D611D221F749F3327A7
:103FE000A00D611D231F849F600D211D822F762F40
:103FF0006A2F11249F5750408AF0E1F088234AF03D
:10400000EE0FFF1FBB1F661F771F881F9150504088
:10401000A9F79E3F510570F060CFAACF5F3FECF348
:10402000983EDCF3869577956795B795F795E79574
:104030009F5FC1F7FE2B880F911D9695879597F985
:104040000895629FD001739FF001829FE00DF11DE2
:10405000649FE00DF11D929FF00D839FF00D749F02
:10406000F00D659FF00D9927729FB00DE11DF91FAE
:10407000639FB00DE11DF91FBD01CF01112408950B
:1040800097FB092E07260AD077FD04D02ED006D044
:1040900000201AF4709561957F4F0895F6F790957A
:1040A00081959F4F0895A1E21A2EAA1BBB1BFD010B
:1040B0000DC0AA1FBB1FEE1FFF1FA217B307E40707
:1040C000F50720F0A21BB30BE40BF50B661F771F5F
:1040D000881F991F1A9469F760957095809590953F
:1040E0009B01AC01BD01CF010895AA1BBB1B51E18F
:1040F00007C0AA1FBB1FA617B70710F0A61BB70B58
:10410000881F991F5A95A9F780959095BC01CD01FC
:104110000895EE0FFF1F0590F491E02D09942F9262
:104120003F924F925F926F927F928F929F92AF9247
:10413000BF92CF92DF92EF92FF920F931F93CF9394
:10414000DF93CDB7DEB7CA1BDB0B0FB6F894DEBF2B
:104150000FBECDBF09942A88398848885F846E8451
:104160007D848C849B84AA84B984C884DF80EE809B
:10417000FD800C811B81AA81B981CE0FD11D0FB6A4
:10418000F894DEBF0FBECDBFED01089513E0CAE67F
:10419000D3E004C0FE010E948B202296CC36D107CA
:0641A000C9F7F894FFCFFF
:1041A6004368616E6E656C20202020203A20000D49
:1041B6000A004D696E20496E74657276616C3A200C
:1041C600004D617820496E74657276616C3A200004
:1041D60044656C74612054656D7020203A2000435C
:1041E600757272656E742054656D703A20004C616C
:1041F60073742054656D702020203A200053697A2C
:104206006520202020202020203A2000200048750C
:1042160068750A002530376C75003A00FFB80464EB
:1042260000000000009E049F04DF04000000006DF3
:104236000CE91A530C320C780D670D00000000A72C
:10424600124610F813000000000E14D318000000E8
:0E42560000531AE91AE9191A1AFA19431A0044
:00000001FF
