:100000000C94B6010C94DE010C94DE010C94700B80
:100010000C949A0B0C94C40B0C94DE010C94DE012E
:100020000C94DE010C94DE010C94DE010C94DE01D4
:100030000C94DE010C94DE010C94DE010C94DE01C4
:100040000C949D1D0C94DE010C94421B0C94C51B5A
:100050000C94DE010C94DE010C94DE010C94DE01A4
:100060000C94DE010C94DE014465766963652061C1
:100070006C7265616479206B6E6F776E00435243DA
:10008000206973206E6F742076616C6964202D2066
:1000900069676E6F72696E67206465766963652152
:1000A000000D0A20312D5769726520446576696319
:1000B0006520666F756E643A0000C201000100059C
:1000C000000500030000E1000001000F000F000D1B
:1000D0000000960000020019001A001700127A00B2
:1000E000000700200021001D00807000000B00238D
:1000F0000023002000004B000014003700370034BC
:1001000000403800001E004B004B004800802500D6
:10011000003200720072007000C01200006E00E930
:1001200000E900E60060090000E500D801D801D52B
:1001300001B0040000D301B403B403B103580200BA
:1001400000B4036707670762072C0100006707DD3B
:100150000EDD0EDA0E005EBCE2613FDD83C29C7EE6
:1001600020A3FD1F419DC3217FFCA2401E5F01E330
:10017000BD3E6082DC237D9FC1421CFEA0E1BF5DCD
:100180000380DE3C62BEE0025CDF81633D7C22C016
:100190009E1D43A1FF4618FAA427799BC584DA382F
:1001A00066E5BB5907DB856739BAE406581947A5E8
:1001B000FB7826C49A653BD987045AB8E6A7F91B91
:1001C00045C6987A24F8A6441A99C7257B3A6486CE
:1001D000D85B05E7B98CD2306EEDB3510F4E10F2FB
:1001E000AC2F7193CD114FADF3702ECC92D38D6F98
:1001F00031B2EC0E50AFF1134DCE90722C6D33D165
:100200008F0C52B0EE326C8ED0530DEFB1F0AE4C7D
:100210001291CF2D73CA947628ABF517490856B4BE
:10022000EA6937D58B5709EBB536688AD495CB295F
:1002300077F4AA4816E9B7550B88D6346A2B759718
:10024000C94A14F6A8742AC896154BA9F7B6E80A45
:1002500054D7896B354669726D7761726520566532
:100260007273696F6E0048617264776172652056BF
:10027000657273696F6E20616E64205479706500D9
:10028000777269746520656570726F6D0072656163
:100290006420656570726F6D0063726320657272B1
:1002A0006F72000A526563656976696E67200A009D
:1002B0000A53656E64696E670A0070617273696ED5
:1002C000672066726F6D2061636B776169742000CF
:1002D00053656E64696E672041434B206F72204204
:1002E000726F6164636173740052656365697665FA
:1002F000642041434B0070617273696E67206672BF
:100300006F6D206C6F6F702E2E2E00000000002489
:100310000027002A0000000000250028002B000014
:10032000000000230026002900040404040404043F
:100330000402020202020203030303030301020494
:100340000810204080010204081020010204081057
:100350002000000007000201000003040600000066
:100360000000000000003A05781B330511241FBE71
:10037000CFEFD8E0DEBFCDBF11E0A0E0B1E0ECE907
:10038000F4E402C005900D92A63CB107D9F714E041
:10039000A6ECB1E001C01D92AC3BB107E1F713E060
:1003A000CAE6D3E004C02297FE010E940622C636A8
:1003B000D107C9F70E94881D0C9441220C940000BB
:1003C000A0E0B0E0E6EEF1E00C941222EC01A8808F
:1003D000B980CA80DB80A114B104C104D10441F406
:1003E00084E2A82E89EDB82E8BE5C82E87E0D82EA2
:1003F000C601B5012DE133EF41E050E00E94D52167
:1004000027EA31E440E050E00E9481217B018C0129
:10041000C601B5012DE133EF41E050E00E94D52146
:10042000CA01B9012CEE34EF4FEF5FEF0E9481213A
:100430006E0D7F1D801F911F97FF04C0615070409B
:1004400080409048688379838A839B839B01AC01B9
:100450005F77B901CA01CDB7DEB7EAE00C942E226E
:100460000E94E00108958CE791E00E94E001089568
:1004700060937C0170937D0180937E0190937F0156
:100480000895FB01DC0104C08D910190801921F4D5
:1004900041505040C8F7881B990B0895FB01DC01BF
:1004A00002C001900D9241505040D8F70895DC01F0
:1004B00001C06D9341505040E0F70895AEE0B0E0C8
:1004C000E4E6F2E00C9418220D891E8986E08C8304
:1004D0001A8309838FEF9FE79E838D839E01275E9A
:1004E0003F4FCE0101966F89788DA9010E9482024B
:1004F0002F813885020F131FF80110822E96E4E039
:100500000C943422ABE0B0E0E8E8F2E00C940A226C
:100510003C012B015A01FC0117821682838181FD67
:1005200003C06FEF7FEFC6C19AE0892E1E010894C9
:10053000211C311CF3012381F20123FD859123FF4E
:1005400081912F01882309F4B2C1853239F423FD4A
:10055000859123FF81912F01853229F490E0B30129
:100560000E947504E7CF982FFF24EE249924FFE121
:10057000FF15D0F09B3269F09C3228F4903259F08C
:10058000933291F40EC09D3249F0903369F441E00A
:1005900024C052E0F52A84E0F82A28C098E0F92A1D
:1005A00025C0E0E1FE2A22C0F7FC29C0892F805334
:1005B0008A3070F4F6FE05C0989C902C1124980E99
:1005C00015C0E89CE02C1124E80EF0E2FF2A0EC0D2
:1005D0009E3229F4F6FC6BC140E4F42A07C09C3635
:1005E00019F450E8F52A02C0983649F4F20123FDC7
:1005F000959123FF91912F01992309F0B8CF892F6D
:100600008554833018F08052833038F444E050E051
:10061000A40EB51E5FE359830FC0933631F09337B4
:1006200079F0933509F056C020C0F50180818983A7
:1006300042E050E0A40EB51E610101E010E012C0DE
:10064000F501C080D180F6FC03C06FEF7FEF02C0E0
:10065000692D70E042E050E0A40EB51EC6010E9474
:100660006A048C015FE7F52214C0F501C080D180D7
:10067000F6FC03C06FEF7FEF02C0692D70E042E02F
:1006800050E0A40EB51EC6010E945F048C0150E824
:10069000F52AF3FE07C01AC080E290E0B3010E9481
:1006A0007504EA948E2D90E008171907A8F30EC080
:1006B000F601F7FC8591F7FE81916F0190E0B3019F
:1006C0000E947504E110EA940150104001151105D3
:1006D00079F7EAC0943611F0993669F5F7FE08C04B
:1006E000F501208131814281538184E090E00AC08C
:1006F000F501808191819C01442737FD4095542F5D
:1007000082E090E0A80EB91E9FE6F92257FF09C0CB
:1007100050954095309521953F4F4F4F5F4FE0E802
:10072000FE2ACA01B901A1012AE030E00E94A10419
:10073000D82ED21840C0953729F41F2D1F7E2AE0ED
:1007400030E01DC01F2D197F9F3661F0903720F4D7
:10075000983509F0ACC00FC0903739F0983709F0E0
:10076000A6C004C028E030E00AC0106114FD146087
:1007700020E130E004C014FD166020E132E017FFF4
:1007800008C0F501608171818281938144E050E06D
:1007900008C0F50180819181BC0180E090E042E0D9
:1007A00050E0A40EB51EA1010E94A104D82ED218BB
:1007B0008FE7F82EF122F6FE0BC05EEFF522D9147A
:1007C00038F4F4FE07C0F2FC05C08FEEF82202C038
:1007D0001D2D01C0192DF4FE0DC0FE01ED0DF11D02
:1007E0008081803319F499EEF92208C01F5FF2FE70
:1007F00005C003C08F2D867809F01F5F0F2DF3FC15
:1008000014C0F0FE0FC01E1510F09D2C0BC09D2CC7
:100810009E0C911A1E2D06C080E290E0B3010E944A
:1008200075041F5F1E15C0F304C01E1510F4E11AF5
:1008300001C0EE2404FF0FC080E390E0B3010E94EA
:10084000750402FF1DC001FD03C088E790E00EC0E3
:1008500088E590E00BC0802F867891F001FF02C000
:100860008BE201C080E2F7FC8DE290E0B3010E94D0
:10087000750406C080E390E0B3010E9475049A9469
:10088000D914C0F3DA94F101ED0DF11D808190E0EF
:10089000B3010E947504DD20A9F706C080E290E054
:1008A000B3010E947504EA94EE20C1F743CEF30130
:1008B00066817781CB012B96E2E10C942622FC0124
:1008C0000590615070400110D8F7809590958E0F7B
:1008D0009F1F0895FC016150704001900110D8F7EE
:1008E000809590958E0F9F1F08950F931F93CF9320
:1008F000DF938C01EB018B8181FF1BC082FF0DC058
:100900002E813F818C819D812817390764F4E8810D
:10091000F9810193F983E88306C0E885F985802F82
:100920000995892B31F48E819F8101969F838E8357
:1009300002C00FEF1FEFC801DF91CF911F910F9100
:100940000895FA01AA27283051F1203181F1E89465
:100950006F936E7F6E5F7F4F8F4F9F4FAF4FB1E0B2
:100960003ED0B4E03CD0670F781F891F9A1FA11DAD
:10097000680F791F8A1F911DA11D6A0F711D811DAE
:10098000911DA11D20D009F468943F912AE0269F73
:1009900011243019305D3193DEF6CF010895462FD2
:1009A0004770405D4193B3E00FD0C9F7F6CF462FB3
:1009B0004F70405D4A3318F0495D31FD405241931C
:1009C00002D0A9F7EACFB4E0A695979587957795D9
:1009D0006795BA95C9F700976105710508959B0160
:1009E000AC010A2E06945795479537952795BA95E9
:1009F000C9F7620F731F841F951FA01D08950895E6
:100A000008956B3018F06DE475E908C0E62FF0E04A
:100A1000EE0FFF1FEA59FD4F60817181CB010895F0
:100A200081309105B1F46F5F7F4FE1F486EB92E086
:100A300061E10E94761084EC92E062E174E042E0B1
:100A40000E9498148BE891E090936B0380936A0363
:100A50000895892B39F46F5F7F4F21F484EC92E085
:100A60000E94AF14089580E090E06FEF7FEF0E9446
:100A70001005089581E090E06FEF7FEF0E94100570
:100A800008950F931F93CF93DF9306EC11E0C0E11D
:100A9000D0E009C08EEB93E0BE010E94AC10F801DB
:100AA00081938F012196F2E006361F0799F7E7EC54
:100AB000F1E065E04AE050E026E930E080818F3FD8
:100AC00009F46083828193818F5F9F4F11F4538378
:100AD0004283848195818F5F9F4F11F435832483F6
:100AE000709682E0E736F80749F7DF91CF911F91C2
:100AF0000F910895EF92FF920F931F93CF93DF937F
:100B000020E030E040E050E0C2E0D0E0EE24F22E01
:100B1000032F142F8EEB93E0BE010E94AC10282F00
:100B200030E040E050E02E293F29402B512B219608
:100B3000C630D10559F7B901CA01DF91CF911F9194
:100B40000F91FF90EF9008950E94F11D685E734031
:100B50008040904090F080916C03882371F48091E4
:100B600068039091690360E00E942A1210926C035E
:100B7000882319F481E080936C030895BC0180916F
:100B8000BF039091C003009711F00E943D1D08958E
:100B9000FF920F931F93CF93DF93C7ECD1E0FF2415
:100BA00000E010E080E091E00E94BE058091BF036C
:100BB0009091C003009729F06F2D4AE050E00E9409
:100BC000D81C8FE091E00E94BE0582E191E00E9476
:100BD000BE056A817B818091BF039091C00300971D
:100BE00021F04AE050E00E94C71C8FE091E00E9493
:100BF000BE0581E291E00E94BE056C817D818091FD
:100C0000BF039091C003009721F04AE050E00E949A
:100C1000C71C8FE091E00E94BE0580E391E00E9436
:100C2000BE0568818091BF039091C003009721F0B9
:100C30004AE050E00E94D81C8FE091E00E94BE057F
:100C40008FE391E00E94BE05F801EA59FD4F6081F3
:100C500071818091BF039091C003009721F04AE019
:100C600050E00E942A1D8FE091E00E94BE058EE4B4
:100C700091E00E94BE05F801E658FD4F6081718148
:100C80008091BF039091C003009721F04AE050E0AB
:100C90000E942A1D8FE091E00E94BE058DE591E043
:100CA0000E94BE058091BF039091C003009731F070
:100CB00060E170E04AE050E00E94C71C8FE091E0E4
:100CC0000E94BE058FE091E00E94BE05F3940E5F86
:100CD0001F4F60968AE0F81609F064CFDF91CF913C
:100CE0001F910F91FF900895CF93DF93C82FD0E00D
:100CF00024E0CC0FDD1F2A95E1F7FE01EA53FE4FF9
:100D000087818F3F89F086EB92E00E94950FC35355
:100D1000DE4F86EB92E0BE010E94740F86EB92E0FC
:100D200064E441E00E94340FDF91CF910895CF92A7
:100D3000DF92EF92FF920F931F93DF93CF93CDB784
:100D4000DEB72C970FB6F894DEBF0FBECDBFE82EEE
:100D5000FF248701E4E0000F111FEA95E1F7F80195
:100D6000EA53FE4F87818F3F19F4E3E373E92DC007
:100D700086EB92E00E94950F03531E4F86EB92E0A4
:100D8000B8010E94740F86EB92E06EEB40E00E9487
:100D9000340F8E010F5F1F4F7AE0C72ED12CCC0E7F
:100DA000DD1E86EB92E00E94E30EF80181938F0135
:100DB000EC15FD05B1F7CE01019668E00E949E0E8C
:100DC0009985891729F0ECEE71E988E863EC40C059
:100DD0009A8180E02981422F50E0482B592B64E012
:100DE000EE0CFF1C6A95E1F786EC91E0E80EF91E27
:100DF000F7018781803189F433E0440F551F3A951C
:100E0000E1F788858031A9F42F818CE090E0821B86
:100E10009109407F480F591F0CC08D81807611F4D5
:100E2000487F07C0803211F44C7F03C0803409F43E
:100E30004E7FBA01882777FD8095982F0E949220D7
:100E400020E030E040E85DE30E941E21E62F692F9C
:100E50002E2F372F482F562FB901CA012C960FB6C7
:100E6000F894DEBF0FBECDBFCF91DF911F910F91E0
:100E7000FF90EF90DF90CF900895EF92FF920F9345
:100E80001F930E94F11D9B01AC018091760390910C
:100E90007703A0917803B091790379018A01E81A68
:100EA000F90A0A0B1B0BD801C701885E9340A040CA
:100EB000B04084F120937603309377034093780316
:100EC00050937903009180010F3F19F41092800133
:100ED0001DC0802F0E94970610E0000F111F0A59B5
:100EE0001D4F20E030E048EC52E40E941E210E9499
:100EF0005F20F801718360838091800190E001960A
:100F00006AE070E00E94A0218093800180918001BE
:100F10000E9474061F910F91FF90EF9008950F9318
:100F20001F93CF93DF9306EC11E0C0E1D0E00CC03B
:100F30008091680390916903BE01F80141918F018E
:100F400020E00E94DC112196F2E006361F0781F7AF
:100F5000DF91CF911F910F910895AF92BF92CF92E1
:100F6000DF92FF920F931F93DF93CF93CDB7DEB73E
:100F700028970FB6F894DEBF0FBECDBF86EB92E088
:100F80000E94910EFF246E010894C11CD11C09E03F
:100F9000A02EB12CAC0EBD1E01C0F39489E08F15BC
:100FA00068F0EF2DF0E014E0EE0FFF1F1A95E1F767
:100FB000EA53FE4F87818F3F81F704C0EAE0FE16B7
:100FC00009F46EC086EB92E0B6010E94E00F882320
:100FD00009F466C08091BF039091C003009721F08F
:100FE00061EA70E00E94151C86018CE691E00E9487
:100FF000BE05F80160818091BF039091C003009706
:1010000021F040E150E00E94D81C0F5F1F4F0A15ED
:101010001B0559F7C60167E00E949E0E9885891747
:1010200049F08091BF039091C0030097B9F16DE73B
:1010300070E022C000E010E0B801B4E0660F771F56
:10104000BA95E1F763537E4FC60148E050E00E9435
:101050004102009749F0802F8F5F0F5F1F4F0A30CA
:10106000110551F78A3058F48091BF039091C00365
:101070000097A1F068E670E00E94151C0FC0EF2DEC
:10108000F0E0A4E0EE0FFF1FAA95E1F7E353FE4F57
:10109000D60188E00D9001928150E1F7FF2481CFC5
:1010A0000E948F0728960FB6F894DEBF0FBECDBF03
:1010B000CF91DF911F910F91FF90DF90CF90BF9064
:1010C000AF9008950F931F9385E060E00E94441E47
:1010D00086E061E00E94441E82E061E00E94441EBE
:1010E00082E060E00E94831E88E062E00E94441E6D
:1010F00084E061E00E94441E8CE190E00E949A1D11
:10110000182F092F65E046E020E00E94630E812F32
:10111000902F40E05BE460E070E00E94EE0B1093E3
:10112000BF030093C00382E194E040E05BE460E031
:1011300070E026E20E943A1AAEE8B2E080E090E069
:101140002DE435E9FC01EA59FD4F31832083FC0190
:10115000E658FD4F318320831D921D921D921D92F2
:1011600002968431910571F78AE693E00E94410569
:101170000E94AD0787E090E00E949A1D182F092F6A
:101180006AE673E044EC52E021E80E94C911109332
:101190006803009369038EE691E00E94BE050E94F9
:1011A000C8051F910F910895CF93DF9386EC91E0CE
:1011B0006FEF70E040EA50E00E945702C2E0D0E0DA
:1011C0008EEB93E0BE014FEF0E94B3102196C63024
:1011D000D105B1F7E7ECF1E065E04AE050E026E93F
:1011E00030E080818F3F09F46083828193818F5F3B
:1011F0009F4F11F453834283848195818F5F9F4F6A
:1012000011F435832483709682E0E736F80749F7B6
:101210000E94AD07DF91CF910895EF92FF920F9357
:101220001F930E94F11D7B018C0188E00E94D71E54
:1012300020E0892B09F421E080917103823009F4C8
:1012400046C0833030F4882371F0813009F094C0B7
:101250000FC0843009F46AC0843008F43DC0853082
:1012600009F08AC083C0222309F451C081E04DC037
:101270008091720390917303A0917403B0917503F0
:10128000222381F0A8019701281B390B4A0B5B0B25
:10129000DA01C90189589341A040B0400CF46CC0F8
:1012A00082E061C0B801A701481B590B6A0B7B0B98
:1012B000453651056105710514F00E94AD07809116
:1012C00068039091690360E00E942A1253C02223B0
:1012D00009F052C083E019C08091720390917303AA
:1012E000A0917403B0917503B801A701481B590B75
:1012F0006A0B7B0BDB01CA014436510561057105A0
:101300000CF43AC0222361F084E080937103E092F0
:101310007203F092730300937403109375032CC04F
:1013200081519742A040B0403CF124C080917203AB
:1013300090917303A0917403B0917503B801A70154
:10134000481B590B6A0B7B0BDB01CA014436510564
:10135000610571058CF0222369F0895B9B40A040F8
:10136000B04054F085E08093710306C0222321F43D
:101370000E94D4081092710380917103853040F46B
:10138000823090F4882341F0813009F048C007C0D2
:10139000853009F044C01CC084E060E002C084E0F5
:1013A00061E00E94831E3BC080916D0390916E03AB
:1013B000A0916F03B0917003A8019701281B390B0E
:1013C0004A0B5B0B253631054105510544F115C02B
:1013D00080916D0390916E03A0916F03B0917003A3
:1013E000B801A701481B590B6A0B7B0BDB01CA0133
:1013F0008F5E9240A040B04094F084E00E94D71EDF
:1014000060E0892B09F461E084E00E94831EE09291
:101410006D03F0926E0300936F03109370031F919E
:101420000F91FF90EF9008952F923F924F925F920D
:101430006F927F928F929F92AF92BF92CF92DF92E4
:10144000EF92FF920F931F93DF93CF9300D00F92F1
:10145000CDB7DEB784EC92E00E948D190E94A405FE
:101460000E943D070E940D090E94F11D4B015C0185
:101470002EE8422E22E0522E97EC692E91E0792E32
:1014800086E692E09B838A838AE7282E82E0382EC4
:101490001982F3016281738161157105C9F0F2014E
:1014A00080819181A281B38185017401E81AF90AD2
:1014B0000A0B1B0B80E090E028EE33E040E050E0A8
:1014C0000E948121E616F706080719070CF456C09A
:1014D000F3016481758161157105C1F0F2018081AC
:1014E0009181A281B38185017401E81AF90A0A0B7E
:1014F0001B0B80E090E028EE33E040E050E00E94DB
:101500008121E616F70608071907CCF4F30140819C
:101510004423A1F1EA81FB8120813181F1018081A5
:101520009181281B390B37FF03C0309521953F4F20
:10153000FAE04F9FC001112428173907F8F0E09016
:101540006803F0906903EA81FB81C080D1800E942A
:101550007A058B019C01C7016981A6010E94F811DF
:10156000813061F0EA81FB8180819181F101918379
:101570008083F20180829182A282B382F981FF5F2F
:10158000F98384E090E0480E591EE0E1F0E06E0E31
:101590007F1E8A819B8102969B838A83E2E0F0E032
:1015A0002E0E3F1EF981FA3009F073CF0F900F9085
:1015B0000F90CF91DF911F910F91FF90EF90DF90EF
:1015C000CF90BF90AF909F908F907F906F905F90E3
:1015D0004F903F902F9008950F931F93CF93DF93D9
:1015E000DC015B967C915B97769571701E96ED9110
:1015F000FC911F971D969C911D97772329F0808160
:10160000892309F468C004C08081892309F063C07C
:1016100053968D919C91549720E001972FEF8F3F27
:101620009207D9F75596CD91DC9156971E96ED917C
:10163000FC911F971D961C911D9760E031E040E0E2
:1016400050E000E0CE01202F01972FEF8F3F92074F
:10165000D9F78081812311F0632B03C0832F8095FC
:101660006823330F4F5F5F4F4830510559F7579646
:101670008D919C91589720E0FC01322F31973FEFDC
:10168000EF3FF307D9F701972FEF8F3F9207D9F775
:10169000711160958091BC032091BD0390E001968B
:1016A0008F73907030E08217930779F0E091BC035C
:1016B000F0E0E458FC4F60838091BC0390E0019619
:1016C0008F7390708093BC0306C05B968C915B9780
:1016D00081605B968C93DF91CF911F910F9108955C
:1016E0001F920F920FB60F9211242F933F934F9397
:1016F0005F936F937F938F939F93AF93BF93EF937A
:10170000FF9380917A0390917B03009711F00E94E0
:10171000EC0AFF91EF91BF91AF919F918F917F91D3
:101720006F915F914F913F912F910F900FBE0F904E
:101730001F9018951F920F920FB60F9211242F939E
:101740003F934F935F936F937F938F939F93AF9349
:10175000BF93EF93FF9380917A0390917B0300975F
:1017600011F00E94EC0AFF91EF91BF91AF919F9110
:101770008F917F916F915F914F913F912F910F903A
:101780000FBE0F901F9018951F920F920FB60F92D9
:1017900011242F933F934F935F936F937F938F9376
:1017A0009F93AF93BF93EF93FF9380917A039091B0
:1017B0007B03009711F00E94EC0AFF91EF91BF911B
:1017C000AF919F918F917F916F915F914F913F91D9
:1017D0002F910F900FBE0F901F901895CF92DF9210
:1017E000EF92FF920F931F93CF93DF93EC017A0157
:1017F0008B011A8E198E188E1F8A1E8A1D8A1C8ACA
:101800001B8A20E030E06901CC0CDD1CC20ED31E27
:10181000B601660F771F660F771FAB0147545F4F06
:10182000FA0185919591A591B4918E159F05A00718
:10183000B107E9F4FB01E354FF4F859194919C8B30
:101840008B8BFB01E154FF4F859194919E8B8D8B87
:10185000FB01EF53FF4F85919491988F8F8BFB0184
:10186000ED53FF4F859194919A8F898F06C02F5F1A
:101870003F4F2D30310509F0C6CF8F89988D892BC8
:1018800009F449C04C85463108F03DC0909168008C
:10189000483010F484E005C04E3010F082E001C002
:1018A00081E0892B80936800483028F4EDE6F0E071
:1018B000ADE6B0E00BC04E3028F0ECE6F0E0ACE670
:1018C000B0E004C0EBE6F0E0ABE6B0E050814830B9
:1018D00040F481E090E002C0880F991F4A95E2F73A
:1018E00010C0242F30E04E3018F42850304002C091
:1018F0002E50304081E090E002C0880F991F2A9559
:10190000E2F7852B8C93898D9A8D20E001972FEF3C
:101910008F3F9207D9F780917A0390917B038C17C0
:101920009D0781F08B8D8E7F8B8F9FB7F8941092DF
:10193000BC038091BC038093BD03D0937B03C09311
:101940007A039FBFDF91CF911F910F91FF90EF908E
:10195000DF90CF90089520917A0330917B03281770
:10196000390731F49091BD038091BC03981719F4A5
:101970002FEF3FEF0FC0E091BD03F0E0E458FC4FC4
:1019800020818091BD0390E001968F7390708093C9
:10199000BD0330E0C901089520917A0330917B03A3
:1019A0002817390719F020E030E00EC08091BC0301
:1019B0002091BD0390E0805C9F4F821B910960E401
:1019C00070E00E94A0219C01C9010895FF920F932D
:1019D0001F93DC0159968D919C915A97892B49F45C
:1019E00081E090E013969C938E93129720E030E074
:1019F000DDC0FFB6F8945B968C915B975196ED91A4
:101A0000FC91529750962C91509781FFD4C08081C1
:101A1000822B808359968D919C915A97049620E051
:101A200001972FEF8F3F9207D9F710E040E820E0B1
:101A300030E070E0842F90E086239723892B09F013
:101A40001F5F46952F5F3F4F2830310599F75B9612
:101A50008C915B9781FF4FC031E040E050E000E0A7
:101A6000832F90E0862397235196ED91FC91529716
:101A700050962C915097892B29F08081209528230E
:101A8000208303C08081822B808359968D919C9105
:101A90005A97202F01972FEF8F3F9207D9F7330FD7
:101AA0004F5F5F4F48305105D9F65196ED91FC914B
:101AB000529750962C91509710FF05C08081209529
:101AC0002823208303C08081822B808359968D91A7
:101AD0009C915A9720E001972FEF8F3F9207D9F7FB
:101AE0005196ED91FC915297908150968C91509720
:101AF000809589234DC031E040E050E000E0832F25
:101B000090E0862397235196ED91FC915297509641
:101B10002C915097892B21F08081822B808304C0E7
:101B2000808120952823208359968D919C915A97E6
:101B3000202F01972FEF8F3F9207D9F7330F4F5F79
:101B40005F4F48305105D9F65196ED91FC9152976F
:101B500050962C91509710FF04C08081822B808377
:101B600004C0808120952823208359968D919C91D3
:101B70005A9720E001972FEF8F3F9207D9F75196A0
:101B8000ED91FC915297808150969C915097892BB2
:101B90008083FFBE59968D919C915A9720E00197C2
:101BA0002FEF8F3F9207D9F721E030E0C9011F9155
:101BB0000F91FF90089580812095282320832ACFBC
:101BC00020917A0330917B032817390749F49FB796
:101BD000F8941092BC038091BC038093BD039FBF17
:101BE000089520917A0330917B032817390731F447
:101BF0009091BD038091BC03981719F42FEF3FEF2C
:101C00000AC0E091BD03F0E0E458FC4F8081282F2A
:101C1000332727FD3095C90108951F93CF93DF9394
:101C2000EC01162F862F60E00E94441E8B8D81FDF3
:101C300004C0812F61E00E94831E1C87212F30E0A9
:101C4000C901835C9C4FFC0184918D87275D3C4FCB
:101C5000F9016491E62FF0E0EE0FFF1FE15EFC4F0B
:101C6000859194919F878E87DF91CF911F910895E1
:101C7000FF920F931F938C01F62E862F61E00E9436
:101C8000441E8F2D61E00E94831E8F2D90E0FC0189
:101C9000E35CFC4FE491D8015096EC935097875D3C
:101CA0009C4FFC016491E62FF0E0EE0FFF1FEB5E0E
:101CB000FC4F8591949152969C938E9351971F91CE
:101CC0000F91FF900895FF920F931F938C01F62EB2
:101CD000FC011382128288EE93E0A0E0B0E08483DE
:101CE0009583A683B78387E991E091838083148AE3
:101CF000138A168A158A108E178A128E118E838D7A
:101D00002170220F8C7F822B838FC801642F0E9449
:101D1000380EC8016F2D0E940D0E1F910F91FF907C
:101D20000895FC0113861586148687E090E01286DC
:101D30003197009711F00197FACF0895DC0180E008
:101D40000BC0E82FF0E08D9190E0E827F927EB5ADF
:101D5000FE4FE49161508E2F662399F70895DF922C
:101D6000EF92FF920F931F93FC01E080018112819B
:101D7000F894F80181818E2981838281DE2CD094B0
:101D80008D21828383E090E00E94FF1DF801818114
:101D90008D2181838AE090E00E94FF1DF80100817F
:101DA000789485E390E00E94FF1D80E010E0FF241E
:101DB0000E211F21012B09F081E01F910F91FF904F
:101DC000EF90DF900895EF92FF920F931F93CF93C0
:101DD000DF937C0101E010E0C0E0D0E0C7010E9489
:101DE000AF0E8111102B000F2196C830D105B1F72D
:101DF000812FDF91CF911F910F91FF90EF90089568
:101E00001F93CF93DF93FC011081C181D281912F69
:101E1000909560FF12C0F8948A8189238A83898112
:101E2000812B89838AE090E00E94FF1D8A81812BAB
:101E30008A83789487E390E011C0F8948A8189239B
:101E40008A838981812B898381E490E00E94FF1D30
:101E50008A81812B8A83789485E090E00E94FF1D1F
:101E6000DF91CF911F910895CF92DF92EF92FF9271
:101E70000F931F93CF93DF938C01E42EFF24F394F1
:101E8000C0E0D0E0C62EDD2460E08F2D90E08C21F4
:101E90009D21892B09F061E0C8010E94000FFF0C11
:101EA0002196C830D10581F7EE20A9F4F894D80125
:101EB0001196ED91FC91129791818C9180959823C8
:101EC00091831196ED91FC91129792818C9180955E
:101ED000982392837894DF91CF911F910F91FF9077
:101EE000EF90DF90CF900895EF92FF920F931F93A2
:101EF000CF93DF938C017B0165E540E00E94340FB6
:101F0000C0E0D0E0F701EC0FFD1FC801608140E0A8
:101F10000E94340F2196C830D105A1F7DF91CF91EF
:101F20001F910F91FF90EF900895DF92EF92FF9233
:101F30000F931F93CF93DF93FC010081C181D28166
:101F4000F8948981D02ED0948D21898378941DE7CF
:101F5000E02EFF24115059F182E090E00E94FF1D15
:101F6000888190E08E219F21892BA1F3F8948A81AA
:101F70008D218A838981802B8983789480EE91E0FA
:101F80000E94FF1DF89489818D21898386E490E069
:101F90000E94FF1D888110E090E0E822F922EF28DE
:101FA00009F411E078948AE991E00E94FF1D812FE5
:101FB000DF91CF911F910F91FF90EF90DF900895E7
:101FC000AF92BF92DF92EF92FF920F931F93CF9346
:101FD000DF93EC015B018D85882309F061C0CE01A0
:101FE0000E94950F882329F41B861D861C8690E08D
:101FF0006BC0CE0160EF40E00E94340F01E0DD24B1
:10200000EE24FF24F394CE010E94AF0E182FCE01D0
:102010000E94AF0E113019F48130E1F439C0181765
:1020200009F58B85081770F460E0FE01EE0DF11DD7
:10203000838190E02F2D30E0822393231816190618
:102040004CF003C060E0081729F0093008F04CC0DC
:102050000C874AC0FE01EE0DF11D83818F29838319
:1020600061E009C0612FFE01EE0DF11D9F2D9095DD
:10207000838189238383CE010E94000F0F5FFF0CB1
:1020800019F4E394FF24F39487E08E1508F0BBCF96
:10209000013430F0DB86DD2011F581E08D871FC033
:1020A0001B861D861C8690E0DE0120E030E0F501F5
:1020B000E20FF31F13968C91139780832F5F3F4F8E
:1020C00011962830310599F7892FDF91CF911F9113
:1020D0000F91FF90EF90DF90BF90AF9008958B81AC
:1020E0008823F1F291E0E0CFD02EBDCFFF920F9385
:1020F0001F938C01F62E862F60E00E94441E8F2DC8
:1021000090E0FC01E35CFC4FE491D801EC93875D27
:102110009C4FFC016491E62FF0E0EE0FFF1FE15EA3
:10212000FC4F8591949112969C938E9311971B96D8
:102130001C921B971D961C921D971C961C92F801D1
:1021400087E090E012863197009711F00197FACF5F
:102150001F910F91FF900895F999FECF72BD61BD57
:10216000F89A80B50895F999FECF1FBA72BD61BD86
:1021700040BD0FB6F894FA9AF99A0FBE0895FC0183
:1021800087EA91E0918380830895CF92DF92EF9266
:10219000FF920F931F93CF93DF938C01D62EC42E03
:1021A0007901EC01AD81BE81ED91FC911197E901BE
:1021B00048810190F081E02DCD0150E00995F801B2
:1021C000A581B681ED91FC9111970280F381E02DFC
:1021D000CD016D2D4C2D97010995DF91CF911F9168
:1021E0000F91FF90EF90DF90CF9008950F931F9382
:1021F0008C01DC011396ED91FC91149784E08587A6
:102200001396ED91FC91149789E686871396ED91CC
:10221000FC911497678715960D90BC91A02DED91B8
:10222000FC9111970480F581E02DCD010995D8012D
:102230001396ED91FC911497908B1396ED91FC9170
:102240001497818B1F910F910895CF92DF92EF9297
:10225000FF920F931F93DF93CF93CDB7DEB76497B1
:102260000FB6F894DEBF0FBECDBF8B01FC0183819A
:1022700094810E94B5142DB73EB7285030400FB658
:10228000F8943EBF0FBE2DBFEDB6FEB60894E11C1C
:10229000F11C6E010894C11CD11CEDB7FEB7D282AF
:1022A000C18224E731E0F7013383228320E836E955
:1022B00048E950E00E94B321F70164837583868367
:1022C00097830E945E0288E4F801808382E4818320
:1022D00087E58283D8011396F60187E001900D927D
:1022E0008150E1F72DB73EB7285F3F4F0FB6F89406
:1022F0003EBF0FBE2DBF64960FB6F894DEBF0FBE73
:10230000CDBFCF91DF911F910F91FF90EF90DF90A4
:10231000CF900895CF92DF92EF92FF920F931F9389
:10232000CF93DF936C0140E050E060E070E0CCEFD1
:10233000D3E0EE24F42E052F162F8EEB93E0BE0192
:102340000E94AC10482F50E060E070E04E295F29F9
:10235000602B712B219684E0C030D80751F74F3F96
:10236000EFEF5E07EFEF6E07EFEF7E0721F44FEF21
:102370005FEF6FEF72E4F601838194810E94E119AF
:10238000DF91CF911F910F91FF90EF90DF90CF9051
:102390000895FC01DA0187EA91E0918380837683D6
:1023A0006583548343831396FC93EE9312972283A1
:1023B000CF010E948A1108951F93CF93DF93EB0101
:1023C000142F222321F483E06C3F78076CF48EEB0A
:1023D00093E0BE010E94AC10181731F08EEB93E031
:1023E000BE01412F0E94B310DF91CF911F9108953C
:1023F0000F931F93DC011396ED91FC9114970087C6
:1024000011872287338788EF84871396ED91FC919B
:10241000149784E085871396ED91FC91149789E6D3
:1024200086871396ED91FC91149767871396ED912B
:10243000FC911497508B1396ED91FC911497418B5E
:1024400013968D919C91149761E00E944B181F91F7
:102450000F9108950F931F938C01DC011396ED915A
:10246000FC9114978FEF9FEFAFEFBFEF80879187BD
:10247000A287B38788EF8487D8011396ED91FC91EA
:10248000149780E185871396ED91FC91149781E470
:1024900086871396ED91FC91149767871396ED91BB
:1024A000FC91149712968C911297808B1396ED9154
:1024B000FC911497118A1396ED91FC91149783E087
:1024C000828B1396ED91FC91149786E0838B139683
:1024D0006D917C9114976C5E7F4FC8010E9425110D
:1024E000F8018381948161E00E944B181F910F9144
:1024F00008952F923F924F925F926F927F928F92A8
:102500009F92AF92BF92CF92DF92EF92FF920F9382
:102510001F93CF93DF936C01EB011B818C81D6015C
:102520001396ED91FC911497282F269526952695C4
:102530002C5F25872450282E3324C101877090708A
:10254000892B11F02B5F258745859F01225F3F4F27
:10255000C90160E070E050E00E945702D601139676
:10256000ED91FC91149785E68687898187878A811A
:10257000808B8B81818BA12EBB2400E010E0EE24A8
:10258000FF24250131E0632E712C812C912C34C065
:10259000BE016E0D7F1D8EEB93E00E94AC108F3F4D
:1025A00001F1D6011396ED91FC911497C80123E037
:1025B000959587952A95E1F70496E80FF91FC801CC
:1025C00087709070A401930104C0220F331F441F31
:1025D000551F8A95D2F7DA01C9012685282B26874F
:1025E00004C02196C415D5059CF20F5F1F4FEA0C5D
:1025F000FB1C201631061CF0C0E0D0E0F3CFDF91C9
:10260000CF911F910F91FF90EF90DF90CF90BF90EF
:10261000AF909F908F907F906F905F904F903F9082
:102620002F9008958F929F92AF92BF92CF92DF9298
:10263000EF92FF920F931F93DF93CF9300D0CDB70C
:10264000DEB76C017B01142F222309F059C1DC0194
:102650001396ED91FC91149784819581A681B781A1
:1026600080879187A287B38788E78487FB01808171
:10267000833509F492C08435A8F4853409F454C034
:10268000863448F4813409F433C18334F1F1803461
:1026900009F026C11DC08B3409F42AC1823509F026
:1026A0001FC146C08E3609F4C7C08F3638F487354F
:1026B00009F478C0883609F013C1A5C0863709F43B
:1026C000D7C0883709F4F2C0833709F009C1C3C005
:1026D000DB0111968C918136A1F4463091F40CEF18
:1026E00013E0C601B801F701428121E00E94DC112C
:1026F0000894E11CF11C0F5F1F4FF4E000301F072E
:1027000081F7C6010E948A11EBC0D6011596ED91A2
:10271000FC911697A081B18116962D913C91179747
:10272000CF01F9010995DCC0C6010E947912D1C020
:10273000443009F0D5C08091BF039091C003009749
:1027400021F06DE872E00E94151CF701918180E094
:102750002281A22EBB24A82AB92A00E012C0202F71
:1027600030E03A832983B9016A0D7B1D8EEB93E03B
:102770000E94AC10A981BA818A0E9B1EF401868743
:102780000F5FD70113968C91F60183809480081710
:1027900030F3D4011D968C939CC0C601FB0161816E
:1027A00043E594C0242F30E0DB0113968C9190E038
:1027B00004962817390709F093C08091BF039091C0
:1027C000C003009721F060E872E00E94151CF70139
:1027D000918180E02281A22EBB24A82AB92A04E09C
:1027E0000FC0C601B501D70114964C9120E00E949C
:1027F000DC110F5F0894E11CF11C0894A11CB11CB2
:10280000011778F36DC08091BF039091C0030097CA
:1028100021F066E672E00E94151CD6011396ED9138
:10282000FC91149712968C91129786871396ED91CE
:10283000FC91149781E032C0F60163817481625F7C
:102840007F4FC6010E942511D6011396ED91FC9190
:1028500014978AE029C01250C601FB016181412F03
:1028600022E030E0E20EF31E97010E94C51038C04E
:102870008091BF039091C003009721F065E572E05D
:102880000E94151CD6011396ED91FC91149783E0DC
:1028900086871396ED91FC91149786E087871396AF
:1028A000ED91FC91149782E0858713C012509B0133
:1028B0002E5F3F4FC601FB016181412F0E94C51071
:1028C000C601D70111966C9111974C910E94F61098
:1028D0000FC0F6018381948160E00E944B1810C004
:1028E000D60113968D919C9114970E94211908C0CE
:1028F000D6011396ED91FC91149789E68687E9CF6E
:102900000F900F90CF91DF911F910F91FF90EF905B
:10291000DF90CF90BF90AF909F908F900895FC0173
:1029200087EA91E091838083CF010E94971D0895EB
:10293000FC0181EB91E091838083E25BFF4F619327
:102940007193408336961082E85BFF4F119211928B
:102950001192119282ED90E0918380830895FC01A1
:1029600081EB91E0918380830895FC01EE5AFF4F43
:1029700060817181828193810895FF920F931F93EB
:10298000CF93DF93EC01F62E062F10E08091BF036A
:102990009091C003009751F0B80124E075956795B8
:1029A0002A95E1F740E150E00E942A1D8091BF0383
:1029B0009091C003009739F00F701070B80140E19A
:1029C00050E00E942A1D8091BF039091C0030097A0
:1029D00021F06AE771E00E943D1D8F2D8C5F8330EE
:1029E00080F4C25BDF4FE881F981CE54D040A081F2
:1029F000B1812D913C91CF016CEFF90109958FE7E1
:102A0000F822C25BDF4FE881F981A081B1812D916D
:102A10003C91CF016F2DF9010995DF91CF911F9165
:102A20000F91FF900895BC018091BF039091C00366
:102A3000009711F00E94151C08954F925F926F92BB
:102A40007F928F929F92AF92BF92CF92DF92EF923E
:102A5000FF920F931F93CF93DF938C015EE4A52E1B
:102A6000B12CA80EB91E4EE9842E912C880E991E09
:102A700031E5C32ED12CC80ED91E22E0622E20E1F2
:102A8000722E55245A9494E0492E89E0E82E6FC1A5
:102A90000E94F11DD4016D937D938D939C931397A8
:102AA000F501A081B181ED91FC9111970680F7812C
:102AB000E02DCD010995F82EFDEF8F1721F483EA63
:102AC00092E00E941315CF2DD0E08091BF0390912A
:102AD000C003009751F0BE01B4E075956795BA95B3
:102AE000E1F740E150E00E942A1D8091BF039091E0
:102AF000C003009739F0CF70D070BE0140E150E0C4
:102B00000E942A1D8091BF039091C003009721F07D
:102B10006AE771E00E943D1D8CEFF81639F4D6018A
:102B20008C9181FD03C082608C9321C18F2D8D5FBC
:102B30008230E8F5F0921104F601808181608D7F8A
:102B400080831092C4031092C30310920804109261
:102B5000090410920A0410920B0410920D041092B2
:102B60000E0410920F04109210045F2D2FEF3FEF10
:102B700040E0C901880F991F57FD816037FD02C0F1
:102B80009C0103C09C01262537254F5F483011F07A
:102B9000550FEFCF3093C2032093C103FDEFFF1613
:102BA00009F0E5C04092C603E092C503E0C0D6013B
:102BB0008C9180FFDCC081FF05C0B0E8FB2A8D7FCF
:102BC000F60180832091C1033091C2035F2D40E064
:102BD000C901880F991F57FD816037FD02C09C0114
:102BE00003C09C01262537254F5F483011F0550F53
:102BF000EFCF3093C2032093C1036091C303809150
:102C0000C6036817E8F420910D0430910E0440913A
:102C10000F0450911004542F432F322F22278F2D51
:102C200090E0A0E0B0E0822B932BA42BB52B8093F7
:102C30000D0490930E04A0930F04B09310042CC0C5
:102C4000681731F46F5F6093C303F0920C048FC078
:102C500050910C0453FF24C08091C503681700F500
:102C6000209108043091090440910A0450910B040A
:102C7000542F432F322F22278F2D90E0A0E0B0E079
:102C8000822B932BA42BB52B8093080490930904DB
:102C9000A0930A04B0930B046F5F6093C30367C0F3
:102CA0006F3F29F05092C303F092070460C0409137
:102CB000C403E42FF0E0C7ECD3E0EC0FFD1FF0827B
:102CC000942F9F5F9093C40380910704981709F095
:102CD0004EC0232B09F047C0F801EF5AFF4F808107
:102CE0008E7F808304561F4F80911104D8018C93EE
:102CF0000554104080910D0490910E04A0910F0492
:102D0000B0911004F80180839183A283B3830A5B9E
:102D10001F4FD8015C930D59104080910804909189
:102D20000904A0910A04B0910B04F80184839583EF
:102D3000A683B7834150055A1F4FD8014C930B55BA
:102D400010409801245A3F4FC901BE0150E00E9433
:102D50004E021092C4031092C3030A5A1F4F81E01F
:102D6000F801808313C089E992E00E941315D50110
:102D7000ED91FC91A081B18114962D913C91159714
:102D8000CF01F9010995892B09F082CEDF91CF910E
:102D90001F910F91FF90EF90DF90CF90BF90AF9079
:102DA0009F908F907F906F905F904F9008958F923B
:102DB0009F92AF92BF92CF92DF92EF92FF920F93CA
:102DC0001F93CF93DF937C01FC0180859185A285C1
:102DD000B3858F5F9F4FAF4FBF4FC9F02DE930E0F4
:102DE000E20EF31ED7018C91E3E6FFEFEE0EFF1E1D
:102DF00090E09595879583708295880F807ED701A6
:102E00001C962C911C972F79822B1C968C9380EB0F
:102E100092E00E941315E0E5F0E0EE0EFF1ED701F0
:102E20008C9161E00E94831ED701FE91EE917D019D
:102E300022EB3FEFE20EF31EA081B1812D913C9178
:102E4000CF016DEFF9010995CFEFDFEF3DEF20E006
:102E500042E050E1CE01880F991F37FD8160D7FD18
:102E600002C0EC0103C0EC01C427D5272F5F283036
:102E700011F0330FEFCFD7011896AD90BD90CD90E4
:102E8000DC901B9710E002E0802E00E1902E2D2DAB
:102E9000332744275527022FC701622F0E94BD14F4
:102EA00020E0CE01880F991F07FD8160D7FD02C089
:102EB000EC0103C0EC01C825D9252F5F283011F0A3
:102EC000000FEFCF1F5F143029F0DC2CCB2CBA2C75
:102ED000AA24DDCFC701F70164850E94BD14D70184
:102EE0001C964C91342F20E062E070E1CE01880FF7
:102EF000991F37FD8160D7FD02C0EC0103C0EC01D2
:102F0000C627D7272F5F283011F0330FEFCF43FFAD
:102F100035C0E2E5F0E0EE0EFF1ED701AD90BD90AA
:102F2000CD90DC90EEEAFFEFEE0EFF1E10E052E0D7
:102F3000852E50E1952E2D2D332744275527022F1E
:102F4000C701622F0E94BD1420E0CE01880F991F97
:102F500007FD8160D7FD02C0EC0103C0EC01C8256C
:102F6000D9252F5F283011F0000FEFCF1F5F1430ED
:102F700029F0DC2CCB2CBA2CAA24DDCFD7011D964E
:102F80000C910E5FC701602F0E94BD1420E042E04B
:102F900050E1CE01880F991F07FD8160D7FD02C067
:102FA000EC0103C0EC01C427D5272F5F283031F492
:102FB000DD24F2E0AF2EF0E1BF2E20C0000FE9CFFC
:102FC00087010D0D111DC701F80166850E94BD1412
:102FD000D8011E963C9120E0CE01880F991F37FD45
:102FE0008160D7FD02C0EC0103C0EC01CA25DB25DE
:102FF0002F5F283011F0330FEFCFD394F701858581
:10300000D816F0F220E042E050E1CE01CC0FDD1FF7
:1030100097FF02C0C427D5272F5F2830B1F720E0E3
:1030200042E050E1CE01CC0FDD1F97FF02C0C42764
:10303000D5272F5F2830B1F7C7016D2F0E94BD142F
:10304000C7016C2F0E94BD142EE430E0E20EF31E87
:10305000F701A191B1917F01ED91FC91119702844B
:10306000F385E02DCD010995D7018D917D0160E0BB
:103070000E94831EF701808188608083DF91CF9159
:103080001F910F91FF90EF90DF90CF90BF90AF9086
:103090009F908F9008954F925F926F927F928F9240
:1030A0009F92AF92BF92CF92DF92EF92FF920F93D7
:1030B0001F93CF93DF93EC01C62E662349F10E9444
:1030C000F11DC256DF4F288139814A815B81CE597B
:1030D000D040621B730B840B950B8E010E551F4F56
:1030E000F8012081318140E050E0621773078407C6
:1030F000950708F48DC062ED70E080E090E026E373
:1031000031E040E050E00E94621DF801718360836D
:1031100088859985AA85BB858F5F9F4FAF4FBF4F2D
:1031200021F08C8583708130C9F480ED92E00E949B
:1031300013156C858091BF039091C003009721F017
:1031400040E150E00E94D81CCE010E94D716FE013B
:10315000EF5AFF4F8081877F808340C0DD24B6E532
:10316000AB2EB12CAC0EBD1EA7E54A2E512C4C0E39
:103170005D1EF2E56F2E712C6C0E7D1EE1E58E2E2C
:10318000912C8C0E9D1ECE010E94D7160E94F11D1F
:103190007B018C0125C0CE010E941D15F5018081A7
:1031A0008823F1F0F2012081318142815381F301C2
:1031B00080819181A281B381281739074A075B0773
:1031C00079F4F50110828AEB92E00E941315CE018A
:1031D0000E942A19F401808183FD02C080E019C099
:1031E0000E94F11D6E197F09800B910B683C7105DF
:1031F0008105910580F2CC20E9F00E94F11D6E1945
:103200007F09800B910B663971058105910590F45A
:1032100081E0DF91CF911F910F91FF90EF90DF90B0
:10322000CF90BF90AF909F908F907F906F905F9066
:103230004F900895D394F3E0DF1609F0A4CF82E015
:10324000E8CFFC0189E184871586CF0160E00E9408
:103250004B1808950F931F93CF93DF93EC018C01CC
:103260000F5A1F4FF801808183FF28C0C356DF4FDC
:103270002881CD59D04030E045E0359527954A95D5
:10328000E1F723708C8590E09595879583702817DA
:10329000A9F42C813D814E815F8188859985AA851D
:1032A000BB85281739074A075B0741F489EE92E08E
:1032B0000E941315F8018081877F8083C356DF4FFA
:1032C0008881CD59D04083708130F9F0C55ADF4FE5
:1032D0008881CB55D0408823D1F4C95ADF4F8881EB
:1032E0009981AA81BB81C755D0408F5F9F4FAF4F57
:1032F000BF4F69F08C819D81AE81BF81888799879E
:10330000AA87BB87CE010E94211980E001C081E01D
:10331000DF91CF911F910F9108950F931F93CF933A
:10332000DF93EC010E941D15FE01EA5AFF4F8081D8
:10333000882309F441C01082C95ADF4F288139819E
:103340004A815B81259788819981AA81BB81C25579
:10335000D040281739074A075B0729F02F5F3F4FF6
:103360004F4F5F4F49F586EF92E00E941315CE0153
:103370000E942A19882301F14A815B81DA01ED91CB
:10338000FC91BE01645A7F4F9E01255A3F4F10E0C9
:10339000C95ADF4F88819981AA81BB818F5F9F4F76
:1033A000AF4FBF4F09F411E00190F081E02DCA0149
:1033B000D9014C91212F0995DF91CF911F910F9148
:1033C00008950F931F938C01DB01CA010E5A1F4F02
:1033D000F80140835183628373830E94801D62EDF4
:1033E00070E080E090E026E331E040E050E00E94B1
:1033F000621D005B1F4FF801718360831F910F9165
:103400000895FC0181EB91E091838083CF010E94BC
:10341000971D0895DC015C968C915C97FD01E80F87
:10342000F11DE35AFF4F20815C968C915C9790E0F0
:1034300001968F7390705C968C935C975696ED9185
:10344000FC91579720835096ED91FC915197808184
:10345000806480835B969C915B975C968C915C9773
:10346000981739F45296ED91FC91539780818F7D96
:1034700080830895DF92EF92FF920F931F93CF9373
:10348000DF93EC017A018B01D22E60E874E88EE1C3
:1034900090E0A80197010E94B321215030404040A4
:1034A00050405695479537952795E889F98982E0E8
:1034B000808380E12030380798F0E889F98910820C
:1034C00060E472E48FE090E0A80197010E94B321CC
:1034D00021503040404050405695479537952795AC
:1034E000EC85FD853083EE85FF852083188EEC8981
:1034F000FD89D082EA89FB89808180618083EA89A5
:10350000FB89808188608083EA89FB89808180686B
:103510008083EA89FB8980818F7D8083DF91CF91D1
:103520001F910F91FF90EF90DF900895FC01218D86
:10353000828D30E0205C3F4F281B31092F733070A3
:10354000C9010895FC01918D828D981719F42FEF10
:103550003FEF06C0828DE80FF11D858D282F30E0EA
:10356000C9010895DC0159969C9159975A968C91FE
:103570005A97981719F42FEF3FEF10C05A968C9175
:103580005A97FD01E80FF11D958D5A968C915A9727
:103590008F5F8F735A968C93292F30E0C90108955D
:1035A000CF93DF93EC01888D882361F419C08C914F
:1035B00085FF0AC0E889F989808185FF05C0CE01B1
:1035C0000E940A1AAA89BB898C9185FD05C0E889E9
:1035D000F989808186FD04C00FB607FEE8CFF4CFDD
:1035E000DF91CF9108950F931F93CF93DF93EC0159
:1035F000062F9B8D8C8D981791F5E889F98980812C
:1036000085FF2DC0EE89FF896083E889F989808173
:10361000806480831DC00FB607FC08C0E889F98963
:10362000808185FF03C0CE010E940A1A8C8D181775
:1036300091F38B8DFE01E80FF11DE35AFF4F0083DC
:103640001B8FEA89FB8980818062808381E0888F7B
:1036500081E090E0DF91CF911F910F9108951B8D34
:103660001F5F1F73E3CF8BEB9BE1892B51F080E051
:1036700090E0892B31F00E94BB1B882311F00E943F
:10368000000008951F920F920FB60F9211242F93EE
:103690008F939F93EF93FF93E0912204F091230483
:1036A000808182FD16C0E0912804F09129042081D8
:1036B00090912B049F5F9F7380912C04981771F059
:1036C000E0912B04F0E0EE5EFB4F258F90932B04EE
:1036D00005C0E0912804F0912904E081FF91EF9169
:1036E0009F918F912F910F900FBE0F901F90189563
:1036F000109215041092140488EE93E0A0E0B0E05C
:103700008093160490931704A0931804B09319049F
:1037100089EB91E0909313048093120485EC90E080
:1037200090931F0480931E0484EC90E090932104F6
:103730008093200480EC90E09093230480932204F3
:1037400081EC90E0909325048093240482EC90E037
:10375000909327048093260486EC90E090932904AC
:103760008093280410922B0410922C0410922D04A4
:1037700010922E04089582E194E00E94961A20E0AF
:10378000892B09F021E0822F08951F920F920FB626
:103790000F9211242F933F934F935F936F937F93D7
:1037A0008F939F93AF93BF93EF93FF9382E194E046
:1037B0000E940A1AFF91EF91BF91AF919F918F9153
:1037C0007F916F915F914F913F912F910F900FBE1D
:1037D0000F901F901895CF92DF92EF92FF920F9368
:1037E0001F93CF93DF937C016B018A01C0E0D0E08F
:1037F0000FC0D6016D916D01D701ED91FC91019043
:10380000F081E02DC7010995C80FD91F0150104064
:103810000115110571F7CE01DF91CF911F910F9125
:10382000FF90EF90DF90CF900895EF92FF920F936B
:103830001F93CF93DF937C018B01C0E0D0E0F801B0
:103840000F5F1F4F6491662359F0D701ED91FC91F2
:103850000190F081E02DC7010995C80FD91FEFCF66
:10386000CE01DF91CF911F910F91FF90EF900895BE
:10387000CF93DF93EC016115710519F420E030E07E
:103880000FC0DB010D900020E9F71197A61BB70BC5
:10389000E881F9810280F381E02DAD0109959C0159
:1038A000C901DF91CF9108954F925F927F928F92DD
:1038B0009F92AF92BF92CF92DF92EF92FF920F93BF
:1038C0001F93DF93CF93CDB7DEB7A1970FB6F894D0
:1038D000DEBF0FBECDBF2C01742ECB01223008F409
:1038E0002AE019A231E2C32ED12CCC0EDD1E822E8D
:1038F0009924AA24BB24672D752FA50194010E9449
:10390000B32179018A01C801B701A50194010E9480
:103910008121472D461B0894C108D1084A3014F470
:10392000405D01C0495CF6014083E114F1040105EA
:10393000110521F07E2C5F2DC801DDCFC201B6013B
:103940000E94381CA1960FB6F894DEBF0FBECDBF03
:10395000CF91DF911F910F91FF90EF90DF90CF906B
:10396000BF90AF909F908F907F905F904F90089501
:10397000DC012115310541F4ED91FC910190F081BC
:10398000E02D642F099508950E94541C0895EF922C
:10399000FF920F931F939A017B0100E010E0B801A2
:1039A000A7010E94B81C1F910F91FF90EF900895FE
:1039B000EF92FF920F931F939A01E62EFF2400E0EF
:1039C00010E0B801A7010E94B81C1F910F91FF9051
:1039D000EF900895CF92DF92EF92FF920F931F9393
:1039E000CF93DF93EC016A017B012115310541F48E
:1039F000E881F9810190F081E02D642F09951FC0C5
:103A00002A303105D1F477FF17C0E881F9810190A0
:103A1000F081E02D6DE209958C0144275527BA010C
:103A20004C195D096E097F09CE012AE00E94541CE1
:103A30009801280F391F04C02AE00E94541C9C01E1
:103A4000C901DF91CF911F910F91FF90EF90DF900F
:103A5000CF900895EF92FF920F931F937B019A01ED
:103A60000027F7FC0095102FB801A7010E94EA1C5F
:103A70001F910F91FF90EF9008950E94381C0895B8
:103A8000EF92FF920F931F937B018C0161157105DB
:103A90008105910529F420E030E040E050E00BC0C2
:103AA0000E943302A80197010E94D521AC01CB01ED
:103AB000DA019C01AD01B901CA011F910F91FF907C
:103AC000EF900895EF92FF920F931F937B018C016B
:103AD000621773078407950764F4261B370B480B9E
:103AE000590BCA01B9010E94401DE60EF71E081FBE
:103AF000191FB701C8011F910F91FF90EF90089512
:103B0000009729F0BC0180E090E00E9438020895FF
:103B1000CF93DF930E94091E0E946208C3E3DBE19A
:103B20000E94140A2097E1F30E94331BF9CF0E94F0
:103B3000C71F08950E942A1F08951F920F920FB663
:103B40000F9211242F933F934F935F936F937F9323
:103B50008F939F93AF93BF932091B3043091B4049C
:103B60004091B5045091B6047091B704DA01C901CF
:103B70000296A11DB11D672F6A5F6D3730F06D573A
:103B8000DA01C9010396A11DB11D6093B7048093AA
:103B9000B3049093B404A093B504B093B604809199
:103BA000AF049091B004A091B104B091B204019619
:103BB000A11DB11D8093AF049093B004A093B104F4
:103BC000B093B204BF91AF919F918F917F916F910C
:103BD0005F914F913F912F910F900FBE0F901F90CB
:103BE00018958FB7F8942091B3043091B4044091A4
:103BF000B5045091B6048FBFB901CA010895019769
:103C000039F0019729F0880F991F01970197F1F773
:103C10000895789484B5826084BD84B5816084BD44
:103C200085B5826085BD85B5816085BDEEE6F0E035
:103C3000808181608083E1E8F0E010828081826091
:103C40008083808181608083E0E8F0E08081816012
:103C50008083E1EBF0E0808184608083E0EBF0E042
:103C6000808181608083EAE7F0E0808184608083E6
:103C70008081826080838081816080838081806890
:103C800080831092C1000895CF93DF93482F50E0B6
:103C9000CA01835C9C4FFC013491475D5C4FFA0183
:103CA0008491882369F190E0880F991FFC01E55FFA
:103CB000FC4FA591B491FC01EB5EFC4FC591D491F2
:103CC000662351F42FB7F8948C91932F9095892304
:103CD0008C93888189230BC0623061F42FB7F894EC
:103CE0008C91932F909589238C938881832B888343
:103CF0002FBF06C09FB7F8948C91832B8C939FBFE6
:103D0000DF91CF910895482F50E0CA018F5A9C4F00
:103D1000FC012491CA01835C9C4FFC019491475D96
:103D20005C4FFA013491332309F440C0222351F14E
:103D3000233071F0243028F42130A1F0223011F525
:103D400014C02630B1F02730C1F02430D9F404C0BB
:103D5000809180008F7703C0809180008F7D809359
:103D6000800010C084B58F7702C084B58F7D84BD7C
:103D700009C08091B0008F7703C08091B0008F7D23
:103D80008093B000E32FF0E0EE0FFF1FEB5EFC4FDF
:103D9000A591B4912FB7F894662321F48C91909556
:103DA000892302C08C91892B8C932FBF0895682F93
:103DB00070E0CB018F5A9C4FFC012491CB01835CB6
:103DC0009C4FFC014491675D7C4FFB0194919923CA
:103DD00019F420E030E03CC0222351F1233071F08F
:103DE000243028F42130A1F0223011F514C02630FF
:103DF000B1F02730C1F02430D9F404C080918000A4
:103E00008F7703C0809180008F7D8093800010C0E9
:103E100084B58F7702C084B58F7D84BD09C0809141
:103E2000B0008F7703C08091B0008F7D8093B00089
:103E3000892F90E0880F991F815E9C4FFC01A5910E
:103E4000B4918C9120E030E0842311F021E030E047
:103E5000C90108950F931F93CF93DF93BC01823064
:103E6000910510F462E070E0E091BA04F091BB04B7
:103E700040E050E0A0E0B0E024C08081918186174E
:103E80009707D0F08617970771F482819381109776
:103E900029F013969C938E9312972CC09093BB0499
:103EA0008093BA0427C04115510519F0841795076E
:103EB00018F48D01AC01EF01DF01828193819C0137
:103EC000F9013097D1F641155105F9F0CA01861B69
:103ED000970B8430910580F48A819B81011511052F
:103EE00021F0F8019383828304C09093BB048093F4
:103EF000BA04FE01329645C0FE01E80FF91F619336
:103F000071930297998388833CC08091B804909103
:103F1000B904892B41F4809183019091840190939D
:103F2000B9048093B80440918501509186014115F0
:103F3000510541F44DB75EB78091810190918201A6
:103F4000481B590B2091B8043091B9042417350748
:103F5000B0F4CA01821B930B8617970780F0AB0160
:103F60004E5F5F4F8417950750F0420F531F5093D9
:103F7000B9044093B804F9016193719302C0E0E081
:103F8000F0E0CF01DF91CF911F910F910895CF9372
:103F9000DF939C01009709F48FC0EC0122971B82EC
:103FA0001A826091BA047091BB046115710581F4A5
:103FB00088819981820F931F2091B8043091B904B0
:103FC0002817390739F5D093B904C093B80474C0E1
:103FD000DB0140E050E0AC17BD0708F1BB83AA83CA
:103FE000FE0121913191E20FF31FAE17BF0779F463
:103FF0008D919C911197280F391F2E5F3F4F398368
:10400000288312968D919C9113979B838A834115E7
:10401000510571F4D093BB04C093BA044DC01296FD
:104020008D919C911397AD01009711F0DC01D3CFD6
:10403000DA011396DC93CE931297FA012191319114
:10404000E20FF31FCE17DF0769F488819981280FEB
:10405000391F2E5F3F4FFA01318320838A819B8174
:1040600093838283E0E0F0E0DB0112968D919C91D6
:104070001397009719F0BC01FD01F6CFAB014E5F1D
:104080005F4FDB018D919C91840F951F2091B804A7
:104090003091B9042817390779F4309729F4109230
:1040A000BB041092BA0402C01382128242505040E4
:1040B0005093B9044093B804DF91CF91089504D090
:1040C0006894B111B5C0089598D088F09F5790F0CA
:1040D000B92F9927B751A0F0D1F0660F771F881F2D
:1040E000991F1AF0BA95C9F712C0B13081F09FD06C
:1040F000B1E008959CC0672F782F8827B85F39F00A
:10410000B93FCCF3869577956795B395D9F73EF48B
:1041100090958095709561957F4F8F4F9F4F089533
:10412000E89409C097FB3EF4909580957095619551
:104130007F4F8F4F9F4F9923A9F0F92F96E9BB2707
:104140009395F695879577956795B795F111F8CF83
:10415000FAF4BB0F11F460FF1BC06F5F7F4F8F4FEE
:104160009F4F16C0882311F096E911C0772321F0E4
:104170009EE8872F762F05C0662371F096E8862F7C
:1041800070E060E02AF09A95660F771F881FDAF7D3
:10419000880F9695879597F9089597F99F6780E816
:1041A00070E060E008959FEF80EC089500240A9489
:1041B0001616170618060906089500240A94121602
:1041C0001306140605060895092E0394000C11F435
:1041D000882352F0BB0F40F4BF2B11F460FF04C0E2
:1041E0006F5F7F4F8F4F9F4F089557FD9058440F3B
:1041F000551F59F05F3F71F04795880F97FB991F46
:1042000061F09F3F79F08795089512161306140602
:10421000551FF2CF4695F1DF08C01616170618068F
:10422000991FF1CF86957105610508940895E8946A
:10423000BB2766277727CB0197F908950BD0C4CF0A
:10424000B5DF28F0BADF18F0952309F0A6CFABCF81
:104250001124EECFCADFA0F3959FD1F3950F50E064
:10426000551F629FF001729FBB27F00DB11D639F28
:10427000AA27F00DB11DAA1F649F6627B00DA11DCE
:10428000661F829F2227B00DA11D621F739FB00D74
:10429000A11D621F839FA00D611D221F749F3327E4
:1042A000A00D611D231F849F600D211D822F762F7D
:1042B0006A2F11249F5750408AF0E1F088234AF07A
:1042C000EE0FFF1FBB1F661F771F881F91505040C6
:1042D000A9F79E3F510570F060CFAACF5F3FECF386
:1042E000983EDCF3869577956795B795F795E795B2
:1042F0009F5FC1F7FE2B880F911D9695879597F9C3
:104300000895629FD001739FF001829FE00DF11D1F
:10431000649FE00DF11D929FF00D839FF00D749F3F
:10432000F00D659FF00D9927729FB00DE11DF91FEB
:10433000639FB00DE11DF91FBD01CF011124089548
:1043400097FB092E07260AD077FD04D049D006D066
:1043500000201AF4709561957F4F0895F6F79095B7
:1043600081959F4F0895A1E21A2EAA1BBB1BFD0148
:104370000DC0AA1FBB1FEE1FFF1FA217B307E40744
:10438000F50720F0A21BB30BE40BF50B661F771F9C
:10439000881F991F1A9469F760957095809590957C
:1043A0009B01AC01BD01CF01089597FB092E0526A5
:1043B0000ED057FD04D0D7DF0AD0001C38F450953A
:1043C0004095309521953F4F4F4F5F4F0895F6F739
:1043D00090958095709561957F4F8F4F9F4F089571
:1043E000AA1BBB1B51E107C0AA1FBB1FA617B7071B
:1043F00010F0A61BB70B881F991F5A95A9F7809537
:104400009095BC01CD010895EE0FFF1F0590F4912A
:10441000E02D09942F923F924F925F926F927F927C
:104420008F929F92AF92BF92CF92DF92EF92FF92C4
:104430000F931F93CF93DF93CDB7DEB7CA1BDB0B70
:104440000FB6F894DEBF0FBECDBF09942A88398815
:1044500048885F846E847D848C849B84AA84B9841C
:10446000C884DF80EE80FD800C811B81AA81B98128
:10447000CE0FD11D0FB6F894DEBF0FBECDBFED013C
:10448000089513E0CAE6D3E004C0FE010E940622AC
:0C4490002296CC36D107C9F7F894FFCF74
:10449C004368616E6E656C20202020203A20000D50
:1044AC000A004D696E20496E74657276616C3A2013
:1044BC00004D617820496E74657276616C3A20000B
:1044CC0044656C74612054656D7020203A20004363
:1044DC00757272656E742054656D703A20004C6173
:1044EC0073742054656D702020203A200053697A33
:1044FC006520202020202020203A20002000487514
:10450C0068750A002530376C75003A000100000010
:10451C00FF8000BC040000000000000005FF040147
:10452C0005410500000000E60CEB1BCC0CAB0CF1BC
:10453C000DE00D000000001213BF108F14000000DE
:10454C0000AF14011A00000000F31AEB1B961AB20C
:06455C001AA21AD01A0099
:00000001FF
